:020000040800F2
:1000000098070020A101000883300008692A000831
:1000100081300008B5080008F9330008000000002E
:100020000000000000000000000000008730000811
:10003000E90B000800000000853000088930000846
:10004000BB010008BB010008BB010008BB010008A0
:10005000BB010008BB010008BB010008BB01000890
:10006000BB010008BB010008BB010008BB01000880
:10007000BB010008BB010008BB010008BB01000870
:10008000BB010008BB01000881070008BB01000894
:10009000BB010008BB010008BB010008BB01000850
:1000A000BB010008BB010008BB010008BB01000840
:1000B000BB010008BB010008BB010008BB01000830
:1000C000BB010008BB010008BB010008BB01000820
:1000D000BB010008E1330008ED330008BB01000854
:1000E000BB010008BB010008BB010008BB01000800
:1000F000BB010008BB010008BB010008BB010008F0
:10010000BB010008BB010008BB010008BB010008DF
:10011000BB010008BB010008BB010008BB010008CF
:10012000BB010008BB010008BB010008BB010008BF
:10013000BB010008BB010008BB010008BB010008AF
:10014000BB010008BB010008BB010008BB0100089F
:10015000BB010008BB010008BB010008BB0100088F
:10016000BB010008BB010008BB010008BB0100087F
:10017000BB010008BB010008BB0100080000000033
:10018000BB010008BB010008DFF810D000F076FAD0
:1001900000480047D53E0008AFF3008098070020D4
:1001A0000648804706480047FEE7FEE7FEE7FEE711
:1001B000FEE7FEE7FEE7FEE7FEE7FEE71131000897
:1001C000890100082DE9F05F0546002092469B4614
:1001D00088460646814640241BE02846414647465D
:1001E000224600F083F853465A46C01A914110D374
:1001F00011461846224600F06AF82D1A67EB0108EE
:100200004F4622460120002100F061F817EB00095B
:100210004E41201EA4F10104DFDC484631462A4647
:100220004346BDE8F09F40EA01039B0703D009E085
:1002300008C9121F08C0042AFAD203E011F8013BD2
:1002400000F8013B521EF9D27047D2B201E000F82B
:10025000012B491EFBD270470022F6E710B513466A
:100260000A4604461946FFF7F0FF204610BD421C1F
:1002700010F8011B0029FBD1801A704700F00042E2
:1002800030F000400AD0C10D01F56071C0F31600D6
:1002900042EA0151C208400711437047002001465D
:1002A000704730B50B46014600202022012409E0AA
:1002B00021FA02F59D4205D303FA02F5491B04FA1F
:1002C00002F52844151EA2F10102F1DC30BD202AFE
:1002D00004DB203A00FA02F1002070479140C2F19D
:1002E000200320FA03F3194390407047202A04DBCF
:1002F000203A21FA02F00021704721FA02F3D0409F
:10030000C2F1200291400843194670472DE9FE4F83
:10031000804681EA0300C00F0C46009021F00041A6
:1003200023F00045B8EB0200A94105D24046214622
:1003300090461C460B46024623F00040104347D02F
:10034000270DC7F30A00C3F30A510290401A019027
:1003500040286BDAC3F3130040F4801B00989246E8
:1003600020B10023D2EB030A63EB0B0B0198594633
:10037000C0F140025046FFF7AAFF06460D46504620
:100380005946019A00F08CF910EB080061410024F5
:1003900087EA115284EAE7731A4340D0009A62B3A5
:1003A000019A012A4FEA075215DC001B61EB02019A
:1003B0004FF0004202EA0752CDE90042001C41F52D
:1003C000801132462B4600F08CF903B0BDE8F08F67
:1003D00040462146F9E7001B61EB0201001C41F594
:1003E000801300185B412018A2F5001747EB0301AA
:1003F00040EAD570B6196D4111E06D084FEA360636
:1004000045EAC0754FEA0752001B61EB0201001C70
:1004100041F5801149084FEA300000195141324638
:100420002B4603B0BDE8F04F00F04CB90098012214
:1004300040000023D0EB020263EBE07300982146FA
:100440004FEAE074B8EB000061EB0401E9E783F0E8
:1004500000435BE781F0004158E72DE9FE4F81EA58
:10046000030404F0004421F0004100944FF0000B1D
:1004700023F0004350EA01045ED052EA03045BD04B
:10048000C3F30A54C1F30A552C44A4F2F334019483
:10049000A0FB0254C1F3130141F48011C3F3130311
:1004A00043F4801301FB024400FB034E840A970AC5
:1004B00044EA815447EA8357A4FB076802958D0AF2
:1004C00005FB07854FEA932C04FB0C542705029D7E
:1004D0004FEA065847EA1637B5EB08056EEB070CEE
:1004E000870E920E47EA811742EA8312A7FB0201A8
:1004F000B6EB0B0164EB00042B0D43EA0C335E18E2
:1005000044EB1C50DA465146E7FB0201C5F31304E5
:100510004FEA0B3343EA14534FEA0432019C43EA97
:100520000603A4F10C040294009CCDE900B400F091
:10053000D8F803B0BDE8F08F00200146F9E72DE9B7
:10054000F04D81EA030404F0004B21F0004514460D
:100550004FF0000A23F0004150EA050220D054EA8F
:1005600001021DD0C5F30A570246C5F31303C1F3B8
:100570001300C1F30A5640F4801543F48013A7EB2F
:100580000608101BD64608F2FD3873EB050002D3AF
:1005900008F1010801E092185B41B8F1000F03DA9D
:1005A00000200146BDE8F08D00204FF48011064682
:1005B00084460EE0171B73EB050705D3121B63EB94
:1005C000050306434CEA010C49084FEA3000921833
:1005D0005B4150EA0107EDD152EA030012D082EAF2
:1005E000040083EA0501084305D0101BAB4106D285
:1005F0000122002306E000224FF0004302E06FF0EA
:10060000010253101AEB06004CEB085110EB0A00E4
:1006100041EB0B01BDE8F04D00F054B8C1F30A52B4
:10062000C1F3130140F2FF3341F480119A4202DA20
:1006300000200146704740F233439A42A2F233420F
:1006400002DC5242FFF752BEFFF741BE30B5041E36
:1006500071F1000404DB4FF00044404264EB0101FF
:10066000141E73F1000405DB1C464FF00043524298
:1006700063EB0403994208BF904230BD064C074D1E
:1006800006E0E06840F0010394E807009847103462
:10069000AC42F6D3FFF77CFD4045000860450008FA
:1006A000202A06DBCB17203A41FA02F043EAE07336
:1006B00006E041FA02F3D040C2F120029140084323
:1006C0001946704710B5141E73F1000408DA401C77
:1006D00041F1000192185B411A4301D120F0010061
:1006E00010BD2DE9F04D92469B4611B1B1FA81F251
:1006F00002E0B0FA80F220329046FFF7E8FD0446AF
:100700000F4640EA0A0041EA0B0153465A460843A5
:1007100013D0114653EA010019D0C8F140025046E7
:10072000FFF7E4FD05460E46504659464246FFF7A0
:10073000CEFD084305D0012004E020463946BDE83F
:10074000F08D0020054346EAE0762C4337430A98B3
:100750006305E40AA0EB08000022FD0A44EA4754BE
:100760000A3002D500200146E9E701051019694168
:10077000DDE9084500196941BDE8F04DA2E7000038
:10078000014801F017B800005C020020464910B58E
:100790004A6822F440324A604A6843681A434A6011
:1007A00001684A6822F480724A6001684A680369F5
:1007B00042EA03224A6001684A6822F040724A60B5
:1007C00001684A6883681A434A6001688A6822F4AB
:1007D00000628A6001688A68C3681A438A60816A15
:1007E0006FF07062D14201688A6822F070628A609C
:1007F00001688A680CD0836A1A438A6001688A6833
:1008000022F040528A6001688A68C36A1A4301E094
:1008100022F040528A6001688A6822F002028A60EF
:1008200001688A68037E42EA43028A6090F82010D9
:10083000002901684A680FD042F400624A600168EA
:100840004A6822F460424A6001684A68174C436A69
:1008500004EB43331A4301E022F400624A6001686A
:10086000CA6A22F47002CA620168CA6A838B104C99
:1008700004EB03531A43CA6201688A6822F40072C7
:100880008A6001688A6890F8303042EA43228A60C0
:1008900001688A6822F480628A6001688A68406917
:1008A00042EA8020886010BD0023014000E0FFFF85
:1008B0000000F0FFFEE700002DE9F84F02F012FA09
:1008C0000121084602F0BEFA00219EA002F052FA71
:1008D0000421022002F0B6FA0021A0A002F04AFA98
:1008E000A0A00125D0E9014A0027DFF884824FF457
:1008F000FA7B4FF4FA69066803F068FB88F8000099
:1009000044287DD0202857D0142001F067F8012D0D
:100910000ED0022D11D0032D1AD0042D1DD0052D7F
:100920004DD0062D5CD0072D6FD0082D7ED041E034
:1009300098F8000060F30F2645E098F8000060F397
:10094000174651E0022002F07DFA002189A02FE035
:1009500098F8000060F31F665BE098F800000090D4
:1009600060F307040721022002F06CFA009802F0FD
:10097000A9FA584601F032F80721022002F062FA83
:1009800000217CA002F0F6F94FF47A7001F026F80D
:1009900002F0A8F90121084602F054FA002176A0DD
:1009A00002F0E8F90421022002F04CFA00216BA0C9
:1009B00002F0E0F96D1CEDB2012F51D091E098F8F2
:1009C000000060F30F2400900421022002F03AFAA4
:1009D000009802F077FA584601F000F80421B1E7D8
:1009E00098F8000060F3174400900521022002F0FF
:1009F00029FA009802F066FA584600F0EFFF02E08C
:100A000072E002E012E005219CE798F8000060F334
:100A10001F6400900621022002F014FA009802F0F0
:100A200051FA584600F0DAFF06218BE798F800509B
:100A3000504665F3070082460721022002F002FAC1
:100A4000284602F03FFA584600F0C8FF072102206E
:100A500002F0F8F9002147A002F08CF901270925DE
:100A6000C6F30720C4F3072188423FD1C6F30740ED
:100A7000C4F30741884239D1300E210E884235D166
:100A80002106B1EB0A6F31D102F02CF901210846A1
:100A900002F0D8F900213EA002F06CF93E48310A7C
:100AA0000170310C4170310E8170C470484600F005
:100AB00095FF0121084602F0C5F9002137A002F098
:100AC00059F90421022002F0BDF9002123A002F00F
:100AD00051F90121042002F0B5F9002133A002F000
:100AE00049F9092D7FF408AFBDE8F88F01250027EB
:100AF00002F0F8F80121084602F0A4F9002131A023
:100B000002F038F9484600F069FF0121084602F07A
:100B100099F900212FA002F02DF9484600F05EFF60
:100B20000121084602F08EF9002106A002F022F908
:100B30000421022002F086F9002108A002F01AF92F
:100B4000DAE60000456E746572206E65772070618C
:100B50007373776F72643A2000000000232323230D
:100B60000000000035202020202020202000000050
:100B7000270000202A000000436F6E6669726D2016
:100B80006E65772070617373776F72640000000088
:100B9000446F6E652120000007000020456E7465DB
:100BA000722050617373776F7264200020202020C0
:100BB000202020202020202020443D436C6F73659E
:100BC000000000004469646E2774206D61746368DE
:100BD0002120000054727920416761696E21202034
:100BE0002020202000000000704700002DE9F04187
:100BF0004FF496754FF4FA7703F0DEF80446384662
:100C000000F0ECFE74B1012C38D0022C25D0032C5E
:100C10003DD002F067F80121084602F013F90021E7
:100C2000BEA03CE002F05EF80121084602F00AF99D
:100C30000021BEA002F09EF84FF47A76304600F014
:100C4000CDFE012003F014F90446384600F0C6FE3C
:100C5000062C7CDA002C7AD124E002F043F82846F6
:100C600000F0BCFE0121084602F0ECF80021B3A020
:100C700002F080F8284600F0B1FEBDE702F032F83D
:100C80000121084602F0DEF80021ADA007E002F0E5
:100C900029F80121084602F0D5F80021ADA002F0A4
:100CA00069F8A9E702F01EF80121084602F0CAF827
:100CB0000021ACA002F05EF8304600F08FFE02F09A
:100CC00011F80121084602F0BDF80021A8A002F0A9
:100CD00051F83C46384600F081FE00BF03F06CF846
:100CE0000746204600F07AFE022FF7D12F46254610
:100CF00003F062F80446284600F070FE74B1012C3F
:100D000037D0022C24D0032C3CD001F0EBFF012182
:100D1000084602F097F8002199A03BE001F0E2FFBD
:100D20000121084602F08EF8002199A002F022F875
:100D3000304600F053FE022003F09AF8044628469D
:100D400000F04CFE062C44DA002C42D125E040E0B5
:100D500001F0C8FF384600F041FE0121084602F0CC
:100D600071F800218EA002F005F8384600F036FE3A
:100D7000BEE701F0B7FF0121084602F063F8002149
:100D80006FA007E001F0AEFF0121084602F05AF81B
:100D9000002170A001F0EEFFAAE701F0A3FF0121FE
:100DA000084602F04FF800217EA001F0E3FFB046B4
:100DB000304600F013FE02F09FFF04462E46284600
:100DC00000F00CFE012524B3012C05D00A2C0CD018
:100DD0002EE02046BDE8F08101F084FF01210846A5
:100DE00002F030F8002166A063E001F07BFF0121F2
:100DF000084602F027F800216DA001F0BBFF012199
:100E0000042002F01FF800216CA001F0B3FF0A20BB
:100E1000E0E7704F387803F02BFB0446304600F0D3
:100E2000DDFDC4B1012C3CD00B2C4ED0182C60D071
:100E300001F058FF0121084602F004F8002150A0FB
:100E400001F098FF0121042001F0FCFF00215BA0CC
:100E500001F090FFBDE701F045FF0121084601F0D8
:100E6000F1FF00215CA001F085FF0921012001F0C4
:100E7000E9FF387800EE100A59A0B8EE400A01F0F8
:100E800064FF0121042001F0DDFF00214BA001F0EF
:100E900071FF404600F0A2FD642000F09FFD01209C
:100EA00098E701F01FFF0121084601F0CBFF002168
:100EB00023A001F05FFF0121042001F0C3FF002106
:100EC0003EA001F057FF284684E701F00BFF012107
:100ED000084601F0B7FF002129A001F04BFF0121D6
:100EE000042001F0AFFF002134A001F043FF0B20EC
:100EF00070E701F0F7FE0121084601F0A3FF002191
:100F00001FA001F037FF0121042001F09BFF002109
:100F10002AA001F02FFF18205CE7000049556E6BF6
:100F20006E6F776E206572726F720000496D616737
:100F3000652074616B656E31000000002E31000089
:100F4000436F6D6D756E69636174696F6E20657254
:100F5000726F7200496D6167696E67206572726FAA
:100F60007200000043686172616374657231000051
:100F700052656D6F76652066696E67657200000068
:100F8000556E6B6E6F776E206572726F7200000027
:100F9000496D6167652074616B656E320000000009
:100FA0002E32000043686172616374657232000022
:100FB0004E6F74206D617463680000002020202053
:100FC000202020202020202020443D436C6F73658A
:100FD000000000002500002053746F72656420003B
:100FE00049443A252E30660070B502F0EFFF464CBA
:100FF0004128207031D101F075FE0121042001F05B
:1010000021FF002141A001F0B5FE4FF4FA763046F1
:1010100000F0E4FC414D00BF00F0D8FA287002F067
:10102000D5FF2070297801291BD04428F4D100BFB6
:1010300001F058FE0121084601F004FF002138A00C
:1010400001F098FE0121022001F0FCFE002138A0F1
:1010500001F090FE304600F0C1FC207842281AD002
:101060004DE0384D00228021284600F0AAFD0121E4
:10107000042001F0E7FE002133A001F07BFE00BF59
:1010800002F0A4FF20704428FAD1012280212846D2
:1010900000F097FDCCE701F025FE0121084601F0A4
:1010A000D1FE00212EA001F065FE0421022001F0F6
:1010B000C9FE00212EA001F05DFE0121042001F0F7
:1010C000C1FE00212CA001F055FE642000F086FC3A
:1010D00000F058F820784428FAD101F003FE0121ED
:1010E000084601F0AFFE00210DA001F043FE0121F2
:1010F000022001F0A7FE00210DA001F03BFEBDE89B
:101100007040642000F06ABC27000020486F6C64C7
:1011100020443A204261636B2E200000260000200C
:10112000413A20517565742076616E2074617900B2
:10113000423A204E686170206D6174206B68617561
:10114000000000000000024020202020202020205D
:101150002020202020443D436C6F73650000000078
:1011600020456E7465722050617373776F726400EE
:101170002323232300000000443A204261636B2EA6
:10118000200000002DE9F04702F020FFCA4ECB4FAF
:101190004FF00108FC1F3070202860D021784FF4F8
:1011A000FA7591B938700421022001F04BFE3878AD
:1011B00001F088FE284600F011FC0421022001F015
:1011C00041FE0021BEA001F0D5FD2078012813D1F9
:1011D000307878700521022001F034FE787801F033
:1011E00071FE284600F0FAFB0521022001F02AFEDC
:1011F0000021B3A001F0BEFD2078022813D1307881
:10120000B8700621022001F01DFEB87801F05AFEE8
:10121000284600F0E3FB0621022001F013FE002126
:10122000A7A001F0A7FD2078032815D13078F87029
:101230000721022001F006FEF87801F043FE28465F
:1012400000F0CCFB0721022001F0FCFD00219CA056
:1012500001F090FD84F801802078401C20706078B7
:10126000DFF860A200254FF47A7901287ED19348F7
:101270003978001F0278914279D179784278914289
:10128000FAD1B97882789142F6D1F978C078814262
:10129000F2D101F027FD0121084601F0D3FD002124
:1012A00089A001F067FD484600F098FB00228021EC
:1012B000504600F086FC01F015FD0121084601F0C2
:1012C000C1FD002184A001F055FD0121022001F0A3
:1012D000B9FD002183A001F04DFD0121032001F0A3
:1012E000B1FD002182A001F045FD0121042001F0A3
:1012F000A9FD002183A001F03DFD142000F06EFB4C
:101300002570657084F80280844F4FF4967800BF92
:1013100002F05CFE3070442870D0412823D1404652
:1013200000F05CFB01F0DEFC0121084601F08AFDC3
:1013300000217BA001F01EFD0121022001F082FDB1
:1013400000217AA001F016FD642000F047FB3D70FB
:1013500002F0AAFF387000287CD000BFFFF746FCDF
:101360000028FBD0A5703078422801E080E046E0FC
:1013700005D1642000F032FBFFF79EFAA5703078AB
:10138000432803D0A0780028C2D171E0404600F085
:1013900025FB01F0A7FC0121084601F053FD0021C7
:1013A00066A001F0E7FC0121022001F04BFD0021C5
:1013B0005EA001F0DFFC0121042001F043FD0021CB
:1013C00061A001F0D7FC642000F008FB3D7002F042
:1013D0006BFF387000286DD0387802F0BDFC002813
:1013E000FAD10121084601F02DFD00215CA001F099
:1013F000C1FC642000F0F2FAA57039E03BE001F096
:1014000071FC0121084601F01DFD002158A001F0EA
:10141000B1FC4F46484600F0E1FA01F063FC0121BF
:10142000084601F00FFD002155A001F0A3FC38464D
:1014300000F0D4FA01F056FC0121084601F002FD4B
:10144000002153A001F096FC0421022001F0FAFCD7
:10145000002100E02EE052A001F08CFC01210420CC
:1014600001F0F0FC002150A001F084FC25706570B3
:10147000307844281ED101F035FC0121084601F0E6
:10148000E1FC00214AA001F075FC012280215046B8
:1014900000F097FB484600F0A1FA01F023FC01217F
:1014A000042001F0CFFC002145A001F063FC257071
:1014B0006570A570BDE8F087270000200B000020B4
:1014C0002A0000000000024020202020436F72729A
:1014D0006563742100000000202020204F70656E9D
:1014E00065642100413D456E726F6C6C0000000028
:1014F000423D4368616E67652050617373776F7218
:1015000064000000433D44656C6574652020202024
:1015100020443D436C6F73650000000025000020EF
:10152000456E726F6C6C2049443A200023232320BF
:10153000202028312D3233342900000044656C65A9
:1015400074652049443A20002020202020202020BB
:101550002020202020443D436C6F73650000000074
:1015600044656C657465642049443A2000000000BD
:1015700020202020496E636F727265637421000021
:101580002020202054727920416761696E2100007B
:10159000456E7465722050617373776F72640000DA
:1015A0002323232300000000443A204261636B00A0
:1015B00020202020202020436C6F736564210000D0
:1015C000443A204261636B200000000070B502F0D5
:1015D000F3FB0446642000F001FA54B9642000F0E3
:1015E000FDF9012002F044FC0446642000F0F6F905
:1015F0000CB1FF2070BD4FF49675284600F0EEF94F
:1016000002F000FF04464FF47A7000F0E7F91CB1D5
:10161000284600F0E3F9ECE701F064FB01210846FD
:1016200001F010FC00210AA001F0A4FB0A21012016
:1016300001F008FC02F0E0FE00EE100A06A0B8EE91
:10164000400A01F082FB642000F0C8F9012070BD5F
:101650004F70656E6564210049443A252E3066005E
:101660007047000078B50024009490F83C20012ACF
:1016700019D0012280F83C200A6807230568092A4E
:1016800013D9EE680A3A02EB420293409E43EE60A1
:101690000B788A680A3B03EB43039A400368DD68D2
:1016A0002A43DA6010E0022078BD2E6902EB420284
:1016B00093409E432E610B788A6803EB43039A4064
:1016C00003681D692A431A614A681F23072A13D237
:1016D00005686E6B521E02EB820293409E436E635E
:1016E0000B790A885B1E92B203EB83039A4003686E
:1016F0005D6B2A435A6327E005680D2A12D22E6BD0
:10170000D21F02EB820293409E432E630B790A881C
:10171000DB1F92B203EB83039A4003681D6B2A43DD
:101720001A6311E0EE6A0D3A02EB820293409E4387
:10173000EE620B790A880D3B92B203EB83039A4069
:101740000368DD6A2A43DA62164B0568144A9D4233
:1017500006D10D68122D03D1556845F480055560FA
:1017600005689D4218D10B68102B01D0112B13D1A5
:10177000536843F400035360096810290CD10A49E7
:101780000A4A0968B1FBF2F101EB8101490000E06E
:10179000491E00910029FBD180F83C40002078BD13
:1017A00000230140002001403400002040420F008F
:1017B0007047704770B50446006801684268C1F31D
:1017C0004001C2F3401251B34AB3216CC90603D49D
:1017D000216C41F400712164816811F0405F17D1E0
:1017E000217EA9B9C16A11F4700F02D08168490540
:1017F0000ED4416821F020014160206C20F48070FB
:101800002064206CC00403D4206C40F001002064EC
:101810002046FFF7CDFF21686FF0120008602068B6
:1018200001684268C1F38001C2F3C01289B382B378
:10183000216CC90603D4216C41F4005121648168F4
:1018400011F4401F1ED1816B11F4401F02D081683A
:10185000490517D44168490514D4816811F0405FE7
:1018600010D1217E71B9416821F080014160206C66
:1018700020F480502064206CC00503D4206C40F01C
:10188000010020642046FFF7EBFE21686FF00C009A
:10189000086020680168426811F0010FC2F38012ED
:1018A0000ED06AB10068C0070AD0206C40F48030C6
:1018B0002064204600F046F821686FF001000860BF
:1018C000206801684268C1F34011C2F380620029B8
:1018D0000DD0002A0BD0616C41F0020161646FF001
:1018E000200505602046FFF764FF2068056070BD95
:1018F00070B504004FF0000503D0206C002610B135
:1019000007E0012070BD204600F01EF8666484F8F0
:101910003C60206CC00610D4206C20F4885040F04D
:10192000020020642046FEF731FF6664206C20F040
:10193000020040F00100206400E0012584F83C60D2
:10194000284670BD7047000010B586B004461421CB
:101950006846FEF781FC15492068884224D1144866
:101960000021026842F480720260006800F4807016
:1019700005900F481438026842F0010202600068C6
:1019800000F001000590012000900320CDE9010145
:101990006946084800F034F800221146122000F091
:1019A000C7FB122000F0B6FB06B010BD00200140BE
:1019B000443802400000024090F83510022903D05C
:1019C0008021416501207047052180F835100068AD
:1019D000016821F0010101600020704770B50446E4
:1019E00000F0F4F80546601C02D004480078044476
:1019F00000F0ECF8401BA042FAD370BD2800002094
:101A00002DE9F84F00224FF0010803254FF00F0E8B
:101A10000B6808FA02F42340A3426ED14E68012EEF
:101A200005D0022E03D0112E01D0122E12D18668BD
:101A30004FEA420C05FA0CF7BE43CF6807FA0CF7E1
:101A4000374387604668A6430C79C4F3001494407A
:101A500034434460C668570005FA07FC8C6826EAE0
:101A60000C06BC403443C4604C68022C01D0122CDC
:101A700013D1D40800EB8404A346D4F82090540773
:101A80004FEAD46A0EFA0AF629EA06090E6906FA3E
:101A90000AF646EA0906CBF8206006680C7926EAC1
:101AA0000C0604F00304BC40344304604C68E400BA
:101AB00065D5364C266846F480462660246822F0B8
:101AC000030604F480440094314C3444A446D4F812
:101AD00008489607370F0EFA07F6B4432D4EB0426A
:101AE00001D1002624E02C4EB04201D101261FE096
:101AF0002A4EB04202D102261AE040E0284EB042FF
:101B000001D1032614E0274EB04201D104260FE094
:101B1000254EB04201D105260AE0244EB04201D143
:101B2000062605E0224EB04201D1072600E0082635
:101B3000BE402643CCF808681E4E34684F689C436C
:101B4000FF0300D51C4334601A4C241D26684F68DF
:101B50009E43BF0300D51E432660164E08363468E8
:101B60004F689C43FF0200D51C433460114E0C3675
:101B700034684F689C43BF0200D51C433460521C3C
:101B8000102AFFF445AFBDE8F88F0000443802404A
:101B90000030014000000240000402400008024002
:101BA000000C0240001002400014024000180240E5
:101BB000001C0240003C01400069084000D00120A8
:101BC00070470AB1816170470904FBE701488068EA
:101BD000704700002800002070B5040025D094F85C
:101BE0003D00002520B984F83C50204600F004FA5E
:101BF000242084F83D002068016821F00101016083
:101C00002068016841F4004101602068016821F406
:101C10000041016000F058FB4D4A6168914201D8D3
:101C20004C4900E04C49884201D2012070BD4B492B
:101C30002368B0FBF1F15E6826F03F060E435E605C
:101C40006368934206D94FF4967359434FF47A73FD
:101C5000B1FBF3F12368491C1E6A26F03F063143AD
:101C600019626168914210D84900401EB0FBF1F240
:101C7000521CC2F30B02042A01D2042022E0B0FB62
:101C8000F1F0401CC0F30B001CE0A268F2B301EBC2
:101C9000C10303EB0116431EB3FBF6F35B1C43F4D5
:101CA00080431B0549D092B301EBC10202EB011145
:101CB000401EB0FBF1F0401CC0F30B0040F480402C
:101CC00040F400402168CA694CF6FF739A43104300
:101CD000C861D4E9071001432068026822F0C002FD
:101CE00011430160D4E9030101432068826848F28E
:101CF000FF339A4311438160D4E905010843216809
:101D0000CA6822F0FF021043C86001E00EE016E04E
:101D10002068016841F0010101602564202084F8F9
:101D20003D00256384F83E50002070BD01EB410664
:101D3000431EB3FBF6F35B1CB3E70120C2E701EBE4
:101D40004101401EB0FBF1F0401CC0F30B00B7E7AF
:101D5000A086010080841E0000093D0040420F0063
:101D60002DE9FF4F81B089460446FFF72FFF054656
:101D700094F83D004FF0010820287DD1192301225D
:101D800050492046009500F0FBFE002874D194F8DD
:101D90003C00012870D0012084F83C0020680168D4
:101DA000C90703D1016841F00101016020680168A1
:101DB00021F400610160242084F83D00002626649F
:101DC0004148E0624FF0011B20272068016841F480
:101DD000807101600095002259462046049B00F066
:101DE000CFFE50B120680068C00502D54FF40070E6
:101DF0002064032005B0BDE8F08F216809F0FE00E3
:101E00000861FFF7E3FE2168054648694969C0F3A8
:101E10004000C1F380214FF0A00A0FE0FFF7D6FE8B
:101E2000411B0498814200D808B984F83DA021687C
:101E300048694969C0F34000C1F3802194F83D200E
:101E4000A02A02D008B90029E8D084F83D702068A3
:101E50004169C943890716D4016841F400710160E2
:101E6000206841698069192301221649204600959E
:101E700000F086FEB8B900E021E084F83D7084F8F7
:101E80003C600020B6E7016841F400710160216800
:101E90006FF480604861192301220A4920460095A9
:101EA00000F06EFE08B10120A4E7039808F10108D4
:101EB00080458AD384F83D7084F83C60F3E70220C3
:101EC00098E70000020010000000FFFF2DE9F84F26
:101ED0001F4690468A460446DDF82890FFF776FEB6
:101EE000054694F83D0020287FD11923012240495E
:101EF0002046009500F044FE002876D194F83C007E
:101F0000012872D0012084F83C0020680168C907CC
:101F100003D1016841F0010101602068016821F4EA
:101F200000610160212084F83D00102084F83E000B
:101F300000262664C4F824806785608D20852D489E
:101F4000E0622B464A465146204600F0A5FD90B976
:101F5000206841698069009036E02A46494620465B
:101F600000F08DFE50B1206C042804D12068016877
:101F700041F4007101600120BDE8F88F606A2168BA
:101F800000780861606A401C6062618D491E61854D
:101F9000218D491E89B2218522685369DB435B0785
:101FA0000BD451B100781061606A401C6062608D92
:101FB000401E6085208D401E20852A4649462046C9
:101FC00000F0B8FD0028CED1208D0028C5D154F8EE
:101FD0003D0B016841F400710160202004F81E09E6
:101FE000E67766770020C7E7FFE70220C4E7000036
:101FF000020010000000FFFF10B586B00446142157
:102000006846FEF729F913492068884220D1124812
:10201000016841F0020101600068694600F00200B9
:102020000590C02000901220019001200290032012
:102030000390042004900948FFF7E2FC06481030A2
:10204000016841F400110160006800F4001005907F
:1020500006B010BD00540040303802400004024079
:10206000024881680278114481607047280000208E
:102070000B4810B5016841F400710160016841F43A
:1020800080610160016841F480710160032000F00B
:102090006FF8002000F006F800F024F8002010BDD2
:1020A000003C024070B50D4D04464FF47A7128781B
:1020B000B1FBF0F00A490968B1FBF0F000F002FB57
:1020C00048B9102C07D200222146501E00F030F8EB
:1020D00000206C6070BD012070BD00002800002051
:1020E000340000200A4808B5016841F480410160CD
:1020F000006800F4804000900548001F016841F02E
:1021000080510160006800F08050009008BD000020
:1021100044380240002809DB00F01F0201219140F1
:102120004009800000F1E020C0F800117047000075
:10213000F0B40E4B1B680C46C3F30223C3F1070532
:10214000042D00D90425191D072901D2002300E020
:10215000DB1E012606FA05F1491E214099409E40EA
:10216000761E16403143F0BC01F05CB90CED00E086
:10217000064900F0070208684FF6FF03184040EADE
:102180000220034A10430860704700000CED00E095
:102190000000FA052DE9F0470E46050065D0DFF88E
:1021A0001481D8F80000F7B200F00F00B04207D257
:1021B00088F80070D8F8000000F00F00B04254D149
:1021C00028683D4C810712D5400703D5206840F4AC
:1021D000E05020602878000703D5206840F4604074
:1021E00020602068A96820F0F0000843206028786B
:1021F000C0072DD0304968680839012812D002285C
:1022000013D0032811D00968890700292DDA216825
:1022100021F0030101432160FFF7D8FC814641F220
:10222000883A0EE009688903EFE709688901ECE75D
:10223000FFF7CCFCA0EB0901514502D90320BDE812
:10224000F0872068696800F00C00B0EB810FEFD1D7
:10225000D8F80010404601F00F01B14207D90770CD
:10226000006800F00F00B04201D00120E7E72878B5
:10227000400705D52068E96820F4E0500843206055
:102280002878000706D52068296920F4604040EAD4
:10229000C100206000F038F82168084AC1F303113A
:1022A000515CC8400649086006480068FFF7FAFE1E
:1022B0000020C4E7003C02400838024028450008DE
:1022C000340000202C0000200448054900680968FB
:1022D000044AC1F38221515CC84070473400002099
:1022E0000838024038450008044805490068096874
:1022F000044AC1F34231515CC840704734000020A9
:102300000838024038450008154810B5006810F03C
:102310000C02144813D04110042A0FD0082A0ED101
:102320000F4C241F2268236802F03F025B0207D58E
:102330002068C0F38810A0FB010106E0084610BD2C
:102340002168C1F38811A1FB00010023FDF73AFFCA
:102350002168C1F30141491C4900B0FBF1F010BDF7
:10236000083802400024F4002DE9F84F04006ED034
:102370002078DFF83C93C007A9F104054AD009F1A1
:1023800004000168C1F38101012908D00068C0F38D
:10239000810002280AD1D9F80000400206D5286839
:1023A000800337D560680028E1D033E06068B0F57D
:1023B000803F10D0B0F5A02F286810D020F48030D6
:1023C0002860286820F4802028606068A8B1FFF7A2
:1023D000FDFB06460DE0286840F48030F4E740F449
:1023E00080202860F7E700BFFFF7F0FB801B642820
:1023F00073D828688003F7D50CE0FFF7E7FB0646A3
:1024000005E000BFFFF7E2FB801B6428F0D82868D6
:102410008003F7D42078DFF89C8280074FF0000A11
:102420003ED5A348001D016811F00C0F08D00068CC
:10243000C0F3810002280BD1D9F80000400207D474
:102440002868800716D5E068012800D112E02BE14A
:10245000E068B8B10120C8F80000FFF7B7FB0646F6
:1024600005E000BFFFF7B2FB801B0228C0D8286838
:102470008007F7D52868216920F0F80040EAC100FC
:1024800028600DE0C8F800A0FFF7A0FB064604E0B6
:10249000FFF79CFB801B02281FD828688007F7D411
:1024A0002078000722D5824E83486169703671B169
:1024B00001210160FFF78AFB074604E0FFF786FB76
:1024C000C01B022809D830688007F7D50EE0C0F895
:1024D00000A0FFF77BFB074605E082E0FFF776FBF5
:1024E000C01B02287DD830688007F7D420784007C9
:1024F00068D5DFF8BCB100270BF13C0BDBF800001E
:10250000C0000BD4DBF8001041F08051CBF8001074
:10251000DBF80000012700F080500090674E306823
:10252000C00510D4306840F480703060FFF74EFB77
:10253000009005E0FFF74AFB0099401A022850D8A6
:102540003068C005F6D55A4EA0686C3601280FD009
:102550000528306810D020F001003060306820F08D
:1025600004003060A068B8B1FFF730FB00900FE0C6
:10257000306840F00100F4E740F004003060F7E715
:10258000FFF724FB0099411A41F28830814266D856
:1025900030688007F4D50EE0FFF718FB009007E0E5
:1025A000FFF714FB0099411A41F28830814256D856
:1025B00030688007F4D42FB1DBF8001021F080518F
:1025C000CBF80010A069C8B33949091D0968C1F3E7
:1025D000810102294AD00228504607D0C8F860007D
:1025E00000E03CE0FFF7F2FA04463BE04746C8F85B
:1025F0006000FFF7EBFA064605E000BFFFF7E6FADA
:10260000801B02282BD828688001F7D4D4E9070161
:102610000843A16A2A4A490802EB0141626A41EA79
:102620008211084394F82C1040EA0161C9F80010A7
:1026300001203866FFF7CAFA044606E036E000BF1C
:10264000FFF7C4FA001B022809D828688001F7D5D3
:102650002CE000BFFFF7BAFA001B022802D90320C2
:10266000BDE8F88F28688001F4D41FE00128F7D076
:10267000D9F80000E26900F48001914214D1226A85
:1026800000F03F0191420FD147F6C071626A0140EC
:10269000914209D1A26A00F44031914204D1E16A29
:1026A00000F07060884201D00120D9E70020D7E710
:1026B0000438024000004742800E4742007000404C
:1026C0000000FFFF10B5401EB0F1807F01D3012054
:1026D00010BD4FF0E02460610F21601700F0A2FEF2
:1026E0000020A06107202061002010BD704700007D
:1026F00070B5026804461068D168536910F00F0F76
:1027000052D003F0010501F490762E435FD0C2074A
:1027100005D0CA0503D5E26B42F00102E26342072D
:1027200005D5DA0703D0E26B42F00202E2638207CA
:1027300005D5DA0703D0E26B42F00402E263020738
:1027400007D501F020022A4303D0E26B42F00802D1
:10275000E263E26B002A33D0800604D5880602D5F6
:10276000204600F0F9FC20684069E16BC0F380105E
:10277000090700D428B3204600F0E0FC2068416936
:1027800049061AD5416921F040014161606BA0B151
:102790001B490165606BFFF70FF9002810D0606BD3
:1027A000016DBDE870400847830610D58B060ED535
:1027B0002046BDE8704000F0CFBC2046FFF796FFF2
:1027C00070BD2046FFF792FF0020E06370BD030656
:1027D00006D50B0604D52046BDE8704000F09CBD30
:1027E0004006F3D54806F1D5D168204621F04001D6
:1027F000D160202184F8391000F035F970BD000057
:102800002D31000870B5040004D094F8390000257B
:1028100010B106E0012070BD84F83850204600F069
:1028200023F8242084F839002068C16821F400517D
:10283000C160204600F0DCFC2068016921F4904171
:1028400001612068416921F02A0141612068C16865
:1028500041F40051C160E563202084F8390084F818
:102860003A00002070BD0000F0B587B00446142186
:102870006846FDF7F1FC2A4F23680022294902240B
:10288000032507262848BB4221D1264B14331F6855
:1028900047F010071F601B6803F0100305930B68D7
:1028A00043F001030B60096802AB01F001010591DF
:1028B0006902CDE9001483E864006946FFF7A0F8D7
:1028C000002211462520FFF733FC252023E0174F77
:1028D000BB4222D1134B10331F6847F400371F60EF
:1028E0001B6803F4003305930B6843F001030B608E
:1028F000096802AB01F0010105910C21CDE900143A
:1029000083E864006946FFF77BF800221146262021
:10291000FFF70EFC2620FFF7FDFB07B0F0BD00001F
:1029200000100140303802400000024000440040E6
:1029300090F83A30202B22D1F9B1F2B190F838302A
:10294000012B1CD081628285C2850021C1632222B5
:1029500080F83A2080F838100168CA6842F4807222
:10296000CA6001684A6942F001024A610068C168B0
:1029700041F02001C1600020704701207047022013
:10298000704700000749084B08784A781E281A54F7
:1029900001D2401C0870034903480122491C4038F9
:1029A000FFF7C6BF23000020780300202DE9F8437D
:1029B000044690F839001F4616460D46202850D18F
:1029C000B5B1AEB194F8380001284AD0012084F89E
:1029D00038004FF00008C4F83C80212084F839000A
:1029E000FFF7F4F8A6848146E68484F8388026E070
:1029F0000120BDE8F883E08C401EE084A0684B46CF
:102A0000B0F5805F4FF000024FF080012046009744
:102A100003D000F0B2FCE8B90DE000F0AEFCC8B99C
:102A200028882168C0F308004860206908B16D1C3F
:102A300005E0AD1C03E0216815F8010B4860E08C4F
:102A40000028D8D14B46002240212046009700F0B4
:102A500094FC08B10320CCE7202084F83900002042
:102A6000C7E70220C5E77047FEE701684A69D2431D
:102A700052050FD46FF480624A61002140F8301F84
:102A8000202242738173026942F0040202610173E1
:102A90000120704700207047F8B50446C06A1E4602
:102AA0000D461746082807D0012805D010F5803FAD
:102AB00002D0206B122804D12068016841F4807193
:102AC0000160134600224FF001112046009600F0ED
:102AD00057F840B120680068C00502D54FF4007077
:102AE00020640320F8BD2069B0F5804F0ED0062089
:102AF000216800EAD51040F0F000086133463A46FC
:102B00000B49204600F070F878B902E005F0FE00AD
:102B100000E0E8B221680861054933463A46891F5A
:102B2000204600F061F80028DCD00120F8BD00004C
:102B30000800010070B516460D4604460DE020461B
:102B4000FFF793FF08B1012070BD681C05D0FFF7A7
:102B50003DF8801BA84207D835B120684069C043C2
:102B60004007ECD4002070BD002044F8300F202135
:102B70006173A073216941F0200121612073E2E7B4
:102B80002DE9F0471E4690460D460446C1F307471F
:102B9000DDF8209008E0701C06D0FFF717F8A0EBD6
:102BA0000900B0420FD876B12068012F18D0806993
:102BB00025EA00000004000C14D000214145EAD0B1
:102BC0000020BDE8F087002044F8300F2021617319
:102BD000A073216941F02001216120730120F0E7F9
:102BE0004069E5E70121E9E72DE9F0479A4691467A
:102BF0000E46044600254FF02008C1F3074725E0A4
:102C000020684069C043400514D42068016841F43D
:102C10000071016021686FF480604861256384F869
:102C20003D8084F83E50206C40F00400206484F81D
:102C30003C501FE0B9F1FF3F08D0FEF7C7FFA0EB03
:102C40000A0149450CD8B9F1000F09D02068012FBD
:102C500013D0806926EA00000004000C0BD0CFE7F7
:102C600044F8305F84F80D80A573206940F020009F
:102C7000206125730120BDE8F0874069EAE770B55F
:102C800016460D4604460DE02046FFF7EEFE08B15D
:102C9000012070BD681C05D0FEF798FF801BA8427C
:102CA00007D835B120684069C0430006ECD4002045
:102CB00070BD002044F8300F20216173A07321699A
:102CC00041F0200121612073E2E700000449082857
:102CD00001D0002803D1C871202000F0F3B870475C
:102CE0000F00002010B5012000F0C6F80A20FEF702
:102CF00075FE03480021C1700121817010BD0000E4
:102D00000F00002010B5012000F0B6F84FF47A70E3
:102D1000FEF764FE022000F0AFF80520FEF75EFE2D
:102D2000282000F0A9F80520FEF758FE0C2000F03E
:102D3000A3F80520FEF752FE802000F09DF8BDE8C4
:102D400010404FF4FA70FEF749BE10B504469AB031
:102D500010EE100AFDF792FA41EC100B214653ECED
:102D6000102B684600F04AFB0021684600F002F88C
:102D70001AB010BD2DE9F047304D00260446EE7024
:102D800071B301292FD12E49002000BF41F8204006
:102D9000401C641C6428F9DB89460868FDF767FA63
:102DA0002871264FA8780837391811F8011C00F04F
:102DB00049F8A97807F1040808EB010010F8014C64
:102DC0001AE0641C00F07EF8E878401CC0B2E8709D
:102DD000142805D1A8780121401C00F033F8EE70CA
:102DE00020780028EDD1BDE8F08700BF59F8240015
:102DF000007800F067F8641C28798442F6DBA97833
:102E0000781810F8012C521E12F0FF0200F8012C65
:102E1000E9D10122414400F8012C11F8012C521C87
:102E2000D2B201F8012C2B799A42DCD1142200F89D
:102E3000012C01F8016C2E71D5E700000F00002075
:102E4000780000200A4A9070421E032A0ED84A1EBB
:102E5000132A0BD8074A00EB800002EB80000844DD
:102E600010F8150C40F0800000F006B87047000024
:102E70000F000020D844000838B5104C627800EAF2
:102E8000020102EA0010E27911431043617104F17A
:102E90001002A07141F004031370517040F004015E
:102EA0009170D07000F0B8FFC8200090042304F1A6
:102EB000100221780248FFF709F838BD0F00002002
:102EC0000802002038B5124C627800EA020102EADA
:102ED0000010E27911436171104341F0050304F1E0
:102EE0001002A071137041F00101517040F0050112
:102EF000917040F00100D07000F08EFFC82000906B
:102F0000042304F1100221780248FEF7DFFF38BDE8
:102F10000F0000200802002070B53220FEF75EFD91
:102F200000F07AFF054D4FF47A7423460322297886
:102F30000348FEF715FF0028F7D170BD0F000020F1
:102F4000080200207FB500241148009401940294E7
:102F50000E49039401604FF48031C0E9011401254A
:102F60000461057680F820400A49C0E90A14C56169
:102F7000C46080F830404561FEF7BAFCCDE90045F9
:102F8000694603480295FEF76DFB7FBD00200140B6
:102F90005C0200200100000F2DE9F04786B01421EB
:102FA0006846FDF759F932480024016841F0800174
:102FB0000160016801F080010591016841F00101A3
:102FC0000160016801F001010591016841F0020111
:102FD0000160016801F002010591016841F00801FA
:102FE00001600068DFF88C8000F008000590002286
:102FF00040214046FEF7E5FD012280214046FEF7D4
:10300000E0FD0122DFF87090D60331464846FEF716
:10301000D8FDDFF868A04FF4E0670122394650463A
:10302000FEF7CFFDC0200125CDE900050320CDE945
:10303000024069464046FEF7E3FC0096CDE90154A4
:10304000694648460394FEF7DBFC0097CDE901543E
:10305000694650460394FEF7D3FC4FF4F0408DE8E8
:10306000310069465046FEF7CBFC06B0BDE8F0875C
:10307000303802400000024000040240000C0240D0
:10308000FEE7704770477047FEF7EABF30B593B070
:1030900030216846FDF7E0F814210CA8FDF7DCF8B4
:1030A00019480025016841F080510160006800F076
:1030B000805011901548016841F48041016000681A
:1030C000022400F48040119001200090000401903F
:1030D0008001CDE9064008AA0420A82182E8130057
:1030E0000B906846FFF740F90CA90F2081E83100EA
:1030F0004FF4A0500F90E002109005210CA8FFF7AC
:1031000049F813B030BD0000403802400070004064
:103110000548016841F47001016003494FF0006007
:10312000803908607047000088ED00E010B5806BC2
:103130000021C185C184FFF7D9FA10BD0168CA68B2
:1031400022F49072CA6001684A6922F001024A6161
:10315000202180F83A10704710B590F83A102229D3
:1031600001D0022010BD8168B1F5805F11D00169E6
:10317000002901681FD0496801F07F03816A4A1C59
:1031800082620B70C18D491E0904090CC18518D0DB
:103190002BE00269816A002A0268526805D0D2B227
:1031A0000A80816A491C8162ECE7C2F308020A8046
:1031B000816A891CF7E74A68816A4B1C83620A703E
:1031C000E0E70168CA6822F02002CA600168CA68A4
:1031D00022F48072CA6001684A6922F001024A61E1
:1031E000202180F83A10FFF7CDFB002010BD000031
:1031F0002DE9F041044600680169E26821F440517C
:10320000114301612169A068E269084361691143C2
:1032100008432168CA6849F20C639A430243CA60B2
:1032200020684169A26921F4407111434161E0695C
:10323000192764253226B0F5004F354A35492068F4
:103240004FF0000806D0884201D0904236D1FFF7F7
:103250004BF835E0884201D0904202D1FFF744F8A4
:1032600001E0FFF731F861684A18A0FB070148EB5D
:103270000803FCF7A7FF0146B0FBF5F00201B1FB24
:10328000F5F06FF01803584301EB800006EBC00027
:10329000B0FBF5F000F0F80002EB4002B1FBF5F0F6
:1032A000584301EB800006EBC000B0FBF5F000F0E6
:1032B0000700216810448860BDE8F081FFF704F83A
:1032C00061688B0F8A00A0FB0701FCF77BFF0146BA
:1032D000B0FBF5F06FF01802504301EB800006EBF5
:1032E0000010B0FBF5F000F0F002B1FBF5F002EBDE
:1032F0000012B1FBF5F06FF01803584301EB8000AA
:1033000006EB0010B0FBF5F000F00F00D1E7000075
:10331000001401400010014090F83910212901D01B
:10332000022070478168B1F5805F016A0BD04A1CAA
:103330000262026809785160C18C491E0904090CB7
:10334000C1840ED017E009880268C1F308015160FA
:1033500001690029016A02D0491C0162ECE7891C5D
:10336000FBE70168CA6822F08002CA600068C16891
:1033700041F04001C160002070472DE9F0419846BE
:1033800017460E460446069D1DE0681C1BD02DB155
:10339000FEF71CFCA0EB0800A84214D92068C16805
:1033A00021F4D071C1602068416921F001014161BF
:1033B000202084F8390084F83A00002084F838008E
:1033C0000320BDE8F0812068006836EA000004D0E0
:1033D0000020B842D9D00020F3E70120F9E700002F
:1033E0000148FFF785B90000F80200200148FFF707
:1033F0007FB9000038030020FEE700000FB4084B3F
:1034000010B504A902AA039800F0EEF8044602A938
:10341000002000F06CFC204610BC5DF814FB00009E
:10342000EF3C00080907090E002804DB00F1E0204A
:1034300080F80014704700F00F0000F1E02080F8E1
:10344000141D704702E008C8121F08C1002AFAD1F3
:1034500070477047002001E001C1121F002AFBD114
:10346000704700002DE9FF5F82B00021DDE90430E4
:10347000020DDDF840B0034318D044F61050A2F21C
:10348000FF3242431514119801281FD0A5EB0B0001
:10349000401C5FEA000A4FF000064E4FDFF83891FB
:1034A000B046504615D5CAF1000413E01198012426
:1034B0004AA3012801D16FEA0B010298119AC0E9D1
:1034C0000031C0E9024206B0BDE8F09FCBF1000038
:1034D000DFE704460021404A491842EB0450CDE999
:1034E000001012E0E00707D032463B46404649460E
:1034F000FCF7B3FF8046894632463B4610461946E4
:10350000FCF7ABFF06460F466410002CEAD1DDE95C
:103510000401DDE90023BAF1000F06DAFCF79DFF94
:1035200042464B46FCF799FF05E0FDF708F8424696
:103530004B46FDF704F804460E460022284BFDF7E3
:1035400085F803D84FF0FF30014607E00022254BF5
:1035500020463146FCF7DAFEFDF760F8102409E05A
:10356000002C0ADB0A220023FCF72CFE039B3032DE
:103570001A55641E50EA0102F2D1641C039AC4F188
:1035800011031444119A012A03D0012208430DD1DA
:103590000AE0084304D000204FF0110B119072E7AD
:1035A000A3EB0B056D1E0DE05B4504DD4FF0000243
:1035B00005F1010504E003DA4FF00002A5F1010571
:1035C000002AECD002981199C0E90231C0E9004507
:1035D00079E70000000014400000F03F30000000D8
:1035E0000000F0430000E03F2DE9FF4F95B09A4600
:1035F000884606460025EEE1252877D10024274697
:10360000F94A0121039400E0044316F8013F203BEE
:1036100001FA03F01042F7D130782A2811D06FF068
:103620002F033078A0F13002092A16D8039A44F00B
:10363000020402EB820203EB42021044761C039068
:10364000EFE758F8042B0392002A03DA504244F4BF
:103650000054039044F00204761C30782E2816D1D2
:1036600016F8010F44F004042A280DD06FF02F0241
:103670003078A0F13003092B09D807EB870302EB60
:103680004303C718761CF3E758F8047B761C3078A0
:103690006C280FD006DC4C2817D068280DD06A287B
:1036A00014D104E0742810D07A280FD10DE044F42E
:1036B00000140AE044F4801401E044F440147278E9
:1036C000824202D104F58014761C761C307866287C
:1036D0000BD013DC582877D009DC002875D045289A
:1036E000F6D04628F4D047281AD193E118E0632891
:1036F00035D0642879D0652812D18BE1702873D039
:1037000008DC6728F1D069286FD06E280DD06F28AB
:1037100006D1ACE073282CD0752874D0782853D00B
:103720005246179990476D1C54E1C4F30250022889
:1037300009D003280DD0D8F8001004280DD00D6052
:1037400008F1040846E1D8F80010EA17C1E9005270
:10375000F6E7D8F800100D80F2E70D70F0E718F8E2
:10376000041B8DF8001000208DF80100EB460120AD
:1037700003E058F804BB4FF0FF3061074FF0000141
:1037800002D40DE009F101018946B9420FDA814501
:10379000F8DB1BF809100029F4D108E009F1010158
:1037A00089468142FADB1BF809100029F6D10398FB
:1037B0005346A0EB090721463846179A00F080FAD5
:1037C000284400EB090507E044E008E10DE01BF8A0
:1037D000010B524617999047B9F10109F7D25346A8
:1037E00021463846179AF2E039E00A21C4F3025222
:1037F0004FF0000B0091022A06D058F8040BC117B5
:10380000032A09D00AE023E008F1070020F00702AC
:10381000F2E80201904605E000B2C117042A01D186
:1038200040B2C117002906DA0A460021404261EB86
:1038300002012D2202E0220504D52B228DF804205E
:10384000012203E0E20701D02022F7E7914657E08A
:103850000A2100E010214FF0000B00910BE0102135
:103860004FF0000B44F004040827009103E0082007
:103870004FF0000B0090C4F30252022A05D058F812
:10388000040B0021032A08D008E008F1070020F00B
:103890000702F2E80201904603E080B2042A00D158
:1038A000C0B24FF0000922072AD53278702A07D01B
:1038B000DDF800C08CF0100C5CEA0B0C05D00EE0BB
:1038C00040228DF80420012208E050EA010306D0CE
:1038D00030238DF804308DF8052002229146009B9C
:1038E00083F0080353EA0B030AD150EA010201D125
:1038F000620705D530228DF804204FF001097F1EA4
:103900003278582A04D039A20C920CAA02920BE009
:103910003BA2F9E75B46009AFCF754FC0C9B9B5CCE
:10392000029A521E0292137050EA0102F2D10298DA
:1039300004A9081A00F1200B600702D524F4803492
:1039400000E001275F4502DDA7EB0B0000E000204F
:1039500000EB0B01009003984944401A0390E003E8
:1039600006D453462146179A039800F0A9F9054456
:10397000002706E001A85246C05D179990476D1CCC
:103980007F1C4F45F6DBE0030CD553462146179AC2
:10399000039800F095F9054404E030205246179949
:1039A00090476D1C0099481E00900029F5DC08E046
:1039B0000298029952460078491C02911799904743
:1039C0006D1CBBF10001ABF1010BF1DC5BE100F020
:1039D00065F90544761C307800287FF40DAE19B0E7
:1039E0002846BDE8F08F000009280100303132334D
:1039F000343536373839616263646566000000002B
:103A00003031323334353637383941424344454614
:103A100000000000600700D4062708F1070020F02E
:103A20000700F0E80223804603F0004C5FEA0C0038
:103A300001D097A009E0200501D596A005E0E00798
:103A400001D095A001E0AFF24C001390307823F044
:103A5000004365280CD006DC452809D046281DD037
:103A600047287FD13BE0662818D067287AD136E016
:103A70000021112F01DB112000E0781CCDE90001AD
:103A800004A90CA8FFF7EEFCDDE90D010C9A4FF03C
:103A9000000B07F10109109200914EE04FF0004039
:103AA0000097CDE9011004A90CA8FFF7DBFCDDE9C4
:103AB0000D020C9B0F994FF0000B91461093009252
:103AC00011B9791C00EB0109B7EB090003D4C0F16F
:103AD000FF3B07F10109A9EB0700019042E0012F2C
:103AE00000DA01270021112F01DD112000E0384606
:103AF000CDE9000104A90CA8FFF7B4FCDDE90D0134
:103B00000C9A00914FF0000BB946109221070FD488
:103B1000009A4A4503DA914601E0A9F10109B9F199
:103B2000010F05DD109AA9F10101515C3029F4D093
:103B3000B84202DA10F1040F03DA0121CDE90110D5
:103B400010E0002803DC8344A9EB000102E0411CE3
:103B5000494500DD8946A0EB0B00401C01904FF069
:103B600000400290200705D40198484502DB4FF041
:103B7000FF30019000208DF84B0002980DF14B07AB
:103B8000B0F1004F25D002200C902B200D90029810
:103B900000280CDA404202902D200D9007E00A2107
:103BA0000298FCF77EFB3031029007F8011D0C995A
:103BB000481E0C900029F2DC02980028EFD1791EF3
:103BC0000D980870307800F0200040F0450007F8AC
:103BD000020D11A8C01BC01D02901398007800B1FF
:103BE000012000EB0901019801EBE071029801440A
:103BF0000398401A401E0390E00306D45346214622
:103C0000179A039800F05CF805441398007818B1EF
:103C10005246179990476D1CE00323D55346214621
:103C2000179A039800F04CF805441BE0BBF1000F15
:103C300007DB0098584504DD1098179910F80B0021
:103C400001E0179930205246904701980BF1010B83
:103C5000401E05F10105019004D12E20524617990E
:103C600090476D1CB9F10001A9F10109DEDC05E006
:103C700017F8010B5246179990476D1C0299481E80
:103C800002900029F4DC53462146179A03989EE6D9
:103C90002D0000002B000000200000002DE9F04165
:103CA000044600251E461746880404D405E039461C
:103CB0002020B0476D1C641EF9D52846BDE8F08170
:103CC0002DE9F041044600251E469046C80301D563
:103CD000302700E02027880404D505E04146384617
:103CE000B0476D1C641EF9D52846BDE8F0810A680E
:103CF000531C0B601070704710B520211348FCF75F
:103D0000ABFA1248EF21012201704270FF2181704D
:103D1000C1700171417182710024C471032101726B
:103D20000521417284720921C1720146C8230C2207
:103D30000748FEF73BFE074804704FF4FA70FDF7A2
:103D40004DFEBDE810400C2000F016BB38000020EE
:103D5000380300202300002070B51449EF2201230E
:103D60000A704B70FF228A70CA700A714A718B7197
:103D70000024CC7107220A720C224A728C72C8721B
:103D80000C734B7300F115058C73CD73C82310228F
:103D90000748FEF70BFE074804704FF4FA70FDF772
:103DA0001DFEBDE870400C2000F0E6BA380000208F
:103DB000380300202300002010B520211348FCF711
:103DC0004BFA1248EF21012201704270FF218170ED
:103DD000C1700171417182710024C47103210172AB
:103DE000427284720521C1720146C8230C22084820
:103DF000FEF7DCFD074804704FF4FA70FDF7EEFDA6
:103E0000BDE810400C2000F0B7BA000038000020D8
:103E1000380300202300002070B52A2212491348DD
:103E2000FCF701FA104C608D104D6885E06AE8627D
:103E3000206B2863092204F1340105F13400FCF7FA
:103E4000F2F994F83D0085F83D0094F83E0085F8BD
:103E50003E00206C2864606C6864A06CA864E06C10
:103E6000E864206D286570BDA402002008020020CF
:103E700070B5054620211448FCF7EEF91249EF20F1
:103E8000012208704A70FF208870C870087148715C
:103E90008A710026CE7104200872022048728D7249
:103EA000EC1DCE720C73C8230D220848FEF77EFD70
:103EB000074806704FF4FA70FDF790FDBDE87040BA
:103EC0000C2000F059BA0000380000203803002010
:103ED00023000020FEF7CCF8FFF7D8F8FFF75CF8D6
:103EE000FFF730F82B482A49002401602A49C0E92D
:103EF00001144FF48041C0E9034144618461C4610D
:103F00000462FDF769FE2348244954300C25016002
:103F10004FF4E131C0E90114C460C0E90445846193
:103F2000C461FEF76FFC1B481D49943001604FF4DB
:103F30006141C0E90114C460C0E904458461C46101
:103F4000FEF760FCFEF7E8FFFEF7DCFE0820FEF758
:103F5000BDFE01210846FEF775FF002111A0FEF706
:103F600009FF01210220FEF76DFF002111A0FEF7DD
:103F700001FF0848012214499430FEF7D9FC4FF4A0
:103F8000FA70FDF72BFD00BFFDF72EF8FCE70000EF
:103F900000540040A4020020A0860100001001404F
:103FA00000440040413A20517565742076616E20CE
:103FB00074617900423A204E686170206D6174200E
:103FC0006B68617500000000240000202DE9F05F9F
:103FD000B34C4FF48068002241462046FDF7F1FDC6
:103FE0004FF4007A012251462046FDF7EAFD4FF4D6
:103FF000807B012259462046FDF7E3FD0122D103D3
:10400000A848FDF7DEFD4FF4804529462046FDF720
:10401000D3FD00287ED06F1039462046FDF7CCFD39
:10402000002878D0A61431462046FDF7C5FD0028AB
:1040300072D04FF4006949462046FDF7BDFD0028C7
:104040006BD00A20FDF7CAFC012241462046FDF74D
:10405000B8FD002251462046FDF7B3FD0122594626
:104060002046FDF7AEFD0122D1038E48FDF7A9FDE4
:1040700029462046FDF7A0FD00287DD03946204680
:10408000FDF79AFD002878D031462046FDF794FDD3
:10409000002873D049462046FDF78EFD00286ED0DB
:1040A0000A20FDF79BFC012291022046FDF789FDC5
:1040B000012251022046FDF784FD0022A115204671
:1040C000FDF77FFDDFF8DCA14FF4004B01225946DC
:1040D0005046FDF776FD29462046FDF76DFD002888
:1040E00074D0B84639462046FDF766FD00286ED0EC
:1040F00031462046FDF760FD002869D04F4649460D
:104100002046FDF759FD002873D00A20FDF766FC14
:10411000012203E039E040E047E04EE09102204612
:10412000FDF74FFD012251022046FDF74AFD012215
:1041300011022046FDF745FD002259465046FDF785
:1041400040FD29462046FDF737FD002874D045463E
:1041500041462046FDF730FD00286ED0314620460E
:10416000FDF72AFD002869D039462046FDF724FDD9
:10417000002874D00A2003E02BE032E03AE041E06E
:10418000FDF72CFC2020BDE8F09F29462046FDF7D6
:1041900013FD0028F9D03120F5E739462046FDF718
:1041A0000BFD0028F9D03220EDE731462046FDF71F
:1041B00003FD0028F9D03320E5E74D462946204687
:1041C000FDF7FAFC0028F9D04120DCE723E02AE0E3
:1041D00035E029462046FDF7EFFC0028F9D03420D1
:1041E000D1E739462046FDF7E7FC0028F9D0352015
:1041F000C9E72CE031462046FDF7DEFC0028F9D067
:104200003620C0E74D4629462046FDF7D5FC00285C
:10421000F9D04220B7E729462046FDF7CDFC00281B
:10422000F9D03720AFE7454629462046FDF7C4FCC4
:104230000028F9D03820A6E712E019E020E0314646
:104240002046FDF7B9FC0028F9D039209BE7394614
:104250002046FDF7B1FC0028F9D0432093E717E092
:1042600029462046FDF7A8FC0028F9D02A208AE735
:1042700029462046FDF7A0FC0028F9D0302082E72F
:1042800031462046FDF798FC0028F9D023207AE734
:1042900039462046FDF790FC0028F9D0442072E70B
:1042A000000C0240000402402DE9F04100252F4699
:1042B0002E462F4C4FF4FA78FFF788FE20700A2024
:1042C000FDF78CFB207844284FD0202849D0412886
:1042D00047D0422845D0432843D02A2841D023281C
:1042E0003FD00A20FDF77AFB26B1012E0ED0022E18
:1042F0001CD034E0207800EBC00101EB001005EB8E
:104300008000A0F5965085B2012108E020780221B6
:1043100000EB800005EB4000A0F5F07085B20220B4
:10432000FEF790FD2078FEF7CDFD15E020780127FF
:104330002844303885B203210220FEF783FD20781F
:10434000FEF7C0FDEB2D07D3442020700122802111
:104350000848FDF736FC08E04046FDF73FFB761CB9
:10436000B6B2002DA8D0002FA6D0E8B2BDE8F081EB
:10437000270000200000024070B5054600242021DF
:104380000A48FBF769FF09480949203804E00A5D3B
:104390000319641C83F82020AC42F8DB2844447FD6
:1043A0000A20FDF71BFB204670BD000058000020CE
:1043B0007803002070B50546002420210B48FBF748
:1043C0004BFF0A490A48203904E0025D0B19641CBE
:1043D00083F82020AC42F8DB4819064AC17E116000
:1043E000447E0A20FDF7FAFA204670BD58000020EE
:1043F000780300200000002001480078704700008A
:104400000000002010B520211648FBF725FF1548B5
:10441000EF21012201704270FF218170C170017192
:10442000417182710024C471082303720423437212
:104430008272C472047344738173C2730D21017458
:104440000146C82311220848FEF7B0FA0748047055
:104450004FF4FA70FDF7C2FABDE810401020FFF7E4
:10446000A9BF0000380000203803002023000020EE
:1044700070B5054620211548FBF7EEFE1349EF20E5
:10448000012208704A70FF208870C8700871487156
:104490008A710024CC710620087248728A72CC722C
:1044A0000D7305F10E034C738B73C8230F2208485C
:1044B000FEF77CFA074804704FF4FA70FDF78EFAA5
:1044C000BDE870400C20FFF757BF00003800002007
:1044D0003803002023000020000102030405060722
:1044E00008090A0B0C0D0E0F101112134041424324
:1044F0004445464748494A4B4C4D4E4F5051525304
:104500001415161718191A1B1C1D1E1F20212223F3
:10451000242526275455565758595A5B5C5D5E5FD3
:10452000606162636465666700000000000000006F
:104530000102030406070809000000000102030449
:1045400060450008000000203800000044340008E6
:104550009845000838000020600700005434000827
:104560000000000000000031323334202020204EB3
:10457000F0010000000000141414140000000000FA
:1045800000000000007A00000100000010000000A0
:08459000000000000024F4000B
:040000050800018965
:00000001FF
