:020000040800F2
:10000000900600209D0100083B1D0008D71900083C
:10001000391D00081D040008292300080000000005
:100020000000000000000000000000003F1D00086C
:100030001F040008000000003D1D0008411D0008CD
:10004000B7010008B7010008B7010008B7010008B0
:10005000B7010008B7010008B7010008B7010008A0
:10006000B7010008B7010008B7010008B701000890
:10007000B7010008B7010008B7010008B701000880
:10008000B7010008B7010008D9020008B70100084D
:10009000B7010008B7010008B7010008B701000860
:1000A000B7010008B7010008B7010008B701000850
:1000B000B7010008B7010008B7010008B701000840
:1000C000B7010008B7010008B7010008B701000830
:1000D000B701000805230008B70100081123000834
:1000E000B7010008B7010008B7010008B701000810
:1000F000B7010008B7010008B7010008B701000800
:10010000B7010008B7010008B7010008B7010008EF
:10011000B7010008B7010008B7010008B7010008DF
:10012000B7010008B7010008B7010008B7010008CF
:10013000B7010008B7010008B7010008B7010008BF
:10014000B7010008B7010008B7010008B7010008AF
:10015000B7010008B7010008B70100081D23000817
:10016000B7010008B7010008B7010008B70100088F
:10017000B7010008B7010008B7010008000000003F
:10018000B7010008B7010008DFF80CD000F092F8C2
:1001900000480047E52300089006002006488047F5
:1001A00006480047FEE7FEE7FEE7FEE7FEE7FEE75C
:1001B000FEE7FEE7FEE7FEE7C91D0008890100082B
:1001C0002DE9F05F0546002092469B46884606468C
:1001D000814640241BE0284641464746224600F01F
:1001E00059F853465A46C01A914110D31146184641
:1001F000224600F040F82D1A67EB01084F462246D0
:100200000120002100F037F817EB00094E41201EB5
:10021000A4F10104DFDC484631462A464346BDE8E6
:10022000F09FD2B201E000F8012B491EFBD27047CB
:100230000022F6E710B513460A4604461946FFF7B2
:10024000F0FF204610BD034611F8012B00F8012BEA
:10025000002AF9D11846704730B5054600200346FC
:1002600000E05B1C934205D2EC5CC85C201A01D113
:10027000002CF6D130BD202A04DB203A00FA02F12E
:10028000002070479140C2F1200320FA03F3194384
:1002900090407047202A04DB203A21FA02F0002126
:1002A000704721FA02F3D040C2F120029140084386
:1002B00019467047064C074D06E0E06840F0010320
:1002C00094E8070098471034AC42F6D3FFF760FF7C
:1002D000402500086025000810B5044800F04AF9E0
:1002E000BDE81040024800F045B9000014000020AD
:1002F0005C000020464910B54A6822F440324A604A
:100300004A6843681A434A6001684A6822F4807266
:100310004A6001684A68036942EA03224A60016848
:100320004A6822F040724A6001684A6883681A434A
:100330004A6001688A6822F400628A6001688A68FB
:10034000C3681A438A60816A6FF07062D1420168A3
:100350008A6822F070628A6001688A680CD0836AB9
:100360001A438A6001688A6822F040528A600168F4
:100370008A68C36A1A4301E022F040528A60016829
:100380008A6822F002028A6001688A68037E42EA73
:1003900043028A6090F82010002901684A680FD053
:1003A00042F400624A6001684A6822F460424A608E
:1003B00001684A68174C436A04EB43331A4301E06F
:1003C00022F400624A600168CA6A22F47002CA62BA
:1003D0000168CA6A838B104C04EB03531A43CA6248
:1003E00001688A6822F400728A6001688A6890F85D
:1003F000303042EA43228A6001688A6822F48062CF
:100400008A6001688A68406942EA8020886010BD7D
:100410000023014000E0FFFF0000F0FFFEE770470F
:100420007047000078B50024009490F83C20012A21
:1004300019D0012280F83C200A6807230568092AA0
:1004400013D9EE680A3A02EB420293409E43EE60F3
:100450000B788A680A3B03EB43039A400368DD6824
:100460002A43DA6010E0022078BD2E6902EB4202D6
:1004700093409E432E610B788A6803EB43039A40B6
:1004800003681D692A431A614A681F23072A13D289
:1004900005686E6B521E02EB820293409E436E63B0
:1004A0000B790A885B1E92B203EB83039A400368C0
:1004B0005D6B2A435A6327E005680D2A12D22E6B22
:1004C000D21F02EB820293409E432E630B790A886F
:1004D000DB1F92B203EB83039A4003681D6B2A4330
:1004E0001A6311E0EE6A0D3A02EB820293409E43DA
:1004F000EE620B790A880D3B92B203EB83039A40BC
:100500000368DD6A2A43DA62164B0568144A9D4285
:1005100006D10D68122D03D1556845F4800555604C
:1005200005689D4218D10B68102B01D0112B13D1F7
:10053000536843F400035360096810290CD10A4939
:100540000A4A0968B1FBF2F101EB8101490000E0C0
:10055000491E00910029FBD180F83C40002078BD65
:1005600000230140002001401000002040420F0005
:100570007047704770B50446006801684268C1F36F
:100580004001C2F3401251B34AB3216CC90603D4EF
:10059000216C41F400712164816811F0405F17D132
:1005A000217EA9B9C16A11F4700F02D08168490592
:1005B0000ED4416821F020014160206C20F480704D
:1005C0002064206CC00403D4206C40F0010020643F
:1005D0002046FFF7CDFF21686FF012000860206809
:1005E00001684268C1F38001C2F3C01289B382B3CB
:1005F000216CC90603D4216C41F400512164816847
:1006000011F4401F1ED1816B11F4401F02D081688C
:10061000490517D44168490514D4816811F0405F39
:1006200010D1217E71B9416821F080014160206CB8
:1006300020F480502064206CC00503D4206C40F06E
:10064000010020642046FFF7EBFE21686FF00C00EC
:10065000086020680168426811F0010FC2F380123F
:100660000ED06AB10068C0070AD0206C40F4803018
:100670002064204600F046F821686FF00100086011
:10068000206801684268C1F34011C2F3806200290A
:100690000DD0002A0BD0616C41F0020161646FF053
:1006A000200505602046FFF764FF2068056070BDE7
:1006B00070B504004FF0000503D0206C002610B187
:1006C00007E0012070BD204600F01EF8666484F843
:1006D0003C60206CC00610D4206C20F4885040F0A0
:1006E000020020642046FFF705FE6664206C20F0BF
:1006F000020040F00100206400E0012584F83C6025
:10070000284670BD7047000070B586B004461421BD
:100710006846FFF78DFD21491F4E256800231F4ABB
:10072000143903241E48B54211D1156845F480756B
:100730001560126802F4807205920A6842F00102A4
:100740000A60096801F001010591082113E0154EC6
:10075000B5421ED1156845F400751560126802F4A3
:10076000007205920A6842F001020A60096801F00D
:10077000010105912021CDE900140293694600F0A2
:1007800037F800221146122000F082FA122000F001
:1007900071FA06B070BD00000020014044380240EC
:1007A000000002400021014090F83510022903D0DA
:1007B0008021416501207047052180F835100068CF
:1007C000016821F0010101600020704770B5044606
:1007D00000F0F6F80546601C02D004480078044496
:1007E00000F0EEF8401BA042FAD370BD04000020D8
:1007F0002DE9F84F00224FF0010803254FF00F0EAE
:100800000B6808FA02F42340A3426ED14E68012E11
:1008100005D0022E03D0112E01D0122E12D18668DF
:100820004FEA420C05FA0CF7BE43CF6807FA0CF703
:10083000374387604668A6430C79C4F3001494409C
:1008400034434460C668570005FA07FC8C6826EA02
:100850000C06BC403443C4604C68022C01D0122CFE
:1008600013D1D40800EB8404A346D4F82090540795
:100870004FEAD46A0EFA0AF629EA06090E6906FA60
:100880000AF646EA0906CBF8206006680C7926EAE3
:100890000C0604F00304BC40344304604C68E400DC
:1008A00065D5364C266846F480462660246822F0DA
:1008B000030604F480440094314C3444A446D4F834
:1008C00008489607370F0EFA07F6B4432D4EB0428C
:1008D00001D1002624E02C4EB04201D101261FE0B8
:1008E0002A4EB04202D102261AE040E0284EB04221
:1008F00001D1032614E0274EB04201D104260FE0B7
:10090000254EB04201D105260AE0244EB04201D165
:10091000062605E0224EB04201D1072600E0082657
:10092000BE402643CCF808681E4E34684F689C438E
:10093000FF0300D51C4334601A4C241D26684F6801
:100940009E43BF0300D51E432660164E083634680A
:100950004F689C43FF0200D51C433460114E0C3697
:1009600034684F689C43BF0200D51C433460521C5E
:10097000102AFFF445AFBDE8F88F0000443802406C
:100980000030014000000240000402400008024024
:10099000000C024000100240001402400018024007
:1009A000001C0240003C0140426931EA020200D1D1
:1009B0000904816170470AB1816170470904FBE74E
:1009C00001488068704700000400002070B50400F2
:1009D00025D094F83D00002520B984F83C502046ED
:1009E00000F0B8F8242084F83D002068016821F068
:1009F000010101602068016841F400410160206844
:100A0000016821F40041016000F00EFA4D4A61686E
:100A1000914201D84C4900E04C49884201D2012062
:100A200070BD4B492368B0FBF1F15E6826F03F06CC
:100A30000E435E606368934206D94FF49673594340
:100A40004FF47A73B1FBF3F12368491C1E6A26F058
:100A50003F06314319626168914210D84900401E37
:100A6000B0FBF1F2521CC2F30B02042A01D20420A3
:100A700022E0B0FBF1F0401CC0F30B001CE0A268C8
:100A8000F2B301EBC10303EB0116431EB3FBF6F314
:100A90005B1C43F480431B0549D092B301EBC102B8
:100AA00002EB0111401EB0FBF1F0401CC0F30B0043
:100AB00040F4804040F400402168CA694CF6FF735E
:100AC0009A431043C861D4E90710014320680268C3
:100AD00022F0C00211430160D4E903010143206800
:100AE000826848F2FF339A4311438160D4E90501DB
:100AF00008432168CA6822F0FF021043C86001E081
:100B00000EE016E02068016841F0010101602564F3
:100B1000202084F83D00256384F83E50002070BDFD
:100B200001EB4106431EB3FBF6F35B1CB3E7012068
:100B3000C2E701EB4101401EB0FBF1F0401CC0F3E5
:100B40000B00B7E7A086010080841E0000093D006D
:100B500040420F0010B586B0044614216846FFF7E6
:100B600067FB14492068884221D11348016841F08D
:100B7000020101600068694600F0020005904FF430
:100B800040700090122001900120029003200390F9
:100B9000042004900948FFF72BFE07481030016835
:100BA00041F400110160006800F40010059006B0E7
:100BB00010BD0000005400403038024000040240E4
:100BC0000248816802781144816070470400002067
:100BD0000B4810B5016841F400710160016841F4EF
:100BE00080610160016841F480710160032000F0C0
:100BF0006FF8002000F006F800F024F8002010BD87
:100C0000003C024070B50D4D04464FF47A712878CF
:100C1000B1FBF0F00A490968B1FBF0F000F002FB0B
:100C200048B9102C07D200222146501E00F030F89F
:100C300000206C6070BD012070BD00000400002029
:100C4000100000200A4808B5016841F480410160A5
:100C5000006800F4804000900548001F016841F0E2
:100C600080510160006800F08050009008BD0000D5
:100C700044380240002809DB00F01F0201219140A6
:100C80004009800000F1E020C0F80011704700002A
:100C9000F0B40E4B1B680C46C3F30223C3F10705E7
:100CA000042D00D90425191D072901D2002300E0D5
:100CB000DB1E012606FA05F1491E214099409E409F
:100CC000761E16403143F0BC01F02FBB0CED00E066
:100CD000064900F0070208684FF6FF03184040EA93
:100CE0000220034A10430860704700000CED00E04A
:100CF0000000FA052DE9F0470E46050065D0DFF843
:100D00001481D8F80000F7B200F00F00B04207D20B
:100D100088F80070D8F8000000F00F00B04254D1FD
:100D200028683D4C810712D5400703D5206840F460
:100D3000E05020602878000703D5206840F4604028
:100D400020602068A96820F0F0000843206028781F
:100D5000C0072DD0304968680839012812D0022810
:100D600013D0032811D00968890700292DDA2168DA
:100D700021F0030101432160FFF722FE814641F289
:100D8000883A0EE009688903EFE709688901ECE712
:100D9000FFF716FEA0EB0901514502D90320BDE87B
:100DA000F0872068696800F00C00B0EB810FEFD18C
:100DB000D8F80010404601F00F01B14207D9077082
:100DC000006800F00F00B04201D00120E7E728786A
:100DD000400705D52068E96820F4E050084320600A
:100DE0002878000706D52068296920F4604040EA89
:100DF000C100206000F038F82168084AC1F30311EF
:100E0000515CC8400649086006480068FFF7FAFED2
:100E10000020C4E7003C02400838024028250008B2
:100E200010000020080000200448054900680968F7
:100E3000044AC1F38221515CC84070471000002071
:100E40000838024038250008044805490068096848
:100E5000044AC1F34231515CC84070471000002081
:100E60000838024038250008154810B5006810F011
:100E70000C02144813D04110042A0FD0082A0ED1B6
:100E80000F4C241F2268236802F03F025B0207D543
:100E90002068C0F38810A0FB010106E0084610BDE1
:100EA0002168C1F38811A1FB00010023FFF788F935
:100EB0002168C1F30141491C4900B0FBF1F010BDAC
:100EC000083802400024F4002DE9F84F040076D0E1
:100ED0002078DFF838A3CE4DC00749D0DAF80010EB
:100EE0005046C1F38101012908D00068C0F3810098
:100EF00002280AD1281D0068400206D52868800310
:100F000036D560680028E2D032E06068B0F5803FF6
:100F100010D0B0F5A02F286810D020F480302860C1
:100F2000286820F4802028606068A0B1FFF748FDA1
:100F300006460CE0286840F48030F4E740F4802056
:100F40002860F7E7FFF73CFD801B642873D828680A
:100F50008003F7D50CE0FFF733FD064605E000BF40
:100F6000FFF72EFD801B6428F0D828688003F7D493
:100F70002078DFF8A08280074FF000093ED5DAF82C
:100F80000010504611F00C0F09D00068C0F381002A
:100F900002280BD19D48001F0068400206D4286833
:100FA000800715D5E068012809D111E0E068B8B1E3
:100FB0000120C8F80000FFF703FD064605E020E128
:100FC000FFF7FEFC801B0228C0D828688007F7D5F1
:100FD0002868216920F0F80040EAC10028600DE08F
:100FE000C8F80090FFF7ECFC064604E0FFF7E8FCC9
:100FF000801B02281FD828688007F7D420780007B4
:1010000022D5824E844861696C3671B1012101603C
:10101000FFF7D6FC074604E0FFF7D2FCC01B02280E
:1010200009D830688007F7D50EE0C0F80090FFF7C8
:10103000C7FC074605E082E0FFF7C2FCC01B0228A0
:101040007DD830688007F7D42078400768D5DFF86E
:10105000BCB100270BF1380BDBF80000C0000BD44B
:10106000DBF8001041F08051CBF80010DBF80000F5
:10107000012700F080500090684E3068C00510D401
:10108000306840F480703060FFF79AFC009005E013
:10109000FFF796FC0099401A022850D83068C00526
:1010A000F6D55A4EA068683601280FD0052830685A
:1010B00010D020F001003060306820F00400306073
:1010C000A068B8B1FFF77CFC00900FE0306840F0FA
:1010D0000100F4E740F004003060F7E7FFF770FC30
:1010E0000099411A41F28830814266D83068800701
:1010F000F4D50EE0FFF764FC009007E0FFF760FC1A
:101100000099411A41F28830814256D830688007F0
:10111000F4D42FB1DBF8001021F08051CBF800108F
:10112000A069D0B3DAF800205146C2F38102022A46
:101130004AD00228484607D0C8F8600000E03CE0EA
:10114000FFF73EFC04463BE04746C8F86000FFF767
:1011500037FC064605E000BFFFF732FC801B022883
:101160002BD828688001F7D4D4E907010843A16A85
:101170002B4A490802EB0141626A41EA82110843A5
:1011800094F82C1040EA01612048001F0160012002
:101190003866FFF715FC044605E034E0FFF710FC65
:1011A000001B022809D828688001F7D52BE000BF72
:1011B000FFF706FC001B022802D90320BDE8F88FC8
:1011C00028688001F4D41EE00128F7D00868E2699D
:1011D00000F48001914214D1226A00F03F01914253
:1011E0000FD147F6C071626A0140914209D1A26AEB
:1011F00000F44031914204D1E16A00F0706088420D
:1012000001D00120DAE70020D8E7000008380240CA
:101210000038024000004742800E47420070004004
:101220000000FFFF10B5401EB0F1807F01D3012008
:1012300010BD4FF0E02460610F21601701F075F8D8
:101240000020A06107202061002010BD10B590F89B
:101250003C20012A22D0012280F83C20CA688C68F8
:1012600022F4407222434C6822F4806222430C68CC
:1012700022F4006222430C6922F4805222434C691A
:1012800022F400522243C969002322F480420A4317
:1012900001684A6480F83C30002010BD022010BD77
:1012A00070B590F83C20012A32D0012480F83C40EF
:1012B000022280F83D2003685A689D6822F070067B
:1012C0000A6832435A60134B02689A4214D0B2F152
:1012D000804F11D0104B9A420ED0104B9A420BD037
:1012E0000F4B9A4208D00F4B9A4205D00E4B9A42B0
:1012F00002D00E4B9A4204D1496825F0800319436D
:10130000916080F83D40002180F83C10084670BD97
:10131000022070BD000001400004004000080040B1
:10132000000C004000040140004001400018004053
:1013300010B5040003D094F83D0010B107E001207F
:1013400010BD002084F83C00204600F00DF802207B
:1013500084F83D00211D206800F044FD012084F840
:101360003D00002010BD000008B5134A0168134875
:10137000914207D1016841F001010160006800F06D
:1013800001000BE00E4A91420AD10C48001F01688F
:1013900041F002010160006800F00200009008BD09
:1013A000084A9142FBD1016841F480310160006834
:1013B00000F48030F2E700000000014044380240B1
:1013C000000400400040014070B5044690F83C0025
:1013D000012817D0012584F83C50022084F83D00F4
:1013E0002068826822F0770222F47F4282600868D7
:1013F000502830D00DDC20284DD005DC98B31028C3
:101400003BD148E0022070BD302844D0402834D180
:1014100039E0602828D0702806D0B0F5805F2CD045
:10142000B0F5005F29D10AE0CB68D1E9012120683D
:1014300000F049FD2068816841F0770109E0CB6840
:10144000D1E90121206800F03EFD2068816841F467
:101450008041816011E0CA684968206800F008FE98
:101460005021206807E016E0CA684968206800F04B
:1014700010FE6021206800F030FD84F83D5000200F
:1014800084F83C0070BDCA684968206800F0F0FD2F
:1014900040212068EFE7226801461046EBE7000094
:1014A00030B587B0044614216846FEF7C1FE2468B3
:1014B0001F4D00221F4902231F48AC420ED10C6869
:1014C00044F010040C60096801F0100105914FF41C
:1014D00028510091CDE90132012125E0174DAC42A0
:1014E00012D1086840F00200086008680093CDE956
:1014F000013200F00200CDE9043069460392104841
:10150000FFF776F907B030BD0E4DAC42FAD10C684A
:1015100044F010040C60096801F0100105912021CD
:101520000091CDE901320321CDE903216946E7E7C6
:10153000000001403038024000100240000400402A
:10154000000402400040014070B5044690F83C00A1
:101550000D4601280DD0012684F83C60022084F855
:101560003D0042B1042A18D0082A2AD00C2A4DD1B5
:1015700039E0022070BD206800F0B8FC2068816965
:1015800041F0080181612068816921F004018161D5
:10159000206881692A69114311E0206800F0D6FCB7
:1015A0002068816941F4006181612068816921F4CA
:1015B00080618161206881692A6941EA0221816133
:1015C00024E0206800F0F8FC2068C16941F00801BF
:1015D000C1612068C16921F00401C1612068C1694D
:1015E0002A69114311E0206800F01AFD2068C169E2
:1015F00041F40061C1612068C16921F48061C16169
:101600002068C1692A6941EA0221C16184F83D600C
:10161000002084F83C0070BD10B5040003D094F89D
:101620003D0010B107E0012010BD002084F83C000F
:10163000204600F00CF8022084F83D00211D2068AF
:1016400000F0D0FB012084F83D00002010BD704761
:1016500010B504460068012200F028FC0B49206800
:10166000884202D00A49884203D1416C41F40041CA
:1016700041642068816801F00701062903D00168F0
:1016800041F001010160002010BD00000000014098
:10169000000401407047000070B5026804461068FD
:1016A000D168536910F00F0F52D003F0010501F417
:1016B00090762E435FD0C20705D0CA0503D5E26BF2
:1016C00042F00102E263420705D5DA0703D0E26B7C
:1016D00042F00202E263820705D5DA0703D0E26B2B
:1016E00042F00402E263020707D501F020022A4318
:1016F00003D0E26B42F00802E263E26B002A33D0CF
:10170000800604D5880602D5204600F0EAFC206851
:101710004069E16BC0F38010090700D428B320466C
:1017200000F0D1FC2068416949061AD5416921F0D1
:1017300040014161606BA0B11B490165606BFFF71F
:1017400033F8002810D0606B016DBDE87040084789
:10175000830610D58B060ED52046BDE8704000F0FC
:10176000C0BC2046FFF796FF70BD2046FFF792FFF2
:101770000020E06370BD030606D50B0604D52046A5
:10178000BDE8704000F08CBD4006F3D54806F1D5A9
:10179000D168204621F04001D160202184F8391021
:1017A00000F018F970BD0000B720000870B5040003
:1017B00004D094F83900002510B106E0012070BD76
:1017C00084F83850204600F023F8242084F83900AB
:1017D0002068C16821F40051C160204600F0CCFCB3
:1017E0002068016921F4904101612068416921F07C
:1017F0002A0141612068C16841F40051C160E5637C
:10180000202084F8390084F83A00002070BD0000E0
:10181000F0B587B0044614216846FEF709FD3F493C
:10182000DFF8F4E0D4F800C03C4A1439C0260223A3
:101830000124032507273A48F44521D1D2F800C0F6
:101840004CF0100CC2F800C0126802F010020592B1
:101850000A6842F002020A600968009601F002017B
:10186000CDE904710DF1040C69468CE83800FEF7EF
:10187000BFFF002211462520FFF70AFA252022E0AB
:10188000DFF8A0E0F44522D1244A121F166846F47E
:1018900080261660126802F4802205920A6842F0DF
:1018A00002020A60096801F0020105914FF44061EB
:1018B0008DE8BA006946FEF79BFF002211462720FB
:1018C000FFF7E6F92720FFF7D5F907B0F0BD164876
:1018D0008445FAD1106840F020001060106800F0D4
:1018E00020000590086840F0040008600868009631
:1018F00000F0040005900820CDE90350CDE9013443
:1019000069460A48FEF774FF002211464720FFF798
:10191000BFF94720D7E700000010014044380240DB
:10192000000402400048004000140140000802404A
:1019300090F83A30202B22D1F9B1F2B190F838303A
:10194000012B1CD081628285C2850021C1632222C5
:1019500080F83A2080F838100168CA6842F4807232
:10196000CA6001684A6942F001024A610068C168C0
:1019700041F02001C1600020704701207047022023
:101980007047000030B400680F49884213D10F4AF5
:101990000F4C0023118821B900202354401C0A2831
:1019A000FBDB0A48801C00780A2803D06054491CDD
:1019B000118000E01380054905480122891C30BCD4
:1019C0004038FFF7B5BF00000014014000000020C0
:1019D000780200207047FEE77FB50024124800948B
:1019E000019402940F490394C0E900144FF0007170
:1019F00004618160047680F820400C49C0E90A1433
:101A00000125C561C46080F830404561FEF750FE95
:101A10000320CDE90005694602940348FEF702FD64
:101A20007FBD000000200140140000200100000FD5
:101A30007FB5002412480094019402940F49039446
:101A4000C0E900144FF0007104618160047680F8F1
:101A500020400C49C0E90A140125C561C46080F822
:101A600030404561FEF724FE0520CDE900056946BA
:101A700002940348FEF7D6FC7FBD00000021014020
:101A80005C0000200100000FF0B587B0142168460B
:101A9000FEF7CEFB3A480024016841F010010160D6
:101AA000016801F010010591016841F080010160B9
:101AB000016801F080010591016841F004010160B5
:101AC000016801F004010591016841F00101016024
:101AD000016801F001010591016841F00201016016
:101AE000016801F002010591016841F008010160FF
:101AF0000068244E00F008000590002205213046C1
:101B0000FEF759FF204F002257213846FEF753FFBA
:101B1000052000900125CDE9015469463046039423
:101B2000FEF766FE40F60800CDE90004694630463F
:101B30000294FEF75DFE57200090CDE901546946FE
:101B400038460394FEF754FE48F28000CDE90004C5
:101B5000694638460294FEF74BFE5520CDE9000455
:101B600069460A480294FEF743FE0820CDE90004C6
:101B7000694607480294FEF73BFE07B0F0BD00003F
:101B8000303802400008024000000240000C0240D1
:101B90000004024010B596B000240F9410941194E4
:101BA000129413941C2168461494FEF741FB2021E3
:101BB00007A8FEF73DFB25482349016040F2833129
:101BC000C0E9011440F2E731C0E9031444618461C3
:101BD000FFF7AEFB4FF480500F900FA91B48FFF7A3
:101BE000F3FB1A48FFF718FD139413A91748149430
:101BF000FFF756FB6020CDE900040294039404949F
:101C000005940022694611480694FFF79DFC0422C2
:101C100069460E48FFF798FC082269460B48FFF713
:101C200093FC0794089409944FF400500A94CDE96A
:101C30000B4007A905480E94FFF708FB0348FFF780
:101C40002FFC16B010BD000000000140F80000207D
:101C500010B58EB000240794089409940A940B944C
:101C60001C2168460C94FEF7E3FA174815490160F9
:101C700040F28331C0E9011440F2E731C0E90314B6
:101C80008461FFF755FB4FF48050079007A90E4879
:101C9000FFF79AFB0C48FFF7BFFC0B940BA90A480F
:101CA0000C94FFF7FDFA6020CDE9000402940C22A9
:101CB000694605480494FFF747FC0348FFF7F0FB2B
:101CC0000EB010BD000400403801002010B58CB0EB
:101CD00000240794089409941C2168460A94FEF78E
:101CE000A7FA14481249016040F2C111C0E9011479
:101CF0006321C0E903148461FFF71AFB4FF480509D
:101D0000079007A90B48FFF75FFB0A48FFF784FC21
:101D10006020CDE90004029400226946054804943D
:101D2000FFF712FC0348FFF7BBFB0CB010BD00002F
:101D30000040014078010020FEE77047704770477F
:101D4000FEF73EBF30B593B030216846FEF770FA1B
:101D500014210CA8FEF76CFA19480025016841F01F
:101D600080510160006800F08050119015480168B2
:101D700041F4804101600068022400F48040119029
:101D800001200090000401908001CDE90640082068
:101D90000890B420CDE9090404200B906846FFF7B1
:101DA00093F80CA90F2081E831004FF4A0500F9058
:101DB000109002210CA8FEF79DFF13B030BD00006B
:101DC00040380240007000400548016841F470014D
:101DD000016003494FF000608039086070470000DF
:101DE00088ED00E0F0B50268254C264D264E274FC1
:101DF000274B4FF0804CA04209D0604507D0A84245
:101E000005D0B04203D0B84201D0984204D122F0AC
:101E1000700E4A6842EA0E02A0421BD0604519D0FB
:101E2000A84217D0B04215D0B84213D0984211D072
:101E3000184DA8420ED0184DA8420BD0174DA842FD
:101E400008D0174DA84205D0164DA84202D0164D15
:101E5000A84203D122F44075CA682A434D6922F092
:101E600080022A4302608A68C2620A688262A042D3
:101E700001D0984201D10969016301214161F0BD9E
:101E8000000001400004004000080040000C004039
:101E9000000401400040014000440140004801406E
:101EA00000180040001C00400020004010B501F068
:101EB0001F030121046A99408C430462016A9A401D
:101EC0001143016210BD10B5846842EA032224F474
:101ED0007F440A432243826010BD826822F0700270
:101EE0000A4342F00701816070470000F0B5026AC2
:101EF00022F001020262036A42688469124E24F0F1
:101F000073050C682C4323F002058B682B430D4DA1
:101F1000A84201D0B04205D123F00807CB683B436B
:101F200023F00403A84201D0B04205D14D6922F448
:101F3000407215438A692A4342608461496841635B
:101F40000362F0BD0000014000040140F0B5026AE8
:101F500022F010020262026A436884690D6824F468
:101F6000E64444EA05248D6822F0200242EA051284
:101F70000F4D104EA84201D0B04206D1CF6822F0DA
:101F8000800242EA071222F04002A84201D0B04289
:101F900007D14D6923F4406343EA85038D6943EA21
:101FA000850343608461496881630262F0BD00007B
:101FB0000000014000040140F0B5026A22F4807282
:101FC0000262026A4368C46922F4007224F0730555
:101FD0000C68124E2C438D6842EA05220E4DA84231
:101FE00001D0B04206D1CF6822F4006242EA072253
:101FF00022F48062A84201D0B04207D14D6923F497
:10200000405343EA05138D6943EA05134360C461F5
:102010004968C1630262F0BD000001400004014054
:1020200030B5026A22F480520262046A4268C369CF
:102030000D6823F4E64343EA05238D6824F4005435
:1020400044EA0534084DA84202D0084DA84204D104
:102050004D6922F4804242EA85124260C3614968B8
:102060000164046230BD0000000001400004014032
:1020700010B5036A046A24F001040462846924F040
:10208000F00444EA021423F00A020A438461026263
:1020900010BD10B5036A23F0100303628369046A5C
:1020A00023F4704343EA023224F0A00343EA01110F
:1020B0008261016210BD10B5806B0021C185C184B1
:1020C000FFF7E8FA10BD0168CA6822F49072CA608E
:1020D00001684A6922F001024A61202180F83A1021
:1020E000704710B590F83A10222901D0022010BD97
:1020F0008168B1F5805F11D00169002901681FD0A6
:10210000496801F07F03816A4A1C82620B70C18DAD
:10211000491E0904090CC18518D02BE00269816AA7
:10212000002A0268526805D0D2B20A80816A491C2E
:102130008162ECE7C2F308020A80816A891CF7E732
:102140004A68816A4B1C83620A70E0E70168CA68CA
:1021500022F02002CA600168CA6822F48072CA6054
:1021600001684A6922F001024A61202180F83A1090
:10217000FFF708FC002010BD2DE9F041044600687F
:102180000169E26821F44051114301612169A068AD
:10219000E26908436169114308432168CA6849F24A
:1021A0000C639A430243CA6020684169A26921F422
:1021B000407111434161E069192764253226B0F569
:1021C000004F354A354920684FF0000806D0884254
:1021D00001D0904236D1FEF737FE35E0884201D07B
:1021E000904202D1FEF730FE01E0FEF71DFE61686D
:1021F0004A18A0FB070148EB0803FDF7E1FF014681
:10220000B0FBF5F00201B1FBF5F06FF01803584395
:1022100001EB800006EBC000B0FBF5F000F0F80029
:1022200002EB4002B1FBF5F0584301EB800006EBF6
:10223000C000B0FBF5F000F0070021681044886092
:10224000BDE8F081FEF7F0FD61688B0F8A00A0FB0E
:102250000701FDF7B5FF0146B0FBF5F06FF018027E
:10226000504301EB800006EB0010B0FBF5F000F0EE
:10227000F002B1FBF5F002EB0012B1FBF5F06FF0EC
:102280001803584301EB800006EB0010B0FBF5F09B
:1022900000F00F00D1E700000014014000100140E1
:1022A00090F83910212901D0022070478168B1F5DA
:1022B000805F016A0BD04A1C026202680978516093
:1022C000C18C491E0904090CC1840ED017E009888D
:1022D0000268C1F30801516001690029016A02D056
:1022E000491C0162ECE7891CFBE70168CA6822F01F
:1022F0008002CA600068C16841F04001C1600020EE
:10230000704700000148FFF7C7B90000B80100207E
:102310000148FFF7C1B90000F80100200148FFF7AC
:10232000BBB9000038020020FEE70907090E0028AB
:1023300004DB00F1E02080F80014704700F00F008B
:1023400000F1E02080F8141D704702E008C8121F59
:1023500008C1002AFAD170477047002001E001C18E
:10236000121F002AFBD1704740210148FEF71CBB19
:102370000000024010B500F0B9F8042209A1FDF7F1
:102380006BFF002808D109480079302805D0312892
:1023900005D0322800D1022010BD002010BD012040
:1023A00010BD00007769666900000000820200200D
:1023B0000B4B01280AD002280BD003280CD004288C
:1023C0000DD1CAB201211846FEF7F5BACAB24021B2
:1023D000F9E7CAB21021F6E7CAB20421F3E7704761
:1023E00000000240FEF7F4FBFFF7ACFCFFF74CFBEC
:1023F000FFF7F2FAFFF71CFB324831490024016075
:102400003149C0E901144FF48041C0E903414461FE
:102410008461C4610462FEF7D9FAFFF7BBFBFFF7E2
:1024200017FCFFF753FC2A4828494FF4E1360160B6
:10243000C0E901640C25C460C0E904458461C4613D
:10244000FFF7B4F922482349403001607110C0E918
:102450000114C460C0E904458461C461FFF7A6F9B2
:102460001B481D4980300160C0E90164C460C0E9B7
:1024700004458461C461FFF799F900F043F800F066
:102480002FF81348012215498030FFF751FA00BF99
:10249000FFF770FF60B1FFF76DFF02280AD0FFF76A
:1024A00069FF0128F4D101210120FFF781FFEFE747
:1024B0000021F9E7FFF758FF6420FEF787F9E7E707
:1024C00000540040A4000020A0860100001001403C
:1024D000B801002000480040001401400200002024
:1024E00000210148FFF7B4B878010020044910B575
:1024F00001F10A00FDF7A7FE01480A3010BD0000F7
:102500007802002010B500210648FFF7A1F8042149
:102510000448FFF79DF8BDE8104008210148FFF787
:1025200097B80000F8000020000000000000000044
:102530000102030406070809000000000102030469
:102540006025000800000020140000004A23000855
:1025500074250008140000207C0600005A2300089F
:10256000000000000100000010000000000000005A
:042570000024F4004F
:040000050800018965
:00000001FF
