:020000040800F2
:10000000880800209D0100085F240008671C000884
:100010005D240008210400084D2A000800000000AB
:100020000000000000000000000000006324000841
:100030002304000800000000612400086524000873
:10004000B7010008B7010008B7010008B7010008B0
:10005000B7010008B7010008B7010008B7010008A0
:10006000B7010008B7010008B7010008B701000890
:10007000B7010008B7010008B7010008B701000880
:10008000B7010008B7010008DD020008B701000849
:10009000B7010008B7010008B7010008B701000860
:1000A000B7010008B7010008B7010008B701000850
:1000B000B7010008B7010008B7010008B701000840
:1000C000B7010008B7010008B7010008B701000830
:1000D000B7010008292A0008B7010008352A0008DE
:1000E000B7010008B7010008B7010008B701000810
:1000F000B7010008B7010008B7010008B701000800
:10010000B7010008B7010008B7010008B7010008EF
:10011000B7010008B7010008B7010008B7010008DF
:10012000B7010008B7010008B7010008B7010008CF
:10013000B7010008B7010008B7010008B7010008BF
:10014000B7010008B7010008B7010008B7010008AF
:10015000B7010008B7010008B7010008412A0008EC
:10016000B7010008B7010008B7010008B70100088F
:10017000B7010008B7010008B7010008000000003F
:10018000B7010008B7010008DFF80CD000F094F8C0
:1001900000480047F52A00088808002006488047E4
:1001A00006480047FEE7FEE7FEE7FEE7FEE7FEE75C
:1001B000FEE7FEE7FEE7FEE7ED2400088901000800
:1001C0002DE9F05F0546002092469B46884606468C
:1001D000814640241BE0284641464746224600F01F
:1001E0005AF853465A46C01A914110D31146184640
:1001F000224600F041F82D1A67EB01084F462246CF
:100200000120002100F038F817EB00094E41201EB4
:10021000A4F10104DFDC484631462A464346BDE8E6
:10022000F09F40EA01039B0703D009E008C9121FB1
:1002300008C0042AFAD203E011F8013B00F8013BA0
:10024000521EF9D27047D2B201E000F8012B491ECC
:10025000FBD270470022F6E710B513460A46044663
:100260001946FFF7F0FF204610BD421C10F8011B95
:100270000029FBD1801A7047202A04DB203A00FABB
:1002800002F1002070479140C2F1200320FA03F3ED
:10029000194390407047202A04DB203A21FA02F0EB
:1002A0000021704721FA02F3D040C2F120029140B0
:1002B0000843194670470000064C074D06E0E06809
:1002C00040F0010394E8070098471034AC42F6D39D
:1002D000FFF75EFFE42C0008042D000810B5044869
:1002E00000F04AF9BDE81040024800F045B90000AE
:1002F0002800002070000020464910B54A6822F40A
:1003000040324A604A6843681A434A6001684A6852
:1003100022F480724A6001684A68036942EA032253
:100320004A6001684A6822F040724A6001684A687F
:1003300083681A434A6001688A6822F400628A600E
:1003400001688A68C3681A438A60816A6FF07062C4
:10035000D14201688A6822F070628A6001688A6806
:100360000CD0836A1A438A6001688A6822F040527E
:100370008A6001688A68C36A1A4301E022F0405229
:100380008A6001688A6822F002028A6001688A68CD
:10039000037E42EA43028A6090F820100029016837
:1003A0004A680FD042F400624A6001684A6822F449
:1003B00060424A6001684A68174C436A04EB433361
:1003C0001A4301E022F400624A600168CA6A22F41A
:1003D0007002CA620168CA6A838B104C04EB035333
:1003E0001A43CA6201688A6822F400728A6001684E
:1003F0008A6890F8303042EA43228A6001688A684D
:1004000022F480628A6001688A68406942EA80203A
:10041000886010BD0023014000E0FFFF0000F0FFF6
:10042000FEE770477047000078B50024009490F80C
:100430003C20012A19D0012280F83C200A680723B9
:100440000568092A13D9EE680A3A02EB4202934082
:100450009E43EE600B788A680A3B03EB43039A40A5
:100460000368DD682A43DA6010E0022078BD2E6957
:1004700002EB420293409E432E610B788A6803EBA5
:1004800043039A4003681D692A431A614A681F237F
:10049000072A13D205686E6B521E02EB820293404C
:1004A0009E436E630B790A885B1E92B203EB830353
:1004B0009A4003685D6B2A435A6327E005680D2A5A
:1004C00012D22E6BD21F02EB820293409E432E6308
:1004D0000B790A88DB1F92B203EB83039A4003680F
:1004E0001D6B2A431A6311E0EE6A0D3A02EB820299
:1004F00093409E43EE620B790A880D3B92B203EB68
:1005000083039A400368DD6A2A43DA62164B056862
:10051000144A9D4206D10D68122D03D1556845F449
:100520008005556005689D4218D10B68102B01D0DD
:10053000112B13D1536843F4000353600968102949
:100540000CD10A490A4A0968B1FBF2F101EB8101B9
:10055000490000E0491E00910029FBD180F83C4091
:10056000002078BD0023014000200140240000202D
:1005700040420F007047704770B50446006801683C
:100580004268C1F34001C2F3401251B34AB3216C37
:10059000C90603D4216C41F400712164816811F013
:1005A000405F17D1217EA9B9C16A11F4700F02D042
:1005B000816849050ED4416821F020014160206C1A
:1005C00020F480702064206CC00403D4206C40F0C0
:1005D000010020642046FFF7CDFF21686FF0120074
:1005E0000860206801684268C1F38001C2F3C0124C
:1005F00089B382B3216CC90603D4216C41F4005144
:100600002164816811F4401F1ED1816B11F4401FD9
:1006100002D08168490517D44168490514D481681E
:1006200011F0405F10D1217E71B9416821F0800145
:100630004160206C20F480502064206CC00503D4FD
:10064000206C40F0010020642046FFF7EBFE21689B
:100650006FF00C00086020680168426811F0010F1B
:10066000C2F380120ED06AB10068C0070AD0206CB5
:1006700040F480302064204600F046F821686FF096
:1006800001000860206801684268C1F34011C2F3AC
:10069000806200290DD0002A0BD0616C41F002016C
:1006A00061646FF0200505602046FFF764FF206855
:1006B000056070BD70B504004FF0000503D0206CDC
:1006C000002610B107E0012070BD204600F01EF8A2
:1006D000666484F83C60206CC00610D4206C20F462
:1006E000885040F0020020642046FFF705FE666453
:1006F000206C20F0020040F00100206400E00125A1
:1007000084F83C60284670BD7047000070B586B024
:10071000044614216846FFF79DFD21491F4E2568B8
:1007200000231F4A143903241E48B54211D115680D
:1007300045F480751560126802F4807205920A68AB
:1007400042F001020A60096801F0010105910821E7
:1007500013E0154EB5421ED1156845F400751560BD
:10076000126802F4007205920A6842F001020A60FF
:10077000096801F0010105912021CDE900140293DF
:10078000694600F037F800221146122000F0C8FB3D
:10079000122000F0B7FB06B070BD00000020014041
:1007A00044380240000002400021014090F835101A
:1007B000022903D08021416501207047052180F87E
:1007C00035100068016821F00101016000207047C8
:1007D00070B5044600F0F0F80546601C02D00448ED
:1007E0000078044400F0E8F8401BA042FAD370BD42
:1007F000180000202DE9F84F00224FF001080325D2
:100800004FF00F0E0B6808FA02F42340A3426ED19A
:100810004E68012E05D0022E03D0112E01D0122ECB
:1008200012D186684FEA420C05FA0CF7BE43CF6836
:1008300007FA0CF7374387604668A6430C79C4F380
:100840000014944034434460C668570005FA07FC1E
:100850008C6826EA0C06BC403443C4604C68022C09
:1008600001D0122C13D1D40800EB8404A346D4F891
:10087000209054074FEAD46A0EFA0AF629EA0609CC
:100880000E6906FA0AF646EA0906CBF82060066801
:100890000C7926EA0C0604F00304BC4034430460DF
:1008A0004C68E40065D5364C266846F480462660E0
:1008B000246822F0030604F480440094314C34444C
:1008C000A446D4F808489607370F0EFA07F6B44343
:1008D0002D4EB04201D1002624E02C4EB04201D171
:1008E00001261FE02A4EB04202D102261AE040E063
:1008F000284EB04201D1032614E0274EB04201D168
:1009000004260FE0254EB04201D105260AE0244E10
:10091000B04201D1062605E0224EB04201D10726A1
:1009200000E00826BE402643CCF808681E4E346816
:100930004F689C43FF0300D51C4334601A4C241DB0
:1009400026684F689E43BF0300D51E432660164E9F
:10095000083634684F689C43FF0200D51C4334605E
:10096000114E0C3634684F689C43BF0200D51C43BF
:100970003460521C102AFFF445AFBDE8F88F000028
:1009800044380240003001400000024000040240B0
:1009900000080240000C0240001002400014024017
:1009A00000180240001C0240003C01400AB1816175
:1009B00070470904FBE700000148806870470000A9
:1009C0001800002070B5040025D094F83D000025E3
:1009D00020B984F83C50204600F004FA242084F822
:1009E0003D002068016821F0010101602068016874
:1009F00041F4004101602068016821F40041016078
:100A000000F05AFB4D4A6168914201D84C4900E020
:100A10004C49884201D2012070BD4B492368B0FB8C
:100A2000F1F15E6826F03F060E435E606368934214
:100A300006D94FF4967359434FF47A73B1FBF3F12F
:100A40002368491C1E6A26F03F063143196261681B
:100A5000914210D84900401EB0FBF1F2521CC2F383
:100A60000B02042A01D2042022E0B0FBF1F0401C6A
:100A7000C0F30B001CE0A268F2B301EBC10303EB6F
:100A80000116431EB3FBF6F35B1C43F480431B05C6
:100A900049D092B301EBC10202EB0111401EB0FB41
:100AA000F1F0401CC0F30B0040F4804040F40040E3
:100AB0002168CA694CF6FF739A431043C861D4E9B0
:100AC000071001432068026822F0C0021143016050
:100AD000D4E9030101432068826848F2FF339A4356
:100AE00011438160D4E9050108432168CA6822F0F6
:100AF000FF021043C86001E00EE016E020680168C4
:100B000041F0010101602564202084F83D00256347
:100B100084F83E50002070BD01EB4106431EB3FB3C
:100B2000F6F35B1CB3E70120C2E701EB4101401E75
:100B3000B0FBF1F0401CC0F30B00B7E7A08601004A
:100B400080841E0000093D0040420F002DE9FF4F48
:100B500081B089460446FFF72FFF054694F83D0013
:100B60004FF0010820287DD1192301225049204649
:100B7000009501F005F9002874D194F83C00012893
:100B800070D0012084F83C0020680168C90703D1B7
:100B9000016841F0010101602068016821F40061F1
:100BA0000160242084F83D00002626644148E0626C
:100BB0004FF0011B20272068016841F4807101601B
:100BC0000095002259462046049B01F0D9F850B107
:100BD00020680068C00502D54FF40070206403202F
:100BE00005B0BDE8F08F216809F0FE000861FFF74D
:100BF000E3FE2168054648694969C0F34000C1F336
:100C000080214FF0A00A0FE0FFF7D6FE411B0498A9
:100C1000814200D808B984F83DA021684869496933
:100C2000C0F34000C1F3802194F83D20A02A02D0F7
:100C300008B90029E8D084F83D7020684169C943AB
:100C4000890716D4016841F4007101602068416988
:100C500080691923012216492046009501F090F879
:100C6000B8B900E021E084F83D7084F83C600020D1
:100C7000B6E7016841F40071016021686FF480609B
:100C80004861192301220A492046009501F078F8AD
:100C900008B10120A4E7039808F1010880458AD330
:100CA00084F83D7084F83C60F3E7022098E7000088
:100CB000020010000000FFFF2DE9F84F1F4690468C
:100CC0008A460446DDF82890FFF776FE054694F83C
:100CD0003D0020287FD1192301224049204600955C
:100CE00001F04EF8002876D194F83C00012872D02B
:100CF000012084F83C0020680168C90703D101681D
:100D000041F0010101602068016821F40061016087
:100D1000212084F83D00102084F83E00002626643F
:100D2000C4F824806785608D20852D48E0622B46BD
:100D30004A465146204600F0AFFF90B9206841690D
:100D40008069009036E02A464946204601F097F82F
:100D500050B1206C042804D12068016841F400716E
:100D600001600120BDE8F88F606A216800780861A1
:100D7000606A401C6062618D491E6185218D491E3B
:100D800089B2218522685369DB435B070BD451B1DB
:100D900000781061606A401C6062608D401E608552
:100DA000208D401E20852A464946204600F0C2FF7D
:100DB0000028CED1208D0028C5D154F83D0B016804
:100DC00041F400710160202004F81E09E67766777F
:100DD0000020C7E7FFE70220C4E700000200100080
:100DE0000000FFFF10B586B0044614216846FFF7E7
:100DF00031FA14492068884221D11348016841F032
:100E0000020101600068694600F0020005904FF49D
:100E10004070009012200190012002900320039066
:100E2000042004900948FFF7E5FC074810300168EA
:100E300041F400110160006800F40010059006B054
:100E400010BD000000540040303802400004024051
:100E500002488168027811448160704718000020C0
:100E60000B4810B5016841F400710160016841F45C
:100E700080610160016841F480710160032000F02D
:100E80006FF8002000F006F800F024F8002010BDF4
:100E9000003C024070B50D4D04464FF47A7128783D
:100EA000B1FBF0F00A490968B1FBF0F000F002FB79
:100EB00048B9102C07D200222146501E00F030F80D
:100EC00000206C6070BD012070BD00001800002083
:100ED000240000200A4808B5016841F480410160FF
:100EE000006800F4804000900548001F016841F050
:100EF00080510160006800F08050009008BD000043
:100F000044380240002809DB00F01F020121914013
:100F10004009800000F1E020C0F800117047000097
:100F2000F0B40E4B1B680C46C3F30223C3F1070554
:100F3000042D00D90425191D072901D2002300E042
:100F4000DB1E012606FA05F1491E214099409E400C
:100F5000761E16403143F0BC01F079BD0CED00E087
:100F6000064900F0070208684FF6FF03184040EA00
:100F70000220034A10430860704700000CED00E0B7
:100F80000000FA052DE9F0470E46050065D0DFF8B0
:100F90001481D8F80000F7B200F00F00B04207D279
:100FA00088F80070D8F8000000F00F00B04254D16B
:100FB00028683D4C810712D5400703D5206840F4CE
:100FC000E05020602878000703D5206840F4604096
:100FD00020602068A96820F0F0000843206028788D
:100FE000C0072DD0304968680839012812D002287E
:100FF00013D0032811D00968890700292DDA216848
:1010000021F0030101432160FFF7D6FC814641F244
:10101000883A0EE009688903EFE709688901ECE77F
:10102000FFF7CAFCA0EB0901514502D90320BDE836
:10103000F0872068696800F00C00B0EB810FEFD1F9
:10104000D8F80010404601F00F01B14207D90770EF
:10105000006800F00F00B04201D00120E7E72878D7
:10106000400705D52068E96820F4E0500843206077
:101070002878000706D52068296920F4604040EAF6
:10108000C100206000F038F82168084AC1F303115C
:10109000515CC8400649086006480068FFF7FAFE40
:1010A0000020C4E7003C024008380240CC2C000875
:1010B000240000201C00002004480549006809683D
:1010C000044AC1F38221515CC840704724000020CB
:1010D00008380240DC2C000804480549006809680B
:1010E000044AC1F34231515CC840704724000020DB
:1010F00008380240DC2C0008154810B5006810F0D4
:101100000C02144813D04110042A0FD0082A0ED123
:101110000F4C241F2268236802F03F025B0207D5B0
:101120002068C0F38810A0FB010106E0084610BD4E
:101130002168C1F38811A1FB00010023FFF740F8EB
:101140002168C1F30141491C4900B0FBF1F010BD19
:10115000083802400024F4002DE9F84F040076D04E
:101160002078DFF838A3CE4DC00749D0DAF8001058
:101170005046C1F38101012908D00068C0F3810005
:1011800002280AD1281D0068400206D5286880037D
:1011900036D560680028E2D032E06068B0F5803F64
:1011A00010D0B0F5A02F286810D020F4803028602F
:1011B000286820F4802028606068A0B1FFF7FCFB5D
:1011C00006460CE0286840F48030F4E740F48020C4
:1011D0002860F7E7FFF7F0FB801B642873D82868C6
:1011E0008003F7D50CE0FFF7E7FB064605E000BFFC
:1011F000FFF7E2FB801B6428F0D828688003F7D44F
:101200002078DFF8A08280074FF000093ED5DAF899
:101210000010504611F00C0F09D00068C0F3810097
:1012200002280BD19D48001F0068400206D42868A0
:10123000800715D5E068012809D111E0E068B8B150
:101240000120C8F80000FFF7B7FB064605E020E1E3
:10125000FFF7B2FB801B0228C0D828688007F7D5AB
:101260002868216920F0F80040EAC10028600DE0FC
:10127000C8F80090FFF7A0FB064604E0FFF79CFBD0
:10128000801B02281FD828688007F7D42078000721
:1012900022D5824E844861696C3671B101210160AA
:1012A000FFF78AFB074604E0FFF786FBC01B022816
:1012B00009D830688007F7D50EE0C0F80090FFF736
:1012C0007BFB074605E082E0FFF776FBC01B0228A8
:1012D0007DD830688007F7D42078400768D5DFF8DC
:1012E000BCB100270BF1380BDBF80000C0000BD4B9
:1012F000DBF8001041F08051CBF80010DBF8000063
:10130000012700F080500090684E3068C00510D46E
:10131000306840F480703060FFF74EFB009005E0CD
:10132000FFF74AFB0099401A022850D83068C005E0
:10133000F6D55A4EA068683601280FD005283068C7
:1013400010D020F001003060306820F004003060E0
:10135000A068B8B1FFF730FB00900FE0306840F0B4
:101360000100F4E740F004003060F7E7FFF724FBEA
:101370000099411A41F28830814266D8306880076E
:10138000F4D50EE0FFF718FB009007E0FFF714FB21
:101390000099411A41F28830814256D8306880075E
:1013A000F4D42FB1DBF8001021F08051CBF80010FD
:1013B000A069D0B3DAF800205146C2F38102022AB4
:1013C0004AD00228484607D0C8F8600000E03CE058
:1013D000FFF7F2FA04463BE04746C8F86000FFF723
:1013E000EBFA064605E000BFFFF7E6FA801B02288D
:1013F0002BD828688001F7D4D4E907010843A16AF3
:101400002B4A490802EB0141626A41EA8211084312
:1014100094F82C1040EA01612048001F016001206F
:101420003866FFF7C9FA044605E034E0FFF7C4FA6E
:10143000001B022809D828688001F7D52BE000BFDF
:10144000FFF7BAFA001B022802D90320BDE8F88F83
:1014500028688001F4D41EE00128F7D00868E2690A
:1014600000F48001914214D1226A00F03F019142C0
:101470000FD147F6C071626A0140914209D1A26A58
:1014800000F44031914204D1E16A00F0706088427A
:1014900001D00120DAE70020D8E700000838024038
:1014A0000038024000004742800E47420070004072
:1014B0000000FFFF10B5401EB0F1807F01D3012076
:1014C00010BD4FF0E02460610F21601701F0BFFAFA
:1014D0000020A06107202061002010BD10B590F809
:1014E0003C20012A22D0012280F83C20CA688C6866
:1014F00022F4407222434C6822F4806222430C683A
:1015000022F4006222430C6922F4805222434C6987
:1015100022F400522243C969002322F480420A4384
:1015200001684A6480F83C30002010BD022010BDE4
:1015300070B590F83C20012A32D0012480F83C405C
:10154000022280F83D2003685A689D6822F07006E8
:101550000A6832435A60134B02689A4214D0B2F1BF
:10156000804F11D0104B9A420ED0104B9A420BD0A4
:101570000F4B9A4208D00F4B9A4205D00E4B9A421D
:1015800002D00E4B9A4204D1496825F080031943DA
:10159000916080F83D40002180F83C10084670BD05
:1015A000022070BD0000014000040040000800401F
:1015B000000C0040000401400040014000180040C1
:1015C00010B5040003D094F83D0010B107E00120ED
:1015D00010BD002084F83C00204600F00DF80220E9
:1015E00084F83D00211D206800F08EFF012084F862
:1015F0003D00002010BD000008B5134A01681348E3
:10160000914207D1016841F001010160006800F0DA
:1016100001000BE00E4A91420AD10C48001F0168FC
:1016200041F002010160006800F00200009008BD76
:10163000084A9142FBD1016841F4803101600068A1
:1016400000F48030F2E7000000000140443802401E
:10165000000400400040014070B5044690F83C0092
:10166000012817D0012584F83C50022084F83D0061
:101670002068826822F0770222F47F428260086844
:10168000502830D00DDC20284DD005DC98B3102830
:101690003BD148E0022070BD302844D0402834D1EE
:1016A00039E0602828D0702806D0B0F5805F2CD0B3
:1016B000B0F5005F29D10AE0CB68D1E901212068AB
:1016C00000F093FF2068816841F0770109E0CB6862
:1016D000D1E90121206800F088FF2068816841F489
:1016E0008041816011E0CA684968206801F052F8C1
:1016F0005021206807E016E0CA684968206801F0B8
:101700005AF86021206800F07AFF84F83D500020EC
:1017100084F83C0070BDCA684968206801F03AF856
:1017200040212068EFE7226801461046EBE7000001
:1017300030B587B0044614216846FEF78BFD246857
:101740001F4D00221F4902231F48AC420ED10C68D6
:1017500044F010040C60096801F0100105914FF489
:1017600028510091CDE90132012125E0174DAC420D
:1017700012D1086840F00200086008680093CDE9C3
:10178000013200F00200CDE90430694603921048AE
:10179000FFF730F807B030BD0E4DAC42FAD10C68FF
:1017A00044F010040C60096801F01001059120213B
:1017B0000091CDE901320321CDE903216946E7E734
:1017C0000000014030380240001002400004004098
:1017D000000402400040014070B5044690F83C000F
:1017E0000D4601280DD0012684F83C60022084F8C3
:1017F0003D0042B1042A18D0082A2AD00C2A4DD123
:1018000039E0022070BD206800F002FF2068816985
:1018100041F0080181612068816921F00401816142
:10182000206881692A69114311E0206800F020FFD7
:101830002068816941F4006181612068816921F437
:1018400080618161206881692A6941EA02218161A0
:1018500024E0206800F042FF2068C16941F00801DF
:10186000C1612068C16921F00401C1612068C169BA
:101870002A69114311E0206800F064FF2068C16903
:1018800041F40061C1612068C16921F48061C161D6
:101890002068C1692A6941EA0221C16184F83D607A
:1018A000002084F83C0070BD10B5040003D094F80B
:1018B0003D0010B107E0012010BD002084F83C007D
:1018C000204600F00CF8022084F83D00211D20681D
:1018D00000F01AFE012084F83D00002010BD704782
:1018E00010B504460068012200F072FE0B49206822
:1018F000884202D00A49884203D1416C41F4004138
:1019000041642068816801F00701062903D001685D
:1019100041F001010160002010BD00000000014005
:10192000000401407047000070B50268044610686A
:10193000D168536910F00F0F53D003F0010501F483
:1019400090762E435FD0C20705D0CA0503D5E26B5F
:1019500042F00102E263420705D5DA0703D0E26BE9
:1019600042F00202E263820705D5DA0703D0E26B98
:1019700042F00402E263020707D501F020022A4385
:1019800003D0E26B42F00802E263E26B002A34D03B
:10199000800604D5880602D5204600F034FF206872
:1019A0004069E16BC0F3801001F00801014320465B
:1019B00024D000F01AFF2068416949061AD5416910
:1019C00021F040014161606BA0B11B490165606B72
:1019D000FEF7ECFE002810D0606B016DBDE8704092
:1019E000084783060FD58B060DD52046BDE870400D
:1019F00000F009BF2046FFF795FF70BDFFF792FF8B
:101A00000020E06370BD030606D50B0604D5204612
:101A1000BDE8704000F0D6BF4006F3D54806F1D5CA
:101A2000D168204621F04001D160202184F839108E
:101A300000F018F970BD0000DB27000870B5040045
:101A400004D094F83900002510B106E0012070BDE3
:101A500084F83850204600F023F8242084F8390018
:101A60002068C16821F40051C160204600F016FFD3
:101A70002068016921F4904101612068416921F0E9
:101A80002A0141612068C16841F40051C160E563E9
:101A9000202084F8390084F83A00002070BD00004E
:101AA000F0B587B0044614216846FEF7D3FB3F49E2
:101AB000DFF8F4E0D4F800C03C4A1439C026022311
:101AC0000124032507273A48F44521D1D2F800C064
:101AD0004CF0100CC2F800C0126802F0100205921F
:101AE0000A6842F002020A600968009601F00201E9
:101AF000CDE904710DF1040C69468CE83800FEF75D
:101B000079FE002211462520FFF70AFA252022E05F
:101B1000DFF8A0E0F44522D1244A121F166846F4EB
:101B200080261660126802F4802205920A6842F04C
:101B300002020A60096801F0020105914FF4406158
:101B40008DE8BA006946FEF755FE002211462720AF
:101B5000FFF7E6F92720FFF7D5F907B0F0BD1648E3
:101B60008445FAD1106840F020001060106800F041
:101B700020000590086840F004000860086800969E
:101B800000F0040005900820CDE90350CDE90134B0
:101B900069460A48FEF72EFE002211464720FFF74D
:101BA000BFF94720D7E70000001001404438024049
:101BB00000040240004800400014014000080240B8
:101BC00090F83A30202B22D1F9B1F2B190F83830A8
:101BD000012B1CD081628285C2850021C163222233
:101BE00080F83A2080F838100168CA6842F48072A0
:101BF000CA6001684A6942F001024A610068C1682E
:101C000041F02001C1600020704701207047022090
:101C10007047000030B400680F49884213D10F4A62
:101C20000F4C0023118821B900202354401C0A289E
:101C3000FBDB0A48801C00780A2803D06054491C4A
:101C4000118000E01380054905480122891C30BC41
:101C50004038FFF7B5BF000000140140000000202D
:101C60008C0200207047FEE701684A69D2435205A2
:101C70000FD46FF480624A61002140F8301F2022A7
:101C800042738173026942F0040202610173012010
:101C90007047002070470000F8B50446C06A1E4631
:101CA0000D461746082807D0012805D010F5803FBB
:101CB00002D0206B122804D12068016841F48071A1
:101CC0000160134600224FF001112046009600F0FB
:101CD00057F840B120680068C00502D54FF4007085
:101CE00020640320F8BD2069B0F5804F0ED0062097
:101CF000216800EAD51040F0F000086133463A460A
:101D00000B49204600F070F878B902E005F0FE00BB
:101D100000E0E8B221680861054933463A46891F68
:101D2000204600F061F80028DCD00120F8BD00005A
:101D30000800010070B516460D4604460DE0204629
:101D4000FFF792FF08B1012070BD681C05D0FEF7B7
:101D500033FE801BA84207D835B120684069C043D4
:101D60004007ECD4002070BD002044F8300F202143
:101D70006173A073216941F0200121612073E2E7C2
:101D80002DE9F0471E4690460D460446C1F307472D
:101D9000DDF8209008E0701C06D0FEF70DFEA0EBE9
:101DA0000900B0420FD876B12068012F18D08069A1
:101DB00025EA00000004000C14D000214145EAD0BF
:101DC0000020BDE8F087002044F8300F2021617327
:101DD000A073216941F02001216120730120F0E707
:101DE0004069E5E70121E9E72DE9F0479A46914688
:101DF0000E46044600254FF02008C1F3074725E0B2
:101E000020684069C043400514D42068016841F44B
:101E10000071016021686FF480604861256384F877
:101E20003D8084F83E50206C40F00400206484F82B
:101E30003C501FE0B9F1FF3F08D0FEF7BDFDA0EB1D
:101E40000A0149450CD8B9F1000F09D02068012FCB
:101E500013D0806926EA00000004000C0BD0CFE705
:101E600044F8305F84F80D80A573206940F02000AD
:101E7000206125730120BDE8F0874069EAE770B56D
:101E800016460D4604460DE02046FFF7EDFE08B16C
:101E9000012070BD681C05D0FEF78EFD801BA84296
:101EA00007D835B120684069C0430006ECD4002053
:101EB00070BD002044F8300F20216173A0732169A8
:101EC00041F0200121612073E2E700000449082865
:101ED00001D0002803D1C871202000F0CFB870478E
:101EE0000400002010B5012000F0A2F84FF47A7031
:101EF000FEF76EFC022000F09BF80520FEF768FC60
:101F0000282000F095F80520FEF762FC0C2000F078
:101F10008FF80520FEF75CFC802000F089F8BDE812
:101F200010404FF4FA70FEF753BC00002DE9F04763
:101F3000304D00260446EE7071B301292FD12E4991
:101F4000002000BF41F82040401C641C6428F9DBDD
:101F500089460868FEF789F92871264FA87808375E
:101F6000391811F8011C00F049F8A97807F10408A4
:101F700008EB010010F8014C1AE0641C00F07EF838
:101F8000E878401CC0B2E870142805D1A878012177
:101F9000401C00F033F8EE7020780028EDD1BDE849
:101FA000F08700BF59F82400007800F067F8641C3F
:101FB00028798442F6DBA978781810F8012C521E93
:101FC00012F0FF0200F8012CE9D10122414400F88F
:101FD000012C11F8012C521CD2B201F8012C2B79E2
:101FE0009A42DCD1142200F8012C01F8016C2E7108
:101FF000D5E7000004000020A00200200A4A9070EB
:10200000421E032A0ED84A1E132A0BD8074A00EB99
:10201000800002EB8000084410F8150C40F08000AE
:1020200000F006B870470000040000207C2C000877
:1020300038B5104C627800EA020102EA0010E27939
:1020400011431043617104F11002A07141F00403C7
:102050001370517040F004019170D07000F01EFDBB
:10206000C8200090042304F1100221780248FEF7F2
:1020700023FE38BD040000203004002038B5124C87
:10208000627800EA020102EA0010E279114361710C
:10209000104341F0050304F11002A071137041F0E8
:1020A0000101517040F00501917040F00100D070C5
:1020B00000F0F4FCC8200090042304F11002217801
:1020C0000248FEF7F9FD38BD04000020300400206E
:1020D00070B53220FEF77CFB00F0E0FC054D4FF4BC
:1020E0007A742346032229780348FEF72FFD00283F
:1020F000F7D170BD04000020300400207FB500241B
:1021000012480094019402940F490394C0E900140A
:102110004FF0007104618160047680F820400C4922
:10212000C0E90A140125C561C46080F830404561EA
:10213000FEF7C0FA0320CDE9000569460294034882
:10214000FEF772F97FBD000000200140280000204A
:102150000100000F7FB500241248009401940294FE
:102160000F490394C0E900144FF0007104618160CD
:10217000047680F820400C49C0E90A140125C561A5
:10218000C46080F830404561FEF794FA0520CDE93F
:102190000005694602940348FEF746F97FBD00003A
:1021A00000210140700000200100000FF0B587B051
:1021B00014216846FEF74EF83A480024016841F0C1
:1021C00010010160016801F010010591016841F002
:1021D00080010160016801F080010591016841F012
:1021E00004010160016801F004010591016841F0FA
:1021F00001010160016801F001010591016841F0F0
:1022000002010160016801F002010591016841F0DD
:10221000080101600068244E00F0080005900022CB
:1022200005213046FEF7C2FB204F002257213846D9
:10223000FEF7BCFB052000900125CDE9015469465D
:1022400030460394FEF7D6FA40F60800CDE90004C4
:10225000694630460294FEF7CDFA57200090CDE94A
:102260000154694638460394FEF7C4FA48F28000E8
:10227000CDE90004694638460294FEF7BBFA5520C2
:10228000CDE9000469460A480294FEF7B3FA082033
:10229000CDE90004694607480294FEF7ABFA07B09F
:1022A000F0BD00003038024000080240000002404B
:1022B000000C02400004024010B596B000240F94B8
:1022C00010941194129413941C2168461494FDF7F1
:1022D000C1FF202107A8FDF7BDFF25482349016064
:1022E00040F28331C0E9011440F2E731C0E9031440
:1022F00044618461FFF764F94FF480500F900FA997
:102300001B48FFF7A9F91A48FFF7CEFA139413A94F
:1023100017481494FFF70CF96020CDE900040294EB
:102320000394049405940022694611480694FFF72B
:1023300053FA042269460E48FFF74EFA082269460E
:102340000B48FFF749FA0794089409944FF400509A
:102350000A94CDE90B4007A905480E94FFF7BEF893
:102360000348FFF7E5F916B010BD0000000001407A
:102370000C01002010B58EB0002407940894099435
:102380000A940B941C2168460C94FDF763FF1748D0
:102390001549016040F28331C0E9011440F2E73190
:1023A000C0E903148461FFF70BF94FF480500790E4
:1023B00007A90E48FFF750F90C48FFF775FA0B9480
:1023C0000BA90A480C94FFF7B3F86020CDE900048C
:1023D00002940C22694605480494FFF7FDF903486E
:1023E000FFF7A6F90EB010BD000400404C0100201C
:1023F00010B58CB000240794089409941C216846F9
:102400000A94FDF727FF14481249016040F2C111F8
:10241000C0E901146321C0E903148461FFF7D0F817
:102420004FF48050079007A90B48FFF715F90A48A9
:10243000FFF73AFA6020CDE90004029400226946D1
:1024400005480494FFF7C8F90348FFF771F90CB089
:1024500010BD0000004001408C010020FEE77047E5
:1024600070477047FEF7F4BC30B593B03021684632
:10247000FDF7F0FE14210CA8FDF7ECFE194800252D
:10248000016841F080510160006800F080501190B7
:102490001548016841F4804101600068022400F49D
:1024A0008040119001200090000401908001CDE94E
:1024B000064008200890B420CDE9090404200B90C0
:1024C0006846FEF749FE0CA90F2081E831004FF461
:1024D000A0500F90109002210CA8FEF753FD13B0EE
:1024E00030BD0000403802400070004005480168DF
:1024F00041F47001016003494FF0006080390860C9
:102500007047000088ED00E0F0B50268254C264DCC
:10251000264E274F274B4FF0804CA04209D06045F4
:1025200007D0A84205D0B04203D0B84201D09842AB
:1025300004D122F0700E4A6842EA0E02A0421BD07B
:10254000604519D0A84217D0B04215D0B84213D078
:10255000984211D0184DA8420ED0184DA8420BD069
:10256000174DA84208D0174DA84205D0164DA842D5
:1025700002D0164DA84203D122F44075CA682A43FE
:102580004D6922F080022A4302608A68C2620A68AA
:102590008262A04201D0984201D109690163012100
:1025A0004161F0BD0000014000040040000800400F
:1025B000000C004000040140004001400044014084
:1025C0000048014000180040001C0040002000406E
:1025D00010B501F01F030121046A99408C43046285
:1025E000016A9A401143016210BD10B5846842EA45
:1025F000032224F47F440A432243826010BD826890
:1026000022F070020A4342F0070181607047000027
:10261000F0B5026A22F001020262036A426884692C
:10262000124E24F073050C682C4323F002058B68CE
:102630002B430D4DA84201D0B04205D123F008072D
:10264000CB683B4323F00403A84201D0B04205D13C
:102650004D6922F4407215438A692A4342608461BD
:10266000496841630362F0BD00000140000401407D
:10267000F0B5026A22F010020262026A43688469BD
:102680000D6824F4E64444EA05248D6822F0200213
:1026900042EA05120F4D104EA84201D0B04206D1B9
:1026A000CF6822F0800242EA071222F04002A842DC
:1026B00001D0B04207D14D6923F4406343EA85035A
:1026C0008D6943EA850343608461496881630262DE
:1026D000F0BD00000000014000040140F0B5026AB6
:1026E00022F480720262026A4368C46922F40072B2
:1026F00024F073050C68124E2C438D6842EA0522C3
:102700000E4DA84201D0B04206D1CF6822F400623B
:1027100042EA072222F48062A84201D0B04207D1E7
:102720004D6923F4405343EA05138D6943EA0513C9
:102730004360C4614968C1630262F0BD00000140AA
:102740000004014030B5026A22F480520262046A39
:102750004268C3690D6823F4E64343EA05238D68A4
:1027600024F4005444EA0534084DA84202D0084D30
:10277000A84204D14D6922F4804242EA85124260A7
:10278000C36149680164046230BD0000000001407B
:102790000004014010B5036A046A24F001040462D5
:1027A000846924F0F00444EA021423F00A020A4384
:1027B0008461026210BD10B5036A23F01003036246
:1027C0008369046A23F4704343EA023224F0A003CD
:1027D00043EA01118261016210BD10B5806B0021D6
:1027E000C185C184FFF79EF810BD0168CA6822F454
:1027F0009072CA6001684A6922F001024A61202190
:1028000080F83A10704710B590F83A10222901D09C
:10281000022010BD8168B1F5805F11D001690029E7
:1028200001681FD0496801F07F03816A4A1C8262F7
:102830000B70C18D491E0904090CC18518D02BE00D
:102840000269816A002A0268526805D0D2B20A8001
:10285000816A491C8162ECE7C2F308020A80816A3E
:10286000891CF7E74A68816A4B1C83620A70E0E7BB
:102870000168CA6822F02002CA600168CA6822F4AE
:102880008072CA6001684A6922F001024A6120210F
:1028900080F83A10FFF7BEF9002010BD2DE9F04195
:1028A000044600680169E26821F440511143016166
:1028B0002169A068E26908436169114308432168FE
:1028C000CA6849F20C639A430243CA6020684169AE
:1028D000A26921F4407111434161E069192764251F
:1028E0003226B0F5004F354A354920684FF00008D0
:1028F00006D0884201D0904236D1FEF7EDFB35E09C
:10290000884201D0904202D1FEF7E6FB01E0FEF7DB
:10291000D3FB61684A18A0FB070148EB0803FDF7E9
:102920004FFC0146B0FBF5F00201B1FBF5F06FF092
:102930001803584301EB800006EBC000B0FBF5F034
:1029400000F0F80002EB4002B1FBF5F0584301EB58
:10295000800006EBC000B0FBF5F000F00700216836
:1029600010448860BDE8F081FEF7A6FB61688B0F1C
:102970008A00A0FB0701FDF723FC0146B0FBF5F040
:102980006FF01802504301EB800006EB0010B0FB23
:10299000F5F000F0F002B1FBF5F002EB0012B1FB34
:1029A000F5F06FF01803584301EB800006EB0010C0
:1029B000B0FBF5F000F00F00D1E70000001401407B
:1029C0000010014090F83910212901D002207047F1
:1029D0008168B1F5805F016A0BD04A1C026202680F
:1029E00009785160C18C491E0904090CC1840ED0BC
:1029F00017E009880268C1F30801516001690029E4
:102A0000016A02D0491C0162ECE7891CFBE70168FE
:102A1000CA6822F08002CA600068C16841F04001C3
:102A2000C1600020704700000148FEF77DBF000034
:102A3000CC0100200148FEF777BF00000C02002007
:102A40000148FEF771BF00004C020020FEE70907B5
:102A5000090E002804DB00F1E02080F80014704724
:102A600000F00F0000F1E02080F8141D704702E034
:102A700008C8121F08C1002AFAD170477047002009
:102A800001E001C1121F002AFBD170470249B1FBCE
:102A9000F0F080B270470000A086010070B52A22D5
:102AA00012491348FDF7BDFB104C608D104D688531
:102AB000E06AE862206B2863092204F1340105F121
:102AC0003400FDF7AEFB94F83D0085F83D0094F826
:102AD0003E0085F83E00206C2864606C6864A06C41
:102AE000A864E06CE864206D286570BDB800002023
:102AF00030040020FEF7B4F9FFF7B6FCFFF756FBF1
:102B0000FFF7FCFAFFF726FB3B483A490024016037
:102B10003A49C0E901144FF48041C0E903414461DE
:102B20008461C4610462FDF74DFFFFF7C5FBFFF749
:102B300021FCFFF75DFC334831494FF4E136016079
:102B4000C0E901640C25C460C0E904458461C46126
:102B5000FEF774FF2B482C49403001607110C0E92A
:102B60000114C460C0E904458461C461FEF766FFD6
:102B70002448264980300160C0E90164C460C0E98E
:102B800004458461C461FEF759FF00F065F800F068
:102B900045F81C4801221E498030FFF711F8FFF765
:102BA00097FAFFF79FF90820FFF790F901210846EF
:102BB000FFF724FA002117A0FFF7B8F94FF4A57525
:102BC0004FF4FA744FF4DC7640F22627284600F0E2
:102BD0002BF82046FDF7FCFD304600F025F8204696
:102BE000FDF7F6FD384600F01FF82046FDF7F0FD32
:102BF000ECE7000000540040B8000020A08601006F
:102C000000100140CC0100200048004000140140A9
:102C10000200002068656C6C6F0000000021014814
:102C2000FEF75EBE8C010020024600B5A0F596704E
:102C3000084BB0F5167F09D81046FFF727FF196833
:102C4000C8621046FFF722FF400800E00020196824
:102C5000486300BD8C01002010B500210648FEF736
:102C60003FFE04210448FEF73BFEBDE8104008216A
:102C70000148FEF735BE00000C01002000010203F0
:102C80000405060708090A0B0C0D0E0F101112138C
:102C9000404142434445464748494A4B4C4D4E4FBC
:102CA000505152531415161718191A1B1C1D1E1FAC
:102CB00020212223242526275455565758595A5B3C
:102CC0005C5D5E5F60616263646566670000000072
:102CD00000000000010203040607080900000000CC
:102CE00001020304042D0008000000202800000059
:102CF0006E2A00082C2D0008280000206008000023
:102D00007E2A0008000000004EF0010000000000D4
:102D10001414141400000000000000000100000062
:0C2D200010000000000000000024F4007F
:040000050800018965
:00000001FF
