:020000040800F2
:10000000480700209D010008F31C0008151800088F
:10001000F11C00087B0700085520000800000000C4
:10002000000000000000000000000000F71C0008B5
:100030007D07000800000000F51C0008F91C0008FE
:10004000B7010008B7010008B7010008B7010008B0
:10005000B7010008B7010008B7010008B7010008A0
:10006000B7010008B7010008B7010008B701000890
:10007000B7010008B7010008B7010008B701000880
:10008000B7010008B7010008B7010008B701000870
:10009000B7010008B7010008B7010008B701000860
:1000A000B7010008B7010008B7010008B701000850
:1000B000B7010008B7010008B7010008B701000840
:1000C000B7010008B7010008B7010008B701000830
:1000D000B70100083D20000849200008B7010008CA
:1000E000B7010008B7010008B7010008B701000810
:1000F000B7010008B7010008B7010008B701000800
:10010000B7010008B7010008B7010008B7010008EF
:10011000B7010008B7010008B7010008B7010008DF
:10012000B7010008B7010008B7010008B7010008CF
:10013000B7010008B7010008B7010008B7010008BF
:10014000B7010008B7010008B7010008B7010008AF
:10015000B7010008B7010008B7010008B70100089F
:10016000B7010008B7010008B7010008B70100088F
:10017000B7010008B7010008B7010008000000003F
:10018000B7010008B7010008DFF80CD000F074FADE
:1001900000480047152E0008480700200648804701
:1001A00006480047FEE7FEE7FEE7FEE7FEE7FEE75C
:1001B000FEE7FEE7FEE7FEE76D1D00088901000887
:1001C0002DE9F05F0546002092469B46884606468C
:1001D000814640241BE0284641464746224600F01F
:1001E00083F853465A46C01A914110D31146184617
:1001F000224600F06AF82D1A67EB01084F462246A6
:100200000120002100F061F817EB00094E41201E8B
:10021000A4F10104DFDC484631462A464346BDE8E6
:10022000F09F40EA01039B0703D009E008C9121FB1
:1002300008C0042AFAD203E011F8013B00F8013BA0
:10024000521EF9D27047D2B201E000F8012B491ECC
:10025000FBD270470022F6E710B513460A46044663
:100260001946FFF7F0FF204610BD421C10F8011B95
:100270000029FBD1801A704700F0004230F00040A6
:100280000AD0C10D01F56071C0F3160042EA0151B8
:10029000C20840071143704700200146704730B53F
:1002A0000B46014600202022012409E021FA02F534
:1002B0009D4205D303FA02F5491B04FA02F52844CE
:1002C000151EA2F10102F1DC30BD202A04DB203A28
:1002D00000FA02F1002070479140C2F1200320FA99
:1002E00003F3194390407047202A04DB203A21FA97
:1002F00002F00021704721FA02F3D040C2F120023F
:1003000091400843194670472DE9FE4F804681EA27
:100310000300C00F0C46009021F0004123F000457F
:10032000B8EB0200A94105D24046214690461C4642
:100330000B46024623F00040104347D0270DC7F379
:100340000A00C3F30A510290401A019040286BDA68
:10035000C3F3130040F4801B0098924620B10023A1
:10036000D2EB030A63EB0B0B01985946C0F1400234
:100370005046FFF7AAFF06460D4650465946019AD9
:1003800000F08CF910EB08006141002487EA11525B
:1003900084EAE7731A4340D0009A62B3019A012AB3
:1003A0004FEA075215DC001B61EB02014FF00042DF
:1003B00002EA0752CDE90042001C41F580113246A5
:1003C0002B4600F08CF903B0BDE8F08F4046214683
:1003D000F9E7001B61EB0201001C41F580130018D6
:1003E0005B412018A2F5001747EB030140EAD570E6
:1003F000B6196D4111E06D084FEA360645EAC07541
:100400004FEA0752001B61EB0201001C41F580110D
:1004100049084FEA30000019514132462B4603B0DB
:10042000BDE8F04F00F04CB90098012240000023D5
:10043000D0EB020263EBE073009821464FEAE074D0
:10044000B8EB000061EB0401E9E783F000435BE7F0
:1004500081F0004158E72DE9FE4F81EA030404F0E2
:10046000004421F0004100944FF0000B23F00043C2
:1004700050EA01045ED052EA03045BD0C3F30A548D
:10048000C1F30A552C44A4F2F3340194A0FB0254A6
:10049000C1F3130141F48011C3F3130343F4801338
:1004A00001FB024400FB034E840A970A44EA81548C
:1004B00047EA8357A4FB076802958D0A05FB078569
:1004C0004FEA932C04FB0C542705029D4FEA065873
:1004D00047EA1637B5EB08056EEB070C870E920E50
:1004E00047EA811742EA8312A7FB0201B6EB0B0130
:1004F00064EB00042B0D43EA0C335E1844EB1C50F4
:10050000DA465146E7FB0201C5F313044FEA0B3309
:1005100043EA14534FEA0432019C43EA0603A4F170
:100520000C040294009CCDE900B400F0D8F803B0AC
:10053000BDE8F08F00200146F9E72DE9F04D81EA92
:10054000030404F0004B21F0004514464FF0000A6C
:1005500023F0004150EA050220D054EA01021DD0E8
:10056000C5F30A570246C5F31303C1F31300C1F3E1
:100570000A5640F4801543F48013A7EB0608101BBD
:10058000D64608F2FD3873EB050002D308F10108E6
:1005900001E092185B41B8F1000F03DA0020014638
:1005A000BDE8F08D00204FF48011064684460EE031
:1005B000171B73EB050705D3121B63EB05030643FB
:1005C0004CEA010C49084FEA300092185B4150EAAE
:1005D0000107EDD152EA030012D082EA040083EA57
:1005E0000501084305D0101BAB4106D201220023B0
:1005F00006E000224FF0004302E06FF001025310CA
:100600001AEB06004CEB085110EB0A0041EB0B0112
:10061000BDE8F04D00F054B8C1F30A52C1F3130124
:1006200040F2FF3341F480119A4202DA0020014681
:10063000704740F233439A42A2F2334202DC524204
:10064000FFF752BEFFF741BE30B5041E71F1000442
:1006500004DB4FF00044404264EB0101141E73F1CF
:10066000000405DB1C464FF00043524263EB0403D9
:10067000994208BF904230BD064C074D06E0E06845
:1006800040F0010394E8070098471034AC42F6D3D9
:10069000FFF77EFDF431000814320008202A06DB43
:1006A000CB17203A41FA02F043EAE07306E041FA40
:1006B00002F3D040C2F1200291400843194670472E
:1006C00010B5141E73F1000408DA401C41F100015A
:1006D00092185B411A4301D120F0010010BD2DE9B1
:1006E000F04D92469B4611B1B1FA81F202E0B0FAA8
:1006F00080F220329046FFF7E8FD04460F4640EABC
:100700000A0041EA0B0153465A46084313D01146EA
:1007100053EA010019D0C8F140025046FFF7E4FD4A
:1007200005460E46504659464246FFF7CEFD084361
:1007300005D0012004E020463946BDE8F08D0020B8
:10074000054346EAE0762C4337430A986305E40AFA
:10075000A0EB08000022FD0A44EA47540A3002D503
:1007600000200146E9E7010510196941DDE9084566
:1007700000196941BDE8F04DA2E7FEE7704790F827
:100780003510022903D080214165012070470521E1
:1007900080F835100068016821F001010160002037
:1007A0007047000070B5044600F0EAF80546601C8A
:1007B00002D004480078044400F0E2F8401BA04254
:1007C000FAD370BD200000202DE9F84F00224FF031
:1007D000010803254FF00F0E0B6808FA02F42340BE
:1007E000A3426ED14E68012E05D0022E03D0112EE9
:1007F00001D0122E12D186684FEA420C05FA0CF78E
:10080000BE43CF6807FA0CF7374387604668A643B4
:100810000C79C4F30014944034434460C668570014
:1008200005FA07FC8C6826EA0C06BC403443C46019
:100830004C68022C01D0122C13D1D40800EB840494
:10084000A346D4F8209054074FEAD46A0EFA0AF669
:1008500029EA06090E6906FA0AF646EA0906CBF8FD
:10086000206006680C7926EA0C0604F00304BC40FC
:10087000344304604C68E40065D5364C266846F481
:1008800080462660246822F0030604F48044009425
:10089000314C3444A446D4F808489607370F0EFA72
:1008A00007F6B4432D4EB04201D1002624E02C4E71
:1008B000B04201D101261FE02A4EB04202D10226E9
:1008C0001AE040E0284EB04201D1032614E0274E42
:1008D000B04201D104260FE0254EB04201D10526D9
:1008E0000AE0244EB04201D1062605E0224EB04275
:1008F00001D1072600E00826BE402643CCF8086850
:100900001E4E34684F689C43FF0300D51C4334607F
:100910001A4C241D26684F689E43BF0300D51E4312
:100920002660164E083634684F689C43FF0200D597
:100930001C433460114E0C3634684F689C43BF0230
:1009400000D51C433460521C102AFFF445AFBDE8AB
:10095000F88F00004438024000300140000002409F
:100960000004024000080240000C02400010024057
:100970000014024000180240001C0240003C0140EC
:1009800001488068704700002000002070B5040016
:1009900025D094F83D00002520B984F83C5020462D
:1009A00000F004FA242084F83D002068016821F05A
:1009B000010101602068016841F400410160206884
:1009C000016821F40041016000F058FB4D4A616864
:1009D000914201D84C4900E04C49884201D20120A3
:1009E00070BD4B492368B0FBF1F15E6826F03F060D
:1009F0000E435E606368934206D94FF49673594381
:100A00004FF47A73B1FBF3F12368491C1E6A26F098
:100A10003F06314319626168914210D84900401E77
:100A2000B0FBF1F2521CC2F30B02042A01D20420E3
:100A300022E0B0FBF1F0401CC0F30B001CE0A26808
:100A4000F2B301EBC10303EB0116431EB3FBF6F354
:100A50005B1C43F480431B0549D092B301EBC102F8
:100A600002EB0111401EB0FBF1F0401CC0F30B0083
:100A700040F4804040F400402168CA694CF6FF739E
:100A80009A431043C861D4E9071001432068026803
:100A900022F0C00211430160D4E903010143206840
:100AA000826848F2FF339A4311438160D4E905011B
:100AB00008432168CA6822F0FF021043C86001E0C1
:100AC0000EE016E02068016841F001010160256434
:100AD000202084F83D00256384F83E50002070BD3E
:100AE00001EB4106431EB3FBF6F35B1CB3E70120A9
:100AF000C2E701EB4101401EB0FBF1F0401CC0F326
:100B00000B00B7E7A086010080841E0000093D00AD
:100B100040420F002DE9FF4F81B089460446FFF7A0
:100B20002FFF054694F83D004FF0010820287DD1A5
:100B30001923012250492046009500F0F7FE0028B5
:100B400074D194F83C00012870D0012084F83C0056
:100B500020680168C90703D1016841F00101016003
:100B60002068016821F400610160242084F83D00C0
:100B7000002626644148E0624FF0011B20272068D0
:100B8000016841F4807101600095002259462046B9
:100B9000049B00F0CBFE50B120680068C00502D570
:100BA0004FF400702064032005B0BDE8F08F216889
:100BB00009F0FE000861FFF7E3FE21680546486979
:100BC0004969C0F34000C1F380214FF0A00A0FE053
:100BD000FFF7D6FE411B0498814200D808B984F87B
:100BE0003DA0216848694969C0F34000C1F38021F4
:100BF00094F83D20A02A02D008B90029E8D084F852
:100C00003D7020684169C943890716D4016841F4E1
:100C10000071016020684169806919230122164929
:100C20002046009500F082FEB8B900E021E084F88B
:100C30003D7084F83C600020B6E7016841F4007123
:100C4000016021686FF480604861192301220A491C
:100C50002046009500F06AFE08B10120A4E7039841
:100C600008F1010880458AD384F83D7084F83C601F
:100C7000F3E7022098E70000020010000000FFFFE9
:100C80002DE9F84F1F4690468A460446DDF8289025
:100C9000FFF776FE054694F83D0020287FD1192302
:100CA000012240492046009500F040FE002876D100
:100CB00094F83C00012872D0012084F83C002068A0
:100CC0000168C90703D1016841F001010160206892
:100CD000016821F400610160212084F83D001020AA
:100CE00084F83E0000262664C4F824806785608D61
:100CF00020852D48E0622B464A465146204600F0AA
:100D0000A1FD90B9206841698069009036E02A46CB
:100D10004946204600F089FE50B1206C042804D1D9
:100D20002068016841F4007101600120BDE8F88F7E
:100D3000606A216800780861606A401C6062618DA9
:100D4000491E6185218D491E89B22185226853691A
:100D5000DB435B070BD451B100781061606A401C23
:100D60006062608D401E6085208D401E20852A4671
:100D70004946204600F0B4FD0028CED1208D002841
:100D8000C5D154F83D0B016841F400710160202089
:100D900004F81E09E67766770020C7E7FFE7022020
:100DA000C4E70000020010000000FFFF10B586B08D
:100DB000044614216846FFF74DFA1349206888421B
:100DC00020D11248016841F00201016000686946C3
:100DD00000F002000590C020009012200190012038
:100DE000029003200390042004900948FFF7ECFCD4
:100DF00006481030016841F400110160006800F4F9
:100E00000010059006B010BD00540040303802407C
:100E100000040240024881680278114481607047F2
:100E2000200000200B4810B5016841F400710160FA
:100E3000016841F480610160016841F480710160E2
:100E4000032000F06FF8002000F006F800F024F80E
:100E5000002010BD003C024070B50D4D04464FF41B
:100E60007A712878B1FBF0F00A490968B1FBF0F01B
:100E700000F004FB48B9102C07D200222146501E76
:100E800000F030F800206C6070BD012070BD0000E3
:100E9000200000202C0000200A4808B5016841F419
:100EA00080410160006800F4804000900548001F08
:100EB000016841F080510160006800F080500090AE
:100EC00008BD000044380240002809DB00F01F0282
:100ED000012191404009800000F1E020C0F800119C
:100EE00070470000F0B40E4B1B680C46C3F302239E
:100EF000C3F10705042D00D90425191D072901D2C6
:100F0000002300E0DB1E012606FA05F1491E214000
:100F100099409E40761E16403143F0BC01F0B0B8B7
:100F20000CED00E0064900F0070208684FF6FF03E9
:100F3000184040EA0220034A10430860704700004E
:100F40000CED00E00000FA052DE9F0470E46050023
:100F500065D0DFF81481D8F80000F7B200F00F0078
:100F6000B04207D288F80070D8F8000000F00F00F7
:100F7000B04254D128683D4C810712D5400703D5B3
:100F8000206840F4E05020602878000703D52068EE
:100F900040F4604020602068A96820F0F000084319
:100FA00020602878C0072DD03049686808390128AA
:100FB00012D0022813D0032811D00968890700290C
:100FC0002DDA216821F0030101432160FFF7D8FCED
:100FD000814641F2883A0EE009688903EFE7096823
:100FE0008901ECE7FFF7CCFCA0EB0901514502D9E0
:100FF0000320BDE8F0872068696800F00C00B0EBC2
:10100000810FEFD1D8F80010404601F00F01B14236
:1010100007D90770006800F00F00B04201D001202E
:10102000E7E72878400705D52068E96820F4E05014
:10103000084320602878000706D52068296920F435
:10104000604040EAC100206000F038F82168084A9A
:10105000C1F30311515CC8400649086006480068A6
:10106000FFF7FAFE0020C4E7003C024008380240C7
:10107000DC3100082C000020240000200448054931
:1010800000680968044AC1F38221515CC840704776
:101090002C00002008380240EC31000804480549C3
:1010A00000680968044AC1F34231515CC840704786
:1010B0002C00002008380240EC310008154810B51B
:1010C000006810F00C02144813D01449042A0FD001
:1010D000082A0ED10F4C241F2268236802F03F0219
:1010E0005B0207D52068C0F38810A0FB010106E071
:1010F000084610BD2168C1F38811A1FB000100233F
:10110000FFF75EF82168C1F30141491C4900B0FBBB
:10111000F1F010BD083802400024F40040787D0151
:101120002DE9F84F040076D02078DFF838A3CE4DB3
:10113000C00749D0DAF800105046C1F381010129F7
:1011400008D00068C0F3810002280AD1281D006879
:10115000400206D52868800336D560680028E2D0B2
:1011600032E06068B0F5803F10D0B0F5A02F28685D
:1011700010D020F480302860286820F48020286077
:101180006068A0B1FFF7FCFB06460CE0286840F45D
:101190008030F4E740F480202860F7E7FFF7F0FBA9
:1011A000801B642873D828688003F7D50CE0FFF70C
:1011B000E7FB064605E000BFFFF7E2FB801B642863
:1011C000F0D828688003F7D42078DFF8A082800761
:1011D0004FF000093ED5DAF80010504611F00C0F20
:1011E00009D00068C0F3810002280BD19D48001F80
:1011F0000068400206D42868800715D5E0680128F9
:1012000009D111E0E068B8B10120C8F80000FFF78B
:10121000B7FB064605E020E1FFF7B2FB801B022882
:10122000C0D828688007F7D52868216920F0F80021
:1012300040EAC10028600DE0C8F80090FFF7A0FB6D
:10124000064604E0FFF79CFB801B02281FD8286895
:101250008007F7D42078000722D5824E8448616940
:101260006C3671B101210160FFF78AFB074604E08B
:10127000FFF786FBC01B022809D830688007F7D526
:101280000EE0C0F80090FFF77BFB074605E082E028
:10129000FFF776FBC01B02287DD830688007F7D4A3
:1012A0002078400768D5DFF8BCB100270BF1380B78
:1012B000DBF80000C0000BD4DBF8001041F08051D7
:1012C000CBF80010DBF80000012700F08050009000
:1012D000684E3068C00510D4306840F480703060CB
:1012E000FFF74EFB009005E0FFF74AFB0099401A1C
:1012F000022850D83068C005F6D55A4EA068683626
:1013000001280FD00528306810D020F0010030608F
:10131000306820F004003060A068B8B1FFF730FBFF
:1013200000900FE0306840F00100F4E740F0040066
:101330003060F7E7FFF724FB0099411A41F288304B
:10134000814266D830688007F4D50EE0FFF718FBBD
:10135000009007E0FFF714FB0099411A41F2883032
:10136000814256D830688007F4D42FB1DBF80010E2
:1013700021F08051CBF80010A069D0B3DAF800203A
:101380005146C2F38102022A4AD00228484607D0B9
:10139000C8F8600000E03CE0FFF7F2FA04463BE0EA
:1013A0004746C8F86000FFF7EBFA064605E000BFC5
:1013B000FFF7E6FA801B02282BD828688001F7D4B3
:1013C000D4E907010843A16A2B4A490802EB01410D
:1013D000626A41EA8211084394F82C1040EA0161E4
:1013E0002048001F016001203866FFF7C9FA044653
:1013F00005E034E0FFF7C4FA001B022809D828688A
:101400008001F7D52BE000BFFFF7BAFA001B0228D6
:1014100002D90320BDE8F88F28688001F4D41EE0CB
:101420000128F7D00868E26900F48001914214D1E4
:10143000226A00F03F0191420FD147F6C071626A03
:101440000140914209D1A26A00F44031914204D195
:10145000E16A00F07060884201D00120DAE70020E4
:10146000D8E7000008380240003802400000474238
:10147000800E4742007000400000FFFF10B5401E84
:10148000B0F1807F01D3012010BD4FF0E0246061F6
:101490000F21601700F0F4FD0020A06107202061FB
:1014A000002010BD7047000070B502680446106847
:1014B000D168536910F00F0F52D003F0010501F409
:1014C00090762E435FD0C20705D0CA0503D5E26BE4
:1014D00042F00102E263420705D5DA0703D0E26B6E
:1014E00042F00202E263820705D5DA0703D0E26B1D
:1014F00042F00402E263020707D501F020022A430A
:1015000003D0E26B42F00802E263E26B002A33D0C0
:10151000800604D5880602D5204600F04BFC2068E2
:101520004069E16BC0F38010090700D428B320465E
:1015300000F032FC2068416949061AD5416921F062
:1015400040014161606BA0B11B490165606BFFF711
:1015500016F9002810D0606B016DBDE87040084797
:10156000830610D58B060ED52046BDE8704000F0EE
:1015700021BC2046FFF796FF70BD2046FFF792FF83
:101580000020E06370BD030606D50B0604D5204697
:10159000BDE8704000F0EEBC4006F3D54806F1D53A
:1015A000D168204621F04001D160202184F8391013
:1015B00000F02FF970BD0000891D000870B504000F
:1015C00004D094F83900002510B106E0012070BD68
:1015D00084F83850204600F023F8242084F839009D
:1015E0002068C16821F40051C160204600F02EFC43
:1015F0002068016921F4904101612068416921F06E
:101600002A0141612068C16841F40051C160E5636D
:10161000202084F8390084F83A00002070BD0000D2
:10162000F0B587B0044614216846FEF713FE274F35
:101630002268274902230124032507262548BA42A8
:101640001ED1234A1432176847F01007176012683A
:1016500002F0100205920A6842F001020A6009686D
:1016600001F00101059169028DE87A006946FFF7F2
:10167000ABF8002211462520FFF734FC252020E09E
:10168000154FBA421FD1124A1032176847F400377B
:101690001760126802F4003205920A6842F00102F3
:1016A0000A60096801F0010105910C218DE87A00BA
:1016B0006946FFF789F8002211462620FFF712FC41
:1016C0002620FFF701FC07B0F0BD0000001001402C
:1016D00030380240000002400044004090F83A30A8
:1016E000202B22D1F9B1F2B190F83830012B1CD067
:1016F00081628285C2850021C163222280F83A205E
:1017000080F838100168CA6842F48072CA600168C3
:101710004A6942F001024A610068C16841F0200153
:10172000C160002070470120704702207047000010
:101730000749084B08784A781E281A5401D2401CE1
:101740000870034903480122491C4038FFF7C6BF0F
:1017500000000020040100202DE9F843044690F821
:1017600039001F4616460D46202850D1B5B1AEB1FE
:1017700094F8380001284AD0012084F838004FF04E
:101780000008C4F83C80212084F83900FFF7F8F8FD
:10179000A6848146E68484F8388026E00120BDE8EE
:1017A000F883E08C401EE084A0684B46B0F5805F73
:1017B0004FF000024FF080012046009703D000F068
:1017C0000AFCE8B90DE000F006FCC8B928882168D9
:1017D000C0F308004860206908B16D1C05E0AD1C2D
:1017E00003E0216815F8010B4860E08C0028D8D18F
:1017F0004B46002240212046009700F0ECFB08B148
:101800000320CCE7202084F839000020C7E702201D
:10181000C5E77047FEE701684A69D24352050FD415
:101820006FF480624A61002140F8301F2022427329
:101830008173026942F00402026101730120704762
:1018400000207047F8B50446C06A1E460D4617468C
:10185000082807D0012805D010F5803F02D0206B62
:10186000122804D12068016841F480710160134698
:1018700000224FF001112046009600F057F840B1C9
:1018800020680068C00502D54FF400702064032072
:10189000F8BD2069B0F5804F0ED00620216800EA1F
:1018A000D51040F0F000086133463A460B49204617
:1018B00000F070F878B902E005F0FE0000E0E8B250
:1018C00021680861054933463A46891F204600F0E1
:1018D00061F80028DCD00120F8BD000008000100FC
:1018E00070B516460D4604460DE02046FFF793FFFF
:1018F00008B1012070BD681C05D0FFF741F8801BBE
:10190000A84207D835B120684069C0434007ECD4ED
:10191000002070BD002044F8300F20216173A073B7
:10192000216941F0200121612073E2E72DE9F047B0
:101930001E4690460D460446C1F30747DDF8209049
:1019400008E0701C06D0FFF71BF8A0EB0900B042BE
:101950000FD876B12068012F18D0806925EA0000E1
:101960000004000C14D000214145EAD00020BDE85D
:10197000F087002044F8300F20216173A0732169A3
:1019800041F02001216120730120F0E74069E5E783
:101990000121E9E72DE9F0479A4691460E460446B3
:1019A00000254FF02008C1F3074725E02068406973
:1019B000C043400514D42068016841F400710160FF
:1019C00021686FF480604861256384F83D8084F865
:1019D0003E50206C40F00400206484F83C501FE02E
:1019E000B9F1FF3F08D0FEF7CBFFA0EB0A01494554
:1019F0000CD8B9F1000F09D02068012F13D08069ED
:101A000026EA00000004000C0BD0CFE744F8305F5A
:101A100084F80D80A573206940F0200020612573B3
:101A20000120BDE8F0874069EAE770B516460D462B
:101A300004460DE02046FFF7EEFE08B1012070BD20
:101A4000681C05D0FEF79CFF801BA84207D835B163
:101A500020684069C0430006ECD4002070BD00201F
:101A600044F8300F20216173A073216941F02001F7
:101A700021612073E2E700000449082801D0002812
:101A800003D1C871202000F0F3B870470C0000208B
:101A900010B5012000F0C6F80A20FEF783FE0348C7
:101AA0000021C1700121817010BD00000C000020D8
:101AB00010B5012000F0B6F84FF47A70FEF772FE10
:101AC000022000F0AFF80520FEF76CFE282000F0A1
:101AD000A9F80520FEF766FE0C2000F0A3F805200B
:101AE000FEF760FE802000F09DF8BDE810404FF446
:101AF000FA70FEF757BE10B504469AB010EE100A01
:101B0000FEF7BAFB41EC100B214653EC102B684654
:101B100000F0A2FA0021684600F002F81AB010BDE9
:101B20002DE9F047304D00260446EE7071B30129CF
:101B30002FD12E49002000BF41F82040401C641CDA
:101B40006428F9DB89460868FEF78FFB2871264F69
:101B5000A8780837391811F8011C00F049F8A9785D
:101B600007F1040808EB010010F8014C1AE0641CAE
:101B700000F07EF8E878401CC0B2E870142805D167
:101B8000A8780121401C00F033F8EE70207800287E
:101B9000EDD1BDE8F08700BF59F82400007800F0CF
:101BA00067F8641C28798442F6DBA978781810F865
:101BB000012C521E12F0FF0200F8012CE9D1012283
:101BC000414400F8012C11F8012C521CD2B201F84A
:101BD000012C2B799A42DCD1142200F8012C01F857
:101BE000016C2E71D5E700000C000020640100207C
:101BF0000A4A9070421E032A0ED84A1E132A0BD896
:101C0000074A00EB800002EB8000084410F8150C36
:101C100040F0800000F006B8704700000C00002083
:101C20008C31000838B5104C627800EA020102EAF3
:101C30000010E27911431043617104F11002A071A8
:101C400041F004031370517040F004019170D070A2
:101C500001F082F8C8200090042304F110022178DA
:101C60000248FFF70DF838BD0C000020F4020020F8
:101C700038B5124C627800EA020102EA0010E279FB
:101C800011436171104341F0050304F11002A0718A
:101C9000137041F00101517040F00501917040F066
:101CA0000100D07001F058F8C8200090042304F11E
:101CB000100221780248FEF7E3FF38BD0C00002037
:101CC000F402002070B53220FEF76CFD01F044F8FC
:101CD000054D4FF47A742346032229780348FEF712
:101CE00019FF0028F7D170BD0C000020F40200207D
:101CF000FEE7704770477047FFF78CB810B592B099
:101D000030216846FEF7A6FA14210CA8FEF7A2FAC5
:101D100014480024016841F080510160006800F01F
:101D2000805011901048016841F4804101600068C2
:101D3000069400F48040119002200090012003904E
:101D4000102004906846FFF7EBF90F20CDE90C0452
:101D50000E940F9400210CA81094FFF7F5F812B020
:101D600010BD000040380240007000400548016886
:101D700041F47001016003494FF000608039086050
:101D80007047000088ED00E010B5806B0021C18530
:101D9000C184FFF787FB10BD0168CA6822F4907206
:101DA000CA6001684A6922F001024A61202180F874
:101DB0003A10704710B590F83A10222901D002204D
:101DC00010BD8168B1F5805F11D0016900290168FB
:101DD0001FD0496801F07F03816A4A1C82620B7040
:101DE000C18D491E0904090CC18518D02BE0026978
:101DF000816A002A0268526805D0D2B20A80816ADC
:101E0000491C8162ECE7C2F308020A80816A891CDE
:101E1000F7E74A68816A4B1C83620A70E0E7016851
:101E2000CA6822F02002CA600168CA6822F480727F
:101E3000CA6001684A6922F001024A61202180F8E3
:101E40003A10FFF775FC002010BD00002DE9F041AD
:101E5000044600680169E26821F4405111430161C0
:101E60002169A068E2690843616911430843216858
:101E7000CA6849F20C639A430243CA602068416908
:101E8000A26921F4407111434161E0691927642579
:101E90003226B0F5004F354A354920684FF000082A
:101EA00006D0884201D0904236D1FFF7F7F835E0EE
:101EB000884201D0904202D1FFF7F0F801E0FFF72D
:101EC000DDF861684A18A0FB070148EB0803FEF73C
:101ED00077F90146B0FBF5F00201B1FBF5F06FF0C8
:101EE0001803584301EB800006EBC000B0FBF5F08F
:101EF00000F0F80002EB4002B1FBF5F0584301EBB3
:101F0000800006EBC000B0FBF5F000F00700216890
:101F100010448860BDE8F081FFF7B0F861688B0F6E
:101F20008A00A0FB0701FEF74BF90146B0FBF5F074
:101F30006FF01802504301EB800006EB0010B0FB7D
:101F4000F5F000F0F002B1FBF5F002EB0012B1FB8E
:101F5000F5F06FF01803584301EB800006EB00101A
:101F6000B0FBF5F000F00F00D1E7000000140140D5
:101F70000010014090F83910212901D0022070474B
:101F80008168B1F5805F016A0BD04A1C0262026869
:101F900009785160C18C491E0904090CC1840ED016
:101FA00017E009880268C1F308015160016900293E
:101FB000016A02D0491C0162ECE7891CFBE7016859
:101FC000CA6822F08002CA600068C16841F040011E
:101FD000C160002070472DE9F041984617460E4633
:101FE0000446069D1DE0681C1BD02DB1FEF7C8FC01
:101FF000A0EB0800A84214D92068C16821F4D07170
:10200000C1602068416921F001014161202084F80C
:10201000390084F83A00002084F838000320BDE835
:10202000F0812068006836EA000004D00020B84241
:10203000D9D00020F3E70120F9E700000148FFF7BD
:1020400033BA0000840000200148FFF72DBA0000D9
:10205000C4000020FEE700000FB4084B10B504A92F
:1020600002AA039800F0EEF8044602A9002000F04E
:1020700080FC204610BC5DF814FB000073290008AA
:102080000907090E002804DB00F1E02080F80014A5
:10209000704700F00F0000F1E02080F8141D704739
:1020A00002E008C8121F08C1002AFAD17047704721
:1020B000002001E001C1121F002AFBD1704700007F
:1020C0002DE9FF5F82B00021DDE90430020DDDF86B
:1020D00040B0034318D044F61050A2F2FF324243FE
:1020E0001514119801281FD0A5EB0B00401C5FEAC6
:1020F000000A4FF000064E4FDFF83891B0465046C8
:1021000015D5CAF1000413E0119801244AA301284F
:1021100001D16FEA0B010298119AC0E90031C0E9C0
:10212000024206B0BDE8F09FCBF10000DFE70446B5
:102130000021404A491842EB0450CDE9001012E05A
:10214000E00707D032463B4640464946FEF783F952
:102150008046894632463B4610461946FEF77BF9D3
:1021600006460F466410002CEAD1DDE90401DDE9E2
:102170000023BAF1000F06DAFEF76DF942464B462E
:10218000FEF769F905E0FEF7D8F942464B46FEF73F
:10219000D4F904460E460022284BFEF755FA03D820
:1021A0004FF0FF30014607E00022254B2046314624
:1021B000FEF7AAF8FEF730FA102409E0002C0ADB3B
:1021C0000A220023FDF7FCFF039B30321A55641EE0
:1021D00050EA0102F2D1641C039AC4F111031444C1
:1021E000119A012A03D0012208430DD10AE00843C5
:1021F00004D000204FF0110B119072E7A3EB0B05F8
:102200006D1E0DE05B4504DD4FF0000205F1010598
:1022100004E003DA4FF00002A5F10105002AECD03A
:1022200002981199C0E90231C0E9004579E7000040
:10223000000014400000F03F300000000000F043B8
:102240000000E03F2DE9FF4F95B09B4689460646CA
:1022500000250FE2252877D100242746F84A0121DE
:10226000059400E0044316F8013F203B01FA03F017
:102270001042F7D130782A2811D06FF02F03307830
:10228000A0F13002092A16D8059A44F0020402EBA4
:10229000820203EB42021044761C0590EFE759F8E6
:1022A000042B0592002A03DA504244F400540590AE
:1022B00044F00204761C30782E2816D116F8010F4F
:1022C00044F004042A280DD06FF02F023078A0F1DA
:1022D0003003092B09D807EB870302EB4303C71828
:1022E000761CF3E759F8047B761C30786C280FD005
:1022F00006DC4C2817D068280DD06A2814D104E0D9
:10230000742810D07A280FD10DE044F400140AE0AC
:1023100044F4801401E044F440147278824202D103
:1023200004F58014761C761C307866280BD013DCFC
:10233000582877D009DC002875D04528F6D04628E3
:10234000F4D047281AD19DE118E0632835D06428DD
:1023500079D0652812D195E1702873D008DC672800
:10236000F1D069286FD06E280DD06F2806D1B5E066
:1023700073282CD0752875D0782874D05A461799B0
:1023800090476D1C75E1C4F30250022809D0032860
:102390000DD0D9F8001004280DD00D6009F1040902
:1023A00067E1D9F80010EA17C1E90052F6E7D9F859
:1023B00000100D80F2E70D70F0E719F8041B8DF89E
:1023C000001000208DF80100EA46012003E059F8D2
:1023D00004AB4FF0FF3061074FF0000102D40DE075
:1023E00008F101018846B9420FDA8045F8DB1AF896
:1023F00008100029F4D108E008F101018846814263
:10240000FADB1AF808100029F6D105985B46A0EB14
:10241000080721463846179A00F094FA284400EB42
:10242000080507E04DE029E10DE01AF8010B5A46D6
:1024300017999047B8F10108F7D25B462146384614
:10244000179A13E142E00A220092C4F302524FF0BD
:10245000000A022A08D059F804CB032A4FEAEC718B
:102460000AD00DE029E02AE009F1070121F0070276
:10247000F2E802C1914609E00FFA8CFC4FEAEC71D8
:10248000042A03D14FFA8CFC4FEAEC71002907DAD9
:102490000A460021DCF1000C61EB02012D2202E072
:1024A000220504D52B228DF80420012203E0E20747
:1024B00001D02022F7E7904659E00A2102E01022DD
:1024C0000DE010214FF0000A00910BE010224FF0B8
:1024D000000A44F004040827009203E008224FF0A9
:1024E000000A0092C4F30252022A05D059F804CB24
:1024F0000021032A08D009E009F1070121F00702B1
:10250000F2E802C1914605E01FFA8CFC042A01D1D1
:102510000CF0FF0C4FF00008220728D5702806D0D9
:10252000009B83F0100353EA0A0305D00EE040221B
:102530008DF80420012208E05CEA010206D0302276
:102540008DF804208DF8050002229046009B83F050
:10255000080353EA0A030AD15CEA010201D16207C7
:1025600005D530228DF804204FF001087F1E582831
:1025700004D034A003900EA802900DE036A0F9E735
:1025800053466046009AFDF71BFE84460398825C22
:102590000298401E029002705CEA0100F0D102989D
:1025A00006A9081A00F1200A600702D524F4803435
:1025B00000E00127574502DDA7EB0A0000E00020FC
:1025C00000EB0A01009005984144401A0590E00391
:1025D00006D45B462146179A059800F0B3F90544E6
:1025E000002706E001A85A46C05D179990476D1C68
:1025F0007F1C4745F6DBE0030CD55B462146179A66
:10260000059800F09FF9054404E030205A461799D8
:1026100090476D1C0099481E00900029F5DC08E0E9
:10262000029802995A460078491C029117999047DE
:102630006D1CBAF10001AAF1010AF1DC65E10000AC
:102640000928010030313233343536373839616288
:10265000636465660000000030313233343536374C
:1026600038394142434445460000000000F058F923
:102670000544761C307800287FF4ECAD19B028466C
:10268000BDE8F08F620700D4062709F1070222F0A7
:10269000070CFCE80223E14603F000485FEA080C5F
:1026A00002D00FF2702C0DE05FEA045C02D50FF24D
:1026B000682C07E05FEAC47C02D00FF2602C01E0D6
:1026C000AFF2700C4FF0FF3823F00043CDF850C04C
:1026D00065280CD006DC452809D046281DD047289F
:1026E0003DD13DE0662818D067287ED138E0002132
:1026F000112F01DB112000E0781CCDE9000106A9B3
:102700000EA8FFF7DDFCDDE90F010E9A0391002111
:10271000009207F1010A04914DE04FF0004000974C
:10272000CDE9011006A90EA8FFF7CAFCDDE90F02EA
:1027300003920E9B11990022DDF80CA000930492E5
:1027400011B9791C00EB010AB7EB0A0004D4C0F1FF
:10275000FF3007F1010A0490AAEB0700019044E062
:10276000012F00DA01270021112F01DD112000E0E7
:102770003846CDE9000106A90EA8FFF7A1FCDDE966
:102780000F010E9A0391002104910092BA4621078D
:102790000CD40399514500DA8A46BAF1010F05DDE0
:1027A000009AAAF10101515C302908D0B84202DA3E
:1027B00010F1040F06DA0121CDE9011015E0AAF1AC
:1027C0000101E9E7002805DC049901440491AAEB22
:1027D000000102E0411C514500DD8A460499401A7F
:1027E000401C01904FF000400290200704D4019853
:1027F000504501DBCDF8048000208DF84F00029891
:102800000DF14F07B0F1004F25D02B200E9002980C
:102810004FF0020800280CDA404202902D200E9062
:1028200007E00A210298FDF73AFD3031029007F8DF
:10283000011DB8F10001A8F10108F2DC029800289E
:10284000EFD1791E0E980870307800F0200040F02B
:10285000450007F8020D12A8C01B00F107081498E4
:10286000007800B1012000EB0A01019801EBE07152
:1028700005984144401A401E0590E00306D45B468B
:102880002146179A059800F05DF8054414980078E1
:1028900018B15A46179990476D1CE00324D55B4642
:1028A0002146179A059800F04DF805441CE004985D
:1028B000002807DBDDE90301884203DD0098405C66
:1028C000179901E0179930205A469047049805F16E
:1028D0000105401C04900198401E019004D12E2057
:1028E0005A46179990476D1CBAF10001AAF1010AE6
:1028F000DDDC05E017F8010B5A46179990476D1C6F
:10290000B8F10001A8F10108F4DC5B462146179AF2
:102910000598ABE62D0000002B0000002000000011
:102920002DE9F041044600251E461746880404D4CC
:1029300005E039462020B0476D1C641EF9D52846B5
:10294000BDE8F0812DE9F041044600251E46904681
:10295000C80301D5302700E02027880404D505E00E
:1029600041463846B0476D1C641EF9D52846BDE87F
:10297000F0810A68531C0B601070704710B520215D
:102980001348FDF767FC1248EF21012201704270E5
:10299000FF218170C1700171417182710024C47185
:1029A000032101720521417284720921C17201461D
:1029B000C8230C220748FEF7CFFE074804704FF4E7
:1029C000FA70FDF7EFFEBDE810400C2000F0CCBA25
:1029D00024010020C40000200000002010B52021A8
:1029E0001348FDF737FC1248EF21012201704270B5
:1029F000FF218170C1700171417182710024C47125
:102A0000032101720D21417284721121C1720146AC
:102A1000C8230C220748FEF79FFE074804704FF4B6
:102A2000FA70FDF7BFFEBDE810400C2000F09CBA24
:102A300024010020C4000020000000202DE9F04106
:102A4000864C002706464FF4FA75676000F054F98B
:102A50006060FFF71DF801210846FFF7C9F8002163
:102A60007FA0FFF75DF82846FDF79CFE606802280E
:102A7000ECD100BF00F040F960602846FDF792FEFF
:102A800060680028F6D1FFF703F801210846FFF738
:102A9000AFF8002173A0FFF743F82846FDF782FE48
:102AA000012000F085F960602846FDF77BFE606834
:102AB0004FF0FF3840B1FEF7EBFF01210846FFF76A
:102AC00097F800216AA064E0FEF7E2FF01210846C2
:102AD000FFF78EF8002168A0FFF722F82846FDF7DF
:102AE00061FEFEF7D5FF01210846FFF781F80021BE
:102AF00065A0FFF715F867604FF4FA673846FDF7F1
:102B000051FE0FE000F0F8F860602846FDF74AFE3D
:102B1000FEF7BEFF01210846FFF76AF8002150A02A
:102B2000FEF7FEFF60680228ECD1FEF7B1FF01213D
:102B30000846FFF75DF8002157A0FEF7F1FF384681
:102B400004E000BF00F0D8F860602846FDF72AFED8
:102B500060680028F6D1FEF79BFF01210846FFF7C9
:102B600047F800214FA0FEF7DBFF2846FDF71AFECD
:102B7000022000F01DF960602846FDF713FE606832
:102B800050B1FEF785FF01210846FFF731F800211B
:102B900048A0FEF7C5FF52E0FEF77AFF0121084684
:102BA000FFF726F8002134A0FEF7BAFFFEF770FF0A
:102BB00001210846FFF71CF800EE106A3FA0B8EEAE
:102BC000C00AFEF798FF4FF47A752846FDF7EAFD34
:102BD000FFF7D4FE60602846FDF7E4FD606840B171
:102BE000FEF756FF01210846FFF702F8002138A042
:102BF00020E0FEF74DFF01210846FEF7F9FF002116
:102C000035A0FEF78DFF6420FDF7CCFD2846FDF7CB
:102C1000C9FDF0B200F086FA60602846FDF7C2FDFB
:102C2000606878B1FEF734FF01210846FEF7E0FF47
:102C300000212DA0FEF774FF6420FDF7B3FD404690
:102C4000BDE8F081FEF724FF01210846FEF7D0FF22
:102C5000002127A0FEF764FF0120F1E7000000201B
:102C60002E2E2E00496D6167652074616B656E00C4
:102C70004552524F52000000496D61676520636FF5
:102C80006E766572746564005761697420746F2094
:102C90006C696674000000004E6F7720616761699F
:102CA0006E000000496D61676520322074616B65BC
:102CB0006E0000004552524F523100004372656170
:102CC00074696E67206D6F64656C3A252E306600FE
:102CD0004552524F523200005072696E7473206D2B
:102CE00061746368656400004552524F52330000BE
:102CF00053746F726564210010B520211348FDF7ED
:102D0000A9FA1248EF21012201704270FF2181705F
:102D1000C1700171417182710024C471032101727B
:102D2000427284720521C1720146C8230C220848F0
:102D3000FEF712FD074804704FF4FA70FDF732FDFC
:102D4000BDE810400C2000F00FB900002401002065
:102D5000C40000200000002070B52A221249134848
:102D6000FDF75FFA104C608D104D6885E06AE862EF
:102D7000206B2863092204F1340105F13400FDF7CA
:102D800050FA94F83D0085F83D0094F83E0085F82F
:102D90003E00206C2864606C6864A06CA864E06CE1
:102DA000E864206D286570BD30000020F40200202A
:102DB00070B5054620211448FDF74CFA1249EF2062
:102DC000012208704A70FF208870C870087148712D
:102DD0008A710026CE7104200872022048728D721A
:102DE000EC1DCE720C73C8230D220848FEF7B4FC0C
:102DF000074806704FF4FA70FDF7D4FCBDE8704048
:102E00000C2000F0B1B8000024010020C400002014
:102E10000000002008B5FEF705F8FEF76FFF4548F3
:102E20000024016841F080010160016801F0800127
:102E30000091016841F001010160016801F00101A8
:102E40000091016841F00201016000683A4900F018
:102E500002000090394801603949C0E901144FF47B
:102E60008041C0E9034144618461C4610462FDF7AB
:102E70008DFD3248334954300C2501604FF4E13167
:102E8000C0E90114C460C0E904458461C461FEF76F
:102E900095FB2A482C49943001604FF46141C0E908
:102EA0000114C460C0E904458461C461FEF786FB77
:102EB000FEF708FFFEF7FCFD0820FEF7DDFD01210F
:102EC0000846FEF795FE002120A0FEF729FE1B48CC
:102ED000012220499430FEF701FCFFF77FFD1D49D8
:102EE0004FF47A74491E48602046FDF75BFC64206D
:102EF000FFF7A4FD012802D06420FFF79FFD1420F6
:102F0000FFF79CFD012802D01420FFF797FDFEF784
:102F1000BFFD01210846FEF76BFE00210EA0FEF763
:102F2000FFFD2046FDF73EFC00F09AF82046FDF735
:102F300039FCECE7303802400054004030000020FB
:102F4000A0860100001001400044004068656C6CE0
:102F50006F00000001000020426567696E20736504
:102F6000617263680000000070B5054600242021EE
:102F70000A48FDF76FF909480949203804E00A5D5D
:102F80000319641C83F82020AC42F8DB2844447FFA
:102F90000A20FDF707FC204670BD00004401002018
:102FA0000401002070B50546002420210B48FDF7E0
:102FB00051F90A490A48203904E0025D0B19641CE2
:102FC00083F82020AC42F8DB4819064AC17E116024
:102FD000447E0A20FDF7E6FB204670BD4401002038
:102FE000040100200800002001480078704700001C
:102FF0000800002010B520211648FDF72BF91548D0
:10300000EF21012201704270FF218170C1700171B6
:10301000417182710024C471082303720423437236
:103020008272C472047344738173C2730D2101747C
:103030000146C82311220848FEF78EFB074804709A
:103040004FF4FA70FDF7AEFBBDE810401020FFF71B
:10305000A9BF000024010020C400002000000020BF
:1030600070B5FFF749FE254C60606420FDF79AFBC0
:10307000606858B96420FDF795FB0120FFF798FEC2
:1030800060606420FDF78EFB606808B1002070BDB1
:10309000FEF7FEFC01210846FEF7AAFD002118A05C
:1030A000FEF73EFD4FF4FA752846FDF77BFBFFF770
:1030B000A1FF60606800FDF775FB606868B1FEF70E
:1030C000E7FC01210846FEF793FD00210DA0FEF765
:1030D00027FD2846FDF766FB70BDFEF7D9FC0121F0
:1030E0000846FEF785FDFFF77FFF00EE100A08A0F7
:1030F000B8EE400AFEF7FFFCEBE7000000000020FE
:103100004F4B00004E6F7420666F756E64000000B8
:10311000466F756E642066696E6765723A252E305B
:103120006600000070B5054620211548FDF792F8AD
:103130001349EF20012208704A70FF208870C87080
:10314000087148718A710024CC7106200872487297
:103150008A72CC720D7305F10E034C738B73C82306
:103160000F220848FEF7F8FA074804704FF4FA7087
:10317000FDF718FBBDE870400C20FFF7F5BE00001E
:1031800024010020C40000200000002000010203F0
:103190000405060708090A0B0C0D0E0F1011121377
:1031A000404142434445464748494A4B4C4D4E4FA7
:1031B000505152531415161718191A1B1C1D1E1F97
:1031C00020212223242526275455565758595A5B27
:1031D0005C5D5E5F6061626364656667000000005D
:1031E00000000000010203040607080900000000B7
:1031F0000102030414320008000000203000000027
:10320000A020000844320008300000201807000009
:10321000B020000800000000FFFFFFFF00000000DA
:103220004EF001000000000014141414000000000F
:10323000000000000100000010000000000000007D
:043240000024F40072
:040000050800018965
:00000001FF
