:020000040800F2
:10000000600600209D0100083B140008A50F0008B1
:1000100039140008DD020008E514000800000000A3
:100020000000000000000000000000003F14000875
:10003000DF020008000000003D1400084114000821
:10004000B7010008B7010008B7010008B7010008B0
:10005000B7010008B7010008B7010008B7010008A0
:10006000B7010008B7010008B7010008B701000890
:10007000B7010008B7010008B7010008B701000880
:10008000B7010008B7010008B7010008B701000870
:10009000B7010008B7010008B7010008B701000860
:1000A000B7010008B7010008B7010008B701000850
:1000B000B7010008B7010008B7010008B701000840
:1000C000B7010008B7010008B7010008B701000830
:1000D000B7010008B7010008B7010008B701000820
:1000E000B7010008B7010008B7010008B701000810
:1000F000B7010008B7010008B7010008B701000800
:10010000B7010008B7010008B7010008B7010008EF
:10011000B7010008B7010008B7010008B7010008DF
:10012000B7010008B7010008B7010008B7010008CF
:10013000B7010008B7010008B7010008B7010008BF
:10014000B7010008B7010008B7010008B7010008AF
:10015000B7010008B7010008B7010008B70100089F
:10016000B7010008B7010008B7010008B70100088F
:10017000B7010008B7010008B7010008000000003F
:10018000B7010008B7010008DFF80CD000F094F8C0
:10019000004800477D15000860060020064880479B
:1001A00006480047FEE7FEE7FEE7FEE7FEE7FEE75C
:1001B000FEE7FEE7FEE7FEE7C91400088901000834
:1001C0002DE9F05F0546002092469B46884606468C
:1001D000814640241BE0284641464746224600F01F
:1001E0005AF853465A46C01A914110D31146184640
:1001F000224600F041F82D1A67EB01084F462246CF
:100200000120002100F038F817EB00094E41201EB4
:10021000A4F10104DFDC484631462A464346BDE8E6
:10022000F09F40EA01039B0703D009E008C9121FB1
:1002300008C0042AFAD203E011F8013B00F8013BA0
:10024000521EF9D27047D2B201E000F8012B491ECC
:10025000FBD270470022F6E710B513460A46044663
:100260001946FFF7F0FF204610BD421C10F8011B95
:100270000029FBD1801A7047202A04DB203A00FABB
:1002800002F1002070479140C2F1200320FA03F3ED
:10029000194390407047202A04DB203A21FA02F0EB
:1002A0000021704721FA02F3D040C2F120029140B0
:1002B0000843194670470000064C074D06E0E06809
:1002C00040F0010394E8070098471034AC42F6D39D
:1002D000FFF75EFF6C1600088C160008FEE77047FB
:1002E00070B5044600F0EAF80546601C02D00448E8
:1002F0000078044400F0E2F8401BA042FAD370BD3D
:10030000140000202DE9F84F00224FF001080325CA
:100310004FF00F0E0B6808FA02F42340A3426ED18F
:100320004E68012E05D0022E03D0112E01D0122EC0
:1003300012D186684FEA420C05FA0CF7BE43CF682B
:1003400007FA0CF7374387604668A6430C79C4F375
:100350000014944034434460C668570005FA07FC13
:100360008C6826EA0C06BC403443C4604C68022CFE
:1003700001D0122C13D1D40800EB8404A346D4F886
:10038000209054074FEAD46A0EFA0AF629EA0609C1
:100390000E6906FA0AF646EA0906CBF820600668F6
:1003A0000C7926EA0C0604F00304BC4034430460D4
:1003B0004C68E40065D5364C266846F480462660D5
:1003C000246822F0030604F480440094314C344441
:1003D000A446D4F808489607370F0EFA07F6B44338
:1003E0002D4EB04201D1002624E02C4EB04201D166
:1003F00001261FE02A4EB04202D102261AE040E058
:10040000284EB04201D1032614E0274EB04201D15C
:1004100004260FE0254EB04201D105260AE0244E05
:10042000B04201D1062605E0224EB04201D1072696
:1004300000E00826BE402643CCF808681E4E34680B
:100440004F689C43FF0300D51C4334601A4C241DA5
:1004500026684F689E43BF0300D51E432660164E94
:10046000083634684F689C43FF0200D51C43346053
:10047000114E0C3634684F689C43BF0200D51C43B4
:100480003460521C102AFFF445AFBDE8F88F00001D
:1004900044380240003001400000024000040240A5
:1004A00000080240000C024000100240001402400C
:1004B00000180240001C0240003C014001488068D6
:1004C000704700001400002070B5040025D094F897
:1004D0003D00002520B984F83C50204600F004FA85
:1004E000242084F83D002068016821F001010160AA
:1004F0002068016841F4004101602068016821F42E
:100500000041016000F04CFB4D4A6168914201D806
:100510004C4900E04C49884201D2012070BD4B4952
:100520002368B0FBF1F15E6826F03F060E435E6083
:100530006368934206D94FF4967359434FF47A7324
:10054000B1FBF3F12368491C1E6A26F03F063143D4
:1005500019626168914210D84900401EB0FBF1F267
:10056000521CC2F30B02042A01D2042022E0B0FB89
:10057000F1F0401CC0F30B001CE0A268F2B301EBE9
:10058000C10303EB0116431EB3FBF6F35B1C43F4FC
:1005900080431B0549D092B301EBC10202EB01116C
:1005A000401EB0FBF1F0401CC0F30B0040F4804053
:1005B00040F400402168CA694CF6FF739A43104327
:1005C000C861D4E9071001432068026822F0C00224
:1005D00011430160D4E9030101432068826848F2B5
:1005E000FF339A4311438160D4E905010843216830
:1005F000CA6822F0FF021043C86001E00EE016E076
:100600002068016841F0010101602564202084F820
:100610003D00256384F83E50002070BD01EB41068B
:10062000431EB3FBF6F35B1CB3E70120C2E701EB0B
:100630004101401EB0FBF1F0401CC0F30B00B7E7D6
:10064000A086010080841E0000093D0040420F008A
:100650002DE9FF4F81B089460446FFF72FFF05467D
:1006600094F83D004FF0010820287DD11923012284
:1006700050492046009500F021FD002874D194F8DF
:100680003C00012870D0012084F83C0020680168FB
:10069000C90703D1016841F00101016020680168C8
:1006A00021F400610160242084F83D0000262664C6
:1006B0004148E0624FF0011B20272068016841F4A7
:1006C000807101600095002259462046049B00F08D
:1006D000F5FC50B120680068C00502D54FF40070E9
:1006E0002064032005B0BDE8F08F216809F0FE000A
:1006F0000861FFF7E3FE2168054648694969C0F3D0
:100700004000C1F380214FF0A00A0FE0FFF7D6FEB2
:10071000411B0498814200D808B984F83DA02168A3
:1007200048694969C0F34000C1F3802194F83D2035
:10073000A02A02D008B90029E8D084F83D702068CA
:100740004169C943890716D4016841F40071016009
:1007500020684169806919230122164920460095C5
:1007600000F0ACFCB8B900E021E084F83D7084F8FA
:100770003C600020B6E7016841F400710160216827
:100780006FF480604861192301220A4920460095D0
:1007900000F094FC08B10120A4E7039808F10108D7
:1007A00080458AD384F83D7084F83C60F3E70220EA
:1007B00098E70000020010000000FFFF2DE9F84F4D
:1007C0001F4690468A460446DDF82890FFF776FEDD
:1007D000054694F83D0020287FD119230122404985
:1007E0002046009500F06AFC002876D194F83C0081
:1007F000012872D0012084F83C0020680168C907F4
:1008000003D1016841F0010101602068016821F411
:1008100000610160212084F83D00102084F83E0032
:1008200000262664C4F824806785608D20852D48C5
:10083000E0622B464A465146204600F0CBFB90B979
:10084000206841698069009036E02A464946204682
:1008500000F0B3FC50B1206C042804D1206801687A
:1008600041F4007101600120BDE8F88F606A2168E1
:1008700000780861606A401C6062618D491E618574
:10088000218D491E89B2218522685369DB435B07AC
:100890000BD451B100781061606A401C6062608DB9
:1008A000401E6085208D401E20852A4649462046F0
:1008B00000F0DEFB0028CED1208D0028C5D154F8F1
:1008C0003D0B016841F400710160202004F81E090D
:1008D000E67766770020C7E7FFE70220C4E700005D
:1008E000020010000000FFFF10B586B0044614217E
:1008F0006846FFF7AFFC14492068884221D11348AD
:10090000016841F0020101600068694600F00200E0
:1009100005904FF440700090122001900120029049
:1009200003200390042004900948FFF7EBFC0748DC
:100930001030016841F400110160006800F40010FB
:10094000059006B010BD0000005400403038024051
:1009500000040240024881680278114481607047B7
:10096000140000200B4810B5016841F400710160CB
:10097000016841F480610160016841F480710160A7
:10098000032000F061F8002000F006F800F024F8E1
:10099000002010BD003C024070B50D4D04464FF4E0
:1009A0007A712878B1FBF0F00A490968B1FBF0F0E0
:1009B00000F0E4FA48B9102C07D200222146501E5C
:1009C00000F022F800206C6070BD012070BD0000B6
:1009D00014000020200000200A4808B5016841F4F6
:1009E00080410160006800F4804000900548001FCD
:1009F000016841F080510160006800F08050009073
:100A000008BD000044380240F0B40E4B1B680C4691
:100A1000C3F30223C3F10705042D00D90425191DD2
:100A2000072901D2002300E0DB1E012606FA05F1AA
:100A3000491E214099409E40761E16403143F0BC2D
:100A400000F051BD0CED00E0064900F00702086817
:100A50004FF6FF03184040EA0220034A10430860A3
:100A6000704700000CED00E00000FA052DE9F047AA
:100A70000E46050065D0DFF81481D8F80000F7B203
:100A800000F00F00B04207D288F80070D8F80000DC
:100A900000F00F00B04254D128683D4C810712D5B8
:100AA000400703D5206840F4E05020602878000714
:100AB00003D5206840F4604020602068A96820F0D9
:100AC000F000084320602878C0072DD030496868BE
:100AD0000839012812D0022813D0032811D0096840
:100AE000890700292DDA216821F0030101432160E3
:100AF000FFF7E4FC814641F2883A0EE00968890379
:100B0000EFE709688901ECE7FFF7D8FCA0EB0901E2
:100B1000514502D90320BDE8F0872068696800F0DC
:100B20000C00B0EB810FEFD1D8F80010404601F077
:100B30000F01B14207D90770006800F00F00B04202
:100B400001D00120E7E72878400705D52068E9684B
:100B500020F4E050084320602878000706D520687C
:100B6000296920F4604040EAC100206000F028F8C4
:100B70002168084AC1F30311515CC8400649086066
:100B800006480068FFF708FF0020C4E7003C024069
:100B900008380240541600082000002018000020E9
:100BA0000448054900680968044AC1F38221515C80
:100BB000C840704720000020083802406416000832
:100BC000154810B5006810F00C02144813D04110FD
:100BD000042A0FD0082A0ED10F4C241F2268236844
:100BE00002F03F025B0207D52068C0F38810A0FB2B
:100BF000010106E0084610BD2168C1F38811A1FB80
:100C000000010023FFF7DCFA2168C1F30141491C10
:100C10004900B0FBF1F010BD083802400024F40098
:100C20002DE9F84F04006ED02078DFF83C93C00720
:100C3000A9F104054AD009F104000168C1F381015A
:100C4000012908D00068C0F3810002280AD1D9F830
:100C50000000400206D52868800337D56068002868
:100C6000E1D033E06068B0F5803F10D0B0F5A02F40
:100C7000286810D020F480302860286820F4802074
:100C800028606068A8B1FFF719FC06460DE02868E7
:100C900040F48030F4E740F480202860F7E700BF9C
:100CA000FFF70CFC801B642873D828688003F7D5F5
:100CB0000CE0FFF703FC064605E000BFFFF7FEFB74
:100CC000801B6428F0D828688003F7D42078DFF8E8
:100CD0009C8280074FF0000A3ED5A348001D0168A2
:100CE00011F00C0F08D00068C0F3810002280BD16E
:100CF000D9F80000400207D42868800716D5E068BC
:100D0000012800D112E02BE1E068B8B10120C8F859
:100D10000000FFF7D3FB064605E000BFFFF7CEFB60
:100D2000801B0228C0D828688007F7D52868216969
:100D300020F0F80040EAC10028600DE0C8F800A0EB
:100D4000FFF7BCFB064604E0FFF7B8FB801B022858
:100D50001FD828688007F7D42078000722D5824E54
:100D600083486169703671B101210160FFF7A6FB0C
:100D7000074604E0FFF7A2FBC01B022809D8306831
:100D80008007F7D50EE0C0F800A0FFF797FB0746F5
:100D900005E082E0FFF792FBC01B02287DD8306897
:100DA0008007F7D42078400768D5DFF8BCB100276A
:100DB0000BF13C0BDBF80000C0000BD4DBF800109B
:100DC00041F08051CBF80010DBF80000012700F063
:100DD00080500090674E3068C00510D4306840F4F1
:100DE00080703060FFF76AFB009005E0FFF766FB5C
:100DF0000099401A022850D83068C005F6D55A4EDE
:100E0000A0686C3601280FD00528306810D020F07B
:100E100001003060306820F004003060A068B8B194
:100E2000FFF74CFB00900FE0306840F00100F4E762
:100E300040F004003060F7E7FFF740FB0099411AEB
:100E400041F28830814266D830688007F4D50EE0E0
:100E5000FFF734FB009007E0FFF730FB0099411AE1
:100E600041F28830814256D830688007F4D42FB1DF
:100E7000DBF8001021F08051CBF80010A069C8B356
:100E80003949091D0968C1F3810102294AD00228A4
:100E9000504607D0C8F8600000E03CE0FFF70EFBCA
:100EA00004463BE04746C8F86000FFF707FB0646EC
:100EB00005E000BFFFF702FB801B02282BD8286843
:100EC0008001F7D4D4E907010843A16A2A4A4908F6
:100ED00002EB0141626A41EA8211084394F82C1046
:100EE00040EA0161C9F8001001203866FFF7E6FA10
:100EF000044606E036E000BFFFF7E0FA001B0228D8
:100F000009D828688001F7D52CE000BFFFF7D6FA92
:100F1000001B022802D90320BDE8F88F2868800151
:100F2000F4D41FE00128F7D0D9F80000E26900F4FA
:100F30008001914214D1226A00F03F0191420FD109
:100F400047F6C071626A0140914209D1A26A00F479
:100F50004031914204D1E16A00F07060884201D0D2
:100F60000120D9E70020D7E70438024000004742BB
:100F7000800E4742007000400000FFFF10B5401E89
:100F8000B0F1807F01D3012010BD4FF0E0246061FB
:100F90000F21601700F0A7FA0020A0610720206150
:100FA000002010BDFEE701684A69D24352050FD404
:100FB0006FF480624A61002140F8301F20224273A2
:100FC0008173026942F004020261017301207047DB
:100FD00000207047F8B50446C06A1E460D46174605
:100FE000082807D0012805D010F5803F02D0206BDB
:100FF000122804D12068016841F480710160134611
:1010000000224FF001112046009600F057F840B141
:1010100020680068C00502D54FF4007020640320EA
:10102000F8BD2069B0F5804F0ED00620216800EA97
:10103000D51040F0F000086133463A460B4920468F
:1010400000F070F878B902E005F0FE0000E0E8B2C8
:1010500021680861054933463A46891F204600F059
:1010600061F80028DCD00120F8BD00000800010074
:1010700070B516460D4604460DE02046FFF793FF77
:1010800008B1012070BD681C05D0FFF717FA801B5E
:10109000A84207D835B120684069C0434007ECD466
:1010A000002070BD002044F8300F20216173A07330
:1010B000216941F0200121612073E2E72DE9F04729
:1010C0001E4690460D460446C1F30747DDF82090C2
:1010D00008E0701C06D0FFF7F1F9A0EB0900B04260
:1010E0000FD876B12068012F18D0806925EA00005A
:1010F0000004000C14D000214145EAD00020BDE8D6
:10110000F087002044F8300F20216173A07321691B
:1011100041F02001216120730120F0E74069E5E7FB
:101120000121E9E72DE9F0479A4691460E4604462B
:1011300000254FF02008C1F3074725E020684069EB
:10114000C043400514D42068016841F40071016077
:1011500021686FF480604861256384F83D8084F8DD
:101160003E50206C40F00400206484F83C501FE0A6
:10117000B9F1FF3F08D0FFF7A1F9A0EB0A014945FB
:101180000CD8B9F1000F09D02068012F13D0806965
:1011900026EA00000004000C0BD0CFE744F8305FD3
:1011A00084F80D80A573206940F02000206125732C
:1011B0000120BDE8F0874069EAE770B516460D46A4
:1011C00004460DE02046FFF7EEFE08B1012070BD99
:1011D000681C05D0FFF772F9801BA84207D835B10B
:1011E00020684069C0430006ECD4002070BD002098
:1011F00044F8300F20216173A073216941F0200170
:1012000021612073E2E700000449082801D000288A
:1012100003D1C871202000F0CFB870470000002033
:1012200010B5012000F0A2F84FF47A70FFF758F8DB
:10123000022000F09BF80520FFF752F8282000F06C
:1012400095F80520FFF74CF80C2000F08FF80520EA
:10125000FFF746F8802000F089F8BDE810404FF411
:10126000FA70FFF73DB800002DE9F047304D002639
:101270000446EE7071B301292FD12E49002000BF22
:1012800041F82040401C641C6428F9DB894608684A
:10129000FEF7EBFF2871264FA8780837391811F8A8
:1012A000011C00F049F8A97807F1040808EB0100D7
:1012B00010F8014C1AE0641C00F07EF8E878401C3D
:1012C000C0B2E870142805D1A8780121401C00F0B4
:1012D00033F8EE7020780028EDD1BDE8F08700BF2C
:1012E00059F82400007800F067F8641C28798442DB
:1012F000F6DBA978781810F8012C521E12F0FF02C4
:1013000000F8012CE9D10122414400F8012C11F828
:10131000012C521CD2B201F8012C2B799A42DCD15B
:10132000142200F8012C01F8016C2E71D5E70000A1
:1013300000000020780000200A4A9070421E032A14
:101340000ED84A1E132A0BD8074A00EB800002EB86
:101350008000084410F8150C40F0800000F006B83A
:1013600070470000000000200416000838B5104C3B
:10137000627800EA020102EA0010E27911431043A8
:10138000617104F11002A07141F0040313705170F7
:1013900040F004019170D07000F0C4F8C8200090B3
:1013A000042304F1100221780248FFF707FA38BD40
:1013B000000000200802002038B5124C627800EAD4
:1013C000020102EA0010E27911436171104341F019
:1013D000050304F11002A071137041F00101517076
:1013E00040F00501917040F00100D07000F09AF8D3
:1013F000C8200090042304F1100221780248FFF76E
:10140000DDF938BD000000200802002070B5322050
:10141000FEF766FF00F086F8054D4FF47A74234618
:10142000032229780348FFF713F90028F7D170BD8C
:101430000000002008020020FEE770477047704758
:10144000FFF788BA30B593B030216846FEF702FF47
:1014500014210CA8FEF7FEFE19480025016841F092
:1014600080510160006800F08050119015480168BB
:1014700041F4804101600068022400F48040119032
:101480000120039010200490009406940820CDE9D8
:1014900007505A20CDE9090404200B906846FFF755
:1014A000BFFB0F20CDE90C0480200E904001CDE958
:1014B0000F0501210CA8FFF7D9FA13B030BD0000C9
:1014C00040380240007000400548016841F4700156
:1014D000016003494FF000608039086070470000E8
:1014E00088ED00E0FEE70907090E002804DB00F1A3
:1014F000E02080F80014704700F00F0000F1E020B9
:1015000080F8141D704702E008C8121F08C1002AA5
:10151000FAD170477047002001E001C1121F002A74
:10152000FBD1704770B52A2212491348FEF779FEA5
:10153000104C608D104D6885E06AE862206B28636E
:10154000092204F1340105F13400FEF76AFE94F833
:101550003D0085F83D0094F83E0085F83E00206C83
:101560002864606C6864A06CA864E06CE864206D1A
:10157000286570BD240000200802002008B5FFF790
:10158000F1F9FFF75FFF19480021026842F080027D
:101590000260026802F080020092026842F00202D9
:1015A00002600068124A00F00200009011480260D8
:1015B000114AC0E901214FF48042C0E903124161A0
:1015C0008161C1610162FEF77FFFFFF71FFFFFF737
:1015D00027FE0820FFF718FE01210846FFF7ACFEA2
:1015E000002106A0FFF740FEFEE700003038024071
:1015F0000054004024000020A086010068656C6C47
:101600006F000000000102030405060708090A0B29
:101610000C0D0E0F10111213404142434445464732
:1016200048494A4B4C4D4E4F5051525314151617C2
:1016300018191A1B1C1D1E1F2021222324252627B2
:101640005455565758595A5B5C5D5E5F60616263E2
:1016500064656667000000000000000001020304EA
:101660000607080900000000010203048C160008A8
:10167000000000202400000006150008B016000835
:10168000240000203C060000161500084EF0010062
:1016900000000000141414140000000000000000FA
:1016A0000100000010000000000000000024F40011
:040000050800018965
:00000001FF
