:020000040800F2
:10000000800400209D010008E30D0008710D000828
:10001000E10D0008D5020008A10F00080000000053
:10002000000000000000000000000000F90E0008C1
:10003000F902000800000000E50D0008FB0E0008B2
:10004000B7010008B7010008B7010008B7010008B0
:10005000B7010008B7010008B7010008B7010008A0
:10006000B7010008B7010008B7010008B701000890
:10007000B7010008B7010008B7010008B701000880
:10008000B7010008B7010008B7010008B701000870
:10009000B7010008B7010008B7010008B701000860
:1000A000B7010008B7010008B7010008B701000850
:1000B000B7010008B7010008B7010008B701000840
:1000C000B7010008B7010008B7010008B701000830
:1000D000B7010008B7010008B7010008B701000820
:1000E000B7010008B7010008B7010008B701000810
:1000F000B7010008B7010008B7010008B701000800
:10010000B7010008B7010008B7010008B7010008EF
:10011000B7010008B7010008B7010008B7010008DF
:10012000B7010008B7010008B7010008B7010008CF
:10013000B7010008B7010008B7010008B7010008BF
:10014000B7010008B7010008B7010008B7010008AF
:10015000B7010008B7010008B7010008B70100089F
:10016000B7010008B7010008B7010008B70100088F
:10017000B7010008B7010008B7010008000000003F
:10018000B7010008B7010008DFF80CD000F090F8C4
:1001900000480047B111000880040020064880474D
:1001A00006480047FEE7FEE7FEE7FEE7FEE7FEE75C
:1001B000FEE7FEE7FEE7FEE7850F0008890100087D
:1001C0002DE9F05F0546002092469B46884606468C
:1001D000814640241BE0284641464746224600F01F
:1001E00057F853465A46C01A914110D31146184643
:1001F000224600F03EF82D1A67EB01084F462246D2
:100200000120002100F035F817EB00094E41201EB7
:10021000A4F10104DFDC484631462A464346BDE8E6
:10022000F09FD2B201E000F8012B491EFBD27047CB
:100230000022F6E710B513460A4604461946FFF7B2
:10024000F0FF204610BD30B50B46014600202022AD
:10025000012409E021FA02F59D4205D303FA02F5D3
:10026000491B04FA02F52844151EA2F10102F1DC33
:1002700030BD202A04DB203A00FA02F1002070474A
:100280009140C2F1200320FA03F3194390407047D4
:10029000202A04DB203A21FA02F00021704721FADB
:1002A00002F3D040C2F12002914008431946704742
:1002B000064C074D06E0E06840F0010394E80700B3
:1002C00098471034AC42F6D3FFF762FF7012000873
:1002D00090120008FEE7000010B500F00FF80122B0
:1002E0008021044800F019F9BDE810404FF4FA707D
:1002F00000F020B800000240704700000B4800B535
:10030000016887B041F0010101600068694600F0B2
:1003100001000590802000900120019003200390AF
:10032000034800F019F807B000BD00003038024063
:100330000000024070B5044600F0F4F80546601C69
:1003400002D004480078044400F0ECF8401BA042BE
:10035000FAD370BD0C0000202DE9F84F00224FF0B9
:10036000010803254FF00F0E0B6808FA02F4234032
:10037000A3426ED14E68012E05D0022E03D0112E5D
:1003800001D0122E12D186684FEA420C05FA0CF702
:10039000BE43CF6807FA0CF7374387604668A64329
:1003A0000C79C4F30014944034434460C668570089
:1003B00005FA07FC8C6826EA0C06BC403443C4608E
:1003C0004C68022C01D0122C13D1D40800EB840409
:1003D000A346D4F8209054074FEAD46A0EFA0AF6DE
:1003E00029EA06090E6906FA0AF646EA0906CBF872
:1003F000206006680C7926EA0C0604F00304BC4071
:10040000344304604C68E40065D5364C266846F4F5
:1004100080462660246822F0030604F48044009499
:10042000314C3444A446D4F808489607370F0EFAE6
:1004300007F6B4432D4EB04201D1002624E02C4EE5
:10044000B04201D101261FE02A4EB04202D102265D
:100450001AE040E0284EB04201D1032614E0274EB6
:10046000B04201D104260FE0254EB04201D105264D
:100470000AE0244EB04201D1062605E0224EB042E9
:1004800001D1072600E00826BE402643CCF80868C4
:100490001E4E34684F689C43FF0300D51C433460F4
:1004A0001A4C241D26684F689E43BF0300D51E4387
:1004B0002660164E083634684F689C43FF0200D50C
:1004C0001C433460114E0C3634684F689C43BF02A5
:1004D00000D51C433460521C102AFFF445AFBDE820
:1004E000F88F000044380240003001400000024014
:1004F0000004024000080240000C024000100240CC
:100500000014024000180240001C0240003C014060
:100510000069084000D0012070470AB1816170472E
:100520000904FBE701488068704700000C000020C8
:1005300070B5040025D094F83D00002520B984F85A
:100540003C50204600F0B8F8242084F83D00206894
:10055000016821F0010101602068016841F4004157
:1005600001602068016821F40041016000F0FEF99B
:100570004D4A6168914201D84C4900E04C4988429B
:1005800001D2012070BD4B492368B0FBF1F15E68D8
:1005900026F03F060E435E606368934206D94FF42F
:1005A000967359434FF47A73B1FBF3F12368491CF6
:1005B0001E6A26F03F06314319626168914210D8E5
:1005C0004900401EB0FBF1F2521CC2F30B02042A98
:1005D00001D2042022E0B0FBF1F0401CC0F30B007C
:1005E0001CE0A268F2B301EBC10303EB0116431E4A
:1005F000B3FBF6F35B1C43F480431B0549D092B375
:1006000001EBC10202EB0111401EB0FBF1F0401CF6
:10061000C0F30B0040F4804040F400402168CA69F8
:100620004CF6FF739A431043C861D4E907100143A5
:100630002068026822F0C00211430160D4E903017E
:1006400001432068826848F2FF339A431143816076
:10065000D4E9050108432168CA6822F0FF0210436B
:10066000C86001E00EE016E02068016841F0010179
:1006700001602564202084F83D00256384F83E5005
:10068000002070BD01EB4106431EB3FBF6F35B1C7B
:10069000B3E70120C2E701EB4101401EB0FBF1F0DE
:1006A000401CC0F30B00B7E7A086010080841E0049
:1006B00000093D0040420F0010B586B004461421E9
:1006C0006846FFF7B5FD13492068884220D11248DB
:1006D000016841F0020101600068694600F0020013
:1006E0000590C0200090122001900120029003206C
:1006F0000390042004900948FFF72EFE06481030AE
:10070000016841F400110160006800F400100590D8
:1007100006B010BD005400403038024000040240D2
:100720000248816802781144816070470C00002003
:100730000B4810B5016841F400710160016841F493
:1007400080610160016841F480710160032000F064
:1007500061F8002000F006F800F024F8002010BD39
:10076000003C024070B50D4D04464FF47A71287874
:10077000B1FBF0F00A490968B1FBF0F000F0E4FACF
:1007800048B9102C07D200222146501E00F022F852
:1007900000206C6070BD012070BD00000C000020C6
:1007A000180000200A4808B5016841F48041016042
:1007B000006800F4804000900548001F016841F087
:1007C00080510160006800F08050009008BD00007A
:1007D00044380240F0B40E4B1B680C46C3F30223AE
:1007E000C3F10705042D00D90425191D072901D2DD
:1007F000002300E0DB1E012606FA05F1491E214018
:1008000099409E40761E16403143F0BC00F0DEBB9E
:100810000CED00E0064900F0070208684FF6FF0300
:10082000184040EA0220034A104308607047000065
:100830000CED00E00000FA052DE9F0470E4605003A
:1008400065D0DFF81481D8F80000F7B200F00F008F
:10085000B04207D288F80070D8F8000000F00F000E
:10086000B04254D128683D4C810712D5400703D5CA
:10087000206840F4E05020602878000703D5206805
:1008800040F4604020602068A96820F0F000084330
:1008900020602878C0072DD03049686808390128C1
:1008A00012D0022813D0032811D009688907002923
:1008B0002DDA216821F0030101432160FFF732FEA8
:1008C000814641F2883A0EE009688903EFE709683A
:1008D0008901ECE7FFF726FEA0EB0901514502D99B
:1008E0000320BDE8F0872068696800F00C00B0EBD9
:1008F000810FEFD1D8F80010404601F00F01B1424E
:1009000007D90770006800F00F00B04201D0012045
:10091000E7E72878400705D52068E96820F4E0502B
:10092000084320602878000706D52068296920F44C
:10093000604040EAC100206000F028F82168084AC1
:10094000C1F30311515CC8400649086006480068BD
:10095000FFF708FF0020C4E7003C024008380240CF
:100960005812000818000020100000200448054913
:1009700000680968044AC1F38221515CC84070478D
:10098000180000200838024068120008154810B509
:10099000006810F00C02144813D04110042A0FD044
:1009A000082A0ED10F4C241F2268236802F03F0250
:1009B0005B0207D52068C0F38810A0FB010106E0A8
:1009C000084610BD2168C1F38811A1FB0001002376
:1009D000FFF7F6FB2168C1F30141491C4900B0FB58
:1009E000F1F010BD083802400024F4002DE9F84F62
:1009F000040076D02078DFF838A3CE4DC00749D068
:100A0000DAF800105046C1F38101012908D00068CE
:100A1000C0F3810002280AD1281D0068400206D5D3
:100A20002868800336D560680028E2D032E060682C
:100A3000B0F5803F10D0B0F5A02F286810D020F47A
:100A400080302860286820F4802028606068A0B189
:100A5000FFF768FD06460CE0286840F48030F4E7B4
:100A600040F480202860F7E7FFF75CFD801B6428D6
:100A700073D828688003F7D50CE0FFF753FD0646CE
:100A800005E000BFFFF74EFD801B6428F0D8286802
:100A90008003F7D42078DFF8A08280074FF00009A8
:100AA0003ED5DAF80010504611F00C0F09D000685E
:100AB000C0F3810002280BD19D48001F006840024E
:100AC00006D42868800715D5E068012809D111E00F
:100AD000E068B8B10120C8F80000FFF723FD064622
:100AE00005E020E1FFF71EFD801B0228C0D8286822
:100AF0008007F7D52868216920F0F80040EAC10096
:100B000028600DE0C8F80090FFF70CFD064604E0F1
:100B1000FFF708FD801B02281FD828688007F7D43C
:100B20002078000722D5824E844861696C3671B105
:100B300001210160FFF7F6FC074604E0FFF7F2FC35
:100B4000C01B022809D830688007F7D50EE0C0F82E
:100B50000090FFF7E7FC074605E082E0FFF7E2FCC4
:100B6000C01B02287DD830688007F7D42078400762
:100B700068D5DFF8BCB100270BF1380BDBF80000BB
:100B8000C0000BD4DBF8001041F08051CBF800100E
:100B9000DBF80000012700F080500090684E3068BC
:100BA000C00510D4306840F480703060FFF7BAFCA4
:100BB000009005E0FFF7B6FC0099401A022850D8D3
:100BC0003068C005F6D55A4EA068683601280FD0A7
:100BD0000528306810D020F001003060306820F027
:100BE00004003060A068B8B1FFF79CFC00900FE0F3
:100BF000306840F00100F4E740F004003060F7E7AF
:100C0000FFF790FC0099411A41F28830814266D882
:100C100030688007F4D50EE0FFF784FC009007E011
:100C2000FFF780FC0099411A41F28830814256D882
:100C300030688007F4D42FB1DBF8001021F0805128
:100C4000CBF80010A069D0B3DAF800205146C2F307
:100C50008102022A4AD00228484607D0C8F860001C
:100C600000E03CE0FFF75EFC04463BE04746C8F886
:100C70006000FFF757FC064605E000BFFFF752FC97
:100C8000801B02282BD828688001F7D4D4E90701FB
:100C90000843A16A2B4A490802EB0141626A41EA12
:100CA0008211084394F82C1040EA01612048001F8B
:100CB000016001203866FFF735FC044605E034E0AA
:100CC000FFF730FC001B022809D828688001F7D5FF
:100CD0002BE000BFFFF726FC001B022802D90320EF
:100CE000BDE8F88F28688001F4D41EE00128F7D011
:100CF0000868E26900F48001914214D1226A00F090
:100D00003F0191420FD147F6C071626A01409142A2
:100D100009D1A26A00F44031914204D1E16A00F0A5
:100D20007060884201D00120DAE70020D8E7000097
:100D3000083802400038024000004742800E474217
:100D4000007000400000FFFF10B5401EB0F1807F32
:100D500001D3012010BD4FF0E02460610F21601726
:100D600000F034F90020A06107202061002010BDB0
:100D7000FEE7000030B587B014216846FFF758FA47
:100D800015480024016841F080010160016801F00C
:100D900080010591016841F001010160016801F0E5
:100DA00001010591016841F00201016000680B4DED
:100DB00000F002000590002202212846FFF7ADFB5B
:100DC000022000900120CDE90104694628460394E1
:100DD000FFF7C2FA07B030BD3038024000000240D1
:100DE000FEE77047704700002DE9F0410025154EE1
:100DF0002C46012780213046FFF78AFB0028F9D0D6
:100E0000512000F0B2F980213046FFF781FB012824
:100E10000BD0C4F1070007FA00F08543641CE4B26C
:100E2000082CE7D32846BDE8F08180213046FFF743
:100E30006FFB0128F9D0C4F1070007FA00F0C0B237
:100E40000543EBE70000024030B585B00446FFF7EC
:100E500055FA284D002280212846FFF75EFB192015
:100E6000FFF768FA012280212846FFF756FB5A2037
:100E700000F07BF980200090002001900320039077
:100E800069462846FFF768FA80212846FFF740FBAD
:100E900070BB80212846FFF73BFB0028F9D080215A
:100EA0002846FFF735FB0128F9D0FFF79DFFA0701A
:100EB000FFF79AFFE070FFF797FF2070FFF794FFAE
:100EC0006070FFF791FF2071FFF718FA012280216F
:100ED0002846FFF722FBA078E17862780844217861
:100EE000114408442179884202D1002005B030BD68
:100EF0000120FBE7000002407047FFF711BC000033
:100F000030B593B030216846FFF792F914210CA850
:100F1000FFF78EF919480025016841F08051016002
:100F2000006800F0805011901548016841F480413C
:100F300001600068022400F48040119001200390B9
:100F400010200490009406940820CDE907505A2000
:100F5000CDE9090404200B906846FFF747FD0CA972
:100F60000F2081E831004FF4A0500F901090022123
:100F70000CA8FFF761FC13B030BD00004038024000
:100F8000007000400548016841F4700101600349A8
:100F90004FF00060803908607047000088ED00E085
:100FA000FEE700000FB4084B10B504A902AA03988D
:100FB00000F02CF8044602A9002000F0D1F82046E9
:100FC00010BC5DF814FB0000611100080907090E50
:100FD000002804DB00F1E02080F80014704700F0E6
:100FE0000F0000F1E02080F8141D704702E008C8EF
:100FF000121F08C1002AFAD170477047002001E093
:1010000001C1121F002AFBD1704700002DE9FF4FDC
:1010100089B09B460446002506E025280BD05A4699
:101020000B999047641C6D1C20780028F5D10DB0F9
:101030002846BDE8F08F0027B8460122474900E066
:10104000074314F8013F203B02FA03F00842F7D1AE
:1010500020782E2819D114F8010F47F004072A2808
:101060000ED06FF02F022078A0F1300109290CD8A2
:1010700008EB880102EB410100EB0108641CF2E778
:101080000A98641C50F8048B0A9020780028CED06F
:10109000642808D0692806D075281ED05A460B99B6
:1010A00090476D1C58E00A994FF00A0901C90A914E
:1010B000002802DA40422D2102E0390504D52B2117
:1010C0008DF82010012103E0F90704D02021F7E773
:1010D0008A4608AE0DE00021FAE70A994FF00A09A6
:1010E00001C90A91F7E74946FFF7ADF8303106F834
:1010F000011D0028F7D1ADEB060000F120097807AB
:1011000001D44FF00108C84502DDA8EB090000E05A
:1011100000208046002706E008A85A46C05D0B99CB
:1011200090476D1C7F1C5745F6DB04E030205A4683
:101130000B9990476D1CB8F10001A8F10108F5DC8E
:1011400005E016F8010B5A460B9990476D1CB9F152
:101150000001A9F10109F4DC641C65E7092801001C
:101160000A68531C0B60107070471DE000BF00BF81
:1011700000BF00BF00BF00BF00BF00BF00BF00BF77
:1011800000BF00BF00BF00BF00BF00BF00BF00BF67
:1011900000BF00BF00BF00BF00BF00BF00BF00BF57
:1011A00000BF00BF00BF00BF401EC0B2DED270470C
:1011B0001CB5FFF7BDFAFFF7A3FEFFF7DBFD1448F0
:1011C00012494FF480420160124941600021816060
:1011D000C0E9031241618161C1610162FFF7A8F9B1
:1011E000FFF77AF80C4C0C4800F022F86178207870
:1011F000CDE900010648E378A27808A15430FFF752
:10120000D1FE6420FFF796F8EDE70000005400409F
:101210001C000020A0860100050000204448543135
:10122000312025642E25642025642E2564000000CD
:1012300010B504460748FFF707FE002808D1054807
:1012400081782170C17861700178A1704078E07078
:1012500010BD0000000000200000000000000000A1
:10126000010203040607080900000000010203044C
:1012700090120008000000201C000000EC0F000885
:10128000AC1200081C00002064040000FC0F0008E1
:10129000000000000000000000000000010000004D
:0C12A00010000000000000000024F4001A
:040000050800018965
:00000001FF
