:020000040800F2
:10000000E04C00205D0200082F330008472800085C
:100010002D3300089D090008613A00080000000027
:100020000000000000000000000000009D0100082A
:10003000C109000800000000F9010008553300085C
:1000400077020008770200087702000877020008AC
:10005000770200087702000877020008770200089C
:10006000770200087702000877020008770200088C
:10007000770200087702000877020008770200087C
:10008000770200087702000877020008770200086C
:10009000770200087702000877020008770200085C
:1000A0007702000821340008770200087702000870
:1000B000770200087702000877020008770200083C
:1000C000770200087702000877020008770200082C
:1000D000770200083D3A000877020008493A000814
:1000E000C3090008770200087702000877020008B9
:1000F000770200082D340008770200087702000814
:1001000077020008770200087702000877020008EB
:1001100077020008770200087702000877020008DB
:1001200077020008770200087702000877020008CB
:1001300077020008770200087702000877020008BB
:1001400077020008770200087702000877020008AB
:10015000770200087702000877020008553A000885
:10016000770200087702000877020008770200088B
:1001700077020008770200087702000800000000FC
:100180007702000877020008DFF80CD000F05CFB73
:1001900000480047FD460008E04C00202C4B196841
:1001A0000868B0E8F04F80F30988BFF36F8F4FF015
:1001B000000080F3118870470000000008480068C4
:1001C000006880F308884FF0000080F3148862B65E
:1001D00061B6BFF34F8FBFF36F8F00DF00BF00BF6B
:1001E00008ED00E0DFF80C00016841F470010160E7
:1001F000704700BF88ED00E0EFF30980BFF36F8F19
:10020000134B1A681EF0100F08BF20ED108A20E96A
:10021000F04F106009B44FF0500080F31188BFF325
:100220004F8FBFF36F8F05F0E7F94FF0000080F3B9
:10023000118809BC19680868B0E8F04F1EF0100F6B
:1002400008BFB0EC108A80F30988BFF36F8F704746
:1002500080000020EFF305807047000006488047CB
:1002600006480047FEE7FEE7FEE7FEE7FEE7FEE79B
:10027000FEE7FEE7FEE7FEE7053400088901000817
:100280002DE9F05F0546002092469B4688460646CB
:10029000814640241BE0284641464746224600F05E
:1002A00023FA53465A46C01A914110D311461846B4
:1002B000224600F00AFA2D1A67EB01084F46224643
:1002C0000120002100F001FA17EB00094E41201E29
:1002D000A4F10104DFDC484631462A464346BDE826
:1002E000F09F40EA01039B0703D009E008C9121FF1
:1002F00008C0042AFAD203E011F8013B00F8013BE0
:10030000521EF9D27047D2B201E000F8012B491E0B
:10031000FBD270470022F6E710B513460A460446A2
:100320001946FFF7F0FF204610BD421C10F8011BD4
:100330000029FBD1801A7047034611F8012B00F801
:10034000012B002AF9D11846704730B50546002028
:10035000034600E05B1C934205D2EC5CC85C201AAB
:1003600001D1002CF6D130BD2DE9FE4F804681EA47
:100370000300C00F0C46009021F0004123F000451F
:10038000B8EB0200A94105D24046214690461C46E2
:100390000B46024623F00040104347D0270DC7F319
:1003A0000A00C3F30A510290401A019040286BDA08
:1003B000C3F3130040F4801B0098924620B1002341
:1003C000D2EB030A63EB0B0B01985946C0F14002D4
:1003D000504600F07AF906460D4650465946019AB5
:1003E00000F092F910EB08006141002487EA1152F5
:1003F00084EAE7731A4340D0009A62B3019A012A53
:100400004FEA075215DC001B61EB02014FF000427E
:1004100002EA0752CDE90042001C41F58011324644
:100420002B4600F092F903B0BDE8F08F404621461C
:10043000F9E7001B61EB0201001C41F58013001875
:100440005B412018A2F5001747EB030140EAD57085
:10045000B6196D4111E06D084FEA360645EAC075E0
:100460004FEA0752001B61EB0201001C41F58011AD
:1004700049084FEA30000019514132462B4603B07B
:10048000BDE8F04F00F052B900980122400000236F
:10049000D0EB020263EBE073009821464FEAE07470
:1004A000B8EB000061EB0401E9E783F000435BE790
:1004B00081F0004158E72DE9FE4F81EA030404F082
:1004C000004421F0004100944FF0000B23F0004362
:1004D00050EA01045ED052EA03045BD0C3F30A542D
:1004E000C1F30A552C44A4F2F3340194A0FB025446
:1004F000C1F3130141F48011C3F3130343F48013D8
:1005000001FB024400FB034E840A970A44EA81542B
:1005100047EA8357A4FB076802958D0A05FB078508
:100520004FEA932C04FB0C542705029D4FEA065812
:1005300047EA1637B5EB08056EEB070C870E920EEF
:1005400047EA811742EA8312A7FB0201B6EB0B01CF
:1005500064EB00042B0D43EA0C335E1844EB1C5093
:10056000DA465146E7FB0201C5F313044FEA0B33A9
:1005700043EA14534FEA0432019C43EA0603A4F110
:100580000C040294009CCDE900B400F0DEF803B046
:10059000BDE8F08F00200146F9E72DE9F04D81EA32
:1005A000030404F0004B21F0004514464FF0000A0C
:1005B00023F0004150EA050220D054EA01021DD088
:1005C000C5F30A570246C5F31303C1F31300C1F381
:1005D0000A5640F4801543F48013A7EB0608101B5D
:1005E000D64608F2FD3873EB050002D308F1010886
:1005F00001E092185B41B8F1000F03DA00200146D8
:10060000BDE8F08D00204FF48011064684460EE0D0
:10061000171B73EB050705D3121B63EB050306439A
:100620004CEA010C49084FEA300092185B4150EA4D
:100630000107EDD152EA030012D082EA040083EAF6
:100640000501084305D0101BAB4106D2012200234F
:1006500006E000224FF0004302E06FF00102531069
:100660001AEB06004CEB085110EB0A0041EB0B01B2
:10067000BDE8F04D00F05AB800F0004230F0004004
:100680000AD0C10D01F56071C0F3160042EA0151B4
:10069000C20840071143704700200146704730B53B
:1006A0000B46014600202022012409E021FA02F530
:1006B0009D4205D303FA02F5491B04FA02F52844CA
:1006C000151EA2F10102F1DC30BD202A04DB203A24
:1006D00000FA02F1002070479140C2F1200320FA95
:1006E00003F3194390407047202A04DB203A21FA93
:1006F00002F00021704721FA02F3D040C2F120023B
:100700009140084319467047202A06DBCB17203A50
:1007100041FA02F043EAE07306E041FA02F3D04006
:10072000C2F12002914008431946704710B5141ECB
:1007300073F1000408DA401C41F1000192185B419A
:100740001A4301D120F0010010BD2DE9F04D924671
:100750009B4611B1B1FA81F202E0B0FA80F2203288
:100760009046FFF7B2FF04460F4640EA0A0041EA0E
:100770000B0153465A46084313D0114653EA010071
:1007800019D0C8F140025046FFF7AEFF05460E46AD
:10079000504659464246FFF798FF084305D00120CE
:1007A00004E020463946BDE8F08D0020054346EAC6
:1007B000E0762C4337430A986305E40AA0EB08006F
:1007C0000022FD0A44EA47540A3002D500200146BF
:1007D000E9E7010510196941DDE90845001969419A
:1007E000BDE8F04DA2E7C1F30A52C1F3130140F294
:1007F000FF3341F480119A4202DA0020014670472B
:1008000040F233439A42A2F2334202DC5242FFF7F3
:100810006BBFFFF75ABF000030B5041E71F1000432
:1008200004DB4FF00044404264EB0101141E73F1FD
:10083000000405DB1C464FF00043524263EB040307
:10084000994208BF904230BD064C074D06E0E06873
:1008500040F0010394E8070098471034AC42F6D307
:10086000FFF796FC08630008286300084A494A68B5
:1008700022F440324A604A6843681A434A60016879
:100880004A6822F480724A6001684A68036942EA51
:1008900003224A6001684A6822F040724A60016897
:1008A0004A6883681A434A6001688A6822F40062D1
:1008B0008A6001688A68C3681A438A60816A6FF037
:1008C0007062D14214D001688A6822F070628A6036
:1008D00001688A68836A1A438A6001688A6822F01C
:1008E00040528A6001688A68C36A1A438A6009E0D4
:1008F00001688A6822F070628A6001688A6822F062
:1009000040528A6001688A6822F002028A600168A7
:100910008A68037E42EA43028A6090F8201089B117
:1009200001684A6842F400624A6001684A6822F439
:1009300060424A6001684A68436A5B1E42EA433289
:100940004A6004E001684A6822F400624A60016873
:10095000CA6A22F47002CA620168CA6A838B5B1E8B
:1009600042EA0352CA6201688A6822F400728A600D
:1009700001688A6890F8303042EA43228A60016850
:100980008A6822F480628A6001688A68406942EA63
:10099000802088607047000000230140FEE70000CF
:1009A00010B500F03FF801222021044800F064FB5C
:1009B000BDE810404FF4FA7000F090B9000002401A
:1009C000704710B54FF4005000F00EFABDE810402B
:1009D0004FF4004000F008BA10B503F0D5FD04460E
:1009E000642000F07BF9B4B9642000F077F90120AD
:1009F00003F052FE0446642000F070F95CB94FF435
:100A0000967000F06BF904F049FC04464FF4FA705C
:100A100000F064F90CB1002010BD642000F05EF914
:100A2000012010BD0B4800B5016887B041F00101FD
:100A300001600068694600F00100059020200090E8
:100A40000120019003200390034800F0D9F907B07A
:100A500000BD0000303802400000024038B44FF0C2
:100A6000000CCDF800C090F83C20012A1BD00122D8
:100A700080F83C200A680724092A17D90368DD6832
:100A80000A3A02EB420204FA02F225EA0202DA60B2
:100A90000A788B680A3A02EB420293400268D468F3
:100AA0002343D36014E038BC0220704703681D69FB
:100AB00002EB420204FA02F225EA02021A610A7803
:100AC0008B6802EB4202934002681469234313616E
:100AD0004A681F24072A15D203685D6B521E02EB79
:100AE000820204FA02F225EA02025A630A8893B2E9
:100AF0000A79521E02EB820293400268546B234330
:100B000053632CE00D2A15D203681D6BD21F02EB34
:100B1000820204FA02F225EA02021A630A8893B2F8
:100B20000A79D21F02EB820293400268146B2343BE
:100B3000136314E00368DD6A0D3A02EB820204FAE3
:100B400002F225EA0202DA620A8893B20A790D3AC1
:100B500002EB820293400268D46A2343D362184AAC
:100B6000184B04689C4206D10C68122C03D15468BF
:100B700044F48004546004689C421CD10B68102B20
:100B800001D0112B17D1536843F400035360096857
:100B9000102910D10C490D4A0968B1FBF2F101EBA3
:100BA000810149000091009929B10099491E0091E5
:100BB00000990029F9D180F83CC038BC002070476A
:100BC00000230140002001407000002040420F003F
:100BD00070B504460025002C03D0206C002610B10F
:100BE00007E0012070BD204600F01EF8666484F81E
:100BF0003C60206C10F0100F04D0012584F83C609C
:100C0000284670BD206C20F4885040F0020020641B
:100C10002046FFF72BFE6664206C20F0020040F0B7
:100C200001002064EAE7000070B586B00446142194
:100C30006846FFF76FFB1D491B4E256800231B4AC2
:100C4000143903241A48B54211D1156845F480754A
:100C50001560126802F4807205920A6842F004027C
:100C60000A60096801F004010591082113E0114EA2
:100C7000B54216D1156845F400751560126802F486
:100C8000007205920A6842F004020A60096801F0E5
:100C9000040105912021CDE900140293694600F07A
:100CA000AFF806B070BD000000200140443802409B
:100CB000000802400021014090F83510022903D0BD
:100CC0008021416501207047052180F835100068BA
:100CD000016821F0010101600020704770B50446F1
:100CE00000F0D2F90546B4F1FF3F02D00448007885
:100CF000044400F0C9F9401BA042FAD370BD0000C3
:100D00007400002070B50125294CB0F5004F21D0AA
:100D1000B0F5005F1DD12069002814DD2548C168A9
:100D200051B30021C160C068012827D001F01EFF27
:100D30000121084601F092FF00211FA001F026FFCB
:100D4000C820FFF7CBFF2069401C2061022800D19A
:100D5000256170BDE068002805DD206850B10020E5
:100D6000206003F009FCE068401CE0600228F0D13C
:100D7000E56070BD0120F3E70121D3E701F0F6FE45
:100D80000121084601F06AFF002110A001F0FEFEDB
:100D90000121022001F062FF002110A001F0F6FE07
:100DA0000F21022001F05AFF02480021801CC5E7F4
:100DB000A40800202C0000204175746F206D6F6422
:100DC00065206973206F6666000000004175746FCE
:100DD000206D6F6465206973206F6E004C696D69CA
:100DE000742074656D703A0010B504490A680242B7
:100DF00002D00860FFF786FF10BD0000143C0140E0
:100E00002DE9F84F002203248E4E8F4F0F2501232A
:100E100003FA02F80B6803EA080343457DD1D1F8D1
:100E200004C0BCF1010F08D0BCF1020F05D0BCF129
:100E3000110F02D0BCF1120F1DD1D0F808904FEA6B
:100E4000420C04FA0CFA29EA0A09D1F80CA00AFAB1
:100E50000CFC4CEA090CC0F808C0D0F804C02CEA1D
:100E6000080C91F80480C8F3001808FA02F848EA60
:100E70000C0CC0F804C0D0F80C904FEA420C04FAF5
:100E80000CF829EA0809D1F808A00AFA0CFA4AEA8B
:100E90000909C0F80C90D1F80490B9F1020F02D002
:100EA000B9F1120F15D14FEAD20900EB8909D9F82F
:100EB00020B04FEA427A4FEADA6A05FA0AFE2BEAD4
:100EC0000E0BD1F810E00EFA0AFA4AEA0B0AC9F83A
:100ED00020A0D0F8009029EA080891F8049009F0C1
:100EE000030909FA0CFC4CEA080CC0F800C0D1F860
:100EF00004C01CF0805F10D0D6F800C04CF4804CC9
:100F0000C6F800C0D6F800C00CF4804CCDF800C084
:100F100022F0030C0CF1804900E075E009F59839E6
:100F2000D9F808C84FEA82784FEA187805FA08FA23
:100F30002CEA0A0AA0F1804CBCF5003C6AD0A0F172
:100F4000804CBCF5013C68D0A0F1804CBCF5023C63
:100F500066D0A0F1804CBCF5033C64D0A0F1804C7D
:100F6000BCF5043C62D0A0F1804CBCF5053C60D0DF
:100F7000A0F1804CBCF5063C5ED0A0F1804CBCF5E5
:100F8000073C5CD04FF0080C0CFA08FC4CEA0A0C49
:100F9000C9F808C8DFF8B480D8F800C02CEA030C00
:100FA000D1F8049019F4803F01D04CEA030CC8F842
:100FB00000C0DFF89C80D8F800C02CEA030CD1F800
:100FC000049019F4003F01D04CEA030CC8F800C0AB
:100FD000D7F800C02CEA030CD1F8048018F4801F65
:100FE00001D04CEA030CC7F800C0DFF86880D8F8DD
:100FF00000C02CEA030CD1F8049019F4001F01D0B2
:101000004CEA030CC8F800C0521C102AFFF4FFAED3
:10101000BDE8F88F4FF0000CB6E74FF0010CB3E7D6
:101020004FF0020CB0E74FF0030CADE74FF0040CAB
:10103000AAE74FF0050CA7E74FF0060CA4E74FF026
:10104000070CA1E744380240083C0140003C014045
:10105000043C01400C3C01400069084201D00120E1
:10106000704700207047426931EA020201D0816175
:101070007047090481617047002A01D0816170477F
:1010800009048161704700000148806870470000D2
:101090007400002070B50446002C04D094F83D0084
:1010A000002510B106E0012070BD84F83C502046B8
:1010B00000F03AFA242084F83D002068016821F00D
:1010C000010101602068016841F40041016020686D
:1010D000016821F40041016000F024FC544B616878
:1010E000994203D85349884203D304E052498842C5
:1010F00001D2012070BD5149B0FBF1F12268D2F854
:1011000004C02CF03F0C4CEA010CC2F804C0626829
:101110009A4201D84A1C07E04FF4967251434FF4AB
:101120007A72B1FBF2F14A1C2168D1F820C02CF090
:101130003F0C42EA0C020A626168994210D84900E9
:10114000401EB0FBF1F2521CC2F30B02042A01D282
:10115000042026E0B0FBF1F0401CC0F30B0020E0BF
:10116000A268002A50D001EBC10303EB0113A0F1E8
:10117000010CBCFBF3F35B1C43F480431B051B0D0C
:101180004AD0002A4AD001EBC10202EB0111401EF5
:10119000B0FBF1F0401CC0F30B0040F4804040F481
:1011A00000402168CA6922F0FF0222F44F42104336
:1011B000C861216AE06901432068026822F0C00228
:1011C00011430160E168206901432068826822F0D0
:1011D000FF0222F4034211438160A1696069014367
:1011E0002068C26822F0FF021143C16020680168D4
:1011F00041F0010101602564202084F83D00256351
:1012000084F83E50002070BD01EB4103A0F1010CB9
:10121000BCFBF3F35B1CB1E70120C2E701EB41012A
:10122000401EB0FBF1F0401CC0F30B00B7E700001C
:10123000A086010080841E0000093D0040420F008E
:101240002DE9F84F0446884692461E46FFF71CFFDC
:101250000546012794F83D00202802D00220BDE871
:10126000F88F1923012256492046009501F08EFB84
:1012700010B10220BDE8F88F94F83C00012808D096
:10128000012084F83C002068016811F0010F03D0B0
:1012900006E00220BDE8F88F016841F0010101601D
:1012A0002068016821F400610160242084F83D0079
:1012B000002020644348E06208F0FE094FF0A008D7
:1012C0004FF0200B2068016841F4807101603346C3
:1012D00000224FF001112046009501F057FB50B15C
:1012E0002068006810F4807F02D04FF40070206402
:1012F0000320BDE8F88F2068C0F81090FFF7C4FE07
:10130000054620684169C1F340014069C0F380206F
:101310000EE0FFF7B9FE401BB04200D80EB984F8CA
:101320003D8020684169C1F340014069C0F38020DD
:1013300094F83D20A02A02D009B90028E9D084F809
:101340003DB02068416911F0020F1BD02168096887
:1013500041F40071016000262068416980690090B5
:101360001923012216492046009501F00FFB10B108
:101370000120BDE8F88F84F83DB084F83C6000207F
:10138000BDE8F88F016841F40071016021686FF4D5
:10139000806048611923012209492046009501F027
:1013A000F5FA10B10120BDE8F88F7F1C574589D3AD
:1013B00084F83DB0002084F83C000120BDE8F88F9F
:1013C000020010000000FFFF2DE9F84F04468A4696
:1013D000904699460A9FFFF757FE064694F83D004F
:1013E000202802D00220BDE8F88F192301224C49A1
:1013F0002046009601F0CAFA10B10220BDE8F88F2D
:1014000094F83C00012808D0012084F83C002068B2
:10141000016811F0010F03D006E00220BDE8F88F4B
:10142000016841F0010101602068016821F4006158
:101430000160212084F83D00102084F83E00002542
:101440002564C4F82480A4F82A90608D208535484E
:10145000E06233463A465146204601F00FFA10B199
:101460000120BDE8F88F2068416980690090208DD7
:10147000002846D032463946204601F048FB50B19C
:10148000206C042804D12068016841F400710160D7
:101490000120BDE8F88F606A216800780861606A01
:1014A00000F1010CC4F824C0608D401E6085208DC1
:1014B000401E80B220852268516911F0040F0CD0C3
:1014C00058B19CF800001061606A401C6062608D39
:1014D000401E6085208D401E2085324639462046BC
:1014E00001F026FA50B1206C042804D1206801686C
:1014F00041F4007101600120BDE8F88F208D0028C3
:10150000B8D12068016841F400710160202084F89E
:101510003D0084F83E5084F83C500020BDE8F88F30
:10152000020010000000FFFFF0B587B00446142150
:101530006846FEF7EFFE2768204CDFF87CC01F49A5
:1015400012220123032504261D481034674515D1B6
:101550000F6847F002070F60096801F0020105916A
:1015600029028DE86E006946FFF74AFC206840F4C6
:1015700000102060206800F4001019E0DFF844C07B
:10158000674516D10F6847F002070F60096801F040
:10159000020105914FF440618DE86E006946FFF746
:1015A0002FFC206840F480002060206800F4800058
:1015B000059007B0F0BD00000054004030380240F4
:1015C000000402400058004002488168027811443B
:1015D000816070477400002010B50B48016841F429
:1015E00000710160016841F480610160016841F4AB
:1015F00080710160032000F0A1F8002000F006F8DF
:1016000000F03EF8002010BD003C024010B501463D
:1016100088B000222D2000F05DF82D2000F04CF85D
:1016200013480024016841F480710160006805A935
:1016300000F480700690684600F050F900F072F9EE
:101640000C494000B0FBF1F10C480B4A491E026006
:1016500040F2E732C0E90324C0E9011400F075FC50
:1016600010B1012008B010BD044800F08BFCF9E770
:101670004038024040420F0000200040B00B0020E4
:101680000C4882B0016841F480410160006800F4B8
:10169000804000900748001F016841F080510160C0
:1016A0000068002200F0805000900F21901E02B0D0
:1016B00000F010B84438024000280ADB00F01F0197
:1016C000012202FA01F14009800000F1E020C0F897
:1016D0000011704710B4184B1B68C3F30223C3F109
:1016E000070CBCF1040F01D94FF0040C1C1D072C92
:1016F00001D2002300E0DB1E012404FA0CFCACF153
:10170000010C0CEA0101994004FA03F35B1E1A4034
:101710001143002806DB00F1E020090180F80014E5
:1017200010BC704700F00F0000F1E020090180F8C4
:10173000141D10BC704700000CED00E000F0070025
:10174000064A11684FF6FF03194041EA002040F0B5
:10175000FD7040F080601060704700000CED00E00C
:101760002DE9F04704460D46002C13D0DFF85491C4
:10177000D9F80000EFB200F00F00A8420DD289F8AE
:101780000070D9F8000000F00F00A84205D0012039
:10179000BDE8F0870120BDE8F08720684A4E10F0D0
:1017A000020F14D010F0040F03D0306840F4E05062
:1017B0003060207810F0080F03D0306840F46040AB
:1017C00030603068A16820F0F00008433060207875
:1017D00010F0010F3ED060683C49012808D0022873
:1017E0000DD003280BD0096811F0020F28D00AE0B1
:1017F000096811F4003F06D10120BDE8F0870968AF
:1018000011F0007F19D0316821F0030108433060E6
:10181000FFF73AFC80463068616800F00C00B0EBDE
:10182000810F17D041F2883AFFF72EFCA0EB080099
:10183000504508D90320BDE8F0870120BDE8F087B6
:101840000120BDE8F0873068616800F00C00B0EB63
:10185000810FE9D1D9F8000000F00F00A8420AD9A1
:1018600089F80070D9F8000000F00F00A84202D0FB
:101870000120BDE8F087207810F0040F05D0306813
:10188000E16820F4E05008433060207810F0080F41
:1018900006D03068216920F4604040EAC100306021
:1018A00000F060F831680A4AC1F30311515CC84086
:1018B0000849086008480068FFF7A8FE0020BDE856
:1018C000F0870000003C0240083802400038024027
:1018D000D062000870000020780000200F22026013
:1018E0000B4A136803F003034360136803F0F0032B
:1018F0008360136803F4E053C360126802F460422B
:10190000D20802610348006800F00F0008607047C9
:1019100008380240003C024001480068704700005F
:101920007000002000B5FFF7F7FF04490968044A7A
:10193000C1F38221515CC84000BD0000083802405C
:10194000E062000800B5FFF7E7FF04490968044AB0
:10195000C1F34231515CC84000BD0000083802406C
:10196000E062000810B51748006810F00C01164836
:1019700016D04310042912D0082911D1134C216824
:1019800001F03F02216811F4800F0AD02068C0F3F3
:101990008810A0FB03010023FEF772FC09E0184643
:1019A00010BD21680023C1F38811A1FB0001FEF7DF
:1019B00067FC2168C1F30141491C4900B0FBF1F00B
:1019C00010BD0000083802400024F4000438024032
:1019D0002DE9F84F0446002C10D02078FA4FFB4D2B
:1019E00010F0010F63D0386800F00C0004280DD00F
:1019F000386800F00C00082803D011E00120BDE891
:101A0000F88FF348006810F4800F09D0286810F4AC
:101A1000003F4CD06068002849D10120BDE8F88F14
:101A20006068B0F5803F14D0B0F5A02F16D02868BC
:101A300020F480302860286820F4802028606068C6
:101A400010B3FFF721FB0646286810F4003F0ED0C4
:101A50002DE0286840F480302860F0E7286840F4E2
:101A600080202860286840F480302860E7E7FFF78E
:101A70000BFB801B642802D90320BDE8F88F28687F
:101A800010F4003FF3D012E0FFF7FEFA0646286894
:101A900010F4003F0BD0FFF7F7FA801B642802D93F
:101AA0000320BDE8F88F286810F4003FF3D12078B8
:101AB000C84E10F0020F4FF0000957D0386810F0F0
:101AC0000C0F15D0386800F00C00082804D1C0486D
:101AD000006810F4800F0BD0E06880B30120306004
:101AE000FFF7D2FA8046286810F0020F12D01EE0ED
:101AF000286810F0020F05D0E068012802D001200C
:101B0000BDE8F88F2868216920F0F80040EAC1009C
:101B100028602BE0FFF7B8FAA0EB0800022802D9F2
:101B20000320BDE8F88F286810F0020FF2D0286873
:101B3000216920F0F80040EAC100286016E0FFE7C4
:101B4000C6F80090FFF7A0FA8046286810F0020F50
:101B50000CD0FFF799FAA0EB0800022802D9032065
:101B6000BDE8F88F286810F0020FF2D1207810F04D
:101B7000080F35D09848DFF864A26169C1B101212E
:101B80000160FFF781FA8046DAF8000010F0020FDA
:101B900026D1FFF779FAA0EB0800022802D903202A
:101BA000BDE8F88FDAF8000010F0020FF1D017E06E
:101BB000C0F80090FFF768FA8046DAF8000010F0ED
:101BC000020F0DD0FFF760FAA0EB0800022802D93F
:101BD0000320BDE8F88FDAF8000010F0020FF1D111
:101BE000207810F0040F71D04FF000087C48006896
:101BF00010F0805F0AD17A48016841F0805101609D
:101C0000006800F0805000904FF00108DFF8D4B178
:101C1000DBF8000010F4807F1BD1DBF8000040F4FB
:101C20008070CBF80000FFF72FFA8246DBF8000047
:101C300010F4807F0DD1FFF727FAA0EB0A000228ED
:101C400002D90320BDE8F88FDBF8000010F4807F94
:101C5000F1D0A068DFF890B1012818D005281DD078
:101C6000DBF8000020F00100CBF80000DBF80000FA
:101C700020F00400CBF80000A06840B3FFF704FA9E
:101C80008246DBF8000010F0020F14D03EE0DBF8D3
:101C9000000040F00100CBF80000EDE7DBF80000A9
:101CA00040F00400CBF80000DBF8000040F0010039
:101CB000CBF80000E0E7FFF7E7F9A0EB0A0141F2FB
:101CC0008830814204D90320BDE8F88F26E005E082
:101CD000DBF8000010F0020FEDD017E0FFF7D4F9A9
:101CE0008246DBF8000010F0020F0FD0FFF7CCF9AE
:101CF000A0EB0A0141F28830814202D90320BDE8FD
:101D0000F88FDBF8000010F0020FEFD1B8F1010FEF
:101D100004D13348016821F080510160A069E0B32B
:101D2000396801F00C0108296AD0022810D0C6F8E1
:101D30006090FFF7A9F90446286810F0007F2CD0C6
:101D4000FFF7A2F9001B022855D90320BDE8F88F40
:101D5000C6F86090FFF798F90746286810F0007FF2
:101D60000BD0FFF791F9C01B022802D90320BDE870
:101D7000F88F286810F0007FF3D1216AE069A26A29
:101D80000843616A4FF0FF33890103EB520241EAD5
:101D90000241084394F82C1000E052E040EA01614F
:101DA0000B48016001203066FFF76EF90446286891
:101DB00010F0007F45D1FFF767F9001B022815D905
:101DC0000320BDE8F88F1BE00838024000380240CD
:101DD0000438024000004742800E474274380240F7
:101DE000403802400070004070380240286810F00F
:101DF000007FE0D025E0286810F0007FA0D120E02F
:101E000001281CD03868E26900F48001914214D1A5
:101E1000226A00F03F0191420FD147F6C071626A19
:101E20000140914209D1A26A00F44031914204D1AB
:101E3000E16A00F07060884203D00120C1E7012010
:101E4000BFE70020BDE77047704790F83C20012AAB
:101E50002CD0012280F83C20CA680023D1F808C0A9
:101E600022F4407242EA0C02D1F804C022F48062EB
:101E700042EA0C02D1F800C022F4006242EA0C02ED
:101E8000D1F810C022F4805242EA0C02D1F814C0FA
:101E900022F4005242EA0C02C96922F48042114342
:101EA0000268516480F83C3000207047022070477F
:101EB00030B490F83C20012A44D0012480F83C4002
:101EC000022280F83D200268D2F804C093682CF00A
:101ED000700C0D6845EA0C0CC2F804C00268A2F14F
:101EE000804CBCF5803C20D0B2F1804F1DD0A2F1D7
:101EF000804CBCF5806C18D0A2F1804CBCF5006C15
:101F000013D0A2F1804CBCF5406C0ED0A2F1804CF5
:101F1000BCF5823C09D0A2F1804CBCF5A03C04D0B9
:101F2000A2F1804CBCF5C05C04D123F08003496869
:101F30001943916080F83D40002180F83C1030BC8E
:101F40000020704730BC0220704710B50446002CBA
:101F500003D094F83D0010B107E0012010BD00202F
:101F600084F83C00204600F00CF8022084F83D0084
:101F7000211D206801F060FA012084F83D00002056
:101F800010BD70470168CA6842F00102CA6000686B
:101F9000816801F00701062903D0016841F00101C1
:101FA000016000207047704770B5044620680169E1
:101FB0004FF0000511F0020F17D0C16811F0020FA9
:101FC00013D0E91E0161012020772068806910F09C
:101FD000030F03D02046FFF7E6FF05E0204600F0A0
:101FE000F1F8204600F0B4F925772068016911F076
:101FF000040F18D0C16811F0040F14D06FF0040161
:102000000161022020772068806910F4407F03D0AE
:102010002046FFF7C8FF05E0204600F0D3F8204631
:1020200000F096F925772068016911F0080F18D0A3
:10203000C16811F0080F14D06FF00801016104208D
:1020400020772068C06910F0030F03D02046FFF707
:10205000AAFF05E0204600F0B5F8204600F078F928
:1020600025772068016911F0100F18D0C16811F0B0
:10207000100F14D06FF01001016108202077206844
:10208000C06910F4407F03D02046FFF78CFF05E0C5
:10209000204600F097F8204600F05AF9257720688E
:1020A000016911F0010F09D0C16811F0010F05D0CD
:1020B0006FF001010161204600F06CF920680169B0
:1020C00011F0800F09D0C16811F0800F05D06FF0BA
:1020D000800101612046FFF7B6FE2068016911F01A
:1020E000400F09D0C16811F0400F05D06FF04001DA
:1020F0000161204600F058F92068016911F0200FB5
:102100000BD0C16811F0200F07D06FF020010161E2
:102110002046BDE87040FFF797BE70BD30B587B070
:10212000044614216846FEF7F5F824681F4D002286
:102130001F4902231F48AC420ED10C6844F0100422
:102140000C60096801F0100105914FF428510091CD
:10215000CDE90132012125E0174DAC4212D10868CA
:1021600040F00200086008680093CDE9013200F0F9
:102170000200CDE90430694603921048FEF740FEA4
:1021800007B030BD0E4DAC42FAD10C6844F01004DB
:102190000C60096801F01001059120210091CDE942
:1021A00001320321CDE903216946E7E70000014040
:1021B0003038024000100240000400400004024099
:1021C00000400140704770B504460D4694F83C004D
:1021D00001280DD0012684F83C60022084F83D00DF
:1021E00042B1042A1AD0082A2DD00C2A53D13EE03D
:1021F000022070BD2946206801F094F920688169A9
:1022000041F0080181612068816921F00401816148
:10221000206881692A69114381613CE02946206870
:1022200001F0B8F92068816941F40061816120689A
:10223000816921F480618161206881692A6941EAAC
:102240000221816127E02946206801F0DFF920683A
:10225000C16941F00801C1612068C16921F0040130
:10226000C1612068C1692A691143C16113E029462F
:10227000206801F007FA2068C16941F40061C1617A
:102280002068C16921F48061C1612068C1692A693F
:1022900041EA0221C16184F83D60002084F83C00DD
:1022A00070BD10B50446002C03D094F83D0010B169
:1022B00007E0012010BD002084F83C00204600F01B
:1022C0000DF8022084F83D00211D206801F0B4F8CB
:1022D000012084F83D00002010BD000008B5184A18
:1022E00001681848914211D1016841F00101016073
:1022F0000068002200F00100009005211920FFF77E
:10230000E9F9BDE808401920FFF7D6B90E4A914215
:1023100009D10C48001F016841F00201016000680A
:1023200000F0020009E0094A914207D1016841F436
:1023300080310160006800F48030009008BD00002A
:1023400000000140443802400004004000400140C9
:10235000704710B504460122206801F0D3F82168C7
:10236000A1F18040B0F5803004D0A1F18040B0F5FB
:10237000823003D1486C40F4004048642068816892
:1023800001F00701062903D0016841F00101016055
:10239000002010BD00680349884201D1FFF714B93D
:1023A00070470000002000407047704710B5044699
:1023B00022681068D168526900F00F03002B0AD11F
:1023C00010F0200F07D011F0200F04D02046BDE8F8
:1023D000104001F0A6B9002B71D002F0010301F406
:1023E000907C53EA0C0C6AD010F0010F08D011F465
:1023F000807F05D0D4F83CC04CF0010CC4F83CC040
:1024000010F0040F08D012F0010F05D0D4F83CC032
:102410004CF0020CC4F83CC010F0020F06D012F0D1
:10242000010F03D0E26B42F00402E26310F0080FE8
:1024300007D001F020021A4303D0E26B42F00802F9
:10244000E263E26B002A2ED010F0200F05D011F0CD
:10245000200F02D0204601F064F920684069C0F3E3
:102460008010E16B11F0080F00D108B3204601F095
:102470003DF92068416911F0400F15D0416921F004
:1024800040014161606B58B118490165606BFEF70E
:1024900013FC002807D0606B016DBDE810400847B1
:1024A0002046FFF782FF10BD2046FFF77EFF10BDDC
:1024B0002046FFF77AFF0020E06310BDFFE710F031
:1024C000800F07D011F0800F04D02046BDE81040E7
:1024D00001F044BA10F0400FEFD011F0400FECD0F3
:1024E0002046BDE8104001F00FB90000DD360008BD
:1024F00070B50446002C04D094F83900002510B1C2
:1025000006E0012070BD84F83850204600F022F823
:10251000242084F839002068C16821F40051C1608A
:10252000204601F04DF92068016921F490410161D4
:102530002068416921F02A0141612068C16841F4A5
:102540000051C160E563202084F8390084F83A0026
:10255000002070BDF0B587B0044614216846FDF731
:10256000D9FE3D48DFF8ECC027683B491438C02548
:10257000022201230324072667451FD10F6847F075
:1025800010070F60096801F010010591016841F022
:10259000020101600068009500F00200CDE90460CE
:1025A00001AF694687E81C002C48FEF729FC002291
:1025B00005212520FFF78EF8252023E0DFF8A0C0B5
:1025C000674523D12449091F0D6845F480250D6016
:1025D000096801F480210591016841F0080101605A
:1025E0000068694600F0080005904FF440708DE8DF
:1025F0005D001C48FEF704FC002205212720FFF7A0
:1026000069F82720FFF758F807B0F0BD164EB7421B
:10261000FAD10E6846F020060E60096801F020012C
:102620000591016841F0040101600068009500F027
:10263000040005900820CDE9034069460B48CDE928
:102640000123FEF7DDFB002205214720FFF742F8BA
:102650004720D7E700100140443802400004024000
:1026600000480040000C02400014014000080240F5
:1026700090F83A30202B01D002207047F9B1F2B126
:1026800090F83830012B1CD081628285C2850021F0
:10269000C163222280F83A2080F838100168CA68A5
:1026A00042F48072CA6001684A6942F001024A61DC
:1026B0000068C16841F02001C1600020704701201E
:1026C000704702207047000070B5054600681F493A
:1026D0001F4C884222D1A0881E4A002620B9002122
:1026E0005654491C3229FBDB1949891D09780A29EE
:1026F00003D01154401CA0800AE0164901F13200B9
:10270000FDF71AFE4FF480511348FEF7ACFCA6808B
:102710000F490122891D1148FFF7AAFF10492868B7
:10272000884211D10B4A20786432617811541E28F6
:1027300001D2401C20700649BDE8704007480122C4
:10274000491C4038FFF794BF70BD000000140140E1
:102750002C000020D8080020000C02406007002058
:10276000004800402DE9F84304460D4690461E46B9
:1027700094F83900202802D00220BDE8F8836DB318
:10278000B8F1000F2AD094F83800012829D0012090
:1027900084F838004FF00009C4F83C90212084F8F8
:1027A0003900FEF771FC0746A4F82480A4F82680BF
:1027B00084F83890E08CA0B3E08C401EE084A068E0
:1027C000B0F5805F10D03B46002280212046009665
:1027D00001F0F7F8F0B10320BDE8F8830120BDE86F
:1027E000F8830220BDE8F8833B4600228021204682
:1027F000009601F0E6F810B10320BDE8F8832888C0
:102800002168C0F308004860206908B16D1C05E02C
:10281000AD1C03E0216815F8010B4860E08C00282E
:10282000CAD13B46002240212046009601F0C9F85B
:1028300010B10320BDE8F883202084F8390000207F
:10284000BDE8F8837047FEE701684A6912F4806FBB
:1028500011D06FF480624A6100210163202280F868
:102860003D2080F83E10026C42F00402026480F8C1
:102870003C1001207047002070470000F8B5044666
:102880000D4617461E46E06A082808D0012806D0E3
:1028900010F5803F03D0206B122806D00AE0206894
:1028A000016841F48071016004E02068016841F42E
:1028B000807101603B4600224FF0011120460096D6
:1028C00000F064F848B12068006810F4807F02D0FE
:1028D0004FF4007020640320F8BD2069B0F5804FEC
:1028E0000FD005F44070F02141EAD0102168086152
:1028F00033463A460C49204600F0A2F830B1012098
:10290000F8BD216805F0FE00086102E02168E8B228
:10291000086133463A460549204600F091F808B16F
:102920000120F8BD0020F8BD0800010002000100F0
:1029300070B504460D4616462068406910F0040F35
:1029400013D12046FFF780FF08B1012070BDB5F11B
:10295000FF3F05D0FEF798FB801BA84207D835B192
:102960002068406910F0040FEBD0002070BD0020FB
:102970002063202184F83D1084F83E00216C41F052
:102980002001216484F83C00012070BD2DE9F0474E
:102990000446DDF820900D4617461E46C5F307484D
:1029A0002068B8F1010F22D0806925EA00000004F8
:1029B000000C26D00020B84216D1B6F1FF3F06D059
:1029C000FEF762FBA0EB0900B0421CD8DEB1B8F103
:1029D000010F28D02068806925EA00000004000C5F
:1029E0002CD00020B842E8D00020BDE8F087406934
:1029F00025EA00000004000C01D00020DBE70120E4
:102A0000D9E70120D7E700202063202184F83D107A
:102A100084F83E00216C41F02001216484F83C00E0
:102A20000120BDE8F0872068406925EA0000000425
:102A3000000C01D00020D5E70120D3E70120D1E729
:102A40002DE9F04704460D4616461F46C5F30748D4
:102A50002068B8F1010F26D0806925EA0000000443
:102A6000000C3AD04FF000094FF0200A206840696E
:102A700010F4806F1ED02068016841F4007101607D
:102A800021686FF480604861C4F8309084F83DA0FC
:102A900084F83E90206C40F00400206484F83C9060
:102AA0000120BDE8F087406925EA00000004000C21
:102AB00013D0D7E7B6F1FF3F05D0FEF7E5FAC01B0C
:102AC000B0420DD866B1B8F1010F18D02068806906
:102AD00025EA00000004000CC8D10020BDE8F08702
:102AE000C4F8309084F83DA084F83E90206C40F00B
:102AF0002000206484F83C900120BDE8F087206825
:102B0000406925EA00000004000CAFD1E5E770B58C
:102B100004460D4616462068406910F0800F13D118
:102B20002046FFF791FE08B1012070BDB5F1FF3FCF
:102B300005D0FEF7A9FA801BA84207D835B1206856
:102B4000406910F0800FEBD0002070BD00202063A2
:102B5000202184F83D1084F83E00216C41F02001D2
:102B6000216484F83C00012070BD000010B50120F4
:102B700000F08CF80A20FEF7B1F803480021C1707C
:102B80000121817010BD0000040000202DE9F047F4
:102B9000304D00260446EE7071B301292FD12E4925
:102BA000002000BF41F82040401C641C6428F9DB71
:102BB00089460868FDF7B9FB2871264FA8780837C1
:102BC000391811F8011C00F049F8A97807F1040838
:102BD00008EB010010F8014C1AE0641C00F07CF8CE
:102BE000E878401CC0B2E870102805D1A87801210F
:102BF000401C00F033F8EE7020780028EDD1BDE8DD
:102C0000F08700BF59F82400007800F065F8641CD4
:102C100028798442F6DBA978781810F8012C521E26
:102C200012F0FF0200F8012CE9D10122414400F822
:102C3000012C11F8012C521CD2B201F8012C2B7975
:102C40009A42DCD1102200F8012C01F8016C2E719F
:102C5000D5E700000400002020010020094A907000
:102C6000421E012A0CD84A1E0F2A09D8064A02EB36
:102C70000010084410F8110C40F0800000F006B875
:102C80007047000004000020F061000838B5104CC7
:102C9000627800EA020102EA0010E279114310436F
:102CA000617104F11002A07141F0040313705170BE
:102CB00040F004019170D07001F0C2FCC820009077
:102CC000042304F1100221780248FEF77DFB38BD91
:102CD00004000020B002002038B5124C627800EAEF
:102CE000020102EA0010E27911436171104341F0E0
:102CF000050304F11002A071137041F0010151703D
:102D000040F00501917040F00100D07001F098FC96
:102D1000C8200090042304F1100221780248FEF735
:102D200053FB38BD04000020B002002004490828ED
:102D300001D0002803D1C871202000F0F3B87047FB
:102D40001800002010B5012000F0C6F80A20FDF799
:102D5000C5FF03480021C1700121817010BD000032
:102D60001800002010B5012000F0B6F84FF47A707A
:102D7000FDF7B4FF022000F0AFF80520FDF7AEFF2D
:102D8000282000F0A9F80520FDF7A8FF0C2000F08E
:102D9000A3F80520FDF7A2FF802000F09DF8BDE814
:102DA00010404FF4FA70FDF799BF10B504469AB081
:102DB00010EE100AFDF760FC41EC100B214653ECBD
:102DC000102B684600F04EFE0021684600F002F825
:102DD0001AB010BD2DE9F047304D00260446EE70C4
:102DE00071B301292FD12E49002000BF41F82040A6
:102DF000401C641C6428F9DB89460868FDF795FAD5
:102E00002871264FA8780837391811F8011C00F0EE
:102E100049F8A97807F1040808EB010010F8014C03
:102E20001AE0641C00F07EF8E878401CC0B2E8703C
:102E3000142805D1A8780121401C00F033F8EE7069
:102E400020780028EDD1BDE8F08700BF59F82400B4
:102E5000007800F067F8641C28798442F6DBA978D2
:102E6000781810F8012C521E12F0FF0200F8012C05
:102E7000E9D10122414400F8012C11F8012C521C27
:102E8000D2B201F8012C2B799A42DCD1142200F83D
:102E9000012C01F8016C2E71D5E70000180000200C
:102EA000040300200A4A9070421E032A0ED84A1ECC
:102EB000132A0BD8074A00EB800002EB800008447D
:102EC00010F8150C40F0800000F006B870470000C4
:102ED000180000201062000838B5104C627800EA33
:102EE000020102EA0010E27911431043617104F11A
:102EF0001002A07141F004031370517040F00401FE
:102F00009170D07001F070FBC8200090042304F190
:102F1000100221780248FEF757FA38BD1800002049
:102F20009404002038B5124C627800EA020102EAEB
:102F30000010E27911436171104341F0050304F17F
:102F40001002A071137041F00101517040F00501B1
:102F5000917040F00100D07001F046FBC820009055
:102F6000042304F1100221780248FEF72DFA38BD3F
:102F7000180000209404002070B53220FDF7AEFE4A
:102F800001F032FB054D4FF47A7423460322297871
:102F90000348FEF755F90028F7D170BD180000204E
:102FA000940400207FB500241148009401940294F9
:102FB0000E490394C0E9001484600461047680F82B
:102FC00020400C49C0E90A140125C561C46080F89D
:102FD00030404561FDF7FCFD0D20CDE90005694657
:102FE00002940348FDF73AFD7FBD00000020014038
:102FF000E80400200100000F7FB500241148009470
:10300000019402940E490394C0E9001484600461A1
:10301000047680F820400C49C0E90A140125C561F6
:10302000C46080F830404561FDF7D2FD0F20CDE946
:103030000005694602940348FDF710FD7FBD0000BE
:1030400000210140300500200100000F2DE9F04F64
:1030500087B014216846FDF75DF9594800240168DE
:1030600041F010010160016801F010010591016853
:1030700041F080010160016801F080010591016863
:1030800041F004010160016801F00401059101684B
:1030900041F001010160016801F001010591016841
:1030A00041F002010160016801F00201059101682F
:1030B00041F0080101600068DFF8089100F00800A5
:1030C0000590002215214846FDF7D6FFDFF8F8A04D
:1030D000002275215046FDF7CFFFDFF8F0B04FF228
:1030E0005008002241465846FDF7C6FF002228211D
:1030F0003748FDF7C1FF152000900125CDE90154A7
:10310000694648460394FDF77BFE75200090CDE9A3
:103110000154694650460394FDF772FE8A20CDE9BA
:103120000004694650460294FDF76AFEEE03294FFB
:103130000096CDE9017469462748FDF761FE6803F2
:10314000CDE90007694602942148FDF759FECDE913
:10315000006469461E480294FDF752FECDF80080D7
:10316000CDE90154694658460394FDF749FE00969F
:1031700069465046CDE90145FDF742FEE8028DE87B
:10318000310069464846FDF73BFE05208DE83100D9
:1031900069465846FDF734FE28200090CDE90154D9
:1031A00069460B480394FDF72BFE002205212820D9
:1031B000FEF790FA2820FEF77FFA07B0BDE8F08FFF
:1031C000303802400008024000000240000C02407B
:1031D00000040240000021100010024010B592B01F
:1031E00000240F941C2168461094FDF793F82021C9
:1031F00007A8FDF78FF820481E49016040F283318F
:10320000C0E9011440F2E731C0E90314446184616C
:10321000FFF747F80F940FA917481094FEF748FEE0
:103220006020CDE9000402940394049405940022E4
:10323000694611480694FEF7C6FF042269460E4807
:10324000FEF7C1FF082269460B48FEF7BCFF079452
:10325000089409944FF400500A94CDE90B4007A953
:1032600005480E94FEF7F1FD0348FEF757FF12B034
:1032700010BD0000000001402006002010B58AB0FB
:10328000002407941C2168460894FDF743F812486F
:103290001049016040F28331C0E9011440F2E73186
:1032A000C0E903148461FEF7FCFF079407A90A48EC
:1032B0000894FEF7FDFD6020CDE9000402940C2285
:1032C000694605480494FEF77EFF0348FEF726FF93
:1032D0000AB010BD000400406006002010B588B0A0
:1032E0001C216846FDF716F80F480E4900240160BE
:1032F00040F28331C0E901146321C0E90314846101
:10330000FEF7CFFF6020CDE9000402940022694659
:1033100005480494FEF757FF0348FEF7FFFE08B088
:1033200010BD000000400140A0060020FEE77047ED
:103330000A2001F0E3FAFBE70A2001F0DFFAFBE7DD
:1033400002F08AF90A2001F0D9FAF9E70A2001F01F
:10335000D5FAFBE710B5502080F31188BFF34F8FEB
:10336000BFF36F8F02F0ECFD18B104494FF08050AD
:103370000860002080F3118810BD000004ED00E01B
:1033800030B593B030216846FCF7C4FF14210CA877
:10339000FCF7C0FF19480025016841F08051016029
:1033A000006800F0805011901548016841F4804198
:1033B00001600068022400F4804011900120039015
:1033C00010200490009406940820CDE907505A205C
:1033D000CDE9090404200B906846FEF7F9FA0CA920
:1033E0000F2081E831004FF4A0500F90109002217F
:1033F0000CA8FEF7B5F913B030BD0000403802400C
:10340000007000400548016841F470010160034903
:103410004FF00060803908607047000088ED00E0E0
:103420000148FEF7C1BD0000200600200148FEF75C
:10343000BBBD0000B00B0020F0B402682C4B2D4C3B
:103440002D4D2E4EDFF8B8C098420AD0B0F1804F13
:1034500007D0A04205D0A84203D0B04201D06045B9
:1034600003D122F070024F683A43984228D0B0F15D
:10347000804F25D0A04223D0A84221D0B0421FD0F7
:1034800060451DD0A0F18044B4F5A03418D0A0F15F
:103490008044B4F5A23413D0A0F18044B4F5A43430
:1034A0000ED0A0F18044B4F5C05409D0A0F18044FE
:1034B000B4F5E05404D0A0F18044B4F5005403D135
:1034C00022F44072CC6822434C6922F080022243ED
:1034D00002608A68C2620A688262984201D06045CE
:1034E00001D10969016301214161F0BC704700000D
:1034F000000001400004004000080040000C0040B3
:103500000004014001F01F0101238B40D0F820C0CE
:103510002CEA03030362036A02FA01F11943016210
:103520007047000070B4026A22F001020262036A6E
:103530004268D0F818C02CF0700C2CF0030C0C680A
:1035400044EA0C0C23F002038C6823430F4C104D0B
:10355000A04201D0A84205D123F00803CE6833432E
:1035600023F00403A04201D0A84207D122F48072C4
:1035700022F400724C6922438C6922434260C0F8F5
:1035800018C049684163036270BC70470000014085
:103590000004014070B4026A22F010020262036A61
:1035A0004268D0F818C02CF4E04C2CF4407C0C6835
:1035B0004CEA042C23F020038C6843EA0413114CDA
:1035C000114DA04201D0A84206D123F08003CE685D
:1035D00043EA061323F04003A04201D0A84209D1D8
:1035E00022F4806222F400624C6942EA84028C690F
:1035F00042EA84024260C0F818C0496881630362ED
:1036000070BC7047000001400004014070B4026AC1
:1036100022F480720262036A4268D0F81CC02CF067
:10362000700C2CF0030C0C6844EA0C0C23F40073AF
:103630008C6843EA0423114C114DA04201D0A842EA
:1036400006D123F40063CE6843EA062323F48063A3
:10365000A04201D0A84209D122F4805222F40052A3
:103660004C6942EA04128C6942EA04124260C0F8D2
:103670001CC04968C163036270BC70470000014010
:103680000004014010B4026A22F480520262D0F8B1
:1036900020C04268C36923F4E04323F440730C68FC
:1036A00043EA04232CF4005C8C684CEA043CA0F14F
:1036B0008044B4F5803404D0A0F18044B4F5823461
:1036C00004D122F480424C6942EA84124260C36110
:1036D00049680164C0F820C010BC704710B5806B09
:1036E0000021C185C184FEF760FE10BD0168CA6873
:1036F00022F49072CA6001684A6922F001024A61AC
:10370000202180F83A10704710B50168CA6822F08D
:103710004002CA60202180F83910FFF793F800209A
:1037200010BD10B590F83A10222901D0022010BD2A
:103730008168B1F5805F11D0016919B301684968EA
:1037400001F07F02816A4B1C83620A70C18D491EA1
:103750000904090CC1851CD0002010BD816A0269D2
:103760003AB102685268D2B20A80816A491C816209
:10377000ECE702685268C2F308020A80816A891C79
:103780008162E3E701684A68816A4B1C83620A70C0
:10379000DCE70168CA6822F02002CA600168CA68D2
:1037A00022F48072CA6001684A6922F001024A610B
:1037B000202180F83A10FEF787FF002010BD00009E
:1037C0002DE9F041044620680169E26821F4405186
:1037D000114301612169A068E269084361691143ED
:1037E00001432068C26822F4037222F41442114398
:1037F000C16020684169A26921F4407111434161AF
:10380000E0695349534A1927534D32264FF00008B7
:10381000B0F5004F27D02068904201D0884274D183
:10382000FEF790F801466068830F8200A1FB070154
:10383000FCF726FD0146A5FB002040096FF01802A9
:10384000424301EB820106EB0111A5FB012149096D
:1038500001F0F00202EB001001F00F0108442168B2
:103860008860BDE8F0812068904201D0884225D16F
:10387000FEF768F8014660680218A1FB070148EBF3
:103880000803FCF7FDFC0346A5FB001041091846A0
:103890000A016FF01803594300EB810006EBC000EA
:1038A000A5FB0010400900F0F80102EB410100F017
:1038B0000700084421688860BDE8F081FEF732F80F
:1038C000014660680218A1FB070148EB0803FCF7FA
:1038D000D7FC0346A5FB0010410918460A016FF00A
:1038E0001803594300EB810006EBC000A5FB001054
:1038F000400900F0F80102EB410100F00700084424
:1039000021688860BDE8F081FFE7FEF70BF801460B
:103910006068830F8200A1FB0701FCF7B1FC014640
:10392000A5FB002040096FF01802424301EB820121
:1039300006EB0111A5FB0121490901F0F00202EBA0
:10394000001001F00F01084421688860BDE8F08193
:1039500000140140001001401F85EB5190F8391010
:10396000212901D0022070478168B1F5805F0CD019
:10397000016A4A1C0262026809785160C18C491EC2
:103980000904090CC18410D019E0016A0268098891
:10399000C1F308015160016919B1016A491C016252
:1039A000ECE7016A891C0162E8E70168CA6822F055
:1039B0008002CA600068C16841F04001C160002017
:1039C00070472DE9F0410446069D884617461E467D
:1039D0002068006838EA000020D00020B84227D1D3
:1039E000B5F1FF3F1CD025B1FDF74EFB801BA8426F
:1039F00016D92068C16821F4D071C160206841697E
:103A000021F001014161202084F8390084F83A0056
:103A1000002084F838000320BDE8F0810120DDE7B4
:103A20002068006838EA000005D00020B842D7D0EE
:103A30000020BDE8F0810120F8E700000148FEF712
:103A4000B5BC0000E00600200148FEF7AFBC000056
:103A5000200700200148FEF7A9BC000060070020F5
:103A6000FEE700000FB4084B10B504A902AA0398A2
:103A700000F0DEF8044602A9002000F070FC2046A9
:103A800010BC5DF814FB00005F43000802E008C8AA
:103A9000121F08C1002AFAD170477047002001E0C8
:103AA00001C1121F002AFBD1704700002DE9FF5F02
:103AB00082B00021DDE90430020DDDF840B003439F
:103AC00018D044F61050A2F2FF3242431514119858
:103AD00001281FD0A5EB0B00401C5FEA000A4FF045
:103AE00000064E4FDFF83891B046504615D5CAF162
:103AF000000413E0119801244AA3012801D16FEAC0
:103B00000B010298119AC0E90031C0E9024206B0E7
:103B1000BDE8F09FCBF10000DFE704460021404AFA
:103B2000491842EB0450CDE9001012E0E00707D03D
:103B300032463B4640464946FCF7BDFC8046894636
:103B400032463B4610461946FCF7B5FC06460F4682
:103B50006410002CEAD1DDE90401DDE90023BAF1AB
:103B6000000F06DAFCF7A7FC42464B46FCF7A3FC25
:103B700005E0FCF712FD42464B46FCF70EFD0446FD
:103B80000E460022284BFCF747FE03D84FF0FF30CB
:103B9000014607E00022254B20463146FCF7E4FBB6
:103BA000FCF721FE102409E0002C0ADB0A22002386
:103BB000FCF766FB039B30321A55641E50EA010283
:103BC000F2D1641C039AC4F111031444119A012A1E
:103BD00003D0012208430DD10AE0084304D000209D
:103BE0004FF0110B119072E7A3EB0B056D1E0DE06A
:103BF0005B4504DD4FF0000205F1010504E003DA46
:103C00004FF00002A5F10105002AECD002981199AD
:103C1000C0E90231C0E9004579E700000000144026
:103C20000000F03F300000000000F0430000E03FE3
:103C30002DE9FF4F95B09B468946064600250FE2C9
:103C4000252877D100242746F84A0121059400E071
:103C5000044316F8013F203B01FA03F01042F7D16C
:103C600030782A2811D06FF02F033078A0F130027D
:103C7000092A16D8059A44F0020402EB820203EBEB
:103C800042021044761C0590EFE759F8042B059288
:103C9000002A03DA504244F40054059044F0020430
:103CA000761C30782E2816D116F8010F44F0040443
:103CB0002A280DD06FF02F023078A0F13003092BA5
:103CC00009D807EB870302EB4303C718761CF3E719
:103CD00059F8047B761C30786C280FD006DC4C2811
:103CE00017D068280DD06A2814D104E0742810D0A9
:103CF0007A280FD10DE044F400140AE044F4801453
:103D000001E044F440147278824202D104F5801438
:103D1000761C761C307866280BD013DC582877D0B8
:103D200009DC002875D04528F6D04628F4D047286D
:103D30001AD19DE118E0632835D0642879D0652830
:103D400012D195E1702873D008DC6728F1D069287A
:103D50006FD06E280DD06F2806D1B5E073282CD017
:103D6000752875D0782874D05A46179990476D1CDD
:103D700075E1C4F30250022809D003280DD0D9F808
:103D8000001004280DD00D6009F1040967E1D9F88D
:103D90000010EA17C1E90052F6E7D9F800100D80CB
:103DA000F2E70D70F0E719F8041B8DF80010002001
:103DB0008DF80100EA46012003E059F804AB4FF00A
:103DC000FF3061074FF0000102D40DE008F101015E
:103DD0008846B9420FDA8045F8DB1AF80810002946
:103DE000F4D108E008F1010188468142FADB1AF8B3
:103DF00008100029F6D105985B46A0EB080721467C
:103E00003846179A00F094FA284400EB080507E0BA
:103E10004DE029E10DE01AF8010B5A461799904739
:103E2000B8F10108F7D25B4621463846179A13E1EC
:103E300042E00A220092C4F302524FF0000A022A22
:103E400008D059F804CB032A4FEAEC710AD00DE0F0
:103E500029E02AE009F1070121F00702F2E802C196
:103E6000914609E00FFA8CFC4FEAEC71042A03D169
:103E70004FFA8CFC4FEAEC71002907DA0A46002160
:103E8000DCF1000C61EB02012D2202E0220504D5D9
:103E90002B228DF80420012203E0E20701D020222A
:103EA000F7E7904659E00A2102E010220DE01021C8
:103EB0004FF0000A00910BE010224FF0000A44F08E
:103EC00004040827009203E008224FF0000A009241
:103ED000C4F30252022A05D059F804CB0021032A68
:103EE00008D009E009F1070121F00702F2E802C158
:103EF000914605E01FFA8CFC042A01D10CF0FF0C5E
:103F00004FF00008220728D5702806D0009B83F0C8
:103F1000100353EA0A0305D00EE040228DF8042076
:103F2000012208E05CEA010206D030228DF804206C
:103F30008DF8050002229046009B83F0080353EAA7
:103F40000A030AD15CEA010201D1620705D53022D9
:103F50008DF804204FF001087F1E582804D034A0AB
:103F600003900EA802900DE036A0F9E75346604694
:103F7000009AFCF785F984460398825C0298401EFB
:103F8000029002705CEA0100F0D1029806A9081ABA
:103F900000F1200A600702D524F4803400E00127F4
:103FA000574502DDA7EB0A0000E0002000EB0A0104
:103FB000009005984144401A0590E00306D45B4602
:103FC0002146179A059800F0B3F90544002706E04A
:103FD00001A85A46C05D179990476D1C7F1C474544
:103FE000F6DBE0030CD55B462146179A059800F0F6
:103FF0009FF9054404E030205A46179990476D1CFC
:104000000099481E00900029F5DC08E0029802990A
:104010005A460078491C0291179990476D1CBAF1D5
:104020000001AAF1010AF1DC65E1000009280100A4
:10403000303132333435363738396162636465661E
:1040400000000000303132333435363738394142E0
:10405000434445460000000000F058F90544761C32
:10406000307800287FF4ECAD19B02846BDE8F08F19
:10407000620700D4062709F1070222F0070CFCE8CA
:104080000223E14603F000485FEA080C02D00FF279
:10409000702C0DE05FEA045C02D50FF2682C07E09B
:1040A0005FEAC47C02D00FF2602C01E0AFF2700C2A
:1040B0004FF0FF3823F00043CDF850C065280CD0F6
:1040C00006DC452809D046281DD047283DD13DE0D3
:1040D000662818D067287ED138E00021112F01DB37
:1040E000112000E0781CCDE9000106A90EA8FFF719
:1040F000DDFCDDE90F010E9A03910021009207F12A
:10410000010A04914DE04FF000400097CDE9011005
:1041100006A90EA8FFF7CAFCDDE90F0203920E9B69
:1041200011990022DDF80CA00093049211B9791CBA
:1041300000EB010AB7EB0A0004D4C0F1FF3007F12D
:10414000010A0490AAEB0700019044E0012F00DA75
:1041500001270021112F01DD112000E03846CDE9B3
:10416000000106A90EA8FFF7A1FCDDE90F010E9AD8
:104170000391002104910092BA4621070CD40399BF
:10418000514500DA8A46BAF1010F05DD009AAAF11D
:104190000101515C302908D0B84202DA10F1040F55
:1041A00006DA0121CDE9011015E0AAF10101E9E7E4
:1041B000002805DC049901440491AAEB000102E007
:1041C000411C514500DD8A460499401A401C01906B
:1041D0004FF000400290200704D40198504501DBC5
:1041E000CDF8048000208DF84F0002980DF14F07A4
:1041F000B0F1004F25D02B200E9002984FF002080E
:1042000000280CDA404202902D200E9007E00A218F
:104210000298FCF744FA3031029007F8011DB8F11A
:104220000001A8F10108F2DC02980028EFD1791E04
:104230000E980870307800F0200040F0450007F834
:10424000020D12A8C01B00F107081498007800B1F5
:10425000012000EB0A01019801EBE071059841444F
:10426000401A401E0590E00306D45B462146179A8B
:10427000059800F05DF805441498007818B15A4686
:10428000179990476D1CE00324D55B462146179A89
:10429000059800F04DF805441CE00498002807DB61
:1042A000DDE90301884203DD0098405C179901E0D5
:1042B000179930205A469047049805F10105401C93
:1042C00004900198401E019004D12E205A4617995F
:1042D00090476D1CBAF10001AAF1010ADDDC05E08E
:1042E00017F8010B5A46179990476D1CB8F1000159
:1042F000A8F10108F4DC5B462146179A0598ABE665
:104300002D0000002B000000200000002DE9F041EE
:10431000044600251E461746880404D405E03946A5
:104320002020B0476D1C641EF9D52846BDE8F081F9
:104330002DE9F041044600251E469046C80301D5EC
:10434000302700E02027880404D505E041463846A0
:10435000B0476D1C641EF9D52846BDE8F0810A6897
:10436000531C0B601070704770B50024FEF7EAFC18
:1043700001210846FEF796FD002137A0FEF72AFD31
:1043800001210420FEF78EFD002138A0FEF722FD5A
:10439000394E4FF4967500BF00F0DCFD58B1305532
:1043A000211D0220FEF77EFD305DFEF7BBFD284695
:1043B000FCF794FC641C042CEEDB0024FEF7C2FC2A
:1043C00001210846FEF76EFD00212CA0FEF702FD3C
:1043D00001210420FEF766FD002124A0FEF7FAFC6F
:1043E0002E46254D15F1040500F0B4FD58B12855B1
:1043F000211D0220FEF756FD285DFEF793FD304695
:10440000FCF76CFC641C042CEEDB1B490422091D28
:10441000081FFBF79AFF4FF47A7470B1FEF792FC15
:1044200001210220FEF73EFD002119A0FEF7D2FC7B
:104430002046BDE87040FCF751BC0F49A1F11200C5
:10444000FBF77AFFFEF77EFC01210220FEF72AFD32
:10445000002114A0EAE7000020456E746572204E2A
:1044600065772050617373776F726400443A20431C
:10447000616E63656C2E20006800002020436F6E23
:104480006669726D2050617373776F72640000000B
:10449000204348414E4745204552524F522021214A
:1044A00020000000204348414E474520444F4E45E0
:1044B000202121200000000070B5254C2078C0B3D9
:1044C000A16804F1100568540220091DFEF7EAFCFA
:1044D000A068285CFEF726FD4FF49670FCF7FEFB03
:1044E000A1680220091DFEF7DDFC002119A0FEF7DE
:1044F00071FCA068401CA060042827D11449042244
:10450000891C01F10E00FBF720FF4FF47A7590B182
:104510000020E060FEF716FC04210220FEF7C2FC3A
:1045200000210DA0FEF756FC2846BDE87040FCF7C0
:10453000D5BBA068E0E70120E060FEF703FC0421A2
:104540000220FEF7AFFC002107A0EBE770BD0000E2
:10455000540000202A0000004143434553532044A7
:10456000454E4945442100004143434553532047AC
:1045700052414E5445440000C2B210210148FCF79C
:104580007BBD00000008024010B520211348FBF756
:10459000C1FE1248EF21012201704270FF2181709B
:1045A000C1700171417182710024C47103210172D3
:1045B000427284720521C1720146C8230C22084848
:1045C000FEF7D0F8074804704FF4FA70FCF786FB4A
:1045D000BDE810400C2000F01BBE0000E0000020F1
:1045E000200700202C00002070B52A221249134811
:1045F000FBF777FE104C608D104D6885E06AE8622D
:10460000206B2863092204F1340105F13400FBF723
:1046100068FE94F83D0085F83D0094F83E0085F86A
:104620003E00206C2864606C6864A06CA864E06C38
:10463000E864206D286570BDCC050020940400203E
:1046400070B52A2212491348FBF74BFE104C608DBF
:10465000104D6885E06AE862206B2863092204F146
:10466000340105F13400FBF73CFE94F83D0085F879
:104670003D0094F83E0085F83E00206C2864606C94
:104680006864A06CA864E06CE864206D286570BD67
:1046900078050020B002002070B50546202114489E
:1046A000FBF738FE1249EF20012208704A70FF2004
:1046B0008870C870087148718A710026CE71042014
:1046C0000872022048728D72EC1DCE720C73C823E2
:1046D0000D220848FEF746F8074806704FF4FA70B6
:1046E000FCF7FCFABDE870400C2000F091BD000022
:1046F000E0000020200700202C0000209EB0FCF7E6
:104700006BFFFEF73DFEFEF7A1FCFEF74BFCFEF74C
:1047100073FC5E485C495E4D00240160C0E90154B1
:104720000E14C0E9034644618461C4610462FCF76D
:10473000B1FC5648574954300160C0E90154C0E902
:10474000034644618461C4610462FCF7A3FCFEF784
:1047500045FDFEF793FDFEF7C1FD50484E494FF46D
:10476000E1360160C0E901640C25C460C0E904457C
:104770008461C461FDF7BCFE48484949403001608E
:104780007110C0E90114C460C0E904458461C461CA
:10479000FDF7AEFE4148434980300160C0E9016445
:1047A000C460C0E904458461C461FDF7A1FE00F066
:1047B0009FF800F0A9FDFCF7F3F83B480460C460E3
:1047C0000461FEF7D9FBFEF7CDFA0820FEF7AEFA3A
:1047D00001210846FEF766FB002134A0FEF7FAFA35
:1047E00001210220FEF75EFB002134A0FEF7F2FA61
:1047F00001210320FEF756FB002135A0FEF7EAFA5F
:104800002648012235498030FDF732FF33492348DD
:104810000122491F4030FDF72BFF1C9401211CA8E9
:104820001D9400F078F82D4C1C22A41F2C496062C6
:104830006846FBF756FD0021684600F08FF82849CE
:1048400060611C221C3107A8FBF74BFD002107A863
:1048500000F084F82249A0611C2238310EA8FBF731
:1048600040FD00210EA800F079F81D49E0611C22EE
:10487000543115A8FBF735FD002115A800F06EF89E
:10488000206200F043F8FEE7005400407805002065
:10489000A08601000058004000100140E006002002
:1048A0000048004000140140A4080020413A205173
:1048B0007565742076616E2074617900423A204EED
:1048C000686170206D6174206B6861750000000084
:1048D000433A2053657474696E670000320000200B
:1048E000606200080021842800D0C11C084670477F
:1048F00000210148FDF72DBDA006002010B50028BD
:1049000000D1012000F0DCFD002010BD10B500F04A
:1049100027FE002010BD38B54368002B0BD00129BD
:1049200001D0002038BD0320002200901146012054
:1049300001F019F938BD012901D0002038BD03224A
:104940000021012001F0EAF80446200004D00023F1
:104950001A46194601F088F9204638BD30B585B0B1
:1049600004460D466169B4F90800002910D0A16918
:1049700071B1FFF7B7FF6269A169019202910090DE
:104980002B4622692168606801F09CFA049010E0CF
:10499000FFF7A8FF04A901910090208A2B4682B25C
:1049A0002168606801F058FA012802D005B00020A3
:1049B00030BD049805B030BD2DE9F04104460F46E6
:1049C000194E75693068001D00F0B0FC48B93068B8
:1049D000012190F82C0001FA00F0B16921EA0000F1
:1049E000B061B4F1FF3F07D137B13068BDE8F041A5
:1049F000011D0E4800F0E1BC2C4430684460AC421C
:104A000006D23068011DB068BDE8F04100F0BABCC4
:104A10003068011D706800F0B5FC306B844200D234
:104A20003463BDE8F081000080000020CC0C002041
:104A300070B5044600F0CEFC1C4D2869401C28616E
:104A4000286810B1E86938B10CE02C6028690128A9
:104A500008D100F02BF905E02868E16AC06A8842B5
:104A600000D82C60E86A401CE862E06A0121AA696B
:104A700081401143A9610E4900EB800001EB8000E9
:104A8000211D00F09AFC00F0C5FCE86900280CD05C
:104A90002868E16AC06A884207D206494FF0805010
:104AA0000860BFF34F8FBFF36F8F70BD8000002091
:104AB000F00B002004ED00E070B50D4CE06800281C
:104AC00015D00C4E00F086FCF068C568281D00F07B
:104AD0002DFC2069401E2061E068401EE06000F06F
:104AE00099FC284600F03FF8E0680028EAD170BD44
:104AF00080000020B80C00202DE9F0410446164645
:104B00000027A56B226C002A10D0C6B1E068FBF725
:104B1000E8FBE168206C091AE1602268914202D248
:104B20006168081AE060022E16D017E02068A8B964
:104B3000606801F06DFA0746002060600EE0A06832
:104B4000FBF7CFFB216CA0680844A0606168884235
:104B500004D32068A06001E005B16D1E681CA0634D
:104B60003846BDE8F08110B5044694F8511000298C
:104B70000BD0012911D0022914D0502080F31188C4
:104B8000BFF34F8FBFF36F8FFEE7206B00F058FC31
:104B90002046BDE8104000F053BC2046BDE8104060
:104BA00000F04EBC10BD00004FF47051104810F0E2
:104BB000070F06D0C01D20F007000D49411AC1F5AE
:104BC00070510C4A1060002353600144083921F0F1
:104BD0000701103A11604B600B600B1A43600160D3
:104BE0004068906050604FF00040D0607047000017
:104BF000E00C0020CC000020074E4FF08054074D01
:104C0000FFF75AFF30680128FAD92C60BFF34F8FA5
:104C1000BFF36F8FF4E70000F00B002004ED00E01D
:104C200003460098002905D00260C3630164012196
:104C300000F0D2BF0060F8E72DE9F0478146099EF9
:104C4000089D0A9C9A46521E206B00EB820020F0C1
:104C500007080027002023180A5C83F834200A5C28
:104C600012B1401C1028F6D384F84370072D00D3EE
:104C70000625E5626564A764201D00F080FB04F151
:104C8000180000F07CFB2461C5F10700A06164629C
:104C9000E76484F8507052464946404600F044F9B3
:104CA0002060002E00D03460BDE8F08770B500248D
:104CB0000F4D04EB840005EB800000F055FB641CF5
:104CC000072CF6D30B4800F04FFB0B4800F04CFBD1
:104CD0000A4800F049FB0A4800F046FB094800F08A
:104CE00043FB0948034941601431816070BD0000F5
:104CF000F00B00207C0C0020900C0020A40C002065
:104D0000B80C0020CC0C00208000002010B4144906
:104D100000E011460A688242FBD34B6803EB010CAA
:104D2000844503D140681844486008460C68D0F8B0
:104D300004C00CEB0003A3420CD10A4B1B689A423F
:104D400006D05268624442600A681268026002E05B
:104D5000036000E00260814200D0086010BC704730
:104D6000CC000020BC00002010B5044600F032FB4F
:104D7000A06BE16B884201D1012400E0002400F027
:104D800049FB204610BD000007494868006800281C
:104D900005D04868C068C0684068086370474FF035
:104DA000FF30086370470000800000200A48406818
:104DB000B0F1FF3F07D0502080F31188BFF34F8F31
:104DC000BFF36F8FFEE7502080F31188BFF34F8F42
:104DD000BFF36F8FFEE70000D400002070B50446DB
:104DE00000F0F8FA94F94550002D0CDD606A50B1DE
:104DF00004F1240001F05AF908B100F091FB681E9B
:104E000045B2002DF2DC4FF0FF3684F8456000F02B
:104E100001FB00F0DFFA94F94450002D0CDD20690D
:104E200050B104F1100001F041F908B100F078FB35
:104E3000681E45B2002DF2DC84F84460BDE8704085
:104E400000F0E8BA2DE9F0410546002600F0CCFB61
:104E5000334F386808B9FFF7A7FEF86805424ED10E
:104E60009DB1083515F0070F0FD005F00700C0F110
:104E70000800054415F0070F07D0502080F3118873
:104E8000BFF34F8FBFF36F8FFEE7002D37D07868E9
:104E9000854234D823490846046801E02146044687
:104EA0006068A84202D220680028F7D1386884429E
:104EB00025D0086800F10806206808606068411B7A
:104EC00010290FD9601910F0070F07D0502080F378
:104ED0001188BFF34F8FBFF36F8FFEE741606560AE
:104EE000FFF714FF61687868401A7860BA689042EA
:104EF00000D2B860F868084360600020206001F0CC
:104F000011F916F0070F07D0502080F31188BFF376
:104F10004F8FBFF36F8FFEE73046BDE8F081000092
:104F2000BC000020CC000020001F4FF08073036005
:104F3000001F21F001010160001F054901601438C4
:104F40000260001F6FF0020101602038704700000E
:104F5000AD4D00082DE9F047A94F00222021384629
:104F6000FCF78AF8012208213846FCF785F8A54CA1
:104F7000012240212046FCF77FF801221021204623
:104F8000FCF77AF804212046FCF766F800287DD06B
:104F900001212046FCF760F8002878D0DFF868A2ED
:104FA000E61431465046FCF757F8002870D0DFF879
:104FB0005C82350129464046FCF74EF8002868D04F
:104FC000012220213846FCF757F8002208213846F4
:104FD000FCF752F8012240212046FCF74DF801224F
:104FE00010212046FCF748F804212046FCF734F84D
:104FF000002874D001212046FCF72EF800286FD03D
:1050000031465046FCF728F800286AD02946404629
:10501000FCF722F8002875D0B94601222021484625
:10502000FCF72AF8012208213846FCF725F800226F
:1050300040212046FCF720F8012210212046FCF7F1
:105040001BF804212046FCF707F8002875D0012141
:105050002046FCF701F8002870D0314657465046EC
:10506000FBF7FAFF00286AD029464046FBF7F4FF19
:10507000002876D0012220214846FBF7FDFF0122BF
:1050800008214846FBF7F8FF012203E02AE031E05F
:1050900039E041E040212046FBF7EEFF00221021DD
:1050A0002046FBF7E9FF04212046FBF7D5FF002847
:1050B00071D001212046FBF7CFFF00286CD031468C
:1050C0003846FBF7C9FF002867D0294644464046CA
:1050D000FBF7C2FF002872D00020BDE8F08724E073
:1050E0002EE035E004212046FBF7B6FF0028F9D07A
:1050F0003120F2E701212046FBF7AEFF0028F9D06E
:105100003220EAE72EE0544631462046FBF7A4FF62
:105110000028F9D03320E0E7444629462046FBF733
:105120009BFF0028F9D04120D7E704212046FBF758
:1051300093FF0028F9D03420CFE71CE023E02DE0D6
:1051400001212046FBF788FF0028F9D03520C4E76D
:10515000544631462046FBF77FFF0028F9D0362021
:10516000BBE723E0444629462046FBF775FF0028AD
:10517000F9D04220B1E704212046FBF76DFF00285B
:10518000F9D03720A9E701212046FBF765FF002869
:10519000F9D03820A1E713E01AE021E03146384683
:1051A000FBF75AFF0028F9D0392096E744462946F4
:1051B0002046FBF751FF0028F9D043208DE717E088
:1051C00004212046FBF748FF0028F9D02A2084E775
:1051D00001212046FBF740FF0028F9D030207CE772
:1051E00031463846FBF738FF0028F9D0232074E712
:1051F00029462046FBF730FF0028F9D044206CE711
:1052000000040240000C024000080240000002407E
:1052100070B50546002420210A48FBF77BF80948B1
:105220000949203804E00A5D0319641C83F8202032
:10523000AC42F8DB2844447F0A20FBF74FFD2046B0
:1052400070BD0000000100203C09002070B505463B
:10525000002420210B48FBF75DF80A490A48203951
:1052600004E0025D0B19641C83F82020AC42F8DBDB
:105270004819064AC17E1160447E0A20FBF72EFDC4
:10528000204670BD000100203C09002000000020E5
:1052900001480078704700000000002010B5202170
:1052A0001648FBF737F81548EF21012201704270CC
:1052B000FF218170C1700171417182710024C4713C
:1052C00008230372042343728272C472047344730A
:1052D0008173C2730D2101740146C823112208484D
:1052E000FDF740FA074804704FF4FA70FBF7F6FC3C
:1052F000BDE810401020FFF7A9BF0000E00000202B
:10530000200700202C00002010B500210648FDF7E2
:1053100020F804210448FDF71CF8BDE810400821DE
:105320000148FDF716B80000200600200169436817
:1053300082689A60836842685A604A68824201D1F2
:1053400082684A60002202610868401E086008689E
:1053500070470000034B036003F154000860802095
:10536000106070475C09002000F1080141604FF0B7
:10537000FF328260C160016100210160704700213D
:105380000161704710B4D1F800C0BCF1FF3F02D0FA
:1053900000F1080202E0026904E01A4653681C6842
:1053A0006445FAD953684B6099608A60516008611E
:1053B0000168491C016010BC704742684A609368EC
:1053C0008B6093685960916008610168491C0160B5
:1053D00070470000502080F31188BFF34F8FBFF358
:1053E0006F8F0A494868401C486001280CD1084862
:1053F000006810F0FF0F07D0502080F31188BFF332
:105400004F8FBFF36F8FFEE770470000D40000207E
:1054100004ED00E009494868002806D0401E4860B5
:10542000002801D180F311887047502080F3118843
:10543000BFF34F8FBFF36F8FFEE70000D400002053
:1054400070B5002827D0A0F10804134D6068E96802
:10545000084207D1502080F31188BFF34F8FBFF36C
:105460006F8FFEE722683AB1502080F31188BFF3B6
:105470004F8FBFF36F8FFEE78843606000F0B4F892
:1054800060686968084468602046FFF73FFCBDE833
:10549000704000F047BE70BDBC0000204FF0E0201F
:1054A00000210161816105494FF47A720968B1FBFD
:1054B000F2F1491E4161072101617047700000202F
:1054C00010B502460020002A12D00F48806B38B178
:1054D000502080F31188BFF34F8FBFF36F8FFEE72B
:1054E00000F082F800211046FFF766FA00F01AFE7D
:1054F000002807D105494FF080500860BFF34F8F57
:10550000BFF36F8F10BD00008000002004ED00E0AD
:1055100002498A6A02604969416070478000002040
:1055200001490120486270478000002010B50C46F8
:1055300000280BD0094A126802F11801FFF722FF78
:105540002046BDE810400121FFF736BA502080F315
:105550001188BFF34F8FBFF36F8FFEE780000020ED
:1055600010B586B000240594049403AA04A905A8E4
:10557000FFF7F0FE05980499019102900023009432
:1055800015A11748039A00F09DFC1649486308B11D
:10559000012000E0002001280AD0B0F1FF3F19D11E
:1055A000502080F31188BFF34F8FBFF36F8FFEE75A
:1055B000502080F31188BFF34F8FBFF36F8F4FF0F0
:1055C000FF3008630120C8614C6106B0BDE810409F
:1055D00000F022BA06B010BD49444C45000000005E
:1055E000F94B0008800000200248816B491C816350
:1055F0007047000080000020154A906B002802D000
:10560000012050627047002050629069B0FA80F02B
:10561000C0F11F000F4900EB800051F8203073B13A
:1056200001EB800041684968416000F1080399423C
:1056300001D1496841604068C068106070475020DF
:1056400080F31188BFF34F8FBFF36F8FFEE7000029
:1056500080000020F00B00202DE9F041FFF77AFCDC
:10566000B14C20700A20FBF739FB20784FF47A7890
:1056700047F2305541283FD1FDF764FB012102205C
:10568000FDF710FC0021A9A0FDF7A4FB01210420D7
:10569000FDF708FC0021AAA0FDF79CFBFBF7F4FC3A
:1056A0004FEA0006FBF798F96070FFF753FC207093
:1056B0006178012925D0442804D0FBF7E5FC801B44
:1056C000A842EFD3FDF73EFB01210846FDF7EAFBB8
:1056D00000219EA0FDF77EFB01210220FDF7E2FBE9
:1056E00000219EA0FDF776FB01210320FDF7DAFBE8
:1056F00000219FA0FDF76EFB2078002642281BD0DA
:1057000062E0FDF71FFB01210846FDF7CBFB0021FE
:105710009AA0FDF75FFB0A210120FDF7C3FBFFF70D
:10572000B7FD00EE100A97A0B8EE400AFDF73DFB6A
:105730004046FBF7D3FAC5E7FDF704FB0121084615
:10574000FDF7B0FB002191A0FDF744FB04210220EE
:10575000FDF7A8FB002191A0FDF73CFB01210420EF
:10576000FDF7A0FB002176A0FDF734FBFBF78CFCD6
:105770000746A660FFF7EEFB2070FEF79DFE20783F
:10578000442807D0FBF780FCC01BA84202D2A068C7
:105790000428EFDBFDF7D6FA01210846FDF782FB6E
:1057A00000216AA0FDF716FB01210220FDF77AFB1C
:1057B00000216AA0FDF70EFB01210320FDF772FB1B
:1057C00000216BA0FDF706FB207843287ED1E66020
:1057D000FDF7B8FA01210846FDF764FB00216BA034
:1057E000FDF7F8FA04210220FDF75CFB00216BA015
:1057F000FDF7F0FA01210420FDF754FB002150A031
:10580000FDF7E8FAFBF740FC0746A660FFF7A2FBAE
:105810002070FEF751FE2078442807D0FBF734FCB7
:10582000C01BA84202D2A0680428EFDBE068012870
:1058300041D1FDF787FA01210846FDF733FB00212E
:1058400058A0FDF7C7FA01210220FDF72BFB00212C
:1058500057A0FDF7BFFA01210320FDF723FB00212C
:1058600056A0FDF7B7FA01210420FDF71BFB00212C
:1058700057A0FDF7AFFA00BFFFF76CFB207044287C
:1058800019D0FBF701FCC01BA84214D22078412894
:105890002FD0422836D04328EED1FDF753FA01210C
:1058A0000846FDF7FFFA00214FA000BFFDF792FA6E
:1058B0004046FBF713FAFDF745FA01210846FDF7CC
:1058C000F1FA002121A0FDF785FA00E02AE001218C
:1058D0000220FDF7E7FA002120A0FDF77BFA012165
:1058E0000320FDF7DFFABDE8F041002120A0FDF71D
:1058F00071BAFDF727FA01210846FDF7D3FA002116
:105900003DA0D3E7FDF71EFA01210846FDF7CAFACC
:1059100000213DA0FDF75EFA4046FBF7DFF9FEF7F8
:1059200023FDC8E7BDE8F0815400002020204D6F22
:1059300069206461742076616E20746179000000D2
:10594000443A204261636B2E20000000413A20510E
:105950007565742076616E2074617900423A204E3C
:10596000686170206D6174206B68617500000000D3
:10597000433A2053657474696E6700004F70656E1A
:105980006564210049443A252E30660020456E7436
:1059900065722050617373776F7264002323232331
:1059A0000000000053455454494E473A000000009F
:1059B000413D456E726F6C6C00000000423D4368D3
:1059C000616E67652050617373776F7264000000C9
:1059D000433D44656C6574652020202020443D4390
:1059E0006C6F73650000000064656C65746520660B
:1059F000696E676572000000656E726F6C6C206680
:105A0000696E6765720000006368616E676520708B
:105A1000617373776F72640000B583B038480168B2
:105A2000384A914207D1502080F31188BFF34F8F3D
:105A3000BFF36F8FFEE700683349884207D15020DB
:105A400080F31188BFF34F8FBFF36F8FFEE72F49AD
:105A500008780290FF200870087801909DF80400F3
:105A60009DF8042000F0F000904207D0502080F311
:105A70001188BFF34F8FBFF36F8FFEE79DF80400CF
:105A8000234B00F050001870072098609DF8040028
:105A900010F0800F0BD09868401E98609DF80400AD
:105AA000400001909DF8040010F0800FF3D1986839
:105AB000032807D0502080F31188BFF34F8FBFF326
:105AC0006F8FFEE74FF4407098600298087011489D
:105AD000016841F470010160016841F070410160AA
