:020000040800F2
:10000000384C00205D020008EB4200082D38000843
:10001000E9420008610B0008954A00080000000052
:100020000000000000000000000000009D0100082A
:10003000FD0E000800000000F9010008054400085A
:1000400077020008770200087702000877020008AC
:10005000770200087702000877020008770200089C
:10006000770200087702000877020008770200088C
:10007000770200087702000877020008770200087C
:10008000770200087702000877020008770200086C
:10009000770200087702000877020008770200085C
:1000A00077020008D14400087702000877020008B0
:1000B000770200087702000877020008770200083C
:1000C000770200087702000877020008770200082C
:1000D00077020008714A0008770200087D4A00088C
:1000E000770200087702000877020008770200080C
:1000F00077020008770200087702000877020008FC
:1001000077020008770200087702000877020008EB
:1001100077020008770200087702000877020008DB
:1001200077020008770200087702000877020008CB
:1001300077020008770200087702000877020008BB
:1001400077020008770200087702000877020008AB
:10015000770200087702000877020008894A000841
:10016000770200087702000877020008770200088B
:1001700077020008770200087702000800000000FC
:100180007702000877020008DFF80CD000F084FB4B
:10019000004800474D6B0008384C00202C4B196874
:1001A0000868B0E8F04F80F30988BFF36F8F4FF015
:1001B000000080F3118870470000000008480068C4
:1001C000006880F308884FF0000080F3148862B65E
:1001D00061B6BFF34F8FBFF36F8F00DF00BF00BF6B
:1001E00008ED00E0DFF80C00016841F470010160E7
:1001F000704700BF88ED00E0EFF30980BFF36F8F19
:10020000134B1A681EF0100F08BF20ED108A20E96A
:10021000F04F106009B44FF0500080F31188BFF325
:100220004F8FBFF36F8F07F01BFE4FF0000080F37E
:10023000118809BC19680868B0E8F04F1EF0100F6B
:1002400008BFB0EC108A80F30988BFF36F8F704746
:1002500084000020EFF305807047000006488047C7
:1002600006480047FEE7FEE7FEE7FEE7FEE7FEE79B
:10027000FEE7FEE7FEE7FEE7B54400088901000857
:100280002DE9F05F0546002092469B4688460646CB
:10029000814640241BE0284641464746224600F05E
:1002A00034FA53465A46C01A914110D311461846A3
:1002B000224600F01BFA2D1A67EB01084F46224632
:1002C0000120002100F012FA17EB00094E41201E18
:1002D000A4F10104DFDC484631462A464346BDE826
:1002E000F09F40EA01039B0703D009E008C9121FF1
:1002F00008C0042AFAD203E011F8013B00F8013BE0
:10030000521EF9D27047D2B201E000F8012B491E0B
:10031000FBD270470022F6E710B513460A460446A2
:100320001946FFF7F0FF204610BD421C10F8011BD4
:100330000029FBD1801A7047034611F8012B00F801
:10034000012B002AF9D11846704730B50546002028
:10035000034600E05B1C934205D2EC5CC85C201AAB
:1003600001D1002CF6D130BD2DE9FE4F804681EA47
:100370000300C00F0C46009021F0004123F000451F
:10038000B8EB0200A94105D24046214690461C46E2
:100390000B46024623F00040104347D0270DC7F319
:1003A0000A00C3F30A510290401A019040286BDA08
:1003B000C3F3130040F4801B0098924620B1002341
:1003C000D2EB030A63EB0B0B01985946C0F14002D4
:1003D000504600F08BF906460D4650465946019AA4
:1003E00000F0A3F910EB08006141002487EA1152E4
:1003F00084EAE7731A4340D0009A62B3019A012A53
:100400004FEA075215DC001B61EB02014FF000427E
:1004100002EA0752CDE90042001C41F58011324644
:100420002B4600F0A3F903B0BDE8F08F404621460B
:10043000F9E7001B61EB0201001C41F58013001875
:100440005B412018A2F5001747EB030140EAD57085
:10045000B6196D4111E06D084FEA360645EAC075E0
:100460004FEA0752001B61EB0201001C41F58011AD
:1004700049084FEA30000019514132462B4603B07B
:10048000BDE8F04F00F063B900980122400000235E
:10049000D0EB020263EBE073009821464FEAE07470
:1004A000B8EB000061EB0401E9E783F000435BE790
:1004B00081F0004158E72DE9FE4F81EA030404F082
:1004C000004421F0004100944FF0000B23F0004362
:1004D00050EA01045ED052EA03045BD0C3F30A542D
:1004E000C1F30A552C44A4F2F3340194A0FB025446
:1004F000C1F3130141F48011C3F3130343F48013D8
:1005000001FB024400FB034E840A970A44EA81542B
:1005100047EA8357A4FB076802958D0A05FB078508
:100520004FEA932C04FB0C542705029D4FEA065812
:1005300047EA1637B5EB08056EEB070C870E920EEF
:1005400047EA811742EA8312A7FB0201B6EB0B01CF
:1005500064EB00042B0D43EA0C335E1844EB1C5093
:10056000DA465146E7FB0201C5F313044FEA0B33A9
:1005700043EA14534FEA0432019C43EA0603A4F110
:100580000C040294009CCDE900B400F0EFF803B035
:10059000BDE8F08F00200146F9E72DE9F04D81EA32
:1005A000030404F0004B21F0004514464FF0000A0C
:1005B00023F0004150EA050220D054EA01021DD088
:1005C000C5F30A570246C5F31303C1F31300C1F381
:1005D0000A5640F4801543F48013A7EB0608101B5D
:1005E000D64608F2FD3873EB050002D308F1010886
:1005F00001E092185B41B8F1000F03DA00200146D8
:10060000BDE8F08D00204FF48011064684460EE0D0
:10061000171B73EB050705D3121B63EB050306439A
:100620004CEA010C49084FEA300092185B4150EA4D
:100630000107EDD152EA030012D082EA040083EAF6
:100640000501084305D0101BAB4106D2012200234F
:1006500006E000224FF0004302E06FF00102531069
:100660001AEB06004CEB085110EB0A0041EB0B01B2
:10067000BDE8F04D00F06BB80EB5C10F80EAE07038
:100680000844CA07002140F233438DE80E000A46B1
:100690000B4600F06BF803B000BD00F0004230F0F4
:1006A00000400AD0C10D01F56071C0F3160042EAA6
:1006B0000151C208400711437047002001467047AE
:1006C00030B50B46014600202022012409E021FA22
:1006D00002F59D4205D303FA02F5491B04FA02F51F
:1006E0002844151EA2F10102F1DC30BD202A04DBF2
:1006F000203A00FA02F1002070479140C2F1200335
:1007000020FA03F3194390407047202A04DB203A73
:1007100021FA02F00021704721FA02F3D040C2F121
:1007200020029140084319467047202A06DBCB1768
:10073000203A41FA02F043EAE07306E041FA02F39C
:10074000D040C2F12002914008431946704710B5CD
:10075000141E73F1000408DA401C41F100019218E4
:100760005B411A4301D120F0010010BD2DE9F04D8D
:1007700092469B4611B1B1FA81F202E0B0FA80F2E2
:1007800020329046FFF7B2FF04460F4640EA0A00C7
:1007900041EA0B0153465A46084313D0114653EA27
:1007A000010019D0C8F140025046FFF7AEFF0546E0
:1007B0000E46504659464246FFF798FF084305D07B
:1007C000012004E020463946BDE8F08D00200543B5
:1007D00046EAE0762C4337430A986305E40AA0EB27
:1007E00008000022FD0A44EA47540A3002D50020DE
:1007F0000146E9E7010510196941DDE908450019DD
:100800006941BDE8F04DA2E770B521F00043034314
:100810000CD0C1F30A550024D5EB040564EB0403A6
:10082000D617AD1AB34102DB0020014670BD201877
:1008300041EB025170BDC1F30A52C1F3130140F202
:10084000FF3341F480119A4202DA002001467047DA
:1008500040F233439A42A2F2334202DC5242FFF7A3
:1008600054BFFFF743BF000030B5041E71F1000410
:1008700004DB4FF00044404264EB0101141E73F1AD
:10088000000405DB1C464FF00043524263EB0403B7
:10089000994208BF904230BD064C074D06E0E06823
:1008A00040F0010394E8070098471034AC42F6D3B7
:1008B000FFF76EFCEC8300080C8400082DE9F04D76
:1008C00000231A461B1A8A4103DB00200146BDE8BB
:1008D000F08DC1F30A52C1F3130141F480154FF0BA
:1008E000000BD10702D100186D41521E00270446AB
:1008F00040F2FF11384601EB620A3E46804602464E
:1009000000204FF48011FFF700FFC2197141BB189E
:1009100046EB0100B4EB030C75EB000C04D3E41AB6
:1009200065EB000517460E46241908F101006D41DC
:1009300080463428E3DDF91946EB0600091BA8417F
:1009400003D24FF0FF32134601E0002213461BEBA7
:10095000070046EB0A51BDE8F04DFFF7F8BE000076
:1009600030B5041E71F1000404DB4FF00044404236
:1009700064EB0101141E73F1000405DB1C464FF00B
:100980000043524263EB04038B4208BF824230BDF6
:10099000464910B54A6822F440324A604A684368C2
:1009A0001A434A6001684A6822F480724A6001680A
:1009B0004A68036942EA03224A6001684A6822F0F1
:1009C00040724A6001684A6883681A434A60016855
:1009D0008A6822F400628A6001688A68C3681A43E0
:1009E0008A60816A6FF07062D14201688A6822F081
:1009F00070628A6001688A680CD0836A1A438A60D0
:100A000001688A6822F040528A6001688A68C36A75
:100A10001A4301E022F040528A6001688A6822F09D
:100A200002028A6001688A68037E42EA43028A60A1
:100A300090F82010002901684A680FD042F4006243
:100A40004A6001684A6822F460424A6001684A6864
:100A5000174C436A04EB43331A4301E022F400626B
:100A60004A600168CA6A22F47002CA620168CA6AEE
:100A7000838B104C04EB03531A43CA6201688A68E3
:100A800022F400728A6001688A6890F8303042EA85
:100A900043228A6001688A6822F480628A60016861
:100AA0008A68406942EA8020886010BD00230140C6
:100AB00000E0FFFF0000F0FF70B503F00BF901212B
:100AC000084603F0B7F9002116A003F04BF91A4DC0
:100AD00000240421284601F0B0FB322001F0BAFACC
:100AE000641C642CF5DB15490020C87003F0F2F893
:100AF0000121084603F09EF9002111A003F032F90C
:100B00000421022003F096F9002111A003F02AF934
:100B10000121042003F08EF9BDE8704000210EA0F1
:100B200003F020B9426C6F636B65642031206D69FE
:100B30006E75746521200000000002402000002036
:100B4000456E7465722050617373776F7264000034
:100B50002323232300000000443A204261636B00FA
:100B6000FEE700002DE9F84F03F0B4F80121084634
:100B700003F060F900219EA003F0F4F804210220A4
:100B800003F058F90021A0A003F0ECF8A0A0012583
:100B9000D0E9014A0027DFF884824FF4FA7B4FF452
:100BA000FA69066806F0C8FB88F8000044287DD082
:100BB000202857D0142001F04DFA012D0ED0022D1F
:100BC00011D0032D1AD0042D1DD0052D4DD0062D8A
:100BD0005CD0072D6FD0082D7ED041E098F8000042
:100BE00060F30F2645E098F8000060F3174651E0E7
:100BF000022003F01FF9002189A02FE098F80000DF
:100C000060F31F665BE098F80000009060F3070453
:100C10000721022003F00EF9009803F04BF9584623
:100C200001F018FA0721022003F004F900217CA04A
:100C300003F098F84FF47A7001F00CFA03F04AF8D8
:100C40000121084603F0F6F8002176A003F08AF8A7
:100C50000421022003F0EEF800216BA003F082F8DB
:100C60006D1CEDB2012F51D091E098F8000060F3B7
:100C70000F2400900421022003F0DCF8009803F018
:100C800019F9584601F0E6F90421B1E798F8000097
:100C900060F3174400900521022003F0CBF8009880
:100CA00003F008F9584601F0D5F902E072E002E0DD
:100CB00012E005219CE798F8000060F31F640090A3
:100CC0000621022003F0B6F8009803F0F3F8584626
:100CD00001F0C0F906218BE798F80050504665F303
:100CE000070082460721022003F0A4F8284603F0FB
:100CF000E1F8584601F0AEF90721022003F09AF816
:100D0000002147A003F02EF801270925C6F307208C
:100D1000C4F3072188423FD1C6F30740C4F307411B
:100D2000884239D1300E210E884235D12106B1EBEF
:100D30000A6F31D102F0CEFF0121084603F07AF8A4
:100D400000213EA003F00EF83E48310A0170310C3C
:100D50004170310E8170C470484601F07BF9012169
:100D6000084603F067F8002137A002F0FBFF0421DA
:100D7000022003F05FF8002123A002F0F3FF01211D
:100D8000042003F057F8002133A002F0EBFF092DF7
:100D90007FF408AFBDE8F88F0125002702F09AFF25
:100DA0000121084603F046F8002131A002F0DAFFE5
:100DB000484601F04FF90121084603F03BF80021B5
:100DC0002FA002F0CFFF484601F044F90121084668
:100DD00003F030F8002106A002F0C4FF0421022035
:100DE00003F028F8002108A002F0BCFFDAE60000BA
:100DF000456E746572206E65772070617373776FCE
:100E000072643A2000000000232323230000000026
:100E1000352020202020202020000000720000200B
:100E20002A000000436F6E6669726D206E65772040
:100E300070617373776F726400000000446F6E65B9
:100E40002120000024000020456E7465722050614E
:100E50007373776F726420002020202020202020D0
:100E60002020202020443D436C6F7365000000006B
:100E70004469646E2774206D6174636821200000EA
:100E800054727920416761696E2120202020202042
:100E90000000000005F082FC70B105F07FFC022824
:100EA00004D005F07BFC012806D007E005F020FC0B
:100EB000642001F0CFF801E005F08EFC642005F01D
:100EC0003DFFE7E710B500F095FE0122022104483E
:100ED00001F0BAF9BDE810404FF4FA7001F0BAB869
:100EE0000000024006F0F8FD05F02AFC06F080FC48
:100EF00006F07EF9012005F021FFF3E770470000BE
:100F00002DE9F0414FF4FA77FA4D4FF496787E00D0
:100F100006F012FA2870442842D005F055FD044628
:100F2000384601F097F8F4B1012C67D0022C43D079
:100F3000032C7ED002F0CEFE0121032002F07AFFC6
:100F40000021EDA002F00EFF0121042002F072FF4B
:100F50000021EBA002F006FF0121084602F06AFF23
:100F60000021ECA07DE002F0B5FE0121032002F09B
:100F700061FF0021E0A002F0F5FE0121042002F053
:100F800059FF0021DEA002F0EDFE0121084602F02B
:100F900051FF0021E3A002F0E5FE304601F05AF8CF
:100FA000012005F099FD0446384601F053F8062C5F
:100FB0007EDA002C7CD157E002F08CFE0121032068
:100FC00002F038FF0021CCA002F0CCFE0121042069
:100FD00002F030FF0021CAA002F0C4FE44464046A1
:100FE00001F038F80121084602F024FF0021D1A0C9
:100FF00002F0B8FE204601F02DF889E702F06AFE03
:101000000121032002F016FF0021BBA002F0AAFE7E
:101010000121042002F00EFF0021B9A002F0A2FE7F
:101020000121084602F006FF002100E001E0C2A015
:1010300017E002F04FFE0121032002F0FBFE002129
:10104000ADA002F08FFE0121042002F0F3FE00218A
:10105000ABA002F087FE0121084602F0EBFE002162
:10106000BAA002F07FFE53E702F034FE01210846E9
:1010700002F0E0FE0021B9A002F074FE304600F05C
:10108000E9FF02F027FE0121032002F0D3FE002138
:1010900099A002F067FE0121042002F0CBFE00219E
:1010A00097A002F05FFE0121084602F0C3FE00E0B7
:1010B000DCE00021ACA002F055FE3C46384600F0D2
:1010C000C9FF00BF06F038F92870442807D005F0A2
:1010D0007BFC0746204600F0BDFF022FF2D12746D9
:1010E00006F02AF92870442842D005F06DFC044629
:1010F000384600F0AFFFF4B1012C67D0022C43D08A
:10110000032C7DD002F0E6FD0121032002F092FEC7
:10111000002179A002F026FE0121042002F08AFEBF
:10112000002177A002F01EFE0121084602F082FE97
:10113000002178A07CE002F0CDFD0121032002F027
:1011400079FE00216CA002F00DFE0121042002F0C6
:1011500071FE00216AA002F005FE0121084602F09E
:1011600069FE002184A002F0FDFD304600F072FF10
:10117000022005F0B1FC0446384600F06BFF062C57
:1011800075DA002C73D156E002F0A4FD0121032092
:1011900002F050FE002158A002F0E4FD01210420DD
:1011A00002F048FE002156A002F0DCFD4446404615
:1011B00000F050FF0121084602F03CFE002172A021
:1011C00002F0D0FD204600F045FF89E702F082FDE5
:1011D0000121032002F02EFE002147A002F0C2FDF3
:1011E0000121042002F026FE002145A002F0BAFDF4
:1011F0000121084602F01EFE00214FA018E0FFE783
:1012000002F068FD0121032002F014FE00213AA043
:1012100002F0A8FD0121042002F00CFE002138A0FC
:1012200002F0A0FD0121084602F004FE002147A0C3
:1012300002F098FD54E702F04DFD0121084602F04E
:10124000F9FD002151A002F08DFDB046304600F0BE
:1012500001FF05F029FB0446384600F0FBFE01259E
:101260002CB3012C06D00A2C0DD02FE0FFE720462E
:10127000BDE8F08102F02EFD0121084602F0DAFD02
:10128000002124A0CFE002F025FD0121084602F054
:10129000D1FD002140A002F065FD0121042002F0F3
:1012A000C9FD00213FA002F05DFD0A20E0E7434EAA
:1012B000307806F0DDFB0446384600F0CBFEC4B1C2
:1012C000012C7DD00B2C7CD0182C7BD002F002FDA1
:1012D0000121084602F0AEFD00210EA002F042FD01
:1012E0000121042002F0A6FD00212EA002F03AFD0B
:1012F000BDE768E072000020486F6C6420443A004B
:1013000043616E63656C20616E6420636C6F73650E
:1013100021000000556E6B6E6F776E206572726FE4
:1013200072000000496D6167652074616B656E3104
:10133000000000002E310000436F6D6D756E696313
:101340006174696F6E206572726F7200496D6167BA
:10135000696E67206572726F720000004368617287
:10136000616374657231000052656D6F7665206649
:10137000696E676572000000496D61676520746180
:101380006B656E32000000002E320000436861720F
:1013900061637465723200004E6F74206D61746316
:1013A0006800000020202020202020202020202055
:1013B00020443D436C6F7365000000007000002006
:1013C00028E03DE052E002F085FC0121084602F0F1
:1013D00031FD002130A002F0C5FC0921012002F0FE
:1013E00029FD307800EE100A2DA0B8EE400A02F078
:1013F000A4FC0121042002F01DFD0021AFF25C00DD
:1014000002F0B0FC404600F025FE642000F022FE11
:1014100001202DE702F05EFC0121084602F00AFDE2
:101420000021AFF2EC0002F09DFC0121042002F04B
:1014300001FD0021AFF2940002F094FC284617E76A
:1014400002F048FC0121084602F0F4FC0021AFF252
:101450003C1002F087FC0121042002F0EBFC00218B
:10146000AFF2C00002F07EFC0B2001E702F032FC7C
:101470000121084602F0DEFC0021AFF2681002F004
:1014800071FC0121042002F0D5FC0021AFF2EC0038
:1014900002F068FC1820EBE653746F72656420005C
:1014A00049443A252E3066002DE9F04705F044FF07
:1014B0005F4C412820702FD102F00CFC0121042048
:1014C00002F0B8FC00215BA002F04CFC4FF4FA7A69
:1014D000504600F0BFFD5B4D00F03CFB287005F06E
:1014E0002BFF2070297801291AD04428F4D102F06A
:1014F000F1FB0121084602F09DFC002152A002F000
:1015000031FC0121022002F095FC002152A002F0E2
:1015100029FC504600F09EFD207842284ED082E003
:10152000DFF8489100221021484600F08DFE01218D
:10153000042002F07FFC00214DA002F013FC00F01B
:1015400089FE002580462E4600F084FE074605F001
:10155000F3FE2070442809D0B7EB080165EB0600C4
:1015600041F28832891A70F10000EDD302F0B2FB2B
:101570000121084602F05EFC002143A002F0F2FBCC
:1015800001221021484600F05FFE4FF47A7000F00F
:1015900061FD02F09FFB0121084602F04BFC002197
:1015A00029A002F0DFFB0121022002F043FC002110
:1015B00029A002F0D7FB44202070AAE702F08AFBA2
:1015C0000121084602F036FC002133A002F0CAFBDC
:1015D0000421022002F02EFC002133A002F0C2FB05
:1015E0000121042002F026FC002131A002F0BAFB08
:1015F000642000F02FFD00BF00F060F82078442840
:10160000FAD102F067FB0121084602F013FC002129
:101610000DA002F0A7FB0121022002F00BFC00212B
:101620000DA002F09FFBBDE8F047642000F012BD62
:1016300072000020486F6C6420443A204261636B62
:101640002E20000071000020413A20517565742061
:1016500076616E2074617900423A204E6861702094
:101660006D6174206B68617500000000000002402D
:1016700020202020202020202020202020443D4306
:101680006C6F736500000000202020202020204384
:101690006C6F73656421000020456E746572205084
:1016A000617373776F7264002323232300000000AB
:1016B000443A204261636B2E200000002DE9F05F68
:1016C00005F03AFEDE4EDF4F4FF001083070A7F113
:1016D0000804202860D021784FF4FA7591B9387049
:1016E0000421022002F0A6FB387802F0E3FB284632
:1016F00000F0B0FC0421022002F09CFB0021D2A0EB
:1017000002F030FB2078012813D130787870052161
:10171000022002F08FFB787802F0CCFB284600F024
:1017200099FC0521022002F085FB0021C6A002F0F1
:1017300019FB2078022813D13078B87006210220D6
:1017400002F078FBB87802F0B5FB284600F082FC86
:101750000621022002F06EFB0021BBA002F002FB7A
:101760002078032815D13078F8700721022002F084
:1017700061FBF87802F09EFB284600F06BFC072125
:10178000022002F057FB0021AFA002F0EBFA84F830
:1017900001802078401C20706078002501286BD1E2
:1017A000A8483A78001F01788A427BD1797842783C
:1017B0009142FAD1B97882789142F6D1F978C0781D
:1017C0008142F2D1E57002F085FA0121084602F06B
:1017D00031FB00219DA002F0C5FA4FF47A7000F0B1
:1017E00039FC002210219D4800F02EFD02F072FA13
:1017F0000121084602F01EFB002199A002F0B2FA76
:101800000121022002F016FB002198A002F0AAFAA2
:101810000121032002F00EFB002197A002F0A2FAA2
:101820000121042002F006FB002198A002F09AFAA0
:10183000142000F00FFC2570657084F8028000F021
:1018400009FD8146DFF85CB252E000BF00F002FD06
:10185000AA46A846074605F06FFD3070442809D017
:10186000B7EB090168EB050841F28832891A78F173
:1018700000012ED344203070B8E000BF4FF49670C2
:1018800000F0E8FB02F026FA0121084602F0D2FA45
:10189000002185A002F066FA0121022002F0CAFAB6
:1018A000002100E065E083A002F05CFA642000F013
:1018B000D1FB5F468BF800A005F0A2FE387000282F
:1018C0007ED000BFFFF71CFB0028FBD084F802A0ED
:1018D00001E04128D2D03078422806D1642000F0BF
:1018E000B9FBFFF73FF984F802A03078432803D012
:1018F000A0780028AAD179E04FF4967000F0AAFBF6
:1019000002F0E8F90121084602F094FA00216DA0E6
:1019100002F028FA0121022002F08CFA002165A0D1
:1019200002F020FA0121042002F084FA002168A0CC
:1019300002F018FA642000F08DFBA8465F468BF891
:10194000005005F05DFE3870002877D0387804F03C
:10195000FFFF0028FAD10121084602F06BFA0021AE
:1019600061A002F0FFF9642000F074FB84F80280AB
:101970003CE0E078401CE07002F0ACF90121084640
:1019800002F058FA00215CA002F0ECF94FF47A77EB
:10199000384600F05FFB02F09DF90121084602F095
:1019A00049FA002158A002F0DDF9384600F052FB58
:1019B00002F090F90121084602F03CFA002100E013
:1019C0003CE055A002F0CEF90421022002F032FAE8
:1019D000002155A002F0C6F90121042002F02AFAE4
:1019E000002153A002F0BEF925706570E07804284C
:1019F00001D1FFF761F8307844281FD102F06AF96D
:101A00000121084602F016FA00214BA002F0AAF9C3
:101A100001221021114800F017FC4FF47A7000F0F9
:101A200019FB02F057F90121042002F003FA00210A
:101A300045A002F097F925706570A570BDE8F09F8C
:101A400072000020280000202A0000002020202012
:101A5000436F727265637421000000000000024051
:101A6000202020204F70656E65642100413D456E49
:101A7000726F6C6C00000000423D4368616E6765E8
:101A80002050617373776F7264000000433D4465BA
:101A90006C6574652020202020443D436C6F736585
:101AA0000000000070000020456E726F6C6C2049D1
:101AB000443A200023232320202028312D323334A0
:101AC0002900000044656C6574652049443A200093
:101AD00020202020202020202020202020443D43A2
:101AE0006C6F73650000000044656C65746564206C
:101AF00049443A200000000020202020496E636FF6
:101B000072726563742100002020202054727920B5
:101B1000416761696E210000456E746572205061F5
:101B20007373776F72640000232323230000000087
:101B3000443A204261636B00202020202020204373
:101B40006C6F736564210000443A204261636B202E
:101B50000000000070B504F037FF0446642000F078
:101B600079FA54B9642000F075FA012004F0B4FF4A
:101B70000446642000F06EFA0CB1002070BD4FF4F2
:101B80009675284600F066FA05F0FCFD04464FF411
:101B90007A7000F05FFA1CB1284600F05BFAECE7BF
:101BA00002F098F80121084602F044F900210AA049
:101BB00002F0D8F80A21012002F03CF905F0DCFD22
:101BC00000EE100A06A0B8EE400A02F0B6F8642053
:101BD00000F040FA012070BD4F70656E6564210011
:101BE00049443A252E306600FFF75EFC012005F0DF
:101BF000A5F8F9E70B4800B5016887B041F001018D
:101C000001600068694600F0010005900220009024
:101C10000120019003200390034800F02DFA07B043
:101C200000BD0000303802400000024078B50024BA
:101C3000009490F83C20012A19D0012280F83C2021
:101C40000A6807230568092A13D9EE680A3A02EBE5
:101C5000420293409E43EE600B788A680A3B03EB96
:101C600043039A400368DD682A43DA6010E00220EB
:101C700078BD2E6902EB420293409E432E610B78A1
:101C80008A6803EB43039A4003681D692A431A617B
:101C90004A681F23072A13D205686E6B521E02EB97
:101CA000820293409E436E630B790A885B1E92B258
:101CB00003EB83039A4003685D6B2A435A6327E072
:101CC00005680D2A12D22E6BD21F02EB82029340BE
:101CD0009E432E630B790A88DB1F92B203EB8303CA
:101CE0009A4003681D6B2A431A6311E0EE6A0D3AAD
:101CF00002EB820293409E43EE620B790A880D3B11
:101D000092B203EB83039A400368DD6A2A43DA62E6
:101D1000164B0568144A9D4206D10D68122D03D159
:101D2000556845F48005556005689D4218D10B68DB
:101D3000102B01D0112B13D1536843F400035360CF
:101D4000096810290CD10A490A4A0968B1FBF2F165
:101D500001EB8101490000E0491E00910029FBD1FF
:101D600080F83C40002078BD002301400020014065
:101D70008000002040420F000068C06C704770B5C2
:101D800004004FF0000503D0206C002610B107E0DE
:101D9000012070BD204600F01DF8666484F83C60A8
:101DA000206CC00610D4206C20F4885040F0020053
:101DB00020642046FEF7ECFD6664206C20F00200F3
:101DC00040F00100206400E0012584F83C602846D2
:101DD00070BD000070B586B0044614216846FEF759
:101DE00099FA1D491B4E256800231B4A1439032408
:101DF0001A48B54211D1156845F48075156012680E
:101E000002F4807205920A6842F004020A600968CE
:101E100001F004010591082113E0114EB54216D1DD
:101E2000156845F400751560126802F40072059299
:101E30000A6842F004020A60096801F00401059191
:101E40002021CDE900140293694600F015F906B08F
:101E500070BD0000002001404438024000080240EC
:101E6000002101402DE9F041044600680D468168DB
:101E70004FF0000749050BD58068C00508D5206CD8
:101E800040F02000206484F83C700120BDE8F0811F
:101E900000F0E0F906460FE0681C0DD025B100F017
:101EA000D9F9801BA84207D9206C40F004002064B7
:101EB00084F83C700320E9E7206800688007EBD5D0
:101EC00021686FF012000860206C40F400702064FC
:101ED0002068816811F0405F13D1217E89B9C16A01
:101EE00011F4700F02D0806840050AD4206C20F4F1
:101EF00080702064206CC00403D4206C40F001008A
:101F000020640020C2E7000018B50021009190F87D
:101F10003C20012A07D0012280F83C200268936807
:101F2000DB0702D011E0022018BD936843F00103E3
:101F300093602A4A2A4B1268B2FBF3F202EB420288
:101F400000E0521E0092002AFBD102689368DB0772
:101F500041D0036C40F20164A34343F480730364F3
:101F600053685B0505D5036C23F4005343F4805399
:101F70000364036CDB0404D5436C23F00603436461
:101F800000E0416480F83C1016496FF022031360B2
:101F900049680068CA06144906D088421BD1816886
:101FA00011F0405F13D016E08842F8D00F4A9042FB
:101FB00003D1D1F80423D206F1D00D4A90420AD1C0
:101FC000D1F8041301F01F011029E8D303E0816860
:101FD00041F080418160002018BD00008000002099
:101FE00040420F0000230140002001400021014039
:101FF0000022014090F83C1001290CD0012180F80A
:102000003C1001688A6822F001028A6001688968D0
:10201000C90702D007E002207047016C21F4885103
:1020200041F001010164002180F83C10084670472E
:1020300090F83510022903D08021416501207047B6
:10204000052180F835100068016821F00101016068
:102050000020704770B5044600F0FCF80546601C8F
:1020600002D004480078044400F0F4F8401BA04279
:10207000FAD370BD740000202DE9F84F00224FF014
:10208000010803254FF00F0E0B6808FA02F42340F5
:10209000A3426ED14E68012E05D0022E03D0112E20
:1020A00001D0122E12D186684FEA420C05FA0CF7C5
:1020B000BE43CF6807FA0CF7374387604668A643EC
:1020C0000C79C4F30014944034434460C66857004C
:1020D00005FA07FC8C6826EA0C06BC403443C46051
:1020E0004C68022C01D0122C13D1D40800EB8404CC
:1020F000A346D4F8209054074FEAD46A0EFA0AF6A1
:1021000029EA06090E6906FA0AF646EA0906CBF834
:10211000206006680C7926EA0C0604F00304BC4033
:10212000344304604C68E40065D5364C266846F4B8
:1021300080462660246822F0030604F4804400945C
:10214000314C3444A446D4F808489607370F0EFAA9
:1021500007F6B4432D4EB04201D1002624E02C4EA8
:10216000B04201D101261FE02A4EB04202D1022620
:102170001AE040E0284EB04201D1032614E0274E79
:10218000B04201D104260FE0254EB04201D1052610
:102190000AE0244EB04201D1062605E0224EB042AC
:1021A00001D1072600E00826BE402643CCF8086887
:1021B0001E4E34684F689C43FF0300D51C433460B7
:1021C0001A4C241D26684F689E43BF0300D51E434A
:1021D0002660164E083634684F689C43FF0200D5CF
:1021E0001C433460114E0C3634684F689C43BF0268
:1021F00000D51C433460521C102AFFF445AFBDE8E3
:10220000F88F0000443802400030014000000240D6
:102210000004024000080240000C0240001002408E
:102220000014024000180240001C0240003C014023
:102230000069084000D001207047426931EA02027B
:1022400000D10904816170470AB1816170470904B6
:10225000FBE7000001488068704700007400002020
:1022600070B5040025D094F83D00002520B984F80D
:102270003C50204600F004FA242084F83D002068F9
:10228000016821F0010101602068016841F400410A
:1022900001602068016821F40041016000F0B2FB98
:1022A0004D4A6168914201D84C4900E04C4988424E
:1022B00001D2012070BD4B492368B0FBF1F15E688B
:1022C00026F03F060E435E606368934206D94FF4E2
:1022D000967359434FF47A73B1FBF3F12368491CA9
:1022E0001E6A26F03F06314319626168914210D898
:1022F0004900401EB0FBF1F2521CC2F30B02042A4B
:1023000001D2042022E0B0FBF1F0401CC0F30B002E
:102310001CE0A268F2B301EBC10303EB0116431EFC
:10232000B3FBF6F35B1C43F480431B0549D092B327
:1023300001EBC10202EB0111401EB0FBF1F0401CA9
:10234000C0F30B0040F4804040F400402168CA69AB
:102350004CF6FF739A431043C861D4E90710014358
:102360002068026822F0C00211430160D4E9030131
:1023700001432068826848F2FF339A431143816029
:10238000D4E9050108432168CA6822F0FF0210431E
:10239000C86001E00EE016E02068016841F001012C
:1023A00001602564202084F83D00256384F83E50B8
:1023B000002070BD01EB4106431EB3FBF6F35B1C2E
:1023C000B3E70120C2E701EB4101401EB0FBF1F091
:1023D000401CC0F30B00B7E7A086010080841E00FC
:1023E00000093D0040420F002DE9FF4F81B08946B2
:1023F0000446FFF72FFF054694F83D004FF0010813
:1024000020287DD11923012250492046009501F052
:1024100099FA002874D194F83C00012870D001206A
:1024200084F83C0020680168C90703D1016841F0C5
:10243000010101602068016821F40061016024202D
:1024400084F83D00002626644148E0624FF0011BFD
:1024500020272068016841F4807101600095002206
:1024600059462046049B01F06DFA50B1206800687F
:10247000C00502D54FF400702064032005B0BDE80C
:10248000F08F216809F0FE000861FFF7E3FE216884
:10249000054648694969C0F34000C1F380214FF007
:1024A000A00A0FE0FFF7D6FE411B0498814200D836
:1024B00008B984F83DA0216848694969C0F3400023
:1024C000C1F3802194F83D20A02A02D008B9002948
:1024D000E8D084F83D7020684169C943890716D463
:1024E000016841F400710160206841698069192325
:1024F000012216492046009501F024FAB8B900E0FF
:1025000021E084F83D7084F83C600020B6E7016863
:1025100041F40071016021686FF480604861192303
:1025200001220A492046009501F00CFA08B1012069
:10253000A4E7039808F1010880458AD384F83D7028
:1025400084F83C60F3E7022098E7000002001000E6
:102550000000FFFF2DE9F84F1F4690468A460446CB
:10256000DDF82890FFF776FE054694F83D00202818
:102570007FD11923012240492046009501F0E2F95C
:10258000002876D194F83C00012872D0012084F80C
:102590003C0020680168C90703D1016841F00101CE
:1025A00001602068016821F400610160212084F845
:1025B0003D00102084F83E0000262664C4F82480E4
:1025C0006785608D20852D48E0622B464A4651463E
:1025D000204601F043F990B9206841698069009074
:1025E00036E02A464946204601F02BFA50B1206CCD
:1025F000042804D12068016841F4007101600120C1
:10260000BDE8F88F606A216800780861606A401C44
:102610006062618D491E6185218D491E89B22185C7
:1026200022685369DB435B070BD451B1007810611A
:10263000606A401C6062608D401E6085208D401E77
:1026400020852A464946204601F056F90028CED179
:10265000208D0028C5D154F83D0B016841F400716C
:102660000160202004F81E09E67766770020C7E79E
:10267000FFE70220C4E70000020010000000FFFF97
:10268000F0B587B0044614216846FDF743FE27687D
:10269000204CDFF87CC01F491222012303250426A9
:1026A0001D481034674515D10F6847F002070F60C9
:1026B000096801F00201059129028DE86E00694662
:1026C000FFF7DAFC206840F400102060206800F476
:1026D000001019E0DFF844C0674516D10F6847F0D5
:1026E00002070F60096801F0020105914FF4406193
:1026F0008DE86E006946FFF7BFFC206840F480005B
:102700002060206800F48000059007B0F0BD000054
:10271000005400403038024000040240005800409D
:10272000024881680278114481607047740000207B
:102730000B4810B5016841F400710160016841F473
:1027400080610160016841F480710160032000F044
:102750008DF8002000F006F800F03EF8002010BDD3
:10276000003C024010B5014688B00022192000F05C
:102770005DF8192000F04CF813480024016841F47A
:1027800000310160006805A900F400300690684639
:1027900000F018F900F046F90C494000B0FBF1F1E7
:1027A0000C480B4A491E026040F2E732C0E903249C
:1027B000C0E9011400F098FB10B1012008B010BD71
:1027C000044800F0E7FBF9E74438024040420F00BC
:1027D00000440140080B00200C4882B0016841F41D
:1027E00080410160006800F4804000900748001FAD
:1027F000016841F0805101600068002200F08050C3
:1028000000900F21901E02B000F010B84438024032
:10281000002809DB00F01F020121914040098000DF
:1028200000F1E020C0F8001170470000F0B40E4B3A
:102830001B680C46C3F30223C3F10705042D00D91E
:102840000425191D072901D2002300E0DB1E012603
:1028500006FA05F1491E214099409E40761E164019
:102860003143F0BC02F044B90CED00E0064900F041
:10287000070208684FF6FF03184040EA0220034AA7
:1028800010430860704700000CED00E00000FA05FE
:102890002DE9F0470E46050065D0DFF81481D8F821
:1028A0000000F7B200F00F00B04207D288F80070C5
:1028B000D8F8000000F00F00B04254D128683D4C19
:1028C000810712D5400703D5206840F4E05020600E
:1028D0002878000703D5206840F460402060206815
:1028E000A96820F0F000084320602878C0072DD0A8
:1028F000304968680839012812D0022813D003280B
:1029000011D00968890700292DDA216821F0030117
:1029100001432160FFF79EFC814641F2883A0EE0B8
:1029200009688903EFE709688901ECE7FFF792FC82
:10293000A0EB0901514502D90320BDE8F0872068CA
:10294000696800F00C00B0EB810FEFD1D8F80010EF
:10295000404601F00F01B14207D90770006800F04E
:102960000F00B04201D00120E7E72878400705D5E5
:102970002068E96820F4E0500843206028780007C8
:1029800006D52068296920F4604040EAC100206033
:1029900000F058F82168084AC1F30311515CC8409F
:1029A0000649086006480068FFF7DCFE0020C4E71F
:1029B000003C024008380240CC8200088000002021
:1029C000780000200F2202600C4A136803F0030312
:1029D0004360136803F0F0038360136803F4E0536B
:1029E000C36012684FF4E05303EAD2020261044864
:1029F000006800F00F0008607047000008380240CF
:102A0000003C02400448054900680968044AC1F3D3
:102A10008221515CC8407047800000200838024085
:102A2000DC8200080448054900680968044AC1F3CB
:102A30004231515CC8407047800000200838024095
:102A4000DC820008154810B5006810F00C0214482C
:102A500013D04110042A0FD0082A0ED10F4C241F86
:102A60002268236802F03F025B0207D52068C0F3AA
:102A70008810A0FB010106E0084610BD2168C1F3E3
:102A80008811A1FB00010023FDF7FAFB2168C1F3C7
:102A90000141491C4900B0FBF1F010BD083802406B
:102AA0000024F4002DE9F84F040076D02078DFF8F8
:102AB00038A3CE4DC00749D0DAF800105046C1F314
:102AC0008101012908D00068C0F3810002280AD1E1
:102AD000281D0068400206D52868800336D5606846
:102AE0000028E2D032E06068B0F5803F10D0B0F549
:102AF000A02F286810D020F480302860286820F4A7
:102B0000802028606068A0B1FFF7A4FB06460CE0B7
:102B1000286840F48030F4E740F480202860F7E72C
:102B2000FFF798FB801B642873D828688003F7D5CB
:102B30000CE0FFF78FFB064605E000BFFFF78AFBBE
:102B4000801B6428F0D828688003F7D42078DFF849
:102B5000A08280074FF000093ED5DAF800105046F9
:102B600011F00C0F09D00068C0F3810002280BD1CE
:102B70009D48001F0068400206D42868800715D5CC
:102B8000E068012809D111E0E068B8B10120C8F877
:102B90000000FFF75FFB064605E020E1FFF75AFB68
:102BA000801B0228C0D828688007F7D528682169CB
:102BB00020F0F80040EAC10028600DE0C8F800905D
:102BC000FFF748FB064604E0FFF744FB801B0228A2
:102BD0001FD828688007F7D42078000722D5824EB6
:102BE000844861696C3671B101210160FFF732FBE5
:102BF000074604E0FFF72EFBC01B022809D8306807
:102C00008007F7D50EE0C0F80090FFF723FB0746DA
:102C100005E082E0FFF71EFBC01B02287DD830686C
:102C20008007F7D42078400768D5DFF8BCB10027CB
:102C30000BF1380BDBF80000C0000BD4DBF8001000
:102C400041F08051CBF80010DBF80000012700F0C4
:102C500080500090684E3068C00510D4306840F451
:102C600080703060FFF7F6FA009005E0FFF7F2FAA7
:102C70000099401A022850D83068C005F6D55A4E3F
:102C8000A068683601280FD00528306810D020F0E1
:102C900001003060306820F004003060A068B8B1F6
:102CA000FFF7D8FA00900FE0306840F00100F4E739
:102CB00040F004003060F7E7FFF7CCFA0099411AC2
:102CC00041F28830814266D830688007F4D50EE042
:102CD000FFF7C0FA009007E0FFF7BCFA0099411A2D
:102CE00041F28830814256D830688007F4D42FB141
:102CF000DBF8001021F08051CBF80010A069D0B3B0
:102D0000DAF800205146C2F38102022A4AD0022892
:102D1000484607D0C8F8600000E03CE0FFF79AFAA8
:102D200004463BE04746C8F86000FFF793FA0646C2
:102D300005E000BFFFF78EFA801B02282BD8286819
:102D40008001F7D4D4E907010843A16A2B4A490856
:102D500002EB0141626A41EA8211084394F82C10A7
:102D600040EA01612048001F016001203866FFF73A
:102D700071FA044605E034E0FFF76CFA001B022804
:102D800009D828688001F7D52BE000BFFFF762FA69
:102D9000001B022802D90320BDE8F88F28688001B3
:102DA000F4D41EE00128F7D00868E26900F480013D
:102DB000914214D1226A00F03F0191420FD147F6AF
:102DC000C071626A0140914209D1A26A00F44031A7
:102DD000914204D1E16A00F07060884201D0012084
:102DE000DAE70020D8E70000083802400038024047
:102DF00000004742800E4742007000400000FFFF85
:102E00007047704710B590F83C20012A22D001226B
:102E100080F83C20CA688C6822F4407222434C68D7
:102E200022F4806222430C6822F4006222430C697F
:102E300022F4805222434C6922F400522243C96991
:102E4000002322F480420A4301684A6480F83C303F
:102E5000002010BD022010BD70B590F83C20012A62
:102E600032D0012480F83C40022280F83D200368E3
:102E70005A689D6822F070060A6832435A60134B04
:102E800002689A4214D0B2F1804F11D0104B9A428E
:102E90000ED0104B9A420BD00F4B9A4208D00F4BDA
:102EA0009A4205D00E4B9A4202D00E4B9A4204D160
:102EB000496825F080031943916080F83D40002166
:102EC00080F83C10084670BD022070BD0000014033
:102ED0000004004000080040000C004000040140D5
:102EE000004001400018004010B5040003D094F8E1
:102EF0003D0010B107E0012010BD002084F83C0027
:102F0000204600F00DF8022084F83D00211D2068C5
:102F100001F0ECFA012084F83D00002010BD000013
:102F200008B5184A01681848914211D1016841F06A
:102F3000010101600068002200F0010000901146CC
:102F40001920FFF773FCBDE808401920FFF760BCAB
:102F50000E4A914209D10C48001F016841F002015C
:102F60000160006800F0020009E0094A914207D1BF
:102F7000016841F480310160006800F48030009005
:102F800008BD000000000140443802400004004039
:102F9000004001400168CA6842F00102CA6000684E
:102FA000816801F00701062903D0016841F00101A1
:102FB00001600020704770B5044690F83C0001287D
:102FC00017D0012584F83C50022084F83D00206889
:102FD000826822F0770222F47F42826008685028DB
:102FE00030D00DDC20284DD005DC98B310283BD123
:102FF00048E0022070BD302844D0402834D139E068
:10300000602828D0702806D0B0F5805F2CD0B0F5AD
:10301000005F29D10AE0CB68D1E90121206801F0E5
:10302000D6FA2068816841F0770109E0CB68D1E9E0
:103030000121206801F0CBFA2068816841F48041C9
:10304000816011E0CA684968206801F095FB502151
:10305000206807E016E0CA684968206801F09DFB17
:103060006021206801F0BDFA84F83D50002084F80A
:103070003C0070BDCA684968206801F07DFB4021B2
:103080002068EFE7226801461046EBE7704770B50D
:103090000446006801694FF00005C943890715D44B
:1030A000C168C943890711D4E91E01610120207755
:1030B000206880698007204602D0FFF7E7FF04E020
:1030C00000F0ECF8204600F06EF9257720680169E1
:1030D000C943490717D4C168C943490713D46FF0DE
:1030E00004010161022020772068806910F4407F8C
:1030F000204602D0FFF7CAFF04E000F0CFF82046D8
:1031000000F051F9257720680169C943090716D4F1
:10311000C168C943090712D46FF008010161042096
:1031200020772068C0698007204602D0FFF7AEFFF5
:1031300004E000F0B3F8204600F035F92577206868
:103140000169C943C90617D4C168C943C90613D464
:103150006FF010010161082020772068C06910F429
:10316000407F204602D0FFF791FF04E000F096F880
:10317000204600F018F9257720680169C943C9077E
:1031800008D1C168C943C90704D1891E016120461D
:1031900000F02CF920680169C943090609D4C16807
:1031A000C943090605D46FF0800101612046FFF78D
:1031B00027FE20680169C943490609D4C168C9438B
:1031C000490605D46FF040010161204600F018F96E
:1031D00020680169C94389060BD4C168C9438906BF
:1031E00007D46FF0200101612046BDE87040FFF771
:1031F00008BE70BD30B587B0044614216846FDF79F
:1032000089F824681F4D00221F4902231F48AC4241
:103210000ED10C6844F010040C60096801F0100134
:1032200005914FF428510091CDE90132012125E0AB
:10323000174DAC4212D1086840F0020008600868DF
:103240000093CDE9013200F00200CDE90430694677
:1032500003921048FEF710FF07B030BD0E4DAC4290
:10326000FAD10C6844F010040C60096801F01001F8
:10327000059120210091CDE901320321CDE90321FF
:103280006946E7E700000140303802400010024084
:10329000000400400004024000400140704770B547
:1032A000044690F83C000D4601280DD0012684F814
:1032B0003C60022084F83D0042B1042A18D0082A5C
:1032C0002AD00C2A4DD139E0022070BD206801F0CF
:1032D00091F92068816941F0080181612068816964
:1032E00021F004018161206881692A69114311E09C
:1032F000206801F0AFF92068816941F400618161C3
:103300002068816921F480618161206881692A696E
:1033100041EA0221816124E0206801F0D1F92068AE
:10332000C16941F00801C1612068C16921F004014F
:10333000C1612068C1692A69114311E0206801F068
:10334000F3F92068C16941F40061C1612068C16975
:1033500021F48061C1612068C1692A6941EA0221C2
:10336000C16184F83D60002084F83C0070BD10B558
:10337000040003D094F83D0010B107E0012010BD17
:10338000002084F83C00204600F00CF8022084F86D
:103390003D00211D206801F0A9F8012084F83D00BE
:1033A000002010BD7047704710B504460068012228
:1033B00001F000F90B492068884202D00A4988428E
:1033C00003D1416C41F4004141642068816801F0FF
:1033D0000701062903D0016841F0010101600020C6
:1033E00010BD0000000001400004014000680349D6
:1033F000884201D1FFF794B97047000000440140B2
:103400007047704770B5026804461068D168536908
:1034100010F00F0F52D003F0010501F490762E4307
:103420005FD0C20705D0CA0503D5E26B42F00102A6
:10343000E263420705D5DA0703D0E26B42F00202ED
:10344000E263820705D5DA0703D0E26B42F004029B
:10345000E263020707D501F020022A4303D0E26BA2
:1034600042F00802E263E26B002A33D0800604D502
:10347000880602D5204601F0B8F920684069E16B62
:10348000C0F38010090700D428B3204601F09FF94B
:103490002068416949061AD5416921F0400141611E
:1034A000606BA0B11B490165606BFEF7C1FD002890
:1034B00010D0606B016DBDE870400847830610D5E1
:1034C0008B060ED52046BDE8704001F08EB920462F
:1034D000FFF797FF70BD2046FFF793FF0020E063E2
:1034E00070BD030606D50B0604D52046BDE8704026
:1034F00001F05ABA4006F3D54806F1D5D168204606
:1035000021F04001D160202184F8391000F08DF9BC
:1035100070BD0000BF47000870B5040004D094F8E7
:103520003900002510B106E0012070BD84F8385044
:10353000204600F023F8242084F839002068C16870
:1035400021F40051C160204601F09AF92068016918
:1035500021F4904101612068416921F02A01416113
:103560002068C16841F40051C160E563202084F8FF
:10357000390084F83A00002070BD0000F0B587B033
:10358000044614216846FCF7C5FE3D48DFF8ECC050
:1035900027683B491438C02502220123032407264B
:1035A00067451FD10F6847F010070F60096801F0E9
:1035B00010010591016841F0020101600068009569
:1035C00000F00200CDE9046001AF694687E81C0005
:1035D0002C48FEF751FD002205212520FFF726F992
:1035E000252023E0DFF8A0C0674523D12449091F27
:1035F0000D6845F480250D60096801F4802105916E
:10360000016841F0080101600068694600F00800A7
:1036100005904FF440708DE85D001C48FEF72CFDCE
:10362000002205212720FFF701F92720FFF7F0F8F6
:1036300007B0F0BD164EB742FAD10E6846F020062C
:103640000E60096801F020010591016841F0040154
:1036500001600068009500F0040005900820CDE9A5
:10366000034069460B48CDE90123FEF705FD002222
:1036700005214720FFF7DAF84720D7E7001001407F
:10368000443802400004024000480040000C024060
:10369000001401400008024090F83A30202B22D15B
:1036A000F9B1F2B190F83830012B1CD081628285DB
:1036B000C2850021C163222280F83A2080F83810A8
:1036C0000168CA6842F48072CA6001684A6942F0BF
:1036D00001024A610068C16841F02001C160002018
:1036E00070470120704702207047000070B5054602
:1036F00000681A491A4C884218D16088194B002278
:1037000020B900215A54491C0A29FBDB1449091D20
:1037100009780A2903D01954401C608000E06280B7
:103720000F490122091D1048FFF7B6FF0F4928680D
:10373000884211D10B4A20781432617811541E2826
:1037400001D2401C20700649BDE8704006480122A5
:10375000491C4038FFF7A0BF70BD000000140140B5
:103760005800002080080020680700200048004022
:103770002DE9F843044690F839001F4616460D46D9
:10378000202850D1B5B1AEB194F8380001284AD004
:10379000012084F838004FF00008C4F83C80212054
:1037A00084F83900FEF756FDA6848146E68484F845
:1037B000388026E00120BDE8F883E08C401EE084DC
:1037C000A0684B46B0F5805F4FF000024FF08001DB
:1037D0002046009703D001F018F9E8B90DE001F098
:1037E00014F9C8B928882168C0F308004860206926
:1037F00008B16D1C05E0AD1C03E0216815F8010B54
:103800004860E08C0028D8D14B4600224021204659
:10381000009701F0FAF808B10320CCE7202084F8E3
:1038200039000020C7E70220C5E77047FEE70168BE
:103830004A69D24352050FD46FF480624A61002175
:1038400040F8301F202242738173026942F0040263
:10385000026101730120704700207047F8B50446EB
:10386000C06A1E460D461746082807D0012805D015
:1038700010F5803F02D0206B122804D12068016827
:1038800041F480710160134600224FF0011120467F
:10389000009600F057F840B120680068C00502D5D6
:1038A0004FF4007020640320F8BD2069B0F5804F0C
:1038B0000ED00620216800EAD51040F0F000086123
:1038C00033463A460B49204600F070F878B902E0DA
:1038D00005F0FE0000E0E8B22168086105493346C2
:1038E0003A46891F204600F061F80028DCD001200C
:1038F000F8BD00000800010070B516460D460446EC
:103900000DE02046FFF793FF08B1012070BD681C51
:1039100005D0FEF79FFC801BA84207D835B1206870
:103920004069C0434007ECD4002070BD002044F83B
:10393000300F20216173A073216941F020012161C2
:103940002073E2E72DE9F0471E4690460D460446F7
:10395000C1F30747DDF8209008E0701C06D0FEF7A1
:1039600079FCA0EB0900B0420FD876B12068012F96
:1039700018D0806925EA00000004000C14D0002152
:103980004145EAD00020BDE8F087002044F8300F20
:1039900020216173A073216941F02001216120730E
:1039A0000120F0E74069E5E70121E9E72DE9F0476B
:1039B0009A4691460E46044600254FF02008C1F372
:1039C000074725E020684069C043400514D42068BB
:1039D000016841F40071016021686FF48060486102
:1039E000256384F83D8084F83E50206C40F004004C
:1039F000206484F83C501FE0B9F1FF3F08D0FEF787
:103A000029FCA0EB0A0149450CD8B9F1000F09D0F7
:103A10002068012F13D0806926EA00000004000C02
:103A20000BD0CFE744F8305F84F80D80A573206990
:103A300040F02000206125730120BDE8F087406937
:103A4000EAE770B516460D4604460DE02046FFF73E
:103A5000EEFE08B1012070BD681C05D0FEF7FAFB30
:103A6000801BA84207D835B120684069C0430006D2
:103A7000ECD4002070BD002044F8300F2021617389
:103A8000A073216941F0200121612073E2E7000069
:103A90000449082801D0002803D1C871202000F073
:103AA000CDB870472C00002010B5012000F0A0F820
:103AB0004FF47A70FEF7CEFA022000F099F8052054
:103AC000FEF7C8FA282000F093F80520FEF7C2FAA6
:103AD0000C2000F08DF80520FEF7BCFA802000F0E5
:103AE00087F8BDE810404FF4FA70FEF7B3BA000053
:103AF0002DE9F047304D00260446EE7071B30129E0
:103B00002FD12E49002000BF41F82040401C641CEA
:103B10006428F9DB89460868FCF707FC2871264F02
:103B2000A8780837391811F8011C00F049F8A9786D
:103B300007F1040808EB010010F8014C1AE0641CBE
:103B400000F07CF8E878401CC0B2E870102805D17D
:103B5000A8780121401C00F033F8EE70207800288E
:103B6000EDD1BDE8F08700BF59F82400007800F0DF
:103B700065F8641C28798442F6DBA978781810F877
:103B8000012C521E12F0FF0200F8012CE9D1012293
:103B9000414400F8012C11F8012C521CD2B201F85A
:103BA000012C2B799A42DCD1102200F8012C01F86B
:103BB000016C2E71D5E700002C00002028010020A8
:103BC000094A9070421E012A0CD84A1E0F2A09D8B1
:103BD000064A02EB0010084410F8110C40F0800077
:103BE00000F006B8704700002C000020EC810008AF
:103BF00038B5104C627800EA020102EA0010E2795E
:103C000011431043617104F11002A07141F00403EB
:103C10001370517040F004019170D07002F030FFC9
:103C2000C8200090042304F1100221780248FEF716
:103C300091FC38BD2C000020B802002038B5124C91
:103C4000627800EA020102EA0010E2791143617130
:103C5000104341F0050304F11002A071137041F00C
:103C60000101517040F00501917040F00100D070E9
:103C700002F006FFC8200090042304F1100221780E
:103C80000248FEF767FC38BD2C000020B802002077
:103C900070B53220FEF7DEF902F0F2FE054D4FF46A
:103CA0007A742346032229780348FEF79DFB0028F7
:103CB000F7D170BD2C000020B8020020044908286C
:103CC00001D0002803D1C871202000F0F3B870475C
:103CD0004000002010B5012000F0C6F80A20FEF7D1
:103CE000B9F903480021C1700121817010BD0000A5
:103CF0004000002010B5012000F0B6F84FF47A70B3
:103D0000FEF7A8F9022000F0AFF80520FEF7A2F9AF
:103D1000282000F0A9F80520FEF79CF90C2000F0FF
:103D2000A3F80520FEF796F9802000F09DF8BDE885
:103D300010404FF4FA70FEF78DB910B504469AB0F2
:103D400010EE100AFCF7A9FC41EC100B214653ECD5
:103D5000102B684600F0A0FE0021684600F002F833
:103D60001AB010BD2DE9F047304D00260446EE7024
:103D700071B301292FD12E49002000BF41F8204006
:103D8000401C641C6428F9DB89460868FCF7CDFAFE
:103D90002871264FA8780837391811F8011C00F04F
:103DA00049F8A97807F1040808EB010010F8014C64
:103DB0001AE0641C00F07EF8E878401CC0B2E8709D
:103DC000142805D1A8780121401C00F033F8EE70CA
:103DD00020780028EDD1BDE8F08700BF59F8240015
:103DE000007800F067F8641C28798442F6DBA97833
:103DF000781810F8012C521E12F0FF0200F8012C66
:103E0000E9D10122414400F8012C11F8012C521C87
:103E1000D2B201F8012C2B799A42DCD1142200F89D
:103E2000012C01F8016C2E71D5E700004000002044
:103E30000C0300200A4A9070421E032A0ED84A1E24
:103E4000132A0BD8074A00EB800002EB80000844DD
:103E500010F8150C40F0800000F006B87047000024
:103E6000400000200C82000838B5104C627800EA4F
:103E7000020102EA0010E27911431043617104F17A
:103E80001002A07141F004031370517040F004015E
:103E90009170D07002F0C8FDC8200090042304F196
:103EA000100221780248FEF755FB38BD4000002083
:103EB0009C04002038B5124C627800EA020102EA44
:103EC0000010E27911436171104341F0050304F1E0
:103ED0001002A071137041F00101517040F0050112
:103EE000917040F00100D07002F09EFDC82000905B
:103EF000042304F1100221780248FEF72BFB38BDA1
:103F0000400000209C04002070B53220FEF7A2F88B
:103F100002F08AFD054D4FF47A7423460322297876
:103F20000348FEF761FA0028F7D170BD4000002079
:103F30009C0400207FB50024114800940194029451
:103F40000E490394C0E9001484600461047680F88B
:103F500020400C49C0E90A140125C561C46080F8FD
:103F600030404561FDF70BFF0D20CDE900056946A6
:103F700002940348FDF75AFE7FBD00000020014077
:103F8000F00400200100000F7FB5002411480094C8
:103F9000019402940E490394C0E900148460046102
:103FA000047680F820400C49C0E90A140125C56157
:103FB000C46080F830404561FDF7E1FE0F20CDE997
:103FC0000005694602940348FDF730FE7FBD0000FE
:103FD00000210140380500200100000F2DE9F047C5
:103FE00086B014216846FCF795F950480024016812
:103FF00041F010010160016801F0100105910168B4
:1040000041F080010160016801F0800105910168C3
:1040100041F004010160016801F0040105910168AB
:1040200041F001010160016801F0010105910168A1
:1040300041F002010160016801F00201059101688F
:1040400041F0080101600068394F00F00800059058
:10405000002215213846FEF7F7F8DFF8D880002255
:1040600075214046FEF7F0F8DFF8CC904FF250068D
:10407000002231464846FEF7E7F8DFF8C0A00022EC
:1040800028215046FEF7E0F8152000900125CDE9E3
:104090000154694638460394FDF7EEFF7520009001
:1040A000CDE90154694640460394FDF7E5FF48F227
:1040B0008A00CDE90004694640460294FDF7DCFF22
:1040C000E803CDE9000469461D480294FDF7D4FFDA
:1040D0004FF42040CDE90004694650460294FDF7B4
:1040E000CBFF0096CDE90154694648460394FDF79D
:1040F000C3FFE802CDE90004694638460294FDF7A3
:10410000BBFF0520CDE90004694648460294FDF74F
:10411000B3FF28200090CDE901546946504603942E
:10412000FDF7AAFF06B0BDE8F08700003038024076
:104130000008024000000240000C0240000402405F
:104140000010024010B596B000240F941094119402
:10415000129413941C2168461494FCF7DBF8202178
:1041600007A8FCF7D7F825482349016040F28331BE
:10417000C0E9011440F2E731C0E9031444618461ED
:10418000FEF7B2FE4FF480500F900FA91B48FEF7C8
:1041900012FF1A48FFF7EBF8139413A91748149469
:1041A000FEF75AFE6020CDE90004029403940494C3
:1041B00005940022694611480694FFF770F804221E
:1041C00069460E48FFF76BF8082269460B48FFF76F
:1041D00066F80794089409944FF400500A94CDE9C6
:1041E0000B4007A905480E94FEF70CFE0348FFF7A5
:1041F00001F816B010BD00000000014028060020A4
:1042000010B58EB000240794089409940A940B9476
:104210001C2168460C94FCF77DF81748154901608D
:1042200040F28331C0E9011440F2E731C0E90314E0
:104230008461FEF759FE4FF48050079007A90E489D
:10424000FEF7B9FE0C48FFF792F80B940BA90A4849
:104250000C94FEF701FE6020CDE9000402940C22CC
:10426000694605480494FFF71AF80348FEF7C2FFB1
:104270000EB010BD000400406806002010B58CB0E0
:1042800000240794089409941C2168460A94FCF7BA
:1042900041F814481249016040F28331C0E9011429
:1042A0006321C0E903148461FEF71EFE4FF48050C1
:1042B000079007A90B48FEF77EFE0A48FFF757F85C
:1042C0006020CDE900040294002269460548049468
:1042D000FEF7E5FF0348FEF78DFF0CB010BD0000B0
:1042E00000400140A8060020FEE770472DE9F0419C
:1042F0000025154E2C46012702213046FDF798FF78
:104300000028F9D0512002F0FFFA02213046FDF7D3
:104310008FFF01280BD0C4F1070007FA00F0854396
:10432000641CE4B2082CE7D32846BDE8F0810221E2
:104330003046FDF77DFF0128F9D0C4F1070007FAE8
:1043400000F0C0B20543EBE70000024030B585B095
:104350000446FDF74FFC284D002202212846FDF7B8
:1043600073FF1920FDF776FE012202212846FDF792
:104370006BFF5A2002F0C8FA022000900020019042
:104380000320039069462846FDF776FE0221284661
:10439000FDF74EFF70BB02212846FDF749FF0028BC
:1043A000F9D002212846FDF743FF0128F9D0FFF795
:1043B0009DFFA070FFF79AFFE070FFF797FF207056
:1043C000FFF794FF6070FFF791FF2071FDF712FC7B
:1043D000012202212846FDF737FFA078E1786278B4
:1043E00008442178114408442179884202D10020F0
:1043F00005B030BD0120FBE700000240012002F0C3
:104400009DFCFBE710B5502080F31188BFF34F8F60
:10441000BFF36F8F03F024FE18B104494FF08050B2
:104420000860002080F3118810BD000004ED00E05A
:1044300030B593B030216846FBF76CFF14210CA80F
:10444000FBF768FF19480025016841F080510160C1
:10445000006800F0805011901548016841F48041D7
:1044600001600068022400F4804011900120009057
:10447000000401908001CDE9064008AA04205A21D9
:1044800082E813000B906846FEF70CFB0CA90F2086
:1044900081E831004FF4A0500F90E002109002210B
:1044A0000CA8FEF7F5F913B030BD0000403802400B
:1044B000007000400548016841F470010160034943
:1044C0004FF00060803908607047000088ED00E020
:1044D00010B50448FEF7DBFDBDE810400248FEF7CA
:1044E000D6BD000028060020080B0020F0B50268A9
:1044F000254C264D264E274F274B4FF0804CA0428F
:1045000009D0604507D0A84205D0B04203D0B842D8
:1045100001D0984204D122F0700E4A6842EA0E029D
:10452000A0421BD0604519D0A84217D0B04215D088
:10453000B84213D0984211D0184DA8420ED0184D51
:10454000A8420BD0174DA84208D0174DA84205D05D
:10455000164DA84202D0164DA84203D122F4407550
:10456000CA682A434D6922F080022A4302608A68A1
:10457000C2620A688262A04201D0984201D10969F0
:10458000016301214161F0BD0000014000040040D1
:1045900000080040000C00400004014000400140C1
:1045A000004401400048014000180040001C004049
:1045B0000020004010B501F01F030121046A99405A
:1045C0008C430462016A9A401143016210BD10B528
:1045D000846842EA032224F47F440A43224382602F
:1045E00010BD826822F070020A4342F00701816028
:1045F00070470000F0B5026A22F001020262036A0D
:1046000042688469124E24F073050C682C4323F031
:1046100002058B682B430D4DA84201D0B04205D155
:1046200023F00807CB683B4323F00403A84201D0E2
:10463000B04205D14D6922F4407215438A692A437C
:1046400042608461496841630362F0BD000001403B
:1046500000040140F0B5026A22F010020262026A10
:10466000436884690D6824F4E64444EA05248D68AF
:1046700022F0200242EA05120F4D104EA84201D04E
:10468000B04206D1CF6822F0800242EA071222F03F
:104690004002A84201D0B04207D14D6923F44063E3
:1046A00043EA85038D6943EA850343608461496871
:1046B00081630262F0BD000000000140000401407F
:1046C000F0B5026A22F480720262026A4368C46929
:1046D00022F4007224F073050C68124E2C438D688E
:1046E00042EA05220E4DA84201D0B04206D1CF6861
:1046F00022F4006242EA072222F48062A84201D03A
:10470000B04207D14D6923F4405343EA05138D6944
:1047100043EA05134360C4614968C1630262F0BDA6
:10472000000001400004014030B5026A22F48052CA
:104730000262046A4268C3690D6823F4E64343EAEF
:1047400005238D6824F4005444EA0534084DA8423A
:1047500002D0084DA84204D14D6922F4804242EAB9
:1047600085124260C36149680164046230BD000083
:10477000000001400004014010B5036A046A24F0FF
:1047800001040462846924F0F00444EA021423F072
:104790000A020A438461026210BD10B5036A23F065
:1047A000100303628369046A23F4704343EA02320C
:1047B00024F0A00343EA01118261016210BD10B52B
:1047C000806B0021C185C184FEF71BFE10BD01680E
:1047D000CA6822F49072CA6001684A6922F0010234
:1047E0004A61202180F83A10704710B590F83A10CD
:1047F000222901D0022010BD8168B1F5805F11D05F
:104800000169002901681FD0496801F07F03816AAE
:104810004A1C82620B70C18D491E0904090CC185B6
:1048200018D02BE00269816A002A0268526805D01C
:10483000D2B20A80816A491C8162ECE7C2F30802A5
:104840000A80816A891CF7E74A68816A4B1C836287
:104850000A70E0E70168CA6822F02002CA600168B5
:10486000CA6822F48072CA6001684A6922F00102B3
:104870004A61202180F83A10FEF738FF002010BD71
:104880002DE9F041044600680169E26821F44051D5
:10489000114301612169A068E2690843616911431C
:1048A00008432168CA6849F20C639A430243CA600C
:1048B00020684169A26921F4407111434161E069B6
:1048C000192764253226B0F5004F354A354920684E
:1048D0004FF0000806D0884201D0904236D1FEF752
:1048E000A1F835E0884201D0904202D1FEF79AF853
:1048F00001E0FEF787F861684A18A0FB070148EB62
:104900000803FBF7BDFC0146B0FBF5F00201B1FB6B
:10491000F5F06FF01803584301EB800006EBC00080
:10492000B0FBF5F000F0F80002EB4002B1FBF5F04F
:10493000584301EB800006EBC000B0FBF5F000F03F
:104940000700216810448860BDE8F081FEF75AF83E
:1049500061688B0F8A00A0FB0701FBF791FC014601
:10496000B0FBF5F06FF01802504301EB800006EB4E
:104970000010B0FBF5F000F0F002B1FBF5F002EB37
:104980000012B1FBF5F06FF01803584301EB800003
:1049900006EB0010B0FBF5F000F00F00D1E70000CF
:1049A000001401400010014090F83910212901D075
:1049B000022070478168B1F5805F016A0BD04A1C04
:1049C0000262026809785160C18C491E0904090C11
:1049D000C1840ED017E009880268C1F30801516054
:1049E00001690029016A02D0491C0162ECE7891CB7
:1049F000FBE70168CA6822F08002CA600068C168EB
:104A000041F04001C160002070472DE9F041984617
:104A100017460E460446069D1DE0681C1BD02DB1AE
:104A2000FDF718FCA0EB0800A84214D92068C16863
:104A300021F4D071C1602068416921F00101416118
:104A4000202084F8390084F83A00002084F83800E7
:104A50000320BDE8F0812068006836EA000004D039
:104A60000020B842D9D00020F3E70120F9E7000088
:104A70000148FEF7C7BC0000E80600200148FEF729
:104A8000C1BC0000280700200148FEF7BBBC0000A5
:104A900068070020FEE700000FB4084B10B504A91A
:104AA00002AA039801F088FA044602A9002001F046
:104AB0001AFE204610BC5DF814FB0000E7660008F3
:104AC00003B401984100009850EAC12018BF0420A7
:104AD0004A0D18BF40F0010040F2FF72B2EB515F87
:104AE00008BF40F00200012808BF052002B070474F
:104AF0000907090E002804DB00F1E02080F800140B
:104B0000704700F00F0000F1E02080F8141D70479E
:104B100070B5D94B00242DED020B2DED108BDDE986
:104B20001010984205DA20F000429A4201D809D1CB
:104B300041B19DED100BBDEC108B02B0BDE8704093
:104B400001F01EB9B0F5801F26DA11430BD0002802
:104B500013DA012001F068F9BDEC108B02B0BDE85A
:104B6000704001F021B9022001F05EF901F0F0F887
:104B700051EC100B81F000419EE06FF035049FED89
:104B8000C00B53EC102B9DED100B51EC100BFBF7F1
:104B900092FCCDE91001084604EB2051C0F3130448
:104BA000B948A1F2FF31204400F4801080F07F6208
:104BB00082F04052224301EB20559FEDB50B11923C
:104BC00053EC102B9DED100B51EC100BFBF76DFC13
:104BD00041EC180BA01CC0F313009FEDAFDB9FED61
:104BE000B0EBB14E7E4403286CD296ED000B51EC35
:104BF000180B53EC102BFBF7B3FE1DD1002D01BF9A
:104C000096ED000BBDEC108B02B070BD2846FBF793
:104C100033FD41EC180B53EC1D2BFBF74CFC41EC26
:104C2000190B53EC1E2B51EC180BFBF744FC53EC07
:104C3000192BFBF799FB3FE09FED9D0B51EC180BF7
:104C400053EC102BFBF737FC9FED9B1B53EC112B08
:104C5000FBF72EFC41EC190B53EC182B51EC180B05
:104C6000FBF729FC53EC192BFBF725FC41EC190B46
:104C7000002D04BF53EC192B51EC180B1AD0284609
:104C8000FBF7FAFC41EC1A0B53EC1D2BFBF713FC62
:104C900053EC192BFBF70CFC53EC182BFBF705FC22
:104CA00041EC180B53EC1E2B51EC1A0BFBF703FCD9
:104CB00053EC182BFBF7F9FBBDEC108B02B041EC69
:104CC000100B70BD9FED7E0B51EC180B53EC102BAD
:104CD000FBF74AFB41EC100B51EC180B53EC102B7B
:104CE000FBF75BFC41EC190B2846FBF7C5FC41ECDC
:104CF0001B0B53EC192B51EC190BFBF7DCFB41ECB4
:104D00001A0B714853EC1A2B261851EC1A0BFBF7AF
:104D1000D2FB41EC1F0B6D48C4F1510404F5D724BC
:104D2000B0EE4F0AF0EE6F0A0321784400F094FFD2
:104D300053EC1F2B51EC100BFBF7BDFB41EC1C0B94
:104D40006348B0EE4F0AF0EE6F0A0421784400F099
:104D500083FF53EC1A2B51EC100BFBF7ACFB3443E5
:104D600053EC1C2BFBF700FB41EC1C0B002C4CDD27
:104D70009FED510B51EC180B53EC102BFBF79BFBE9
:104D800053EC182BFBF797FB41EC1A0B55B353EC84
:104D90001D2B51EC1B0BFBF78EFB41EC1D0B53EC59
:104DA0001C2B51EC1A0BFBF7DFFA53EC192BFBF71A
:104DB00082FB53EC1D2BFBF7D7FA53EC1A2BFBF7B6
:104DC00077FB53EC182BFBF770FB41EC180B53EC03
:104DD0001E2B51EC1B0BFBF76EFB53EC182BFBF758
:104DE00064FB69E753EC1C2B51EC1A0BFBF7BCFA84
:104DF00053EC192BFBF75FFB53EC1A2BFBF758FB1B
:104E000053EC182BFBF754FB56E735B353EC1D2B33
:104E100051EC1B0BFBF74FFB41EC1A0B53EC1C2B1B
:104E200051EC180BFBF741FB53EC192BFBF743FB41
:104E300053EC1A2BFBF739FB53EC182BFBF735FB24
:104E400041EC180B53EC1E2B51EC1B0BFBF733FB07
:104E500053EC182BFBF729FB2EE753EC1C2B51ECE2
:104E6000180BFBF722FB53EC192BFBF724FB53EC3D
:104E7000182BFBF71DFB1FE70000F07F0000000070
:104E80000000000000005043645F090000000000C3
:104E9000000000000000F03F763C7935EF39EA3D34
:104EA0000000E0FE422EE63FC03700000000000098
:104EB000555555555555D53F000000000000E03FC1
:104EC000000000000000004086EBF9FF42360000C1
:104ED000383600000000000070B5414A00252DED75
:104EE000020B2DED048BDDE90404944205DA24F075
:104EF0000041914201D809D140B19DED040BBDECB8
:104F0000048B02B0BDE8704000F03ABFB4F5801FDA
:104F100026DA08430BD0002C13DA012000F084FFBE
:104F2000BDEC048B02B0BDE8704000F03DBF022034
:104F300000F07AFF00F00CFF51EC100B81F0004103
:104F400046E09FED290B6FF0350553EC102B9DEDDE
:104F5000040B51EC100BFBF7AEFACDE904010C4643
:104F600005EB2450A0F2FF30C10F40F2FF32521A7D
:104F700062F31F540844FBF77FFB05949DED040B7F
:104F800041EC180B51EC100B01F0D8FD9FED181BF4
:104F900053EC112BFBF78FFA9FED170B41EC190B1C
:104FA00053EC102B51EC180BFBF785FA53EC192B33
:104FB000FBF7DAF99FED120B41EC190B53EC102BB8
:104FC00051EC180BFBF777FA53EC192BFBF7CCF9E4
:104FD000BDEC048B02B041EC100B70BD0000000072
:104FE0000000F07F000000000000000000005043BF
:104FF0000EE526157BCBDB3F362BF111F3FE593D39
:1050000000609F501344D33F2DE9F04D2DED040B6C
:105010002DED0E8B96B0DDE92550279CDDF890A094
:1050200025F0004624F00048BAF1000F14BF01211A
:10503000002101EB4502FC4953184A1093422AD340
:10504000002814BF0123002303EB44030B44F7495A
:105050008B4220D358EA00019FEDF59B76D0DFF814
:10506000D8B35D4503D1BAF1000F05D188E0BAF19C
:10507000000F08BF002100D0012101EB450111F50F
:10508000001F08D8002814BF0121002101EB4401B2
:1050900011F5001F0BD99DED261B9DED240B16B0BD
:1050A000BDEC0E8B04B0BDE8F04D00F073BE0027E0
:1050B000002DBCBFE149884521DAE1498845A8BFF8
:1050C00002271CDAC3451ADCDE4901EB28511429FA
:1050D00008DDC1F1340220FA02F101FA02F2824243
:1050E0000DD108E058B9C1F1140228FA02F101FA11
:1050F00002F2424503D101F00101C1F1020756EA73
:105100000A0124D1002C22DA002D18BF022F01D071
:10511000012F0AD0022000F087FE16B0BDEC0E8BE6
:1051200004B0BDE8F04D00F013BE022000F07CFE9C
:1051300000F00EFE51EC100B81F0004141EC100B21
:1051400016B0BDEC0E8B04B0BDE8F08D18E09FEDFD
:10515000BEAB9FEDBF8B002871D1B848804522D1EE
:1051600005F1804010F5801008BFBAF1000F07D09C
:10517000B3450ADC002CA8BF9DED260BE0DA0DE05C
:10518000B0EE490AF0EE690ADAE7002C06DA9DED86
:10519000260B51EC100B81F000416FE0AE487844D3
:1051A00090ED000BCCE7D8454DD1002C48DA2EB15C
:1051B00086423AD1BAF1000F42D126E0BAF1000F8F
:1051C00013D0022000F030FE00F0FEFD8DED020B4A
:1051D0009DED240B8DED000B10EE900A039961F309
:1051E0001E0003909DED020BAAE78DED02AB9DED35
:1051F000240B1AEE901A10EE900A8DED000B61F35D
:105200001E0003909DED020B9AE78DED028B9DED44
:10521000240B18EE901A10EE900A8DED000B61F33E
:105220001E0003909DED020B8AE709DA9DED240B29
:1052300051EC190B53EC102BFBF7AFF91EE020E0FB
:105240009DED240B7CE786421BDAB4F1804F0DD034
:10525000A4F10050B0F1FF5013D1002D11DB9DEDF2
:10526000240B51EC100B02F0CBFB07E09DED240B5F
:1052700053EC102B51EC100B00F0C2BC41EC100BA6
:105280005EE79DED240B51EC100B01F091FBBAF1A0
:10529000000FCDE90E0142D19FED710B46B3A6F18F
:1052A000E040B0F17F600CD05E4538D1002D00DACF
:1052B000A7B3022F0CBF01204FF0FF30FBF7DCF942
:1052C000DCE7002D01DD002C0DDA002D01DD002CC6
:1052D0001FDB002D16DA002C14DB012F08BF9FED19
:1052E000620B3FF42DAFB0EE4A0AF0EE6A0A27E7F0
:1052F000022F18BF002D0CD0012F0AD1002DFFF670
:105300001FAF06E0002DB8BF002C08DA012F3FF4D4
:1053100017AFB0EE480AF0EE680A11E71BE0012073
:1053200000EBE57050EA070115D0791EB0EE498A0E
:10533000F0EE698A084308BF9FED4D8B4E4800256B
:10534000804570DD4D494E48884514DDB0420DDB87
:10535000002C19DB2FE0012000F066FD16B0BDEC3B
:105360000E8B04B0BDE8F04D00F01EBDB34502DC6D
:10537000002C09DC1FE0864202DA002C1BDA03E075
:105380005E452BDD002C16DD022000F04DFD00F007
:105390001BFD8DED020B53EC1A2B51EC180BFBF798
:1053A0008AF8CDE900010399019861F31E0003908A
:1053B0009DED020BC4E6022000F036FD00F014FD66
:1053C00010EE901A18EE900A8DED020B8DED008B09
:1053D00061F31E0003909DED020BB1E69DED0E0BF7
:1053E00053EC192B51EC100BFBF75FF89FED260BDC
:1053F000CDE9080153EC102B9DED080B51EC100B7F
:10540000FBF759F89FED221B53EC112BFBF750F8DB
:105410009DED081B53EC112BFBF74DF89FED1E1B68
:1054200053EC112B3CE08CE0FFFF1F00FFFF0F004F
:10543000000000000000F03F0000F03F0000F07F9F
:105440000000404301FCFFFF000000000000F07F6F
:105450000000000000000000063200000000000014
:105460000000000000000080000000000000F0FFCD
:10547000000000000000F0BF0000E0410000F04329
:10548000FFFFEF3F00000000000000000000D03FE1
:10549000555555555555D53F000000000000E03FDB
:1054A000FBF706F89DED080B41EC1A0B53EC102BA3
:1054B00051EC100BFAF7FFFF53EC1A2BFAF7FBFF36
:1054C00041EC1A0B9FEDFE0B53EC102B9DED080BDE
:1054D00051EC100BFAF7EFFF41EC1B0B9FEDFA0BB1
:1054E00051EC1A0B53EC102BFAF7E5FF41EC1A0BB9
:1054F0009FEDF70B53EC102B9DED080B51EC100BAF
:10550000FAF7D9FF53EC1A2BFAF7CFFF41EC1A0B3D
:1055100051EC1B0B53EC1A2BFAF726FF0690CDE942
:1055200006519DED060B53EC1B2B51EC100BFAF7BB
:10553000BCFF53EC1A2BFAF7BBFF41EC100B00F049
:10554000A1B90020B6F5801F0EDA9FEDE30B53ECF6
:10555000102B9DED0E0B51EC100BFAF7ACFFCDE9C3
:105560000E016FF034000E4600EB2650A0F2FF371C
:10557000C6F31300DA4940F07F6646F04056884291
:10558000D8BF002408DDD7498142C8BF012403DC0D
:105590000024A6F580167F1CD348784400EBC40095
:1055A0000F9690ED00CB9DED0E0B53EC1C2B51ECA8
:1055B000100BFAF77AFF9DED0E0B41EC1B0B53EC31
:1055C0001C2B51EC100BFAF7CFFE41EC100B51ECF9
:1055D000190B53EC102BFAF7E0FF41EC1D0B51ECCB
:1055E0001B0B53EC1D2BFAF766FF41EC1A0BBF485F
:1055F0008DED10AB7844109590ED000B4FF00050FE
:1056000040EA660000EB84408DED080B00F50020B9
:1056100009909DED080B53EC1C2B51EC100BFAF785
:1056200044FF9DED0E1B53EC112BFAF741FF41ECAB
:10563000100B53EC102B9DED100B51EC100BFAF7E7
:105640003AFF9DED080B41EC1C0B53EC102B9DED2C
:10565000100B51EC100BFAF72EFF53EC1B2BFAF743
:1056600027FF53EC1C2BFAF720FF53EC1D2BFAF706
:1056700022FF41EC1C0B53EC1A2B51EC1A0BFAF7DE
:105680001AFF41EC1B0B9A480621B0EE4B0AF0EED4
:105690006B0A784400F0E0FAB0EE401AF0EE601ABF
:1056A000B0EE41DAF0EE61DA53EC1B2B51EC1B0B40
:1056B000FAF701FF53EC1D2BFAF7FDFE9DED100BE1
:1056C00041EC1B0B53EC1A2B51EC100BFAF74CFE70
:1056D00053EC1C2BFAF7EFFE53EC1B2BFAF744FEAE
:1056E0009DED100B41EC1B0B53EC102B51EC100BF0
:1056F000FAF7E1FE41EC1D0B9FED7FEB53EC1E2B07
:10570000FAF732FE53EC1B2BFAF72EFE0890CDE988
:1057100008519DED080B53EC1E2B51EC100BFAF7C2
:10572000C4FE53EC1D2BFAF7C0FE53EC1B2BFAF70B
:10573000BFFE9DED080B41EC1D0B53EC102B9DEDB6
:10574000100B51EC100BFAF7B6FE41EC1B0B53ECAF
:105750001A2B51EC1D0BFAF7AEFE9DED080B41EC38
:105760001A0B53EC102B51EC1C0BFAF7A4FE53EC64
:105770001A2BFAF7F9FD41EC1A0B51EC1B0B53EC09
:105780001A2BFAF7F1FD0C90CDE90C519DED0C0BA5
:1057900053EC1B2B51EC100BFAF787FE53EC1A2B32
:1057A000FAF786FE41EC1B0B9FED550B53EC102BCB
:1057B0009DED0C0B51EC100BFAF77DFE41EC1A0B32
:1057C0009FED510B51EC1B0B53EC102BFAF773FEB2
:1057D00041EC1B0B9FED4E0B53EC102B9DED0C0B76
:1057E00051EC100BFAF767FE53EC1B2BFAF7BCFDDC
:1057F00041EC100B4848784400EBC40090ED001BCE
:1058000051EC100B53EC112BFAF7AEFD41EC1B0BD6
:105810003846FAF731FFCDE9080153EC1B2B51EC68
:105820001A0BFAF7A1FD41EC100B3C48784400EB51
:10583000C40090ED00CB51EC100B53EC1C2BFAF78D
:1058400093FD9DED081B53EC112BFAF78DFD06908F
:10585000CDE906519DED080B53EC102B9DED060B89
:1058600051EC100BFAF721FE53EC1C2BFAF71DFE3E
:1058700053EC1A2BFAF719FE53EC1B2BFAF718FE10
:1058800041EC100B9DED261B53EC102B8DED001BF6
:1058900000959DED260B51EC100BFAF70CFE9DEDDB
:1058A000000B41EC1A0B53EC102B9DED260B51EC29
:1058B000100BFAF7FAFD9DED061B53EC112B2FE0B0
:1058C000000000604715F73FFE822B654715F73F44
:1058D00044DF5DF80BAE543E000000000000404382
:1058E0008E9803007AB60B004A2D0000B02D000000
:1058F000822C0000000000000000000000000840B2
:10590000000000E009C7EE3FFD033ADC09C7EE3FA7
:10591000F5015B14E02F3EBE0E2B0000C82A0000EC
:10592000FAF7C9FD53EC1A2BFAF71EFD9DED060B95
:1059300041EC1A0B53EC102B9DED000B51EC100BAE
:10594000FAF7B9FDCDE90C019DED0C0B51EC1A0BEA
:1059500053EC102BFAF708FDCDE902010C46AA49D9
:105960008C422FDB611A084318D19DED0C0B53ECD0
:10597000102B9DED020B51EC100BFAF796FD41EC4C
:105980001B0B9FEDA30B51EC1A0B53EC102BFAF7EA
:10599000EBFC53EC1B2BFAF767FF2DD2022000F033
:1059A00043FA00F011FA10EE901A18EE900A8DEDFD
:1059B000020B8DED008B61F31E0003909DED020B39
:1059C000FFF7BEBB944A24F00041914214D393499F
:1059D000214408437FF4EFAC9DED0C0B53EC102BEE
:1059E0009DED020B51EC100BFAF75FFD53EC1A2BF7
:1059F000FAF73AFF7FF6DFAC24F000408849894A85
:105A0000002601EB205182422BDA481C4FF4801112
:105A100021FA00F02044844AC0F30A517A44A1F2EA
:105A2000FF3192ED000B814A8DED080BCA4020EA50
:105A30000202C0F3130040F48010C1F1140120FAF7
:105A400001F60992002CB8BF76429DED080B53EC8D
:105A5000102B9DED0C0B51EC100BFAF726FDCDE948
:105A60000C019DED0C0B51EC1A0B53EC102BFAF7BB
:105A70007BFC9FED6F0B0890CDE9085153EC102B88
:105A80009DED080B51EC100BFAF715FD41EC1B0BCB
:105A90009FED690B53EC102B9DED080B51EC100B97
:105AA000FAF709FD9DED0C0B41EC1C0B53EC102B90
:105AB0009DED080B51EC100BFAF7F7FC53EC1A2B89
:105AC000FAF7F6FC9FED5E1B53EC112BFAF7F3FC93
:105AD00053EC1C2BFAF748FC41EC1A0B51EC1B0B56
