:020000040800F2
:10000000104D00205D020008A73B000835300008B5
:10001000A53B0008390D0008D54400080000000089
:100020000000000000000000000000009D0100082A
:100030005D0D000800000000F9010008353D0008D2
:1000400077020008770200087702000877020008AC
:10005000770200087702000877020008770200089C
:10006000770200087702000877020008770200088C
:10007000770200087702000877020008770200087C
:10008000770200087702000877020008770200086C
:10009000770200087702000877020008770200085C
:1000A00077020008013E0008770200087702000886
:1000B000770200087702000877020008770200083C
:1000C000770200087702000877020008770200082C
:1000D00077020008B144000877020008BD44000818
:1000E0005F0D000877020008770200087702000819
:1000F000770200080D3E000877020008770200082A
:1001000077020008770200087702000877020008EB
:1001100077020008770200087702000877020008DB
:1001200077020008770200087702000877020008CB
:1001300077020008770200087702000877020008BB
:1001400077020008770200087702000877020008AB
:10015000770200087702000877020008C944000807
:10016000770200087702000877020008770200088B
:1001700077020008770200087702000800000000FC
:100180007702000877020008DFF80CD000F060FC6E
:1001900000480047C56E0008104D00202C4B196820
:1001A0000868B0E8F04F80F30988BFF36F8F4FF015
:1001B000000080F3118870470000000008480068C4
:1001C000006880F308884FF0000080F3148862B65E
:1001D00061B6BFF34F8FBFF36F8F00DF00BF00BF6B
:1001E00008ED00E0DFF80C00016841F470010160E7
:1001F000704700BF88ED00E0EFF30980BFF36F8F19
:10020000134B1A681EF0100F08BF20ED108A20E96A
:10021000F04F106009B44FF0500080F31188BFF325
:100220004F8FBFF36F8F08F05FFB4FF0000080F33C
:10023000118809BC19680868B0E8F04F1EF0100F6B
:1002400008BFB0EC108A80F30988BFF36F8F704746
:1002500094000020EFF305807047000006488047B7
:1002600006480047FEE7FEE7FEE7FEE7FEE7FEE79B
:10027000FEE7FEE7FEE7FEE7E53D0008890100082E
:100280002DE9F05F0546002092469B4688460646CB
:10029000814640241BE0284641464746224600F05E
:1002A000A2FA53465A46C01A914110D31146184635
:1002B000224600F089FA2D1A67EB01084F462246C4
:1002C0000120002100F080FA17EB00094E41201EAA
:1002D000A4F10104DFDC484631462A464346BDE826
:1002E000F09F40EA01039B0703D009E008C9121FF1
:1002F00008C0042AFAD203E011F8013B00F8013BE0
:10030000521EF9D27047D2B201E000F8012B491E0B
:10031000FBD270470022F6E710B513460A460446A2
:100320001946FFF7F0FF204610BD421C10F8011BD4
:100330000029FBD1801A7047034611F8012B00F801
:10034000012B002AF9D11846704730B50546002028
:10035000034600E05B1C934205D2EC5CC85C201AAB
:1003600001D1002CF6D130BD70B5064604F0F8F886
:10037000046805460A220021304600F056FA2C6037
:1003800070BD2DE9FE4F804681EA0300C00F0C4688
:10039000009021F0004123F00045B8EB0200A94194
:1003A00005D24046214690461C460B46024623F0A5
:1003B0000040104347D0270DC7F30A00C3F30A518A
:1003C0000290401A019040286BDAC3F3130040F406
:1003D000801B0098924620B10023D2EB030A63EB06
:1003E0000B0B01985946C0F14002504600F0ECF961
:1003F00006460D4650465946019A00F004FA10EBA5
:1004000008006141002487EA115284EAE7731A4325
:1004100040D0009A62B3019A012A4FEA075215DCD4
:10042000001B61EB02014FF0004202EA0752CDE9E6
:100430000042001C41F5801132462B4600F073FA51
:1004400003B0BDE8F08F40462146F9E7001B61EBA1
:100450000201001C41F5801300185B412018A2F531
:10046000001747EB030140EAD570B6196D4111E062
:100470006D084FEA360645EAC0754FEA0752001B81
:1004800061EB0201001C41F5801149084FEA300080
:100490000019514132462B4603B0BDE8F04F00F041
:1004A00033BA0098012240000023D0EB020263EB34
:1004B000E073009821464FEAE074B8EB000061EB6E
:1004C0000401E9E783F000435BE781F0004158E76E
:1004D0002DE9FE4F81EA030404F0004421F00041BD
:1004E00000944FF0000B23F0004350EA01045ED06B
:1004F00052EA03045BD0C3F30A54C1F30A552C44F7
:10050000A4F2F3340194A0FB0254C1F3130141F4AB
:100510008011C3F3130343F4801301FB024400FB77
:10052000034E840A970A44EA815447EA8357A4FB9E
:10053000076802958D0A05FB07854FEA932C04FB9B
:100540000C542705029D4FEA065847EA1637B5EBCB
:1005500008056EEB070C870E920E47EA811742EAF8
:100560008312A7FB0201B6EB0B0164EB00042B0D19
:1005700043EA0C335E1844EB1C50DA465146E7FB65
:100580000201C5F313044FEA0B3343EA14534FEA55
:100590000432019C43EA0603A4F10C040294009C7B
:1005A000CDE900B400F0BFF903B0BDE8F08F002042
:1005B0000146F9E72DE9F04D81EA030404F0004B10
:1005C00021F0004514464FF0000A23F0004150EAA4
:1005D000050220D054EA01021DD0C5F30A57024695
:1005E000C5F31303C1F31300C1F30A5640F4801599
:1005F00043F48013A7EB0608101BD64608F2FD381B
:1006000073EB050002D308F1010801E092185B4189
:10061000B8F1000F03DA00200146BDE8F08D00209C
:100620004FF48011064684460EE0171B73EB050756
:1006300005D3121B63EB050306434CEA010C490882
:100640004FEA300092185B4150EA0107EDD152EABF
:10065000030012D082EA040083EA0501084305D0B2
:10066000101BAB4106D20122002306E000224FF00E
:10067000004302E06FF0010253101AEB06004CEB4E
:10068000085110EB0A0041EB0B01BDE8F04D00F002
:100690003BB90EB5C10F80EAE0700844CA070021DB
:1006A00040F233438DE80E000A460B4600F03BF95A
:1006B00003B000BD0EB540F2334102910021CDE9F7
:1006C00000110A460B4600F02EF903B000BD70B5CC
:1006D000C1F30A5201F000450024C1F3130140F2B6
:1006E000FF3341F480119A4201DA002070BD40F2DC
:1006F00033439A42A2F2334203DC524200F073F8D1
:1007000000E090402C43F1D0404270BDC1F30A524A
:1007100010B5C1F3130140F2FF3341F480119A4246
:1007200001DA002010BD40F233439A42A2F2334274
:1007300003DC524200F057F810BD904010BD00F0AD
:10074000004230F000400AD0C10D01F56071C0F3E5
:10075000160042EA0151C2084007114370470020C9
:100760000146704701F0004330B421F0004150EAE7
:10077000010206D00A0DA2F56072C1F31301002A2E
:1007800002DC30BC00207047440F44EAC104C100C1
:10079000E01830BC00EBC25000F07FB830B50B461B
:1007A000014600202022012409E021FA02F59D42A1
:1007B00005D303FA02F5491B04FA02F52844151E75
:1007C000A2F10102F1DC30BD202A04DB203A00FA5C
:1007D00002F1002070479140C2F1200320FA03F398
:1007E000194390407047202A04DB203A21FA02F096
:1007F0000021704721FA02F3D040C2F1200291405B
:10080000084319467047202A06DBCB17203A41FAE5
:1008100002F043EAE07306E041FA02F3D040C2F18D
:10082000200291400843194670472DE9F047914650
:100830000F4680460446002614F8015B2DB100F0F7
:1008400019F90068405DC007F6D12B2D02D02D2D7F
:1008500018D0641E4A463946204600F00FF927B1E9
:100860003968A14201D1C7F8008071054FF0020438
:100870000BD54042002803DD03F072FE0460A007A0
:10088000BDE8F08746F48066E4E70028F8DA03F074
:1008900067FE04606FF00040F2E70029A8BF7047D0
:1008A000401C490008BF20F00100704710B4B0FAA6
:1008B00080FC00FA0CF050EA010404BF10BC704741
:1008C00049B1CCF1200421FA04F411FA0CF118BF5B
:1008D000012121430843A3EB0C01CB1D4FEA00612A
:1008E0004FEA102042BF002010BC704700EBC350FD
:1008F00010440029A4BF10BC7047401C490008BF29
:1009000020F0010010BC704710B5141E73F10004F4
:1009100008DA401C41F1000192185B411A4301D1F1
:1009200020F0010010BD2DE9F04D92469B4611B11B
:10093000B1FA81F202E0B0FA80F220329046FFF77D
:1009400043FF04460F4640EA0A0041EA0B015346C2
:100950005A46084313D0114653EA010019D0C8F192
:1009600040025046FFF73FFF05460E4650465946A7
:100970004246FFF729FF084305D0012004E0204646
:100980003946BDE8F08D0020054346EAE0762C4369
:1009900037430A986305E40AA0EB08000022FD0A29
:1009A00044EA47540A3002D500200146E9E7010530
:1009B00010196941DDE9084500196941BDE8F04DAC
:1009C000A2E770B521F0004303430CD0C1F30A55F0
:1009D0000024D5EB040564EB0403D617AD1AB3412C
:1009E00002DB0020014670BD201841EB025170BDB2
:1009F000C1F30A52C1F3130140F2FF3341F48011F5
:100A00009A4202DA00200146704740F233439A428C
:100A1000A2F2334202DC5242FFF7E5BEFFF7D4BE3A
:100A200030B5041E71F1000404DB4FF00044404275
:100A300064EB0101141E73F1000405DB1C464FF04A
:100A40000043524263EB0403994208BF904230BD19
:100A5000064C074D06E0E06840F0010394E807000B
:100A600098471034AC42F6D3FFF792FBD8970008B2
:100A7000F897000800487047B49700082DE9F05F28
:100A800082460078002715468B460AF10104B946D4
:100A9000302801D09DB113E014F8010B012778280C
:100AA00003D0582801D045B10AE00DB1102D07D16F
:100AB0000027102514F8010B02E0082500E00A25A4
:100AC0000026B0460EE005FB080005FB06F10127F5
:100AD00001EB10461FFA80F8B6F5803F00D3B94607
:100AE00014F8010B294600F081F80028EBDABBF17D
:100AF000000F05D00FB1641E00E05446CBF8004053
:100B0000B9F1000F06D003F02BFD02210160C81ED1
:100B1000BDE8F09F48EA0640FAE72DE9F04D0023D2
:100B20001A461B1A8A4103DB00200146BDE8F08DFE
:100B3000C1F30A52C1F3130141F480154FF0000BC9
:100B4000D10702D100186D41521E0027044640F221
:100B5000FF11384601EB620A3E46804602460020FD
:100B60004FF48011FFF73FFEC2197141BB1846EBED
:100B70000100B4EB030C75EB000C04D3E41A65EB35
:100B8000000517460E46241908F101006D41804604
:100B90003428E3DDF91946EB0600091BA84103D20E
:100BA0004FF0FF32134601E0002213461BEB070013
:100BB00046EB0A51BDE8F04DFFF7A6BE30B5041E66
:100BC00071F1000404DB4FF00044404264EB01018A
:100BD000141E73F1000405DB1C464FF00043524223
:100BE00063EB04038B4208BF824230BD3A2800D237
:100BF000303820F02002412A01D3A2F13700884288
:100C000001D34FF0FF3070474A494A6822F440321E
:100C10004A604A6843681A434A6001684A6822F495
:100C200080724A6001684A68036942EA03224A60A6
:100C300001684A6822F040724A6001684A68836825
:100C40001A434A6001688A6822F400628A60016877
:100C50008A68C3681A438A60816A6FF07062D14201
:100C600014D001688A6822F070628A6001688A681C
:100C7000836A1A438A6001688A6822F040528A6057
:100C800001688A68C36A1A438A6009E001688A6851
:100C900022F070628A6001688A6822F040528A609D
:100CA00001688A6822F002028A6001688A68037E0D
:100CB00042EA43028A6090F8201089B101684A68CC
:100CC00042F400624A6001684A6822F460424A6065
:100CD00001684A68436A5B1E42EA43324A6004E0A4
:100CE00001684A6822F400624A600168CA6A22F414
:100CF0007002CA620168CA6A838B5B1E42EA0352B1
:100D0000CA6201688A6822F400728A6001688A688F
:100D100090F8303042EA43228A6001688A6822F4FF
:100D200080628A6001688A68406942EA802088603F
:100D30007047000000230140FEE7000010B500F0FE
:100D40003FF801222021044800F0C2FCBDE8104019
:100D50004FF4FA7000F0EEBA00000240704710B590
:100D60004FF4005000F06CFBBDE810404FF4004021
:100D700000F066BB10B505F0FFFE0446642000F0ED
:100D8000D9FAB4B9642000F0D5FA012006F04AF887
:100D90000446642000F0CEFA5CB94FF4967000F07F
:100DA000C9FA07F0EBF804464FF4FA7000F0C2FA03
:100DB0000CB1002010BD642000F0BCFA012010BD71
:100DC0000B4800B5016887B041F00101016000687F
:100DD000694600F00100059020200090012001905C
:100DE00003200390034800F037FB07B000BD00006C
:100DF000303802400000024038B44FF0000CCDF80B
:100E000000C090F83C20012A1BD0012280F83C2031
:100E10000A680724092A17D90368DD680A3A02EB31
:100E2000420204FA02F225EA0202DA600A788B68CA
:100E30000A3A02EB420293400268D4682343D3602B
:100E400014E038BC0220704703681D6902EB4202BF
:100E500004FA02F225EA02021A610A788B6802EBB0
:100E60004202934002681469234313614A681F24B5
:100E7000072A15D203685D6B521E02EB820204FA48
:100E800002F225EA02025A630A8893B20A79521ED4
:100E900002EB820293400268546B234353632CE0BD
:100EA0000D2A15D203681D6BD21F02EB820204FAD1
:100EB00002F225EA02021A630A8893B20A79D21F63
:100EC00002EB820293400268146B2343136314E025
:100ED0000368DD6A0D3A02EB820204FA02F225EAA7
:100EE0000202DA620A8893B20A790D3A02EB8202B0
:100EF00093400268D46A2343D362184A184B0468AB
:100F00009C4206D10C68122C03D1546844F480042E
:100F1000546004689C421CD10B68102B01D0112B2B
:100F200017D1536843F4000353600968102910D1A6
:100F30000C490D4A0968B1FBF2F101EB810149004E
:100F40000091009929B10099491E0091009900294A
:100F5000F9D180F83CC038BC002070470023014024
:100F6000002001408400002040420F000068C06C57
:100F7000704770B504460025002C03D0206C002675
:100F800010B107E0012070BD204600F01DF8666436
:100F900084F83C60206C10F0100F04D0012584F818
:100FA0003C60284670BD206C20F4885040F0020060
:100FB00020642046FFF728FE6664206C20F00200C3
:100FC00040F001002064EAE770B586B004461421C1
:100FD0006846FFF79FF91D491B4E256800231B4AF1
:100FE000143903241A48B54211D1156845F48075A7
:100FF0001560126802F4807205920A6842F00402D9
:101000000A60096801F004010591082113E0114EFE
:10101000B54216D1156845F400751560126802F4E2
:10102000007205920A6842F004020A60096801F041
:10103000040105912021CDE900140293694600F0D6
:101040000BFA06B070BD0000002001404438024099
:1010500000080240002101402DE9F04104460D4600
:10106000206881684FF0000711F4806F0CD0806811
:1010700010F4807F08D0206C40F02000206484F8B9
:101080003C700120BDE8F08100F02AFB0646206894
:10109000006810F0020F16D1B5F1FF3F0ED025B158
:1010A00000F01EFB801BA84208D9206C40F0040011
:1010B000206484F83C700320BDE8F081206800685B
:1010C00010F0020FE8D021686FF012000860206C69
:1010D00040F4007020642068816811F0405F15D1F1
:1010E000217E99B9C16A11F4700F03D0806810F4A1
:1010F000806F0BD1206C20F480702064206C10F481
:10110000805F03D1206C40F0010020640020BDE826
:10111000F081000081B00022009290F83C1001297B
:1011200008D0012180F83C1001688B6813F0010F92
:1011300003D016E0022001B070478B6843F0010332
:101140008B603549354B0968B1FBF3F101EB410187
:101150000091009929B10099491E00910099002938
:10116000F9D101688B6813F0010F51D0036C23F0A3
:10117000010323F4C06343F4807303644B6813F4E6
:10118000806F05D0036C23F4005343F48053036451
:10119000036C13F4805F04D0436C23F006034364B4
:1011A00000E0426480F83C201D4A6FF022030B608F
:1011B000516811F01F0F1B4907D00068884227D1E2
:1011C000816811F0405F1FD022E00068884212D091
:1011D000154A904204D1D1F8042312F01F0F0AD00F
:1011E000A0F18042B2F5913212D1D1F8041301F08E
:1011F0001F0110290CD2816811F0405F08D181686D
:1012000041F08041816003E0816841F0804181606C
:10121000002001B0704700008400002040420F0011
:1012200000230140002001400021014090F83C10C3
:1012300001290DD0012180F83C1001688A6822F054
:1012400001028A600168896811F0010F02D007E08D
:1012500002207047016C21F4885141F001010164C2
:10126000002180F83C10002070472DE9F041044631
:10127000A66D00F035FA054694F8350000270228DF
:1012800006D08020606584F834700120BDE8F081CC
:101290002068016821F0160101602068416921F091
:1012A00080014161206C08B9A06C20B12068016800
:1012B00021F0080101602068016821F0010101604E
:1012C0002068006810F0010F12D000F009FA401BEE
:1012D000052808D92020606584F83470032084F83C
:1012E0003500BDE8F0812068006810F0010FECD1F6
:1012F00094F85C003F2101FA00F0B06084F834708B
:10130000012084F835000020BDE8F08190F8351008
:10131000022903D08021416501207047052180F812
:1013200035100068016821F001010160002070475C
:10133000406D704770B5044600F0D2F90546B4F12F
:10134000FF3F02D004480078044400F0C9F9401B74
:10135000A042FAD370BD00008800002070B50125BE
:10136000294CB0F5004F21D0B0F5005F1DD12069A8
:10137000002814DD2548C16851B30021C160C06850
:10138000012827D001F0F4FF0121084602F08CF873
:1013900000211FA002F020F8C820FFF7CBFF206932
:1013A000401C2061022800D1256170BDE068002842
:1013B00005DD206850B10020206005F04BF8E068A2
:1013C000401CE0600228F0D1E56070BD0120F3E729
:1013D0000121D3E701F0CCFF0121084602F064F8B7
:1013E000002110A001F0F8FF0121022002F05CF8BA
:1013F000002110A001F0F0FF0F21022002F054F8AC
:1014000002480021801CC5E7D408002054000020B9
:101410004175746F206D6F6465206973206F666617
:10142000000000004175746F206D6F646520697362
:10143000206F6E004C696D69742074656D703A00A0
:1014400010B504490A68024202D00860FFF786FF1F
:1014500010BD0000143C01402DE9F84F0022032488
:101460008E4E8F4F0F25012303FA02F80B6803EA13
:10147000080343457DD1D1F804C0BCF1010F08D069
:10148000BCF1020F05D0BCF1110F02D0BCF1120F5C
:101490001DD1D0F808904FEA420C04FA0CFA29EA60
:1014A0000A09D1F80CA00AFA0CFC4CEA090CC0F8A5
:1014B00008C0D0F804C02CEA080C91F80480C8F3E6
:1014C000001808FA02F848EA0C0CC0F804C0D0F87A
:1014D0000C904FEA420C04FA0CF829EA0809D1F8FA
:1014E00008A00AFA0CFA4AEA0909C0F80C90D1F8E7
:1014F0000490B9F1020F02D0B9F1120F15D14FEAE1
:10150000D20900EB8909D9F820B04FEA427A4FEAB4
:10151000DA6A05FA0AFE2BEA0E0BD1F810E00EFA91
:101520000AFA4AEA0B0AC9F820A0D0F8009029EA82
:10153000080891F8049009F0030909FA0CFC4CEA38
:10154000080CC0F800C0D1F804C01CF0805F10D0B7
:10155000D6F800C04CF4804CC6F800C0D6F800C0E5
:101560000CF4804CCDF800C022F0030C0CF1804943
:1015700000E075E009F59839D9F808C84FEA827893
:101580004FEA187805FA08FA2CEA0A0AA0F1804C0A
:10159000BCF5003C6AD0A0F1804CBCF5013C68D0A1
:1015A000A0F1804CBCF5023C66D0A0F1804CBCF5AB
:1015B000033C64D0A0F1804CBCF5043C62D0A0F1A7
:1015C000804CBCF5053C60D0A0F1804CBCF5063CDD
:1015D0005ED0A0F1804CBCF5073C5CD04FF0080C0D
:1015E0000CFA08FC4CEA0A0CC9F808C8DFF8B48009
:1015F000D8F800C02CEA030CD1F8049019F4803F0D
:1016000001D04CEA030CC8F800C0DFF89C80D8F881
:1016100000C02CEA030CD1F8049019F4003F01D06B
:101620004CEA030CC8F800C0D7F800C02CEA030C41
:10163000D1F8048018F4801F01D04CEA030CC7F8DD
:1016400000C0DFF86880D8F800C02CEA030CD1F89D
:10165000049019F4001F01D04CEA030CC8F800C034
:10166000521C102AFFF4FFAEBDE8F88F4FF0000CBB
:10167000B6E74FF0010CB3E74FF0020CB0E74FF0C4
:10168000030CADE74FF0040CAAE74FF0050CA7E7F9
:101690004FF0060CA4E74FF0070CA1E744380240D6
:1016A000083C0140003C0140043C01400C3C01402E
:1016B0000069084201D0012070470020704742694C
:1016C00031EA020201D081617047090481617047EB
:1016D000002A01D0816170470904816170470000D0
:1016E00001488068704700008800002070B50446FB
:1016F000002C04D094F83D00002510B106E0012034
:1017000070BD84F83C50204600F03AFA242084F85A
:101710003D002068016821F0010101602068016836
:1017200041F4004101602068016821F4004101603A
:1017300000F024FC544B6168994203D85349884215
:1017400003D304E05249884201D2012070BD5149BF
:10175000B0FBF1F12268D2F804C02CF03F0C4CEA47
:10176000010CC2F804C062689A4201D84A1C07E022
:101770004FF4967251434FF47A72B1FBF2F14A1C66
:101780002168D1F820C02CF03F0C42EA0C020A621A
:101790006168994210D84900401EB0FBF1F2521C1A
:1017A000C2F30B02042A01D2042026E0B0FBF1F0C0
:1017B000401CC0F30B0020E0A268002A50D001EBCF
:1017C000C10303EB0113A0F1010CBCFBF3F35B1CA1
:1017D00043F480431B051B0D4AD0002A4AD001EB7D
:1017E000C10202EB0111401EB0FBF1F0401CC0F33E
:1017F0000B0040F4804040F400402168CA6922F0A8
:10180000FF0222F44F421043C861216AE06901439C
:101810002068026822F0C00211430160E16820697B
:1018200001432068826822F0FF0222F40342114340
:101830008160A169606901432068C26822F0FF02EB
:101840001143C1602068016841F001010160256415
:10185000202084F83D00256384F83E50002070BDB0
:1018600001EB4103A0F1010CBCFBF3F35B1CB1E7FE
:101870000120C2E701EB4101401EB0FBF1F0401C2A
:10188000C0F30B00B7E70000A086010080841E00B3
:1018900000093D0040420F002DE9F84F04468846FC
:1018A00092461E46FFF71CFF0546012794F83D00AF
:1018B000202802D00220BDE8F88F192301225649C2
:1018C0002046009501F058FC10B10220BDE8F88FC9
:1018D00094F83C00012808D0012084F83C002068DE
:1018E000016811F0010F03D006E00220BDE8F88F77
:1018F000016841F0010101602068016821F4006184
:101900000160242084F83D00002020644348E06208
:1019100008F0FE094FF0A0084FF0200B2068016886
:1019200041F480710160334600224FF001112046DE
:10193000009501F021FC50B12068006810F4807F10
:1019400002D04FF4007020640320BDE8F88F2068B7
:10195000C0F81090FFF7C4FE054620684169C1F346
:1019600040014069C0F380200EE0FFF7B9FE401B44
:10197000B04200D80EB984F83D8020684169C1F3B7
:1019800040014069C0F3802094F83D20A02A02D095
:1019900009B90028E9D084F83DB02068416911F008
:1019A000020F1BD02168096841F400710160002614
:1019B0002068416980690090192301221649204658
:1019C000009501F0D9FB10B10120BDE8F88F84F833
:1019D0003DB084F83C600020BDE8F88F016841F418
:1019E0000071016021686FF4806048611923012251
:1019F00009492046009501F0BFFB10B10120BDE868
:101A0000F88F7F1C574589D384F83DB0002084F8B7
:101A10003C000120BDE8F88F020010000000FFFF2D
:101A20002DE9F84F04468A46904699460A9FFFF7EB
:101A300057FE064694F83D00202802D00220BDE85B
:101A4000F88F192301224C492046009601F094FB9F
:101A500010B10220BDE8F88F94F83C00012808D0AE
:101A6000012084F83C002068016811F0010F03D0C8
:101A700006E00220BDE8F88F016841F00101016035
:101A80002068016821F400610160212084F83D0094
:101A9000102084F83E0000252564C4F82480A4F8B2
:101AA0002A90608D20853548E06233463A4651469B
:101AB000204601F0D9FA10B10120BDE8F88F206866
:101AC000416980690090208D002846D03246394611
:101AD000204601F012FC50B1206C042804D120688B
:101AE000016841F4007101600120BDE8F88F606A6F
:101AF000216800780861606A00F1010CC4F824C014
:101B0000608D401E6085208D401E80B22085226839
:101B1000516911F0040F0CD058B19CF8000010610D
:101B2000606A401C6062608D401E6085208D401E92
:101B3000208532463946204601F0F0FA50B1206C3B
:101B4000042804D12068016841F40071016001207B
:101B5000BDE8F88F208D0028B8D12068016841F4D5
:101B600000710160202084F83D0084F83E5084F824
:101B70003C500020BDE8F88F020010000000FFFF7D
:101B8000F0B587B0044614216846FEF7C3FB27680A
:101B9000204CDFF87CC01F491222012303250426B4
:101BA0001D481034674515D10F6847F002070F60D4
:101BB000096801F00201059129028DE86E0069466D
:101BC000FFF74AFC206840F400102060206800F411
:101BD000001019E0DFF844C0674516D10F6847F0E0
:101BE00002070F60096801F0020105914FF440619E
:101BF0008DE86E006946FFF72FFC206840F48000F6
:101C00002060206800F48000059007B0F0BD00005F
:101C100000540040303802400004024000580040A8
:101C20000248816802781144816070478800002072
:101C300010B50B48016841F400710160016841F47E
:101C400080610160016841F480710160032000F04F
:101C5000A1F8002000F006F800F03EF8002010BDCA
:101C6000003C024010B5014688B000222D2000F053
:101C70005DF82D2000F04CF813480024016841F471
:101C800080710160006805A900F4807006906846C4
:101C900000F050F900F072F90C494000B0FBF1F18E
:101CA0000C480B4A491E026040F2E732C0E90324A7
:101CB000C0E9011400F075FC10B1012008B010BD9E
:101CC000044800F08BFCF9E74038024040420F0026
:101CD00000200040E00B00200C4882B0016841F475
:101CE00080410160006800F4804000900748001FB8
:101CF000016841F0805101600068002200F08050CE
:101D000000900F21901E02B000F010B8443802403D
:101D100000280ADB00F01F01012202FA01F140094C
:101D2000800000F1E020C0F80011704710B4184B9B
:101D30001B68C3F30223C3F1070CBCF1040F01D9E4
:101D40004FF0040C1C1D072C01D2002300E0DB1E09
:101D5000012404FA0CFCACF1010C0CEA01019940DD
:101D600004FA03F35B1E1A401143002806DB00F15E
:101D7000E020090180F8001410BC704700F00F004B
:101D800000F1E020090180F8141D10BC704700002C
:101D90000CED00E000F00700064A11684FF6FF0363
:101DA000194041EA002040F0FD7040F08060106072
:101DB000704700000CED00E02DE9F04704460D46A9
:101DC000002C13D0DFF85491D9F80000EFB200F0E6
:101DD0000F00A8420DD289F80070D9F8000000F079
:101DE0000F00A84205D00120BDE8F0870120BDE822
:101DF000F08720684A4E10F0020F14D010F0040F44
:101E000003D0306840F4E0503060207810F0080FC4
:101E100003D0306840F4604030603068A16820F042
:101E2000F00008433060207810F0010F3ED0606869
:101E30003C49012808D002280DD003280BD009689E
:101E400011F0020F28D00AE0096811F4003F06D112
:101E50000120BDE8F087096811F0007F19D03168D2
:101E600021F0030108433060FFF73AFC80463068F8
:101E7000616800F00C00B0EB810F17D041F2883A96
:101E8000FFF72EFCA0EB0800504508D90320BDE861
:101E9000F0870120BDE8F0870120BDE8F0873068B9
:101EA000616800F00C00B0EB810FE9D1D9F80000B7
:101EB00000F00F00A8420AD989F80070D9F8000094
:101EC00000F00F00A84202D00120BDE8F087207882
:101ED00010F0040F05D03068E16820F4E0500843AA
:101EE0003060207810F0080F06D03068216920F4A7
:101EF000604040EAC100306000F060F831680A4A92
:101F0000C1F30311515CC8400849086008480068E3
:101F1000FFF7A8FE0020BDE8F0870000003C02406B
:101F20000838024000380240509600088400002023
:101F30008C0000200F2202600B4A136803F0030399
:101F40004360136803F0F0038360136803F4E05305
:101F5000C360126802F46042D2080261034800685C
:101F600000F00F000860704708380240003C024053
:101F700001480068704700008400002000B5FFF7AA
:101F8000F7FF04490968044AC1F38221515CC84043
:101F900000BD0000083802406096000800B5FFF759
:101FA000E7FF04490968044AC1F34231515CC84063
:101FB00000BD0000083802406096000810B51748C0
:101FC000006810F00C01164816D04310042912D0F6
:101FD000082911D1134C216801F03F02216811F446
:101FE000800F0AD02068C0F38810A0FB03010023F3
:101FF000FEF746F909E0184610BD21680023C1F339
:102000008811A1FB0001FEF73BF92168C1F30141F2
:10201000491C4900B0FBF1F010BD00000838024037
:102020000024F400043802402DE9F84F0446002C47
:1020300010D02078FA4FFB4D10F0010F63D03868B4
:1020400000F00C0004280DD0386800F00C000828BF
:1020500003D011E00120BDE8F88FF348006810F4C8
:10206000800F09D0286810F4003F4CD06068002829
:1020700049D10120BDE8F88F6068B0F5803F14D0E9
:10208000B0F5A02F16D0286820F48030286028688A
:1020900020F480202860606810B3FFF721FB06461B
:1020A000286810F4003F0ED02DE0286840F48030FE
:1020B0002860F0E7286840F480202860286840F411
:1020C00080302860E7E7FFF70BFB801B642802D90C
:1020D0000320BDE8F88F286810F4003FF3D012E029
:1020E000FFF7FEFA0646286810F4003F0BD0FFF712
:1020F000F7FA801B642802D90320BDE8F88F28680E
:1021000010F4003FF3D12078C84E10F0020F4FF0CA
:10211000000957D0386810F00C0F15D0386800F05F
:102120000C00082804D1C048006810F4800F0BD0C0
:10213000E06880B301203060FFF7D2FA804628685B
:1021400010F0020F12D01EE0286810F0020F05D028
:10215000E068012802D00120BDE8F88F28682169D5
:1021600020F0F80040EAC10028602BE0FFF7B8FA41
:10217000A0EB0800022802D90320BDE8F88F2868E8
:1021800010F0020FF2D02868216920F0F80040EA30
:10219000C100286016E0FFE7C6F80090FFF7A0FA3C
:1021A0008046286810F0020F0CD0FFF799FAA0EBD8
:1021B0000800022802D90320BDE8F88F286810F033
:1021C000020FF2D1207810F0080F35D09848DFF8D0
:1021D00064A26169C1B101210160FFF781FA804603
:1021E000DAF8000010F0020F26D1FFF779FAA0EB21
:1021F0000800022802D90320BDE8F88FDAF80000B1
:1022000010F0020FF1D017E0C0F80090FFF768FA65
:102210008046DAF8000010F0020F0DD0FFF760FAE8
:10222000A0EB0800022802D90320BDE8F88FDAF8F5
:10223000000010F0020FF1D1207810F0040F71D0DF
:102240004FF000087C48006810F0805F0AD17A489F
:10225000016841F080510160006800F080500090FA
:102260004FF00108DFF8D4B1DBF8000010F4807FF4
:102270001BD1DBF8000040F48070CBF80000FFF7C2
:102280002FFA8246DBF8000010F4807F0DD1FFF7B3
:1022900027FAA0EB0A00022802D90320BDE8F88F34
:1022A000DBF8000010F4807FF1D0A068DFF890B177
:1022B000012818D005281DD0DBF8000020F001000F
:1022C000CBF80000DBF8000020F00400CBF80000A1
:1022D000A06840B3FFF704FA8246DBF8000010F074
:1022E000020F14D03EE0DBF8000040F00100CBF814
:1022F0000000EDE7DBF8000040F00400CBF8000040
:10230000DBF8000040F00100CBF80000E0E7FFF749
:10231000E7F9A0EB0A0141F28830814204D9032099
:10232000BDE8F88F26E005E0DBF8000010F0020FB2
:10233000EDD017E0FFF7D4F98246DBF8000010F08B
:10234000020F0FD0FFF7CCF9A0EB0A0141F2883061
:10235000814202D90320BDE8F88FDBF8000010F0BD
:10236000020FEFD1B8F1010F04D13348016821F019
:1023700080510160A069E0B3396801F00C010829BF
:102380006AD0022810D0C6F86090FFF7A9F9044679
:10239000286810F0007F2CD0FFF7A2F9001B02285C
:1023A00055D90320BDE8F88FC6F86090FFF798F97B
:1023B0000746286810F0007F0BD0FFF791F9C01B8B
:1023C000022802D90320BDE8F88F286810F0007FAA
:1023D000F3D1216AE069A26A0843616A4FF0FF33D2
:1023E000890103EB520241EA0241084394F82C10A0
:1023F00000E052E040EA01610B48016001203066D4
:10240000FFF76EF90446286810F0007F45D1FFF70A
:1024100067F9001B022815D90320BDE8F88F1BE0DF
:1024200008380240003802400438024000004742A9
:10243000800E47427438024040380240007000402D
:1024400070380240286810F0007FE0D025E028684E
:1024500010F0007FA0D120E001281CD03868E2698C
:1024600000F48001914214D1226A00F03F019142B0
:102470000FD147F6C071626A0140914209D1A26A48
:1024800000F44031914204D1E16A00F0706088426A
:1024900003D00120C1E70120BFE70020BDE770475E
:1024A000704790F83C20012A2CD0012280F83C2073
:1024B000CA680023D1F808C022F4407242EA0C0234
:1024C000D1F804C022F4806242EA0C02D1F800C0C4
:1024D00022F4006242EA0C02D1F810C022F48052C9
:1024E00042EA0C02D1F814C022F4005242EA0C0273
:1024F000C96922F4804211430268516480F83C307B
:10250000002070470220704730B490F83C20012A28
:1025100044D0012480F83C40022280F83D2002682B
:10252000D2F804C093682CF0700C0D6845EA0C0CCE
:10253000C2F804C00268A2F1804CBCF5803C20D0F7
:10254000B2F1804F1DD0A2F1804CBCF5806C18D048
:10255000A2F1804CBCF5006C13D0A2F1804CBCF50C
:10256000406C0ED0A2F1804CBCF5823C09D0A2F1A7
:10257000804CBCF5A03C04D0A2F1804CBCF5C05C02
:1025800004D123F0800349681943916080F83D40ED
:10259000002180F83C1030BC0020704730BC022085
:1025A000704710B50446002C03D094F83D0010B1DC
:1025B00007E0012010BD002084F83C00204600F018
:1025C0000CF8022084F83D00211D206801F024FC55
:1025D000012084F83D00002010BD70470168CA68E2
:1025E00042F00102CA600068816801F00701062913
:1025F00003D0016841F0010101600020704770477D
:1026000070B50446206801694FF0000511F0020F13
:1026100017D0C16811F0020F13D0E91E016101202B
:1026200020772068806910F0030F03D02046FFF761
:10263000E6FF05E0204600F0F1F8204600F0B4F98E
:1026400025772068016911F0040F18D0C16811F0D6
:10265000040F14D06FF0040101610220207720687C
:10266000806910F4407F03D02046FFF7C8FF05E0E3
:10267000204600F0D3F8204600F096F92577206830
:10268000016911F0080F18D0C16811F0080F14D0BB
:102690006FF008010161042020772068C06910F004
:1026A000030F03D02046FFF7AAFF05E0204600F005
:1026B000B5F8204600F078F925772068016911F017
:1026C000100F18D0C16811F0100F14D06FF0100166
:1026D0000161082020772068C06910F4407F03D092
:1026E0002046FFF78CFF05E0204600F097F82046D3
:1026F00000F05AF925772068016911F0010F09D01F
:10270000C16811F0010F05D06FF001010161204691
:1027100000F06CF92068016911F0800F09D0C168E0
:1027200011F0800F05D06FF0800101612046FFF7A6
:10273000B6FE2068016911F0400F09D0C16811F0A0
:10274000400F05D06FF040010161204600F058F9BC
:102750002068016911F0200F0BD0C16811F0200F23
:1027600007D06FF0200101612046BDE87040FFF7FF
:1027700097BE70BD30B587B0044614216846FDF79A
:10278000C9FD24681F4D00221F4902231F48AC4287
:102790000ED10C6844F010040C60096801F01001BF
:1027A00005914FF428510091CDE90132012125E036
:1027B000174DAC4212D1086840F00200086008686A
:1027C0000093CDE9013200F00200CDE90430694602
:1027D00003921048FEF740FE07B030BD0E4DAC42EC
:1027E000FAD10C6844F010040C60096801F0100183
:1027F000059120210091CDE901320321CDE903218A
:102800006946E7E70000014030380240001002400E
:10281000000400400004024000400140704770B5D1
:1028200004460D4694F83C0001280DD0012684F89A
:102830003C60022084F83D0042B1042A1AD0082AE4
:102840002DD00C2A53D13EE0022070BD29462068CD
:1028500001F058FB2068816941F00801816120681E
:10286000816921F004018161206881692A6911432D
:1028700081613CE02946206801F07CFB2068816989
:1028800041F4006181612068816921F48061816186
:10289000206881692A6941EA0221816127E029468D
:1028A000206801F0A3FB2068C16941F00801C16103
:1028B0002068C16921F00401C1612068C1692A69E9
:1028C0001143C16113E02946206801F0CBFB206869
:1028D000C16941F40061C1612068C16921F480616E
:1028E000C1612068C1692A6941EA0221C16184F895
:1028F0003D60002084F83C0070BD10B50446002CFB
:1029000003D094F83D0010B107E0012010BD002075
:1029100084F83C00204600F00DF8022084F83D00C9
:10292000211D206801F078FA012084F83D00002084
:1029300010BD000008B5184A01681848914211D12D
:10294000016841F0010101600068002200F001000F
:10295000009005211920FFF7E9F9BDE8084019208A
:10296000FFF7D6B90E4A914209D10C48001F016801
:1029700041F002010160006800F0020009E0094A2C
:10298000914207D1016841F480310160006800F490
:102990008030009008BD0000000001404438024033
:1029A0000004004000400140704710B50446012279
:1029B000206801F097FA2168A1F18040B0F58030DD
:1029C00004D0A1F18040B0F5823003D1486C40F4CE
:1029D000004048642068816801F00701062903D09F
:1029E000016841F001010160002010BD0068034949
:1029F000884201D1FFF714B9704700000020004061
:102A0000704770B504462068C16821F4F071C16058
:102A10002068416921F001014161206841694FF05E
:102A2000100611F0800F4FF000050FD0416921F022
:102A300080014161206B48B10565206BFEF715FCF4
:102A400020B1206BFEF774FC20281ED0206841695D
:102A500011F0400F0FD0416921F040014161606BDE
:102A600048B10565606BFEF700FC20B1606BFEF7B6
:102A70005FFC20280CD0E584E585E563202084F800
:102A80003A0084F83900002070BDE663032070BD71
:102A9000E663032070BD704770B5044601252068C9
:102AA000C16821F4F071C1602068416921F0010121
:102AB0004161206B0026002808D02168496911F087
:102AC000800F02D02149016500E00665606B40B1CE
:102AD0002168496911F0400F02D01D49016500E0ED
:102AE00006652068416911F0800F0CD0416921F022
:102AF00080014161206B30B1FEF708FC10B1206B02
:102B0000066500E000252068416911F0400F0DD0F6
:102B1000416921F040014161606B38B1FEF7F6FB7D
:102B200018B1606B0665012500E00025012D0AD172
:102B3000E684E685E663202084F8390084F83A00CC
:102B40002046FFF7A8FF002070BD000035410008B7
:102B5000094100087047000010B50446226810685B
:102B6000D168526900F00F03002B0AD110F0200F3A
:102B700007D011F0200F04D02046BDE8104001F02E
:102B80000ABB002B71D002F0010301F4907C53EAE0
:102B90000C0C6AD010F0010F08D011F4807F05D022
:102BA000D4F83CC04CF0010CC4F83CC010F0040F49
:102BB00008D012F0010F05D0D4F83CC04CF0020C44
:102BC000C4F83CC010F0020F06D012F0010F03D081
:102BD000E26B42F00402E26310F0080F07D001F04C
:102BE00020021A4303D0E26B42F00802E263E26B78
:102BF000002A2ED010F0200F05D011F0200F02D0A7
:102C0000204601F0C8FA20684069C0F38010E16BEB
:102C100011F0080F00D108B3204601F0A1FA206896
:102C2000416911F0400F15D0416921F04001416127
:102C3000606B58B118490165606BFEF767FB0028AF
:102C400007D0606B016DBDE8104008472046FFF7D4
:102C500081FF10BD2046FFF77DFF10BD2046FFF726
:102C600079FF0020E06310BDFFE710F0800F07D070
:102C700011F0800F04D02046BDE8104001F0A8BB41
:102C800010F0400FEFD011F0400FECD02046BDE81F
:102C9000104001F073BA0000F940000870B5044616
:102CA000002C04D094F83900002510B106E0012072
:102CB00070BD84F83850204600F022F8242084F8B3
:102CC00039002068C16821F40051C160204601F03C
:102CD000B1FA2068016921F49041016120684169DD
:102CE00021F02A0141612068C16841F40051C160AE
:102CF000E563202084F8390084F83A00002070BD94
:102D0000F0B587B0044614216846FDF703FB3D4843
:102D1000DFF8ECC027683B491438C02502220123A4
:102D20000324072667451FD10F6847F010070F607F
:102D3000096801F010010591016841F0020101608C
:102D40000068009500F00200CDE9046001AF69461B
:102D500087E81C002C48FEF77FFB00220521252078
:102D6000FEF7E4FF252023E0DFF8A0C0674523D16C
:102D70002449091F0D6845F480250D60096801F498
:102D800080210591016841F00801016000686946F1
:102D900000F0080005904FF440708DE85D001C487D
:102DA000FEF75AFB002205212720FEF7BFFF272050
:102DB000FEF7AEFF07B0F0BD164EB742FAD10E686F
:102DC00046F020060E60096801F0200105910168B7
:102DD00041F0040101600068009500F004000590D6
:102DE0000820CDE9034069460B48CDE90123FEF7F1
:102DF00033FB002205214720FEF798FF4720D7E745
:102E000000100140443802400004024000480040E5
:102E1000000C0240001401400008024090F83A30D3
:102E2000202B01D002207047F9B1F2B190F8383070
:102E3000012B1CD081628285C2850021C1632222C0
:102E400080F83A2080F838100168CA6842F480722D
:102E5000CA6001684A6942F001024A610068C168BB
:102E600041F02001C160002070470120704702201E
:102E70007047000070B5054600681F491F4C884226
:102E800022D1A0881E4A002620B900215654491C90
:102E90003229FBDB1949891D09780A2903D011540D
:102EA000401CA0800AE0164901F13200FDF744FA07
:102EB0004FF480511348FEF702FCA6800F4901220F
:102EC000891D1148FFF7AAFF10492868884211D1CF
:102ED0000B4A20786432617811541E2801D2401CBC
:102EE00020700649BDE8704007480122491C40385F
:102EF000FFF794BF70BD0000001401405400002093
:102F000008090020000C0240900700200048004003
:102F10002DE9F84304460D4690461E4694F83900C4
:102F2000202802D00220BDE8F8836DB3B8F1000F6D
:102F30002AD094F83800012829D0012084F83800DC
:102F40004FF00009C4F83C90212084F83900FEF7C6
:102F5000C7FB0746A4F82480A4F8268084F838909C
:102F6000E08CA0B3E08C401EE084A068B0F5805FE8
:102F700010D03B46002280212046009601F05BFAEB
:102F8000F0B10320BDE8F8830120BDE8F8830220FA
:102F9000BDE8F8833B46002280212046009601F0E0
:102FA0004AFA10B10320BDE8F88328882168C0F3ED
:102FB00008004860206908B16D1C05E0AD1C03E005
:102FC000216815F8010B4860E08C0028CAD13B4607
:102FD000002240212046009601F02DFA10B1032076
:102FE000BDE8F883202084F839000020BDE8F8838C
:102FF00090F83930202B01D002207047A9B1A2B13E
:1030000090F83830012B12D001628284C2840021F2
:10301000C163212280F8392080F838100068C16827
:1030200041F08001C16000207047012070470220FC
:1030300070477047FEE701684A6912F4806F11D04B
:103040006FF480624A6100210163202280F83D20F4
:1030500080F83E10026C42F00402026480F83C10DA
:103060000120704700207047F8B504460D4617460A
:103070001E46E06A082808D0012806D010F5803FD7
:1030800003D0206B122806D00AE02068016841F4C2
:103090008071016004E02068016841F48071016082
:1030A0003B4600224FF001112046009600F064F8E4
:1030B00048B12068006810F4807F02D04FF400709F
:1030C00020640320F8BD2069B0F5804F0FD005F4CF
:1030D0004070F02141EAD0102168086133463A4639
:1030E0000C49204600F0A2F830B10120F8BD21685B
:1030F00005F0FE00086102E02168E8B2086133468D
:103100003A460549204600F091F808B10120F8BD83
:103110000020F8BD080001000200010070B504465F
:103120000D4616462068406910F0040F13D1204662
:10313000FFF781FF08B1012070BDB5F1FF3F05D059
:10314000FEF7CEFA801BA84207D835B12068406947
:1031500010F0040FEBD0002070BD00202063202170
:1031600084F83D1084F83E00216C41F02001216478
:1031700084F83C00012070BD2DE9F0470446DDF8DD
:1031800020900D4617461E46C5F307482068B8F143
:10319000010F22D0806925EA00000004000C26D02F
:1031A0000020B84216D1B6F1FF3F06D0FEF798FADC
:1031B000A0EB0900B0421CD8DEB1B8F1010F28D055
:1031C0002068806925EA00000004000C2CD0002053
:1031D000B842E8D00020BDE8F087406925EA000049
:1031E0000004000C01D00020DBE70120D9E701201A
:1031F000D7E700202063202184F83D1084F83E00AA
:10320000216C41F02001216484F83C000120BDE8DC
:10321000F0872068406925EA00000004000C01D016
:103220000020D5E70120D3E70120D1E72DE9F047C1
:1032300004460D4616461F46C5F307482068B8F1F8
:10324000010F26D0806925EA00000004000C3AD066
:103250004FF000094FF0200A2068406910F4806F99
:103260001ED02068016841F40071016021686FF48C
:1032700080604861C4F8309084F83DA084F83E90A6
:10328000206C40F00400206484F83C900120BDE8EC
:10329000F087406925EA00000004000C13D0D7E74E
:1032A000B6F1FF3F05D0FEF71BFAC01BB0420DD8A8
:1032B00066B1B8F1010F18D02068806925EA0000D6
:1032C0000004000CC8D10020BDE8F087C4F830909D
:1032D00084F83DA084F83E90206C40F020002064EB
:1032E00084F83C900120BDE8F0872068406925EA19
:1032F00000000004000CAFD1E5E770B504460D46B0
:1033000016462068406910F0800F13D12046FFF761
:1033100092FE08B1012070BDB5F1FF3F05D0FEF768
:10332000DFF9801BA84207D835B12068406910F04A
:10333000800FEBD0002070BD00202063202184F896
:103340003D1084F83E00216C41F02001216484F896
:103350003C00012070BD00000449082801D000286D
:1033600003D1C871202000F0DDB870470C000020A8
:1033700010B5012000F0B0F80A20FDF7DBFF03488C
:103380000021C1700121817010BD00000C000020DF
:1033900010B5012000F0A0F84FF47A70FDF7CAFFD5
:1033A000022000F099F80520FDF7C4FF282000F066
:1033B00093F80520FDF7BEFF0C2000F08DF80520E6
:1033C000FDF7B8FF802000F087F8BDE810404FF40B
:1033D000FA70FDF7AFBF00002DE9F047304D002631
:1033E0000446EE7071B301292FD12E49002000BF91
:1033F00041F82040401C641C6428F9DB89460868B9
:10340000FCF793FF2871264FA8780837391811F870
:10341000011C00F049F8A97807F1040808EB010045
:1034200010F8014C1AE0641C00F07CF8E878401CAD
:10343000C0B2E870102805D1A8780121401C00F026
:1034400033F8EE7020780028EDD1BDE8F08700BF9A
:1034500059F82400007800F065F8641C287984424B
:10346000F6DBA978781810F8012C521E12F0FF0232
:1034700000F8012CE9D10122414400F8012C11F897
:10348000012C521CD2B201F8012C2B799A42DCD1CA
:10349000102200F8012C01F8016C2E71D5E7000014
:1034A0000C00002038010020094A9070421E012AB9
:1034B0000CD84A1E0F2A09D8064A02EB001008440D
:1034C00010F8110C40F0800000F006B870470000C2
:1034D0000C0000207095000838B5104C627800EAA6
:1034E000020102EA0010E27911431043617104F114
:1034F0001002A07141F004031370517040F00401F8
:103500009170D07003F062FCC8200090042304F195
:10351000100221780248FEF783FA38BD0C00002023
:10352000C802002038B5124C627800EA020102EAB3
:103530000010E27911436171104341F0050304F179
:103540001002A071137041F00101517040F00501AB
:10355000917040F00100D07003F038FCC82000905A
:10356000042304F1100221780248FEF759FA38BD0D
:103570000C000020C802002070B53220FDF7DAFEF2
:1035800003F024FC054D4FF47A7423460322297876
:103590000348FEF781F90028F7D170BD0C00002028
:1035A000C80200200449082801D0002803D1C871AE
:1035B000202000F0F3B870472000002010B5012053
:1035C00000F0C6F80A20FDF7B5FE03480021C170DF
:1035D0000121817010BD00002000002010B50120E5
:1035E00000F0B6F84FF47A70FDF7A4FE022000F068
:1035F000AFF80520FDF79EFE282000F0A9F8052071
:10360000FDF798FE0C2000F0A3F80520FDF792FED0
:10361000802000F09DF8BDE810404FF4FA70FDF7EF
:1036200089BE10B504469AB010EE100AFDF787F86F
:1036300041EC100B214653EC102B684600F064FF60
:103640000021684600F002F81AB010BD2DE9F047DD
:10365000304D00260446EE7071B301292FD12E495A
:10366000002000BF41F82040401C641C6428F9DBA6
:1036700089460868FCF759FE2871264FA878083754
:10368000391811F8011C00F049F8A97807F104086D
:1036900008EB010010F8014C1AE0641C00F07EF801
:1036A000E878401CC0B2E870142805D1A878012140
:1036B000401C00F033F8EE7020780028EDD1BDE812
:1036C000F08700BF59F82400007800F067F8641C08
:1036D00028798442F6DBA978781810F8012C521E5C
:1036E00012F0FF0200F8012CE9D10122414400F858
:1036F000012C11F8012C521CD2B201F8012C2B79AB
:103700009A42DCD1142200F8012C01F8016C2E71D0
:10371000D5E70000200000201C0300200A4A90701A
:10372000421E032A0ED84A1E132A0BD8074A00EB62
:10373000800002EB8000084410F8150C40F0800077
:1037400000F006B8704700002000002090950008A7
:1037500038B5104C627800EA020102EA0010E27902
:1037600011431043617104F11002A07141F0040390
:103770001370517040F004019170D07003F0FAFAA8
:10378000C8200090042304F1100221780248FEF7BB
:1037900047F938BD20000020AC04002038B5124C99
:1037A000627800EA020102EA0010E27911436171D5
:1037B000104341F0050304F11002A071137041F0B1
:1037C0000101517040F00501917040F00100D0708E
:1037D00003F0D0FAC8200090042304F110022178ED
:1037E0000248FEF71DF938BD20000020AC0400207F
:1037F00070B53220FDF79EFD03F0BCFA054D4FF485
:103800007A742346032229780348FEF745F80028F6
:10381000F7D170BD20000020AC0400207FB500244B
:1038200011480094019402940E490394C0E90014D5
:1038300084600461047680F820400C49C0E90A14D1
:103840000125C561C46080F830404561FDF791FBFA
:103850000D20CDE90005694602940348FDF7CCFA36
:103860007FBD000000200140180500200100000F6E
:103870007FB5002411480094019402940E490394EA
:10388000C0E9001484600461047680F820400C498B
:10389000C0E90A140125C561C46080F83040456163
:1038A000FDF767FB0F20CDE9000569460294034848
:1038B000FDF7A2FA7FBD0000002101406005002055
:1038C0000100000F2DE9F04F87B014216846FCF786
:1038D00021FD59480024016841F010010160016890
:1038E00001F010010591016841F08001016001685B
:1038F00001F080010591016841F004010160016857
:1039000001F004010591016841F0010101600168C5
:1039100001F001010591016841F0020101600168B7
:1039200001F002010591016841F0080101600068A1
:10393000DFF8089100F008000590002215214846A4
:10394000FDF7C6FEDFF8F8A0002275215046FDF70E
:10395000BFFEDFF8F0B04FF2500800224146584653
:10396000FDF7B6FE002228213748FDF7B1FE1520ED
:1039700000900125CDE90154694648460394FDF7BE
:103980006BFD75200090CDE90154694650460394C3
:10399000FDF762FD8A20CDE9000469465046029495
:1039A000FDF75AFDEE03294F0096CDE901746946F3
:1039B0002748FDF751FD6803CDE9000769460294E9
:1039C0002148FDF749FDCDE9006469461E4802948F
:1039D000FDF742FDCDF80080CDE901546946584617
:1039E0000394FDF739FD009669465046CDE901453F
:1039F000FDF732FDE8028DE8310069464846FDF7E3
:103A00002BFD05208DE8310069465846FDF724FD61
:103A100028200090CDE9015469460B480394FDF736
:103A20001BFD002205212820FEF780F92820FEF743
:103A30006FF907B0BDE8F08F30380240000802404F
:103A400000000240000C024000040240000021106F
:103A50000010024010B592B000240F941C2168465B
:103A60001094FCF757FC202107A8FCF753FC2048D2
:103A70001E49016040F28331C0E9011440F2E73190
:103A8000C0E9031444618461FEF737FF0F940FA966
:103A900017481094FEF738FD6020CDE90004029429
:103AA0000394049405940022694611480694FEF795
:103AB000B6FE042269460E48FEF7B1FE08226946AA
:103AC0000B48FEF7ACFE0794089409944FF400509D
:103AD0000A94CDE90B4007A905480E94FEF7E1FCD6
:103AE0000348FEF747FE12B010BD00000000014081
:103AF0005006002010B58AB0002407941C216846A7
:103B00000894FCF707FC12481049016040F2833129
:103B1000C0E9011440F2E731C0E903148461FEF703
:103B2000ECFE079407A90A480894FEF7EDFC602014
:103B3000CDE9000402940C22694605480494FEF77E
:103B40006EFE0348FEF716FE0AB010BD00040040EA
:103B50009006002010B588B01C216846FCF7DAFBFF
:103B60000F480E490024016040F28331C0E901147E
:103B70006321C0E903148461FEF7BFFE6020CDE934
:103B8000000402940022694605480494FEF747FEAB
:103B90000348FEF7EFFD08B010BD000000400140F3
:103BA000D0060020FEE770472DE9F0410025154EB4
:103BB0002C46012720213046FDF77AFD0028F9D058
:103BC000512002F08FFC20213046FDF771FD0128C5
:103BD0000BD0C4F1070007FA00F08543641CE4B27F
:103BE000082CE7D32846BDE8F08120213046FDF7B8
:103BF0005FFD0128F9D0C4F1070007FA00F0C0B258
:103C00000543EBE70000024030B585B00446FDF700
:103C1000D7F8284D002220212846FDF759FD19200C
:103C2000FDF788FB012220212846FDF751FD5A208F
:103C300002F058FC20200090002001900320039007
:103C400069462846FDF708FC20212846FDF730FD8F
:103C500070BB20212846FDF72BFD0028F9D020213C
:103C60002846FDF725FD0128F9D0FFF79DFFA0703C
:103C7000FFF79AFFE070FFF797FF2070FFF794FFC0
:103C80006070FFF791FF2071FDF79AF80122202163
:103C90002846FDF71DFDA078E17862780844217878
:103CA000114408442179884202D1002005B030BD7A
:103CB0000120FBE70000024004F0ACFA04F026F912
:103CC00004F084FB0A2003F081FAF5E70A4C41F680
:103CD0004C5500BFFDF704FD2169401AA84206D3E8
:103CE00003F0A0FD03F0CEF8FDF7FAFC20610A20F6
:103CF00003F06CFAEEE700005400002004F024FE0C
:103D00000A2003F063FAF9E7094C42F2107500BF8C
:103D1000FDF7E6FC6169401AA84204D304F0C2F939
:103D2000FDF7DEFC60610A2003F050FAF0E70000C6
:103D30005400002010B5502080F31188BFF34F8F3E
:103D4000BFF36F8F05F0BCFA18B104494FF08050F3
:103D50000860002080F3118810BD000004ED00E031
:103D600030B593B030216846FCF7D4FA14210CA882
:103D7000FCF7D0FA19480025016841F08051016034
:103D8000006800F0805011901548016841F48041AE
:103D900001600068022400F480401190012003902B
:103DA00010200490009406940820CDE907505A2072
:103DB000CDE9090404200B906846FEF735F90CA9FB
:103DC0000F2081E831004FF4A0500F901090022195
:103DD0000CA8FDF7F1FF13B030BD000040380240E1
:103DE000007000400548016841F47001016003491A
:103DF0004FF00060803908607047000088ED00E0F7
:103E00000148FEF7FDBB0000500600200148FEF708
:103E1000F7BB0000E00B0020F0B402682C4B2D4CE7
:103E20002D4D2E4EDFF8B8C098420AD0B0F1804F29
:103E300007D0A04205D0A84203D0B04201D06045CF
:103E400003D122F070024F683A43984228D0B0F173
:103E5000804F25D0A04223D0A84221D0B0421FD00D
:103E600060451DD0A0F18044B4F5A03418D0A0F175
:103E70008044B4F5A23413D0A0F18044B4F5A43446
:103E80000ED0A0F18044B4F5C05409D0A0F1804414
:103E9000B4F5E05404D0A0F18044B4F5005403D14B
:103EA00022F44072CC6822434C6922F08002224303
:103EB00002608A68C2620A688262984201D06045E4
:103EC00001D10969016301214161F0BC7047000023
:103ED000000001400004004000080040000C0040C9
:103EE0000004014001F01F0101238B40D0F820C0E5
:103EF0002CEA03030362036A02FA01F11943016227
:103F00007047000070B4026A22F001020262036A84
:103F10004268D0F818C02CF0700C2CF0030C0C6820
:103F200044EA0C0C23F002038C6823430F4C104D21
:103F3000A04201D0A84205D123F00803CE68334344
:103F400023F00403A04201D0A84207D122F48072DA
:103F500022F400724C6922438C6922434260C0F80B
:103F600018C049684163036270BC7047000001409B
:103F70000004014070B4026A22F010020262036A77
:103F80004268D0F818C02CF4E04C2CF4407C0C684B
:103F90004CEA042C23F020038C6843EA0413114CF0
:103FA000114DA04201D0A84206D123F08003CE6873
:103FB00043EA061323F04003A04201D0A84209D1EE
:103FC00022F4806222F400624C6942EA84028C6925
:103FD00042EA84024260C0F818C049688163036203
:103FE00070BC7047000001400004014070B4026AD8
:103FF00022F480720262036A4268D0F81CC02CF07E
:10400000700C2CF0030C0C6844EA0C0C23F40073C5
:104010008C6843EA0423114C114DA04201D0A84200
:1040200006D123F40063CE6843EA062323F48063B9
:10403000A04201D0A84209D122F4805222F40052B9
:104040004C6942EA04128C6942EA04124260C0F8E8
:104050001CC04968C163036270BC70470000014026
:104060000004014010B4026A22F480520262D0F8C7
:1040700020C04268C36923F4E04323F440730C6812
:1040800043EA04232CF4005C8C684CEA043CA0F165
:104090008044B4F5803404D0A0F18044B4F5823477
:1040A00004D122F480424C6942EA84124260C36126
:1040B00049680164C0F820C010BC70470C4810B5B6
:1040C0000A4901604FF4E1314160002181600C2216
:1040D000C160C0E904128161C161FEF7DFFDBDE886
:1040E0001040012203490248FEF798BE0014014027
:1040F000900700205A00002010B5806B0021C18578
:10410000C184FEF727FD10BD10B5806B0022416B06
:104110000A65016B002902D0096D002909D1C2840A
:10412000C285C263202180F8391080F83A10FEF76A
:10413000B2FC10BD10B5806B0022016B0A65416BAB
:10414000002902D0096D002909D1C284C285C26349
:10415000202180F8391080F83A10FEF79CFC10BD41
:104160000168CA6822F49072CA6001684A6922F044
:1041700001024A61202180F83A10704710B50168A9
:10418000CA6822F04002CA60202180F83910FEF788
:1041900050FF002010BD10B590F83A10222901D030
:1041A000022010BD8168B1F5805F11D0016919B39B
:1041B0000168496801F07F02816A4B1C83620A70C2
:1041C000C18D491E0904090CC1851CD0002010BDF9
:1041D000816A02693AB102685268D2B20A80816A81
:1041E000491C8162ECE702685268C2F308020A8047
:1041F000816A891C8162E3E701684A68816A4B1C15
:1042000083620A70DCE70168CA6822F02002CA6093
:104210000168CA6822F48072CA6001684A6922F0A3
:1042200001024A61202180F83A10FEF723FE0020A7
:1042300010BD00002DE9F041044620680169E268E4
:1042400021F44051114301612169A068E2690843EA
:104250006169114301432068C26822F4037222F4A9
:1042600014421143C16020684169A26921F4407180
:1042700011434161E0695349534A1927534D32268E
:104280004FF00008B0F5004F27D02068904201D0D1
:10429000884274D1FDF782FE01466068830F820078
:1042A000A1FB0701FBF7ECFF0146A5FB002040093D
:1042B0006FF01802424301EB820106EB0111A5FBEE
:1042C0000121490901F0F00202EB001001F00F0199
:1042D000084421688860BDE8F0812068904201D0E0
:1042E000884225D1FDF75AFE014660680218A1FBFD
:1042F000070148EB0803FBF7C3FF0346A5FB0010CB
:10430000410918460A016FF01803594300EB810078
:1043100006EBC000A5FB0010400900F0F80102EB1D
:10432000410100F00700084421688860BDE8F08181
:10433000FDF724FE014660680218A1FB070148EB67
:104340000803FBF79DFF0346A5FB00104109184633
:104350000A016FF01803594300EB810006EBC0001F
:10436000A5FB0010400900F0F80102EB410100F04C
:104370000700084421688860BDE8F081FFE7FDF789
:10438000FDFD01466068830F8200A1FB0701FBF77A
:1043900077FF0146A5FB002040096FF01802424359
:1043A00001EB820106EB0111A5FB0121490901F096
:1043B000F00202EB001001F00F0108442168886050
:1043C000BDE8F08100140140001001401F85EB5151
:1043D00090F83910212901D0022070478168B1F589
:1043E000805F0CD0016A4A1C026202680978516041
:1043F000C18C491E0904090CC18410D019E0016A5E
:1044000002680988C1F308015160016919B1016AA4
:10441000491C0162ECE7016A891C0162E8E7016856
:10442000CA6822F08002CA600068C16841F0400199
:10443000C160002070472DE9F0410446069D884682
:1044400017461E462068006838EA000020D0002089
:10445000B84227D1B5F1FF3F1CD025B1FDF740F997
:10446000801BA84216D92068C16821F4D071C160B0
:104470002068416921F001014161202084F8390060
:1044800084F83A00002084F838000320BDE8F08169
:104490000120DDE72068006838EA000005D0002030
:1044A000B842D7D00020BDE8F0810120F8E7000035
:1044B0000148FEF751BB0000100700200148FEF73D
:1044C0004BBB0000500700200148FEF745BB000031
:1044D00090070020FEE700000FB41CB50246002044
:1044E00007AC00290BD0491ECDE90021054B6A46D7
:1044F0002146069801F08CFA009A002111701CBC2C
:104500005DF814FB3F6100080FB4084B10B504A917
:1045100002AA039801F07CFA044602A9002001F0E7
:1045200019FE204610BC5DF814FB00005561000820
:1045300003B401984100009850EAC12018BF04203C
:104540004A0D18BF40F0010040F2FF72B2EB515F1C
:1045500008BF40F00200012808BF052002B07047E4
:1045600000487047F400002070B5D94B00242DEDB1
:10457000020B2DED108BDDE91010984205DA20F0CA
:1045800000429A4201D809D141B19DED100BBDEC1A
:10459000108B02B0BDE8704001F01EB9B0F5801F6D
:1045A00026DA11430BD0002813DA012001F068F954
:1045B000BDEC108B02B0BDE8704001F021B90220C3
:1045C00001F05EF901F0F0F851EC100B81F00041C0
:1045D0009EE06FF035049FEDC00B53EC102B9DED6A
:1045E000100B51EC100BFBF773FFCDE910010846DF
:1045F00004EB2051C0F31304B948A1F2FF31204469
:1046000000F4801080F07F6282F04052224301EB80
:1046100020559FEDB50B119253EC102B9DED100B17
:1046200051EC100BFBF74EFF41EC180BA01CC0F334
:1046300013009FEDAFDB9FEDB0EBB14E7E4403283E
:104640006CD296ED000B51EC180B53EC102BFCF7D1
:10465000B5FA1DD1002D01BF96ED000BBDEC108BFE
:1046600002B070BD2846FCF714F841EC180B53EC6F
:104670001D2BFBF72DFF41EC190B53EC1E2B51ECBE
:10468000180BFBF725FF53EC192BFBF77AFE3FE0E5
:104690009FED9D0B51EC180B53EC102BFBF718FF03
:1046A0009FED9B1B53EC112BFBF70FFF41EC190BFC
:1046B00053EC182B51EC180BFBF70AFF53EC192B9A
:1046C000FBF706FF41EC190B002D04BF53EC192B2F
:1046D00051EC180B1AD02846FBF7DBFF41EC1A0B04
:1046E00053EC1D2BFBF7F4FE53EC192BFBF7EDFEFF
:1046F00053EC182BFBF7E6FE41EC180B53EC1E2B8A
:1047000051EC1A0BFBF7E4FE53EC182BFBF7DAFE27
:10471000BDEC108B02B041EC100B70BD9FED7E0B19
:1047200051EC180B53EC102BFBF72BFE41EC100B4C
:1047300051EC180B53EC102BFBF73CFF41EC190B21
:104740002846FBF7A6FF41EC1B0B53EC192B51EC51
:10475000190BFBF7BDFE41EC1A0B714853EC1A2BF9
:10476000261851EC1A0BFBF7B3FE41EC1F0B6D48FA
:10477000C4F1510404F5D724B0EE4F0AF0EE6F0AED
:104780000321784400F094FF53EC1F2B51EC100BE5
:10479000FBF79EFE41EC1C0B6348B0EE4F0AF0EEB7
:1047A0006F0A0421784400F083FF53EC1A2B51EC7C
:1047B000100BFBF78DFE344353EC1C2BFBF7E1FD94
:1047C00041EC1C0B002C4CDD9FED510B51EC180BF8
:1047D00053EC102BFBF77CFE53EC182BFBF778FE09
:1047E00041EC1A0B55B353EC1D2B51EC1B0BFBF793
:1047F0006FFE41EC1D0B53EC1C2B51EC1A0BFBF71D
:10480000C0FD53EC192BFBF763FE53EC1D2BFBF79C
:10481000B8FD53EC1A2BFBF758FE53EC182BFBF7A3
:1048200051FE41EC180B53EC1E2B51EC1B0BFBF70C
:104830004FFE53EC182BFBF745FE69E753EC1C2B9E
:1048400051EC1A0BFBF79DFD53EC192BFBF740FEC7
:1048500053EC1A2BFBF739FE53EC182BFBF735FE04
:1048600056E735B353EC1D2B51EC1B0BFBF730FE19
:1048700041EC1A0B53EC1C2B51EC180BFBF722FEEE
:1048800053EC192BFBF724FE53EC1A2BFBF71AFE03
:1048900053EC182BFBF716FE41EC180B53EC1E2BB8
:1048A00051EC1B0BFBF714FE53EC182BFBF70AFE25
:1048B0002EE753EC1C2B51EC180BFBF703FE53ECCB
:1048C000192BFBF705FE53EC182BFBF7FEFD1FE73A
:1048D0000000F07F000000000000000000005043D6
:1048E000645F090000000000000000000000F03FCD
:1048F000763C7935EF39EA3D0000E0FE422EE63F96
:10490000E850000000000000555555555555D53F5D
:10491000000000000000E03F000000000000004038
:1049200086EBF9FF6A4F0000604F000000000000B6
:1049300070B5414A00252DED020B2DED048BDDE90C
:104940000404944205DA24F00041914201D809D1CF
:1049500040B19DED040BBDEC048B02B0BDE870408E
:1049600000F03ABFB4F5801F26DA08430BD0002CC4
:1049700013DA012000F084FFBDEC048B02B0BDE827
:10498000704000F03DBF022000F07AFF00F00CFF05
:1049900051EC100B81F0004146E09FED290B6FF0C8
:1049A000350553EC102B9DED040B51EC100BFBF770
:1049B0008FFDCDE904010C4605EB2450A0F2FF3039
:1049C000C10F40F2FF32521A62F31F540844FBF742
:1049D00060FE05949DED040B41EC180B51EC100B9F
:1049E00002F068FA9FED181B53EC112BFBF770FDDA
:1049F0009FED170B41EC190B53EC102B51EC180BDE
:104A0000FBF766FD53EC192BFBF7BBFC9FED120B7C
:104A100041EC190B53EC102B51EC180BFBF758FD24
:104A200053EC192BFBF7ADFCBDEC048B02B041EC51
:104A3000100B70BD000000000000F07F00000000BF
:104A400000000000000050430EE526157BCBDB3F45
:104A5000362BF111F3FE593D00609F501344D33FB4
:104A60002DE9F04D2DED040B2DED0E8B96B0DDE90B
:104A70002550279CDDF890A025F0004624F0004842
:104A8000BAF1000F14BF0121002101EB4502FC49DE
:104A900053184A1093422AD3002814BF012300233D
:104AA00003EB44030B44F7498B4220D358EA00013F
:104AB0009FEDF59B76D0DFF8D8B35D4503D1BAF111
:104AC000000F05D188E0BAF1000F08BF002100D027
:104AD000012101EB450111F5001F08D8002814BF82
:104AE0000121002101EB440111F5001F0BD99DEDBF
:104AF000261B9DED240B16B0BDEC0E8B04B0BDE85B
:104B0000F04D00F073BE0027002DBCBFE149884581
:104B100021DAE1498845A8BF02271CDAC3451ADC1F
:104B2000DE4901EB2851142908DDC1F1340220FAD5
:104B300002F101FA02F282420DD108E058B9C1F146
:104B4000140228FA02F101FA02F2424503D101F0FF
:104B50000101C1F1020756EA0A0124D1002C22DA30
:104B6000002D18BF022F01D0012F0AD0022000F023
:104B700087FE16B0BDEC0E8B04B0BDE8F04D00F022
:104B800013BE022000F07CFE00F00EFE51EC100B74
:104B900081F0004141EC100B16B0BDEC0E8B04B05F
:104BA000BDE8F08D18E09FEDBEAB9FEDBF8B0028F8
:104BB00071D1B848804522D105F1804010F58010B0
:104BC00008BFBAF1000F07D0B3450ADC002CA8BF1C
:104BD0009DED260BE0DA0DE0B0EE490AF0EE690A31
:104BE000DAE7002C06DA9DED260B51EC100B81F074
:104BF00000416FE0AE48784490ED000BCCE7D8451B
:104C00004DD1002C48DA2EB186423AD1BAF1000FCC
:104C100042D126E0BAF1000F13D0022000F030FE9E
:104C200000F0FEFD8DED020B9DED240B8DED000BD4
:104C300010EE900A039961F31E0003909DED020BA4
:104C4000AAE78DED02AB9DED240B1AEE901A10EE43
:104C5000900A8DED000B61F31E0003909DED020B99
:104C60009AE78DED028B9DED240B18EE901A10EE55
:104C7000900A8DED000B61F31E0003909DED020B79
:104C80008AE709DA9DED240B51EC190B53EC102B3C
:104C9000FBF790FC1EE020E09DED240B7CE78642B4
:104CA0001BDAB4F1804F0DD0A4F10050B0F1FF50E9
:104CB00013D1002D11DB9DED240B51EC100B03F0F3
:104CC0003FFA07E09DED240B53EC102B51EC100B39
:104CD00000F0C2BC41EC100B5EE79DED240B51ECE3
:104CE000100B01F053FCBAF1000FCDE90E0142D1D7
:104CF0009FED710B46B3A6F1E040B0F17F600CD0A0
:104D00005E4538D1002D00DAA7B3022F0CBF012079
:104D10004FF0FF30FBF7BDFCDCE7002D01DD002C80
:104D20000DDA002D01DD002C1FDB002D16DA002C22
:104D300014DB012F08BF9FED620B3FF42DAFB0EEE7
:104D40004A0AF0EE6A0A27E7022F18BF002D0CD09E
:104D5000012F0AD1002DFFF61FAF06E0002DB8BFCE
:104D6000002C08DA012F3FF417AFB0EE480AF0EE3E
:104D7000680A11E71BE0012000EBE57050EA07012B
:104D800015D0791EB0EE498AF0EE698A084308BF53
:104D90009FED4D8B4E480025804570DD4D494E48B6
:104DA000884514DDB0420DDB002C19DB2FE001201B
:104DB00000F066FD16B0BDEC0E8B04B0BDE8F04D02
:104DC00000F01EBDB34502DC002C09DC1FE086426A
:104DD00002DA002C1BDA03E05E452BDD002C16DD29
:104DE000022000F04DFD00F01BFD8DED020B53EC99
:104DF0001A2B51EC180BFBF76BFBCDE90001039963
:104E0000019861F31E0003909DED020BC4E60220A1
:104E100000F036FD00F014FD10EE901A18EE900A26
:104E20008DED020B8DED008B61F31E0003909DED67
:104E3000020BB1E69DED0E0B53EC192B51EC100B50
:104E4000FBF740FB9FED260BCDE9080153EC102B3F
:104E50009DED080B51EC100BFBF73AFB9FED221B6D
:104E600053EC112BFBF731FB9DED081B53EC112B81
:104E7000FBF72EFB9FED1E1B53EC112B3CE08CE04F
:104E8000FFFF1F00FFFF0F00000000000000F03FC9
:104E90000000F03F0000F07F0000404301FCFFFFF6
:104EA000000000000000F07F000000000000000093
:104EB0002E4B0000000000000000000000000080F9
:104EC000000000000000F0FF000000000000F0BF44
:104ED0000000E0410000F043FFFFEF3F0000000052
:104EE000000000000000D03F555555555555D53FA1
:104EF000000000000000E03FFBF7E7FA9DED080B23
:104F000041EC1A0B53EC102B51EC100BFBF7E0FAB1
:104F100053EC1A2BFBF7DCFA41EC1A0B9FEDFE0B5E
:104F200053EC102B9DED080B51EC100BFBF7D0FA56
:104F300041EC1B0B9FEDFA0B51EC1A0B53EC102BB1
:104F4000FBF7C6FA41EC1A0B9FEDF70B53EC102B55
:104F50009DED080B51EC100BFBF7BAFA53EC1A2B32
:104F6000FBF7B0FA41EC1A0B51EC1B0B53EC1A2B6C
:104F7000FBF707FA0690CDE906519DED060B53ECC1
:104F80001B2B51EC100BFBF79DFA53EC1A2BFBF784
:104F90009CFA41EC100B00F0A1B90020B6F5801F7F
:104FA0000EDA9FEDE30B53EC102B9DED0E0B51EC45
:104FB000100BFBF78DFACDE90E016FF034000E46B1
:104FC00000EB2650A0F2FF37C6F31300DA4940F099
:104FD0007F6646F040568842D8BF002408DDD74996
:104FE0008142C8BF012403DC0024A6F580167F1C83
:104FF000D348784400EBC4000F9690ED00CB9DEDB4
:105000000E0B53EC1C2B51EC100BFBF75BFA9DEDD8
:105010000E0B41EC1B0B53EC1C2B51EC100BFBF754
:10502000B0F941EC100B51EC190B53EC102BFBF7C2
:10503000C1FA41EC1D0B51EC1B0B53EC1D2BFBF784
:1050400047FA41EC1A0BBF488DED10AB7844109530
:1050500090ED000B4FF0005040EA660000EB8440FA
:105060008DED080B00F5002009909DED080B53EC29
:105070001C2B51EC100BFBF725FA9DED0E1B53EC8E
:10508000112BFBF722FA41EC100B53EC102B9DED8A
:10509000100B51EC100BFBF71BFA9DED080B41ECCC
:1050A0001C0B53EC102B9DED100B51EC100BFBF770
:1050B0000FFA53EC1B2BFBF708FA53EC1C2BFBF7F6
:1050C00001FA53EC1D2BFBF703FA41EC1C0B53ECDC
:1050D0001A2B51EC1A0BFBF7FBF941EC1B0B9A480E
:1050E0000621B0EE4B0AF0EE6B0A784400F0E0FACD
:1050F000B0EE401AF0EE601AB0EE41DAF0EE61DA8E
:1051000053EC1B2B51EC1B0BFBF7E2F953EC1D2B63
:10511000FBF7DEF99DED100B41EC1B0B53EC1A2B4A
:1051200051EC100BFBF72DF953EC1C2BFBF7D0F9CE
:1051300053EC1B2BFBF725F99DED100B41EC1B0BE2
:1051400053EC102B51EC100BFBF7C2F941EC1D0B8B
:105150009FED7FEB53EC1E2BFBF713F953EC1B2B4E
:10516000FBF70FF90890CDE908519DED080B53ECC2
:105170001E2B51EC100BFBF7A5F953EC1D2BFBF785
:10518000A1F953EC1B2BFBF7A0F99DED080B41ECAB
:105190001D0B53EC102B9DED100B51EC100BFBF77E
:1051A00097F941EC1B0B53EC1A2B51EC1D0BFBF741
:1051B0008FF99DED080B41EC1A0B53EC102B51ECC1
:1051C0001C0BFBF785F953EC1A2BFBF7DAF841ECD3
:1051D0001A0B51EC1B0B53EC1A2BFBF7D2F80C906B
:1051E000CDE90C519DED0C0B53EC1B2B51EC100B2E
:1051F000FBF768F953EC1A2BFBF767F941EC1B0B33
:105200009FED550B53EC102B9DED0C0B51EC100B3F
:10521000FBF75EF941EC1A0B9FED510B51EC1B0BA8
:1052200053EC102BFBF754F941EC1B0B9FED4E0B8D
:1052300053EC102B9DED0C0B51EC100BFBF748F9C8
:1052400053EC1B2BFBF79DF841EC100B48487844BE
:1052500000EBC40090ED001B51EC100B53EC112B34
:10526000FBF78FF841EC1B0B3846FBF712FACDE940
:10527000080153EC1B2B51EC1A0BFBF782F841ECA5
:10528000100B3C48784400EBC40090ED00CB51EC8F
:10529000100B53EC1C2BFBF774F89DED081B53EC23
:1052A000112BFBF76EF80690CDE906519DED080B2A
:1052B00053EC102B9DED060B51EC100BFBF702F994
:1052C00053EC1C2BFBF7FEF853EC1A2BFBF7FAF808
:1052D00053EC1B2BFBF7F9F841EC100B9DED261B53
:1052E00053EC102B8DED001B00959DED260B51EC22
:1052F000100BFBF7EDF89DED000B41EC1A0B53EC96
:10530000102B9DED260B51EC100BFBF7DBF89DED00
:10531000061B53EC112B2FE0000000604715F73FF0
:10532000FE822B654715F73F44DF5DF80BAE543E18
:1053300000000000000040438E9803007AB60B0086
:1053400072460000D8460000AA4500000000000098
:105350000000000000000840000000E009C7EE3F28
:10536000FD033ADC09C7EE3FF5015B14E02F3EBEBA
:1053700036440000F0430000FBF7AAF853EC1A2B68
:10538000FAF7FFFF9DED060B41EC1A0B53EC102BC7
:105390009DED000B51EC100BFBF79AF8CDE90C01D9
:1053A0009DED0C0B51EC1A0B53EC102BFAF7E9FFA7
:1053B000CDE902010C46AA498C422FDB611A084351
:1053C00018D19DED0C0B53EC102B9DED020B51EC05
:1053D000100BFBF777F841EC1B0B9FEDA30B51EC87
:1053E0001A0B53EC102BFAF7CCFF53EC1B2BFBF7EB
:1053F00017FB2DD2022000F043FA00F011FA10EE54
:10540000901A18EE900A8DED020B8DED008B61F372
:105410001E0003909DED020BFFF7BEBB944A24F0E3
:105420000041914214D39349214408437FF4EFACE7
:105430009DED0C0B53EC102B9DED020B51EC100B62
:10544000FBF740F853EC1A2BFBF7EAFA7FF6DFACD8
:1054500024F000408849894A002601EB205182420D
:105460002BDA481C4FF4801121FA00F02044844AC2
:10547000C0F30A517A44A1F2FF3192ED000B814A48
:105480008DED080BCA4020EA0202C0F3130040F47D
:105490008010C1F1140120FA01F60992002CB8BF66
:1054A00076429DED080B53EC102B9DED0C0B51EC4F
:1054B000100BFBF707F8CDE90C019DED0C0B51EC3F
:1054C0001A0B53EC102BFAF75CFF9FED6F0B089053
:1054D000CDE9085153EC102B9DED080B51EC100B4E
:1054E000FAF7F6FF41EC1B0B9FED690B53EC102B09
:1054F0009DED080B51EC100BFAF7EAFF9DED0C0B3C
:1055000041EC1C0B53EC102B9DED080B51EC100BD8
:10551000FAF7D8FF53EC1A2BFAF7D7FF9FED5E1B73
:1055200053EC112BFAF7D4FF53EC1C2BFAF729FF9D
:1055300041EC1A0B51EC1B0B53EC1A2BFAF721FF21
:10554000CDE902019DED020B53EC1B2B51EC100B2E
:10555000FAF7B8FF53EC1A2BFAF7B7FF9DED020BE1
:1055600041EC1A0B53EC102B51EC100BFAF7B0FF77
:10557000CDE908014A489DED080B0521784400F06B
:1055800097F89DED081B51EC100B53EC112BFAF71B
:105590009FFF9DED021B53EC112BFAF796FFCDE90F
:1055A00006019DED020B53EC1A2B51EC100BFAF790
:1055B0008FFF53EC1A2BFAF7E4FE9FED3B0B41EC07
:1055C0001A0B53EC102B9DED060B51EC100BFAF758
:1055D00079FF9DED060B41EC1B0B53EC102B9DED61
:1055E000020B51EC100BFAF773FF53EC1B2BFAF77D
:1055F000E1FF53EC1A2BFAF765FF9DED021B53EC0C
:10560000112BFAF75FFF53EC192BFAF75EFFCDE988
:10561000020101EB065001150029C8BF039015DCFB
:105620009DED020B324651EC100BFBF7CAF9FEF769
:105630007FFF042808BF00F003F932469DED020BFE
:1056400051EC100BFBF7BDF9CDE902019DED020B0A
:1056500051EC180B53EC102BFAF73AFFFFF73ABB5B
:105660000000904000000000FE822B654715973C2B
:1056700000CC904000346F3F01FCFFFF0000E03F92
:10568000B0420000FFFF0F0000000000432EE63F85
:10569000396CA80C615C20BEEF39FAFE422EE63F61
:1056A0004841000000000000000000000000004031
:1056B00070B504462DED028B4D1E00EBC500B0EE1B
:1056C000408AF0EE608A90ED000B35F0060017D0AE
:1056D00053EC182B51EC100BFAF7FAFE41EC100BBF
:1056E0006D1E04EBC50090ED001B51EC100B53EC4C
:1056F000112BFAF746FE41EC100B35F00600E7D10E
:10570000022D36D0042D1CD0062D1CBFBDEC028B03
:1057100070BD53EC182B51EC100BFAF7D9FE94ED39
:105720000A1B53EC112BFAF72CFE53EC182BFAF74B
:10573000CFFE94ED081B53EC112BFAF722FE41EC3F
:10574000100B53EC182B51EC100BFAF7C1FE94ED33
:10575000061B53EC112BFAF714FE53EC182BFAF737
:10576000B7FE94ED040B53EC102BFAF70AFE41EC54
:10577000100B53EC182B51EC100BFAF7A9FE94ED1B
:10578000021B53EC112BFAF7FCFD53EC182BFAF724
:105790009FFE94ED001B53EC112BFAF7F2FDBDECCC
:1057A000028B41EC100B70BD9FED070B10B553EC55
:1057B000102B9FED070B51EC100BFAF7FBFE41ECA1
:1057C000100B10BD000000000000000000000000F1
:1057D000000000000000F03F10B553EC102B51EC1E
:1057E000100BFAF7CEFD41EC100B10BD10B553ECC9
:1057F000112B51EC100BFAF7C4FD41EC100B10BD4E
:105800009FED050B10B553EC102B51EC100BFAF774
:10581000D1FE41EC100B10BD0000000000000000A4
:105820009FED050B10B553EC102B51EC100BFAF754
:105830004FFE41EC100B10BD000000000000007096
:105840009FED050B10B553EC102B51EC100BFAF734
:105850003FFE41EC100B10BD0000000000000010E6
:1058600002E008C8121F08C1002AFAD17047704729
:10587000002001E001C1121F002AFBD17047000087
:105880000149086070470000F40000202DE9FF5F27
:1058900082B00021DDE90430020DDDF840B00343A1
:1058A00018D044F61050A2F2FF324243151411985A
:1058B00001281FD0A5EB0B00401C5FEA000A4FF047
:1058C00000064E4FDFF83891B046504615D5CAF164
:1058D000000413E0119801244AA3012801D16FEAC2
:1058E0000B010298119AC0E90031C0E9024206B0EA
:1058F000BDE8F09FCBF10000DFE704460021404AFD
:10590000491842EB0450CDE9001012E0E00707D03F
:1059100032463B4640464946FAF7DAFD804689461C
:1059200032463B4610461946FAF7D2FD06460F4668
:105930006410002CEAD1DDE90401DDE90023BAF1AD
:10594000000F06DAFAF7C4FD42464B46FAF7C0FDEF
:1059500005E0FAF72FFE42464B46FAF72BFE0446C7
:105960000E460022284BFBF75BF803D84FF0FF30C0
:10597000014607E00022254B20463146FAF701FD9B
:10598000FBF736F8102409E0002C0ADB0A2200237A
:10599000FAF776FC039B30321A55641E50EA010276
:1059A000F2D1641C039AC4F111031444119A012A20
:1059B00003D0012208430DD10AE0084304D000209F
:1059C0004FF0110B119072E7A3EB0B056D1E0DE06C
:1059D0005B4504DD4FF0000205F1010504E003DA48
:1059E0004FF00002A5F10105002AECD002981199B0
:1059F000C0E90231C0E9004579E700000000144029
:105A00000000F03F300000000000F0430000E03FE5
:105A10002DE9FF4F95B09B468946064600250FE2CB
:105A2000252877D100242746F84A0121059400E073
:105A3000044316F8013F203B01FA03F01042F7D16E
:105A400030782A2811D06FF02F033078A0F130027F
:105A5000092A16D8059A44F0020402EB820203EBED
:105A600042021044761C0590EFE759F8042B05928A
:105A7000002A03DA504244F40054059044F0020432
:105A8000761C30782E2816D116F8010F44F0040445
:105A90002A280DD06FF02F023078A0F13003092BA7
:105AA00009D807EB870302EB4303C718761CF3E71B
:105AB00059F8047B761C30786C280FD006DC4C2813
:105AC00017D068280DD06A2814D104E0742810D0AB
:105AD0007A280FD10DE044F400140AE044F4801455
