:020000040800F2
:10000000A80400209D010008FB1300088B130008C2
:10001000F913000847070008451700080000000012
:1000200000000000000000000000000011150008A2
:100030006907000800000000FD1300081315000800
:10004000B7010008B7010008B7010008B7010008B0
:10005000B7010008B7010008B7010008B7010008A0
:10006000B7010008B7010008B7010008B701000890
:10007000B7010008B7010008B7010008B701000880
:10008000B7010008B7010008B7010008B701000870
:10009000B7010008B7010008B7010008B701000860
:1000A000B7010008B7010008B7010008B701000850
:1000B000B7010008B7010008B7010008B701000840
:1000C000B7010008B7010008B7010008B701000830
:1000D000B7010008B7010008B7010008B701000820
:1000E000B7010008B7010008B7010008B701000810
:1000F000B7010008B7010008B7010008B701000800
:10010000B7010008B7010008B7010008B7010008EF
:10011000B7010008B7010008B7010008B7010008DF
:10012000B7010008B7010008B7010008B7010008CF
:10013000B7010008B7010008B7010008B7010008BF
:10014000B7010008B7010008B7010008B7010008AF
:10015000B7010008B7010008B7010008B70100089F
:10016000B7010008B7010008B7010008B70100088F
:10017000B7010008B7010008B7010008000000003F
:10018000B7010008B7010008DFF80CD000F05AFAF8
:1001900000480047FD200008A804002006488047CA
:1001A00006480047FEE7FEE7FEE7FEE7FEE7FEE75C
:1001B000FEE7FEE7FEE7FEE79D150008890100085F
:1001C0002DE9F05F0546002092469B46884606468C
:1001D000814640241BE0284641464746224600F01F
:1001E00069F853465A46C01A914110D31146184631
:1001F000224600F050F82D1A67EB01084F462246C0
:100200000120002100F047F817EB00094E41201EA5
:10021000A4F10104DFDC484631462A464346BDE8E6
:10022000F09F40EA01039B0703D009E008C9121FB1
:1002300008C0042AFAD203E011F8013B00F8013BA0
:10024000521EF9D27047D2B201E000F8012B491ECC
:10025000FBD270470022F6E710B513460A46044663
:100260001946FFF7F0FF204610BD30B50B4601469A
:1002700000202022012409E021FA02F59D4205D345
:1002800003FA02F5491B04FA02F52844151EA2F1EF
:100290000102F1DC30BD202A04DB203A00FA02F131
:1002A000002070479140C2F1200320FA03F3194364
:1002B00090407047202A04DB203A21FA02F0002106
:1002C000704721FA02F3D040C2F120029140084366
:1002D000194670472DE9FE4F804681EA0300C00FA2
:1002E0000C46009021F0004123F00045B8EB0200DD
:1002F000A94105D24046214690461C460B4602467F
:1003000023F00040104347D0270DC7F30A00C3F382
:100310000A510290401A019040286BDAC3F313008F
:1003200040F4801B0098924620B10023D2EB030AD0
:1003300063EB0B0B01985946C0F140025046FFF7A2
:10034000AAFF06460D4650465946019A00F08CF920
:1003500010EB08006141002487EA115284EAE77338
:100360001A4340D0009A62B3019A012A4FEA075219
:1003700015DC001B61EB02014FF0004202EA07525C
:10038000CDE90042001C41F5801132462B4600F0B9
:100390008CF903B0BDE8F08F40462146F9E7001B19
:1003A00061EB0201001C41F5801300185B4120182D
:1003B000A2F5001747EB030140EAD570B6196D416D
:1003C00011E06D084FEA360645EAC0754FEA07525C
:1003D000001B61EB0201001C41F5801149084FEA46
:1003E00030000019514132462B4603B0BDE8F04FB2
:1003F00000F04CB90098012240000023D0EB02022B
:1004000063EBE073009821464FEAE074B8EB00001C
:1004100061EB0401E9E783F000435BE781F0004111
:1004200058E72DE9FE4F81EA030404F0004421F06F
:10043000004100944FF0000B23F0004350EA010408
:100440005ED052EA03045BD0C3F30A54C1F30A55E9
:100450002C44A4F2F3340194A0FB0254C1F3130121
:1004600041F48011C3F3130343F4801301FB0244EE
:1004700000FB034E840A970A44EA815447EA8357F3
:10048000A4FB076802958D0A05FB07854FEA932CAC
:1004900004FB0C542705029D4FEA065847EA16371D
:1004A000B5EB08056EEB070C870E920E47EA811735
:1004B00042EA8312A7FB0201B6EB0B0164EB0004D6
:1004C0002B0D43EA0C335E1844EB1C50DA465146C0
:1004D000E7FB0201C5F313044FEA0B3343EA14535D
:1004E0004FEA0432019C43EA0603A4F10C0402948F
:1004F000009CCDE900B400F0D8F803B0BDE8F08F5F
:1005000000200146F9E72DE9F04D81EA030404F0EB
:10051000004B21F0004514464FF0000A23F0004143
:1005200050EA050220D054EA01021DD0C5F30A5753
:100530000246C5F31303C1F31300C1F30A5640F496
:10054000801543F48013A7EB0608101BD64608F26B
:10055000FD3873EB050002D308F1010801E09218A1
:100560005B41B8F1000F03DA00200146BDE8F08DD1
:1005700000204FF48011064684460EE0171B73EBF3
:10058000050705D3121B63EB050306434CEA010C78
:1005900049084FEA300092185B4150EA0107EDD15B
:1005A00052EA030012D082EA040083EA05010843FC
:1005B00005D0101BAB4106D20122002306E0002229
:1005C0004FF0004302E06FF0010253101AEB0600F7
:1005D0004CEB085110EB0A0041EB0B01BDE8F04D6C
:1005E00000F054B8C1F30A52C1F3130140F2FF33D3
:1005F00041F480119A4202DA00200146704740F22D
:1006000033439A42A2F2334202DC5242FFF752BE17
:10061000FFF741BE30B5041E71F1000404DB4FF05A
:100620000044404264EB0101141E73F1000405DB39
:100630001C464FF00043524263EB0403994208BF4B
:10064000904230BD064C074D06E0E06840F00103E3
:1006500094E8070098471034AC42F6D3FFF798FDB2
:100660006022000880220008202A06DBCB17203AEF
:1006700041FA02F043EAE07306E041FA02F3D040A7
:10068000C2F12002914008431946704710B5141E6C
:1006900073F1000408DA401C41F1000192185B413B
:1006A0001A4301D120F0010010BD2DE9F04D924612
:1006B0009B4611B1B1FA81F202E0B0FA80F2203229
:1006C0009046FFF7E8FD04460F4640EA0A0041EA7B
:1006D0000B0153465A46084313D0114653EA010012
:1006E00019D0C8F140025046FFF7E4FD05460E461A
:1006F000504659464246FFF7CEFD084305D001203B
:1007000004E020463946BDE8F08D0020054346EA66
:10071000E0762C4337430A986305E40AA0EB08000F
:100720000022FD0A44EA47540A3002D5002001465F
:10073000E9E7010510196941DDE90845001969413A
:10074000BDE8F04DA2E7FEE710B500F00FF801227A
:100750000221044800F019F9BDE810404FF47A7006
:1007600000F020B800000240704700000B4800B5C0
:10077000016887B041F0010101600068694600F03E
:1007800001000590022000900120019003200390B9
:10079000034800F019F807B000BD000030380240EF
:1007A0000000024070B5044600F0F4F80546601CF5
:1007B00002D004480078044400F0ECF8401BA0424A
:1007C000FAD370BD000000202DE9F84F00224FF051
:1007D000010803254FF00F0E0B6808FA02F42340BE
:1007E000A3426ED14E68012E05D0022E03D0112EE9
:1007F00001D0122E12D186684FEA420C05FA0CF78E
:10080000BE43CF6807FA0CF7374387604668A643B4
:100810000C79C4F30014944034434460C668570014
:1008200005FA07FC8C6826EA0C06BC403443C46019
:100830004C68022C01D0122C13D1D40800EB840494
:10084000A346D4F8209054074FEAD46A0EFA0AF669
:1008500029EA06090E6906FA0AF646EA0906CBF8FD
:10086000206006680C7926EA0C0604F00304BC40FC
:10087000344304604C68E40065D5364C266846F481
:1008800080462660246822F0030604F48044009425
:10089000314C3444A446D4F808489607370F0EFA72
:1008A00007F6B4432D4EB04201D1002624E02C4E71
:1008B000B04201D101261FE02A4EB04202D10226E9
:1008C0001AE040E0284EB04201D1032614E0274E42
:1008D000B04201D104260FE0254EB04201D10526D9
:1008E0000AE0244EB04201D1062605E0224EB04275
:1008F00001D1072600E00826BE402643CCF8086850
:100900001E4E34684F689C43FF0300D51C4334607F
:100910001A4C241D26684F689E43BF0300D51E4312
:100920002660164E083634684F689C43FF0200D597
:100930001C433460114E0C3634684F689C43BF0230
:1009400000D51C433460521C102AFFF445AFBDE8AB
:10095000F88F00004438024000300140000002409F
:100960000004024000080240000C02400010024057
:100970000014024000180240001C0240003C0140EC
:100980000069084000D0012070470AB181617047BA
:100990000904FBE701488068704700000000002060
:1009A00070B5040025D094F83D00002520B984F8E6
:1009B0003C50204600F0B8F8242084F83D00206820
:1009C000016821F0010101602068016841F40041E3
:1009D00001602068016821F40041016000F0FEF927
:1009E0004D4A6168914201D84C4900E04C49884227
:1009F00001D2012070BD4B492368B0FBF1F15E6864
:100A000026F03F060E435E606368934206D94FF4BA
:100A1000967359434FF47A73B1FBF3F12368491C81
:100A20001E6A26F03F06314319626168914210D870
:100A30004900401EB0FBF1F2521CC2F30B02042A23
:100A400001D2042022E0B0FBF1F0401CC0F30B0007
:100A50001CE0A268F2B301EBC10303EB0116431ED5
:100A6000B3FBF6F35B1C43F480431B0549D092B300
:100A700001EBC10202EB0111401EB0FBF1F0401C82
:100A8000C0F30B0040F4804040F400402168CA6984
:100A90004CF6FF739A431043C861D4E90710014331
:100AA0002068026822F0C00211430160D4E903010A
:100AB00001432068826848F2FF339A431143816002
:100AC000D4E9050108432168CA6822F0FF021043F7
:100AD000C86001E00EE016E02068016841F0010105
:100AE00001602564202084F83D00256384F83E5091
:100AF000002070BD01EB4106431EB3FBF6F35B1C07
:100B0000B3E70120C2E701EB4101401EB0FBF1F069
:100B1000401CC0F30B00B7E7A086010080841E00D4
:100B200000093D0040420F0010B586B00446142174
:100B30006846FFF78FFB13492068884220D112488E
:100B4000016841F0020101600068694600F002009E
:100B50000590C020009012200190012002900320F7
:100B60000390042004900948FFF72EFE0648103039
:100B7000016841F400110160006800F40010059064
:100B800006B010BD0054004030380240000402405E
:100B9000024881680278114481607047000000209B
:100BA0000B4810B5016841F400710160016841F41F
:100BB00080610160016841F480710160032000F0F0
:100BC00061F8002000F006F800F024F8002010BDC5
:100BD000003C024070B50D4D04464FF47A71287800
:100BE000B1FBF0F00A490968B1FBF0F000F0F4FA4B
:100BF00048B9102C07D200222146501E00F022F8DE
:100C000000206C6070BD012070BD0000000000205D
:100C10000C0000200A4808B5016841F480410160D9
:100C2000006800F4804000900548001F016841F012
:100C300080510160006800F08050009008BD000005
:100C400044380240F0B40E4B1B680C46C3F3022339
:100C5000C3F10705042D00D90425191D072901D268
:100C6000002300E0DB1E012606FA05F1491E2140A3
:100C700099409E40761E16403143F0BC00F074BD92
:100C80000CED00E0064900F0070208684FF6FF038C
:100C9000184040EA0220034A1043086070470000F1
:100CA0000CED00E00000FA052DE9F0470E460500C6
:100CB00065D0DFF81481D8F80000F7B200F00F001B
:100CC000B04207D288F80070D8F8000000F00F009A
:100CD000B04254D128683D4C810712D5400703D556
:100CE000206840F4E05020602878000703D5206891
:100CF00040F4604020602068A96820F0F0000843BC
:100D000020602878C0072DD030496868083901284C
:100D100012D0022813D0032811D0096889070029AE
:100D20002DDA216821F0030101432160FFF732FE33
:100D3000814641F2883A0EE009688903EFE70968C5
:100D40008901ECE7FFF726FEA0EB0901514502D926
:100D50000320BDE8F0872068696800F00C00B0EB64
:100D6000810FEFD1D8F80010404601F00F01B142D9
:100D700007D90770006800F00F00B04201D00120D1
:100D8000E7E72878400705D52068E96820F4E050B7
:100D9000084320602878000706D52068296920F4D8
:100DA000604040EAC100206000F038F82168084A3D
:100DB000C1F30311515CC840064908600648006849
:100DC000FFF708FF0020C4E7003C0240083802405B
:100DD000482200080C0000200400002004480549B7
:100DE00000680968044AC1F38221515CC840704719
:100DF0000C00002008380240582200080448054929
:100E000000680968044AC1F34231515CC840704728
:100E10000C0000200838024058220008154810B580
:100E2000006810F00C02144813D04110042A0FD0AF
:100E3000082A0ED10F4C241F2268236802F03F02BB
:100E40005B0207D52068C0F38810A0FB010106E013
:100E5000084610BD2168C1F38811A1FB00010023E1
:100E6000FFF7AEF92168C1F30141491C4900B0FB0D
:100E7000F1F010BD083802400024F4002DE9F84FCD
:100E8000040076D02078DFF838A3CE4DC00749D0D3
:100E9000DAF800105046C1F38101012908D000683A
:100EA000C0F3810002280AD1281D0068400206D53F
:100EB0002868800336D560680028E2D032E0606898
:100EC000B0F5803F10D0B0F5A02F286810D020F4E6
:100ED00080302860286820F4802028606068A0B1F5
:100EE000FFF758FD06460CE0286840F48030F4E730
:100EF00040F480202860F7E7FFF74CFD801B642852
:100F000073D828688003F7D50CE0FFF743FD064649
:100F100005E000BFFFF73EFD801B6428F0D828687D
:100F20008003F7D42078DFF8A08280074FF0000913
:100F30003ED5DAF80010504611F00C0F09D00068C9
:100F4000C0F3810002280BD19D48001F00684002B9
:100F500006D42868800715D5E068012809D111E07A
:100F6000E068B8B10120C8F80000FFF713FD06469D
:100F700005E020E1FFF70EFD801B0228C0D828689D
:100F80008007F7D52868216920F0F80040EAC10001
:100F900028600DE0C8F80090FFF7FCFC064604E06E
:100FA000FFF7F8FC801B02281FD828688007F7D4B9
:100FB0002078000722D5824E844861696C3671B171
:100FC00001210160FFF7E6FC074604E0FFF7E2FCC1
:100FD000C01B022809D830688007F7D50EE0C0F89A
:100FE0000090FFF7D7FC074605E082E0FFF7D2FC50
:100FF000C01B02287DD830688007F7D420784007CE
:1010000068D5DFF8BCB100270BF1380BDBF8000026
:10101000C0000BD4DBF8001041F08051CBF8001079
:10102000DBF80000012700F080500090684E306827
:10103000C00510D4306840F480703060FFF7AAFC1F
:10104000009005E0FFF7A6FC0099401A022850D84E
:101050003068C005F6D55A4EA068683601280FD012
:101060000528306810D020F001003060306820F092
:1010700004003060A068B8B1FFF78CFC00900FE06E
:10108000306840F00100F4E740F004003060F7E71A
:10109000FFF780FC0099411A41F28830814266D8FE
:1010A00030688007F4D50EE0FFF774FC009007E08D
:1010B000FFF770FC0099411A41F28830814256D8FE
:1010C00030688007F4D42FB1DBF8001021F0805194
:1010D000CBF80010A069D0B3DAF800205146C2F373
:1010E0008102022A4AD00228484607D0C8F8600088
:1010F00000E03CE0FFF74EFC04463BE04746C8F802
:101100006000FFF747FC064605E000BFFFF742FC22
:10111000801B02282BD828688001F7D4D4E9070166
:101120000843A16A2B4A490802EB0141626A41EA7D
:101130008211084394F82C1040EA01612048001FF6
:10114000016001203866FFF725FC044605E034E025
:10115000FFF720FC001B022809D828688001F7D57A
:101160002BE000BFFFF716FC001B022802D903206A
:10117000BDE8F88F28688001F4D41EE00128F7D07C
:101180000868E26900F48001914214D1226A00F0FB
:101190003F0191420FD147F6C071626A014091420E
:1011A00009D1A26A00F44031914204D1E16A00F011
:1011B0007060884201D00120DAE70020D8E7000003
:1011C000083802400038024000004742800E474283
:1011D000007000400000FFFF10B5401EB0F1807F9E
:1011E00001D3012010BD4FF0E02460610F21601792
:1011F00000F0BAFA0020A06107202061002010BD95
:1012000070B5040004D094F83900002510B106E050
:10121000012070BD84F83850204600F023F82420C7
:1012200084F839002068C16821F40051C16020466B
:1012300000F0C2F92068016921F490410161206841
:10124000416921F02A0141612068C16841F40051DF
:10125000C160E563202084F8390084F83A0000205A
:1012600070BD000010B586B0044614216846FEF734
:10127000F1FF14492068884221D11348016841F0E8
:1012800010010160006800F0100005900E4814384D
:10129000016841F0010101600068694600F0010049
:1012A00005904FF4C0600090022001900120029050
:1012B00003200390072004900448FFF785FA06B046
:1012C00010BD000000100140443802400000024000
:1012D0002DE9F843044690F839001F4616460D469E
:1012E000202850D1B5B1AEB194F8380001284AD0C9
:1012F000012084F838004FF00008C4F83C80212019
:1013000084F83900FFF746FBA6848146E68484F81A
:10131000388026E00120BDE8F883E08C401EE084A0
:10132000A0684B46B0F5805F4FF000024FF080019F
:101330002046009703D000F0D3F9E8B90DE000F0A3
:10134000CFF9C8B928882168C0F30800486020692F
:1013500008B16D1C05E0AD1C03E0216815F8010B18
:101360004860E08C0028D8D14B460022402120461E
:10137000009700F0B5F908B10320CCE7202084F8ED
:1013800039000020C7E70220C5E7FEE730B587B087
:1013900014216846FEF75EFF15480024016841F0FD
:1013A00080010160016801F080010591016841F050
:1013B00001010160016801F001010591016841F03E
:1013C0000201016000680B4D00F002000590002250
:1013D00002212846FFF7D9FA01210220CDE90214A3
:1013E000CDE9000169462846FFF7EEF907B030BDA8
:1013F0003038024000000240FEE7704770470000AE
:101400002DE9F0410025154E2C46012702213046DA
:10141000FFF7B6FA0028F9D0502000F01EFE022196
:101420003046FFF7ADFA01280BD0C4F1070007FAE8
:1014300000F08543641CE4B2082CE7D32846BDE8DD
:10144000F08102213046FFF79BFA0128F9D0C4F160
:10145000070007FA00F0C0B20543EBE700000240C6
:1014600030B585B00446FFF781F9284D00220221EE
:101470002846FFF78AFA1420FFF794F90122022187
:101480002846FFF782FA502000F0E7FD0220009086
:10149000002001900320039069462846FFF794F945
:1014A00002212846FFF76CFA70BB02212846FFF79D
:1014B00067FA0028F9D002212846FFF761FA0128CF
:1014C000F9D0FFF79DFFA070FFF79AFFE070FFF7DC
:1014D00097FF2070FFF794FF6070FFF791FF207176
:1014E000FFF744F9012202212846FFF74EFAA078BF
:1014F000E1786278084421781144084421798842CF
:1015000002D1002005B030BD0120FBE70000024001
:101510007047FFF73DBB000030B593B030216846FF
:10152000FEF798FE14210CA8FEF794FE194800253A
:10153000016841F080510160006800F08050119016
:101540001548016841F4804101600068022400F4FC
:101550008040119001200090000401908001CDE9AD
:101560000640082008904FF4A870CDE90904042033
:101570000B906846FFF782FC0CA90F2081E8310030
:101580004FF4A0500F90109005210CA8FFF78CFB92
:1015900013B030BD4038024000700040054801687B
:1015A00041F47001016003494FF000608039086028
:1015B0007047000088ED00E02DE9F0410446006826
:1015C0000169E26821F44051114301612169A06879
:1015D000E26908436169114308432168CA6849F216
:1015E0000C639A430243CA6020684169A26921F4EE
:1015F000407111434161E069192764253226B0F535
:10160000004F354A354920684FF0000806D088421F
:1016100001D0904236D1FFF7F1FB35E0884201D08E
:10162000904202D1FFF7EAFB01E0FFF7D7FB6168C8
:101630004A18A0FB070148EB0803FEF7C1FD01466D
:10164000B0FBF5F00201B1FBF5F06FF01803584361
:1016500001EB800006EBC000B0FBF5F000F0F800F5
:1016600002EB4002B1FBF5F0584301EB800006EBC2
:10167000C000B0FBF5F000F007002168104488605E
:10168000BDE8F081FFF7AAFB61688B0F8A00A0FB21
:101690000701FEF795FD0146B0FBF5F06FF018026B
:1016A000504301EB800006EB0010B0FBF5F000F0BA
:1016B000F002B1FBF5F002EB0012B1FBF5F06FF0B8
:1016C0001803584301EB800006EB0010B0FBF5F067
:1016D00000F00F00D1E700000014014000100140AD
:1016E0002DE9F041984617460E460446069D1DE03A
:1016F000681C1BD02DB1FFF74DF9A0EB0800A842E4
:1017000014D92068C16821F4D071C1602068416992
:1017100021F001014161202084F8390084F83A0069
:10172000002084F838000320BDE8F08120680068BC
:1017300036EA000004D00020B842D9D00020F3E7F8
:101740000120F9E7FEE700000FB4054B10B503A92F
:10175000044A029800F0EAF810BC5DF814FB00009F
:10176000E5200008100000200907090E002804DB0E
:1017700000F1E02080F80014704700F00F0000F145
:10178000E02080F8141D704702E008C8121F08C14D
:10179000002AFAD170477047002001E001C1121FF2
:1017A000002AFBD1704700002DE9FF5F82B00021C5
:1017B000DDE90430020DDDF840B0034318D044F6F3
:1017C0001050A2F2FF3242431514119801281FD085
:1017D000A5EB0B00401C5FEA000A4FF000064E4FDD
:1017E000DFF83891B046504615D5CAF1000413E031
:1017F000119801244AA3012801D16FEA0B01029834
:10180000119AC0E90031C0E9024206B0BDE8F09F7C
:10181000CBF10000DFE704460021404A491842EBC3
:101820000450CDE9001012E0E00707D032463B46F5
:1018300040464946FEF7F5FD8046894632463B461E
:1018400010461946FEF7EDFD06460F466410002CC3
:10185000EAD1DDE90401DDE90023BAF1000F06DA7F
:10186000FEF7DFFD42464B46FEF7DBFD05E0FEF7E7
:101870004AFE42464B46FEF746FE04460E4600220E
:10188000284BFEF7C7FE03D84FF0FF30014607E0B4
:101890000022254B20463146FEF71CFDFEF7A2FE36
:1018A000102409E0002C0ADB0A220023FEF788FC42
:1018B000039B30321A55641E50EA0102F2D1641CB7
:1018C000039AC4F111031444119A012A03D001228E
:1018D00008430DD10AE0084304D000204FF0110B5B
:1018E000119072E7A3EB0B056D1E0DE05B4504DD67
:1018F0004FF0000205F1010504E003DA4FF00002A9
:10190000A5F10105002AECD002981199C0E9023135
:10191000C0E9004579E70000000014400000F03FF6
:10192000300000000000F0430000E03F2DE9FF4FD1
:1019300095B09B468946064600250FE2252877D1BB
:1019400000242746F84A0121059400E0044316F8D4
:10195000013F203B01FA03F01042F7D130782A28EA
:1019600011D06FF02F033078A0F13002092A16D879
:10197000059A44F0020402EB820203EB4202104497
:10198000761C0590EFE759F8042B0592002A03DA3C
:10199000504244F40054059044F00204761C307820
:1019A0002E2816D116F8010F44F004042A280DD071
:1019B0006FF02F023078A0F13003092B09D807EB24
:1019C000870302EB4303C718761CF3E759F8047B3F
:1019D000761C30786C280FD006DC4C2817D068288D
:1019E0000DD06A2814D104E0742810D07A280FD1C1
:1019F0000DE044F400140AE044F4801401E044F4DF
:101A000040147278824202D104F58014761C761C50
:101A1000307866280BD013DC582877D009DC0028F2
:101A200075D04528F6D04628F4D047281AD19DE134
:101A300018E0632835D0642879D0652812D195E163
:101A4000702873D008DC6728F1D069286FD06E2821
:101A50000DD06F2806D1B5E073282CD0752875D02D
:101A6000782874D05A46179990476D1C75E1C4F3D5
:101A70000250022809D003280DD0D9F800100428FC
:101A80000DD00D6009F1040967E1D9F80010EA17DB
:101A9000C1E90052F6E7D9F800100D80F2E70D70A9
:101AA000F0E719F8041B8DF8001000208DF80100F4
:101AB000EA46012003E059F804AB4FF0FF3061071C
:101AC0004FF0000102D40DE008F101018846B9424F
:101AD0000FDA8045F8DB1AF808100029F4D108E085
:101AE00008F1010188468142FADB1AF80810002942
:101AF000F6D105985B46A0EB080721463846179AB1
:101B000000F094FA284400EB080507E04DE029E1D5
:101B10000DE01AF8010B5A4617999047B8F10108E1
:101B2000F7D25B4621463846179A13E142E00A2273
:101B30000092C4F302524FF0000A022A08D059F86A
:101B400004CB032A4FEAEC710AD00DE029E02AE029
:101B500009F1070121F00702F2E802C1914609E00C
:101B60000FFA8CFC4FEAEC71042A03D14FFA8CFC7B
:101B70004FEAEC71002907DA0A460021DCF1000C7B
:101B800061EB02012D2202E0220504D52B228DF803
:101B90000420012203E0E20701D02022F7E790466B
:101BA00059E00A2102E010220DE010214FF0000A56
:101BB00000910BE010224FF0000A44F004040827C3
:101BC000009203E008224FF0000A0092C4F3025290
:101BD000022A05D059F804CB0021032A08D009E0D5
:101BE00009F1070121F00702F2E802C1914605E080
:101BF0001FFA8CFC042A01D10CF0FF0C4FF00008F6
:101C0000220728D5702806D0009B83F0100353EAE2
:101C10000A0305D00EE040228DF80420012208E0DE
:101C20005CEA010206D030228DF804208DF8050010
:101C300002229046009B83F0080353EA0A030AD16C
:101C40005CEA010201D1620705D530228DF804203B
:101C50004FF001087F1E582804D034A003900EA82E
:101C600002900DE036A0F9E753466046009AFEF771
:101C7000A7FA84460398825C0298401E0290027084
:101C80005CEA0100F0D1029806A9081A00F1200AC6
:101C9000600702D524F4803400E00127574502DDB7
:101CA000A7EB0A0000E0002000EB0A010090059875
:101CB0004144401A0590E00306D45B462146179A3A
:101CC000059800F0B3F90544002706E001A85A463C
:101CD000C05D179990476D1C7F1C4745F6DBE003FC
:101CE0000CD55B462146179A059800F09FF90544EC
:101CF00004E030205A46179990476D1C0099481E01
:101D000000900029F5DC08E0029802995A46007814
:101D1000491C0291179990476D1CBAF10001AAF174
:101D2000010AF1DC65E1000009280100303132339D
:101D30003435363738396162636465660000000007
:101D400030313233343536373839414243444546F1
:101D50000000000000F058F90544761C3078002897
:101D60007FF4ECAD19B02846BDE8F08F620700D4CF
:101D7000062709F1070222F0070CFCE80223E146DE
:101D800003F000485FEA080C02D00FF2702C0DE05F
:101D90005FEA045C02D50FF2682C07E05FEAC47CBE
:101DA00002D00FF2602C01E0AFF2700C4FF0FF3860
:101DB00023F00043CDF850C065280CD006DC452840
:101DC00009D046281DD047283DD13DE0662818D0CF
:101DD00067287ED138E00021112F01DB112000E0BF
:101DE000781CCDE9000106A90EA8FFF7DDFCDDE9AE
:101DF0000F010E9A03910021009207F1010A04914C
:101E00004DE04FF000400097CDE9011006A90EA863
:101E1000FFF7CAFCDDE90F0203920E9B1199002225
:101E2000DDF80CA00093049211B9791C00EB010AB3
:101E3000B7EB0A0004D4C0F1FF3007F1010A0490A7
:101E4000AAEB0700019044E0012F00DA01270021EE
:101E5000112F01DD112000E03846CDE9000106A96F
:101E60000EA8FFF7A1FCDDE90F010E9A03910021F6
:101E700004910092BA4621070CD40399514500DA27
:101E80008A46BAF1010F05DD009AAAF10101515C01
:101E9000302908D0B84202DA10F1040F06DA012125
:101EA000CDE9011015E0AAF10101E9E7002805DC00
:101EB000049901440491AAEB000102E0411C514540
:101EC00000DD8A460499401A401C01904FF0004002
:101ED0000290200704D40198504501DBCDF804801E
:101EE00000208DF84F0002980DF14F07B0F1004F20
:101EF00025D02B200E9002984FF0020800280CDA13
:101F0000404202902D200E9007E00A210298FEF731
:101F1000ACF93031029007F8011DB8F10001A8F1C9
:101F20000108F2DC02980028EFD1791E0E980870A3
:101F3000307800F0200040F0450007F8020D12A8AC
:101F4000C01B00F107081498007800B1012000EBD5
:101F50000A01019801EBE07105984144401A401EC6
:101F60000590E00306D45B462146179A059800F0D9
:101F70005DF805441498007818B15A4617999047AF
:101F80006D1CE00324D55B462146179A059800F0A6
:101F90004DF805441CE00498002807DBDDE9030147
:101FA000884203DD0098405C179901E017993020C2
:101FB0005A469047049805F10105401C0490019889
:101FC000401E019004D12E205A46179990476D1C4F
:101FD000BAF10001AAF1010ADDDC05E017F8010BF6
:101FE0005A46179990476D1CB8F10001A8F10108F5
:101FF000F4DC5B462146179A0598ABE62D000000FD
:102000002B000000200000002DE9F04104460025CF
:102010001E461746880404D405E039462020B04700
:102020006D1C641EF9D52846BDE8F0812DE9F0410C
:10203000044600251E469046C80301D5302700E01F
:102040002027880404D505E041463846B0476D1C7A
:10205000641EF9D52846BDE8F0813EE000BF00BF10
:1020600000BF00BF00BF00BF00BF00BF00BF00BF78
:1020700000BF00BF00BF00BF00BF00BF00BF00BF68
:1020800000BF00BF00BF00BF00BF00BF00BF00BF58
:1020900000BF00BF00BF00BF00BF00BF00BF00BF48
:1020A00000BF00BF00BF00BF00BF00BF00BF00BF38
:1020B00000BF00BF00BF00BF00BF00BF00BF00BF28
:1020C00000BF00BF00BF00BF00BF00BF00BF00BF18
:1020D00000BF00BF00BF00BF00BF401EC0B2BDD2E6
:1020E0007047000013B56423012269460248FFF7D8
:1020F000EFF800981CBD0000680000208EB0FEF7CD
:102100004FFDFFF709FAFFF741F932483049002443
:1021100001603149C0E901144FF48041C0E9034135
:1021200044618461C4610462FEF73AFC29482B498A
:10213000543001604FF4E131C0E901140C21C46056
:10214000C0E904418461C461FFF75AF8FEF7FCFA64
:102150001422234903A8FEF764F81E48052314221D
:1021600003A95430FFF7B4F84FF47A7425E01DA1A9
:1021700008A8FEF756F817480523142208A954307A
:10218000FFF7A6F82046FEF70DFB9DF8050000902E
:102190009DF804309DF807209DF8061016A0FFF763
:1021A000D3FA0AE01EA108A8FEF73BF80948052368
:1021B000142208A95430FFF78BF82046FEF7F2FAF4
:1021C00001A8FFF74DF94FF014020028EAD1CEE73D
:1021D0000054004014000020A086010000100140BF
:1021E00034220008526563656976652066726F6DFA
:1021F0002044485431310D0A0D0A444854313121EC
:102200000D0A0D0A2025642E256420255248202C15
:102210002025642E2564202A43200D0A000000009A
:102220004E6F646174612066726F6D204448543152
:10223000310D0A00436865636B2044485431310D09
:102240000A00000000000000000000000000000084
:10225000010203040607080900000000010203044C
:1022600080220008000000201400000088170008E9
:10227000942200081400002094040000981700081D
:102280000100000010000000000000000024F40025
:04229000000000004A
:040000050800018965
:00000001FF
