:020000040800F2
:10000000500400209D010008E71400084514000872
:10001000E5140008F90600086B180008000000004D
:10002000000000000000000000000000EB140008C9
:10003000FB06000800000000E9140008ED140008A9
:10004000B7010008B7010008B7010008B7010008B0
:10005000B7010008B7010008B7010008B7010008A0
:10006000B7010008B7010008B7010008B701000890
:10007000B7010008B7010008B7010008B701000880
:10008000B7010008B7010008B7010008B701000870
:10009000B7010008B7010008B7010008B701000860
:1000A000B7010008B7010008B7010008B701000850
:1000B000B70100088D150008B7010008B701000856
:1000C000B7010008B7010008B7010008B701000830
:1000D000B7010008B7010008B7010008B701000820
:1000E000B7010008B7010008B7010008B701000810
:1000F000B7010008B7010008B7010008B701000800
:10010000B7010008B7010008B7010008B7010008EF
:10011000B7010008B7010008B7010008B7010008DF
:10012000B7010008B7010008B7010008B7010008CF
:10013000B7010008B7010008B7010008B7010008BF
:10014000B7010008B7010008B7010008B7010008AF
:10015000B7010008B7010008B7010008B70100089F
:10016000B7010008B7010008B7010008B70100088F
:10017000B7010008B7010008B7010008000000003F
:10018000B7010008B7010008DFF80CD000F0A2FAB0
:1001900000480047AD18000850040020064880477A
:1001A00006480047FEE7FEE7FEE7FEE7FEE7FEE75C
:1001B000FEE7FEE7FEE7FEE771150008890100088B
:1001C0002DE9F05F0546002092469B46884606468C
:1001D000814640241BE0284641464746224600F01F
:1001E000F9F953465A46C01A914110D311461846A0
:1001F000224600F0E0F92D1A67EB01084F4622462F
:100200000120002100F0D7F917EB00094E41201E14
:10021000A4F10104DFDC484631462A464346BDE8E6
:10022000F09FD2B201E000F8012B491EFBD27047CB
:100230000022F6E710B513460A4604461946FFF7B2
:10024000F0FF204610BD2DE9FE4F804681EA0300F5
:10025000C00F0C46009021F0004123F00045B8EBA0
:100260000200A94105D24046214690461C460B4655
:10027000024623F00040104347D0270DC7F30A0081
:10028000C3F30A510290401A019040286BDAC3F37D
:10029000130040F4801B0098924620B10023D2EB5B
:1002A000030A63EB0B0B01985946C0F1400250461C
:1002B00000F081F906460D4650465946019A00F075
:1002C00099F910EB08006141002487EA115284EA91
:1002D000E7731A4340D0009A62B3019A012A4FEAA9
:1002E000075215DC001B61EB02014FF0004202EAED
:1002F0000752CDE90042001C41F5801132462B46E1
:1003000000F099F903B0BDE8F08F40462146F9E7C7
:10031000001B61EB0201001C41F5801300185B41DA
:100320002018A2F5001747EB030140EAD570B61973
:100330006D4111E06D084FEA360645EAC0754FEA97
:100340000752001B61EB0201001C41F580114908B6
:100350004FEA30000019514132462B4603B0BDE848
:10036000F04F00F059B90098012240000023D0EB73
:10037000020263EBE073009821464FEAE074B8EBA9
:10038000000061EB0401E9E783F000435BE781F0E3
:10039000004158E72DE9FE4F81EA030404F00044D0
:1003A00021F0004100944FF0000B23F0004350EA8D
:1003B00001045ED052EA03045BD0C3F30A54C1F3D4
:1003C0000A552C44A4F2F3340194A0FB0254C1F367
:1003D000130141F48011C3F3130343F4801301FBB1
:1003E000024400FB034E840A970A44EA815447EA18
:1003F0008357A4FB076802958D0A05FB07854FEA22
:10040000932C04FB0C542705029D4FEA065847EA3B
:100410001637B5EB08056EEB070C870E920E47EA10
:10042000811742EA8312A7FB0201B6EB0B0164EBD2
:1004300000042B0D43EA0C335E1844EB1C50DA46E3
:100440005146E7FB0201C5F313044FEA0B3343EABD
:1004500014534FEA0432019C43EA0603A4F10C044E
:100460000294009CCDE900B400F0E5F803B0BDE8CB
:10047000F08F00200146F9E72DE9F04D81EA0304F1
:1004800004F0004B21F0004514464FF0000A23F021
:10049000004150EA050220D054EA01021DD0C5F304
:1004A0000A570246C5F31303C1F31300C1F30A56FA
:1004B00040F4801543F48013A7EB0608101BD646C2
:1004C00008F2FD3873EB050002D308F1010801E0E2
:1004D00092185B41B8F1000F03DA00200146BDE835
:1004E000F08D00204FF48011064684460EE0171B65
:1004F00073EB050705D3121B63EB050306434CEAB8
:10050000010C49084FEA300092185B4150EA01079C
:10051000EDD152EA030012D082EA040083EA050119
:10052000084305D0101BAB4106D20122002306E090
:1005300000224FF0004302E06FF0010253101AEB6B
:1005400006004CEB085110EB0A0041EB0B01BDE833
:10055000F04D00F061B80EB5C10F80EAE0700844BC
:10056000CA07002140F233438DE80E000A460B46CD
:1005700000F061F803B000BD70B5C1F30A5201F09C
:1005800000450024C1F3130140F2FF3341F4801110
:100590009A4201DA002070BD40F233439A42A2F23F
:1005A000334203DC524200F015F800E090402C4347
:1005B000F1D0404270BD202A04DB203A00FA02F15B
:1005C000002070479140C2F1200320FA03F3194341
:1005D00090407047202A04DB203A21FA02F00021E3
:1005E000704721FA02F3D040C2F120029140084343
:1005F00019467047202A06DBCB17203A41FA02F051
:1006000043EAE07306E041FA02F3D040C2F120026F
:10061000914008431946704710B5141E73F1000449
:1006200008DA401C41F1000192185B411A4301D1E4
:1006300020F0010010BD2DE9F04D92469B4611B10E
:10064000B1FA81F202E0B0FA80F220329046FFF770
:10065000B2FF04460F4640EA0A0041EA0B01534646
:100660005A46084313D0114653EA010019D0C8F185
:1006700040025046FFF7AEFF05460E46504659462B
:100680004246FFF798FF084305D0012004E02046CA
:100690003946BDE8F08D0020054346EAE0762C435C
:1006A00037430A986305E40AA0EB08000022FD0A1C
:1006B00044EA47540A3002D500200146E9E7010523
:1006C00010196941DDE9084500196941BDE8F04D9F
:1006D000A2E70000064C074D06E0E06840F0010389
:1006E00094E8070098471034AC42F6D3FFF750FD6A
:1006F0001C1A00083C1A0008FEE7704770B5044653
:1007000000F0EAF80546601C02D004480078044472
:1007100000F0E2F8401BA042FAD370BD00000020B8
:100720002DE9F84F00224FF0010803254FF00F0E7E
:100730000B6808FA02F42340A3426ED14E68012EE2
:1007400005D0022E03D0112E01D0122E12D18668B0
:100750004FEA420C05FA0CF7BE43CF6807FA0CF7D4
:10076000374387604668A6430C79C4F3001494406D
:1007700034434460C668570005FA07FC8C6826EAD3
:100780000C06BC403443C4604C68022C01D0122CCF
:1007900013D1D40800EB8404A346D4F82090540766
:1007A0004FEAD46A0EFA0AF629EA06090E6906FA31
:1007B0000AF646EA0906CBF8206006680C7926EAB4
:1007C0000C0604F00304BC40344304604C68E400AD
:1007D00065D5364C266846F480462660246822F0AB
:1007E000030604F480440094314C3444A446D4F805
:1007F00008489607370F0EFA07F6B4432D4EB0425D
:1008000001D1002624E02C4EB04201D101261FE088
:100810002A4EB04202D102261AE040E0284EB042F1
:1008200001D1032614E0274EB04201D104260FE087
:10083000254EB04201D105260AE0244EB04201D136
:10084000062605E0224EB04201D1072600E0082628
:10085000BE402643CCF808681E4E34684F689C435F
:10086000FF0300D51C4334601A4C241D26684F68D2
:100870009E43BF0300D51E432660164E08363468DB
:100880004F689C43FF0200D51C433460114E0C3668
:1008900034684F689C43BF0200D51C433460521C2F
:1008A000102AFFF445AFBDE8F88F0000443802403D
:1008B00000300140000002400004024000080240F5
:1008C000000C0240001002400014024000180240D8
:1008D000001C0240003C0140014880687047000055
:1008E000000000200248816802781144816070474E
:1008F000000000200B4810B5016841F40071016050
:10090000016841F480610160016841F48071016017
:10091000032000F06FF8002000F006F800F024F843
:10092000002010BD003C024070B50D4D04464FF450
:100930007A712878B1FBF0F00A490968B1FBF0F050
:1009400000F0E2FA48B9102C07D200222146501ECE
:1009500000F030F800206C6070BD012070BD000018
:10096000000000200C0000200A4808B5016841F48E
:1009700080410160006800F4804000900548001F3D
:10098000016841F080510160006800F080500090E3
:1009900008BD000044380240002809DB00F01F02B7
:1009A000012191404009800000F1E020C0F80011D1
:1009B00070470000F0B40E4B1B680C46C3F30223D3
:1009C000C3F10705042D00D90425191D072901D2FB
:1009D000002300E0DB1E012606FA05F1491E214036
:1009E00099409E40761E16403143F0BC00F03EBF59
:1009F0000CED00E0064900F0070208684FF6FF031F
:100A0000184040EA0220034A104308607047000083
:100A10000CED00E00000FA052DE9F0470E46050058
:100A200065D0DFF81481D8F80000F7B200F00F00AD
:100A3000B04207D288F80070D8F8000000F00F002C
:100A4000B04254D128683D4C810712D5400703D5E8
:100A5000206840F4E05020602878000703D5206823
:100A600040F4604020602068A96820F0F00008434E
:100A700020602878C0072DD03049686808390128DF
:100A800012D0022813D0032811D009688907002941
:100A90002DDA216821F0030101432160FFF71CFFDB
:100AA000814641F2883A0EE009688903EFE7096858
:100AB0008901ECE7FFF710FFA0EB0901514502D9CE
:100AC0000320BDE8F0872068696800F00C00B0EBF7
:100AD000810FEFD1D8F80010404601F00F01B1426C
:100AE00007D90770006800F00F00B04201D0012064
:100AF000E7E72878400705D52068E96820F4E0504A
:100B0000084320602878000706D52068296920F46A
:100B1000604040EAC100206000F018F82168084AEF
:100B2000C1F30311515CC8400649086006480068DB
:100B3000FFF7FAFE0020C4E7003C024008380240FC
:100B40000C1A00080C00002004000020154810B505
:100B5000006810F00C02144813D04110042A0FD082
:100B6000082A0ED10F4C241F2268236802F03F028E
:100B70005B0207D52068C0F38810A0FB010106E0E6
:100B8000084610BD2168C1F38811A1FB00010023B4
:100B9000FFF716FB2168C1F30141491C4900B0FB76
:100BA000F1F010BD083802400024F4002DE9F84FA0
:100BB000040076D02078DFF838A3CE4DC00749D0A6
:100BC000DAF800105046C1F38101012908D000680D
:100BD000C0F3810002280AD1281D0068400206D512
:100BE0002868800336D560680028E2D032E060686B
:100BF000B0F5803F10D0B0F5A02F286810D020F4B9
:100C000080302860286820F4802028606068A0B1C7
:100C1000FFF762FE06460CE0286840F48030F4E7F7
:100C200040F480202860F7E7FFF756FE801B642819
:100C300073D828688003F7D50CE0FFF74DFE064611
:100C400005E000BFFFF748FE801B6428F0D8286845
:100C50008003F7D42078DFF8A08280074FF00009E6
:100C60003ED5DAF80010504611F00C0F09D000689C
:100C7000C0F3810002280BD19D48001F006840028C
:100C800006D42868800715D5E068012809D111E04D
:100C9000E068B8B10120C8F80000FFF71DFE064665
:100CA00005E020E1FFF718FE801B0228C0D8286865
:100CB0008007F7D52868216920F0F80040EAC100D4
:100CC00028600DE0C8F80090FFF706FE064604E035
:100CD000FFF702FE801B02281FD828688007F7D480
:100CE0002078000722D5824E844861696C3671B144
:100CF00001210160FFF7F0FD074604E0FFF7ECFD7E
:100D0000C01B022809D830688007F7D50EE0C0F86C
:100D10000090FFF7E1FD074605E082E0FFF7DCFD0C
:100D2000C01B02287DD830688007F7D420784007A0
:100D300068D5DFF8BCB100270BF1380BDBF80000F9
:100D4000C0000BD4DBF8001041F08051CBF800104C
:100D5000DBF80000012700F080500090684E3068FA
:100D6000C00510D4306840F480703060FFF7B4FDE7
:100D7000009005E0FFF7B0FD0099401A022850D816
:100D80003068C005F6D55A4EA068683601280FD0E5
:100D90000528306810D020F001003060306820F065
:100DA00004003060A068B8B1FFF796FD00900FE036
:100DB000306840F00100F4E740F004003060F7E7ED
:100DC000FFF78AFD0099411A41F28830814266D8C6
:100DD00030688007F4D50EE0FFF77EFD009007E055
:100DE000FFF77AFD0099411A41F28830814256D8C6
:100DF00030688007F4D42FB1DBF8001021F0805167
:100E0000CBF80010A069D0B3DAF800205146C2F345
:100E10008102022A4AD00228484607D0C8F860005A
:100E200000E03CE0FFF758FD04463BE04746C8F8C9
:100E30006000FFF751FD064605E000BFFFF74CFDDF
:100E4000801B02282BD828688001F7D4D4E9070139
:100E50000843A16A2B4A490802EB0141626A41EA50
:100E60008211084394F82C1040EA01612048001FC9
:100E7000016001203866FFF72FFD044605E034E0ED
:100E8000FFF72AFD001B022809D828688001F7D542
:100E90002BE000BFFFF720FD001B022802D9032032
:100EA000BDE8F88F28688001F4D41EE00128F7D04F
:100EB0000868E26900F48001914214D1226A00F0CE
:100EC0003F0191420FD147F6C071626A01409142E1
:100ED00009D1A26A00F44031914204D1E16A00F0E4
:100EE0007060884201D00120DAE70020D8E70000D6
:100EF000083802400038024000004742800E474256
:100F0000007000400000FFFF10B5401EB0F1807F70
:100F100001D3012010BD4FF0E02460610F21601764
:100F200000F0A4FC0020A06107202061002010BD7B
:100F30007047704770B590F83C20012A32D00124E8
:100F400080F83C40022280F83D2003685A689D6882
:100F500022F070060A6832435A60134B02689A42C4
:100F600014D0B2F1804F11D0104B9A420ED0104BDA
:100F70009A420BD00F4B9A4208D00F4B9A4205D0A1
:100F80000E4B9A4202D00E4B9A4204D1496825F08A
:100F900080031943916080F83D40002180F83C10A7
:100FA000084670BD022070BD0000014000040040F2
:100FB00000080040000C00400004014000400140D7
:100FC0000018004010B5040003D094F83D0010B1A3
:100FD00007E0012010BD002084F83C00204600F00E
:100FE0000DF8022084F83D00211D206800F0D4FA9D
:100FF000012084F83D00002010BD000008B5006805
:101000000B49884212D10B48016841F0020101608E
:101010000068002200F00200009011461D20FFF73A
:10102000C9FCBDE808401D20FFF7B6BC08BD0000A4
:10103000000400404038024070B5044690F83C007F
:10104000012817D0012584F83C50022084F83D0087
:101050002068826822F0770222F47F42826008686A
:10106000502830D00DDC20284DD005DC98B3102856
:101070003BD148E0022070BD302844D0402834D114
:1010800039E0602828D0702806D0B0F5805F2CD0D9
:10109000B0F5005F29D10AE0CB68D1E901212068D1
:1010A00000F0EBFA2068816841F0770109E0CB6835
:1010B000D1E90121206800F0E0FA2068816841F45C
:1010C0008041816011E0CA684968206800F0AAFB8D
:1010D0005021206807E016E0CA684968206800F0DF
:1010E000B2FB6021206800F0D2FA84F83D50002065
:1010F00084F83C0070BDCA684968206800F092FB23
:1011000040212068EFE7226801461046EBE7704770
:1011100070B50446006801694FF00005C9438907AE
:1011200015D4C168C943890711D4E91E01610120A2
:101130002077206880698007204602D0FFF7E7FF0C
:1011400004E000F0D5F8204600F057F92577206834
:101150000169C943490717D4C168C943490713D472
:101160006FF004010161022020772068806910F48B
:10117000407F204602D0FFF7CAFF04E000F0B8F835
:10118000204600F03AF9257720680169C94309072C
:1011900016D4C168C943090712D46FF00801016170
:1011A000042020772068C0698007204602D0FFF71E
:1011B000AEFF04E000F09CF8204600F01EF9257711
:1011C00020680169C943C90617D4C168C943C90663
:1011D00013D46FF010010161082020772068C069E6
:1011E00010F4407F204602D0FFF791FF04E000F0AA
:1011F0007FF8204600F001F9257720680169C9438E
:10120000C90708D1C168C943C90704D1891E016152
:10121000204600F015F920680169C943090609D480
:10122000C168C943090605D46FF0800101612046F9
:10123000FFF77EFE20680169C943490609D4C168E9
:10124000C943490605D46FF040010161204600F012
:10125000F8F820680169C94389060BD4C168C943FD
:10126000890607D46FF0200101612046BDE8704077
:10127000FFF75FBE70BD000030B587B00446142193
:101280006846FEF7D5FF16492068884226D11548E2
:101290000024016841F001010160016801F00101D1
:1012A0000591016841F0020101600068022500F02B
:1012B00002000590C0200090CDE9015469460A481B
:1012C000CDE90345FFF72CFA03200090CDE9015446
:1012D00069460648CDE90345FFF722FA07B030BD5D
:1012E0000004004030380240000002400004024088
:1012F000704770B5044690F83C000D4601280DD0AB
:10130000012684F83C60022084F83D0042B1042AA2
:1013100018D0082A2AD00C2A4DD139E0022070BDFD
:10132000206800F0BDF92068816941F00801816101
:101330002068816921F004018161206881692A693E
:10134000114311E0206800F0DBF92068816941F465
:10135000006181612068816921F480618161206878
:1013600081692A6941EA0221816124E0206800F054
:10137000FDF92068C16941F00801C1612068C169B7
:1013800021F00401C1612068C1692A69114311E09B
:10139000206800F01FFA2068C16941F40061C16152
:1013A0002068C16921F48061C1612068C1692A692E
:1013B00041EA0221C16184F83D60002084F83C00CC
:1013C00070BD10B5040003D094F83D0010B107E0E3
:1013D000012010BD002084F83C00204600F00CF8ED
:1013E000022084F83D00211D206800F0D5F801207E
:1013F00084F83D00002010BD7047704710B50446CA
:101400000068012200F02CF90B492068884202D0C4
:101410000A49884203D1416C41F40041416420688B
:10142000816801F00701062903D0016841F001013C
:101430000160002010BD00000000014000040140D8
:1014400070477047FEE7000010B58EB00024079487
:10145000089409940A940B941C2168460C94FEF796
:10146000E7FE1F481D49016040F28331C0E90114C5
:1014700040F2E731C0E903148461FFF7A3FD4FF4A4
:101480008050079007A91648FFF7D6FD1448FFF7CC
:1014900098FF0B940BA912480C94FFF74BFD6020AA
:1014A000CDE900040294002269460D480494FFF738
:1014B00020FF042269460A48FFF71BFF08226946FD
:1014C0000748FFF716FF0C2269460548FFF711FF92
:1014D0000348FFF7D1FE0EB010BD0000000400402D
:1014E00010000020FEE7704770477047FFF7FAB919
:1014F00030B593B030216846FEF79AFE14210CA84F
:10150000FEF796FE18480025016841F08051016001
:10151000006800F0805011901448016841F4804147
:1015200001600068022400F48040119001200090C6
:10153000000401908001CDE9064008AA04205A2148
:1015400082E813000B906846FFF730FB0CA90F20D0
:1015500081E831004FF4A0500F90109002210CA8A8
:10156000FFF75AFA13B030BD403802400070004017
:101570000548016841F47001016003494FF00060C3
:10158000803908607047000088ED00E00148FFF7EF
:10159000BFBD000010000020F0B50268254C264DAC
:1015A000264E274F274B4FF0804CA04209D0604574
:1015B00007D0A84205D0B04203D0B84201D098422B
:1015C00004D122F0700E4A6842EA0E02A0421BD0FB
:1015D000604519D0A84217D0B04215D0B84213D0F8
:1015E000984211D0184DA8420ED0184DA8420BD0E9
:1015F000174DA84208D0174DA84205D0164DA84255
:1016000002D0164DA84203D122F44075CA682A437D
:101610004D6922F080022A4302608A68C2620A6829
:101620008262A04201D0984201D10969016301217F
:101630004161F0BD0000014000040040000800408E
:10164000000C004000040140004001400044014003
:101650000048014000180040001C004000200040ED
:1016600010B501F01F030121046A99408C43046204
:10167000016A9A401143016210BD10B5846842EAC4
:10168000032224F47F440A432243826010BD82680F
:1016900022F070020A4342F00701816070470000A7
:1016A000F0B5026A22F001020262036A42688469AC
:1016B000124E24F073050C682C4323F002058B684E
:1016C0002B430D4DA84201D0B04205D123F00807AD
:1016D000CB683B4323F00403A84201D0B04205D1BC
:1016E0004D6922F4407215438A692A43426084613D
:1016F000496841630362F0BD0000014000040140FD
:10170000F0B5026A22F010020262026A436884693C
:101710000D6824F4E64444EA05248D6822F0200292
:1017200042EA05120F4D104EA84201D0B04206D138
:10173000CF6822F0800242EA071222F04002A8425B
:1017400001D0B04207D14D6923F4406343EA8503D9
:101750008D6943EA8503436084614968816302625D
:10176000F0BD00000000014000040140F0B5026A35
:1017700022F480720262026A4368C46922F4007231
:1017800024F073050C68124E2C438D6842EA052242
:101790000E4DA84201D0B04206D1CF6822F40062BB
:1017A00042EA072222F48062A84201D0B04207D167
:1017B0004D6923F4405343EA05138D6943EA051349
:1017C0004360C4614968C1630262F0BD000001402A
:1017D0000004014030B5026A22F480520262046AB9
:1017E0004268C3690D6823F4E64343EA05238D6824
:1017F00024F4005444EA0534084DA84202D0084DB0
:10180000A84204D14D6922F4804242EA8512426026
:10181000C36149680164046230BD000000000140FA
:101820000004014010B5036A046A24F00104046254
:10183000846924F0F00444EA021423F00A020A4303
:101840008461026210BD10B5036A23F010030362C5
:101850008369046A23F4704343EA023224F0A0034C
:1018600043EA01118261016210BDFEE70907090E1A
:10187000002804DB00F1E02080F80014704700F03D
:101880000F0000F1E02080F8141D704702E008C846
:10189000121F08C1002AFAD170477047002001E0EA
:1018A00001C1121F002AFBD17047000008B5FFF7E5
:1018B00021F8FFF71DFE2148016841F08001016019
:1018C000016801F080010091016841F001010160AF
:1018D000016801F001010091016841F0020101601D
:1018E000006800F002000090FFF7AEFD00211448F0
:1018F000FFF784FD04211248FFF780FD08211048FE
:10190000FFF77CFD0C210E48FFF778FD4FF47A7449
:101910000021032000F046F82046FEF7EFFE5A2192
:10192000032000F03FF82046FEF7E8FEB421032034
:1019300000F038F82046FEF7E1FEE9E730380240D3
:10194000100000202DE9F04104462DED068B1E46C7
:1019500015460F461046DDF83080FEF7FCFD41ECE1
:10196000180B701BFEF7F7FD41EC190B381BFEF747
:10197000F2FD41EC1A0BA8EB0400FEF7ECFD53EC72
:101980001A2BFEF779FD53EC192BFEF703FD53ECF0
:10199000182BFEF758FCBDEC068BBDE8F041FEF7B6
:1019A000EBBD000038B5184C01280FD0022817D025
:1019B00003281FD0042808D100917D231922B421C7
:1019C0000020FFF7BFFF2168086438BD00917D2328
:1019D0001922B4210020FFF7B5FF2168486338BD04
:1019E00000917D231922B4210020FFF7ABFF21686D
:1019F000886338BD00917D231922B4210020FFF7B0
:101A0000A1FF2168C86338BD10000020000000005D
:101A10000000000001020304060708093C1A000840
:101A200000000020100000008C1800084C1A00086C
:101A300010000020400400009C1800080100000075
:0C1A400010000000000000000024F40072
:040000050800018965
:00000001FF
