:020000040800F2
:10000000504700205D020008A324000829210008B1
:10001000A12400086D090008812B000800000000E1
:100020000000000000000000000000009D0100082A
:100030009109000800000000F9010008B924000837
:1000400077020008770200087702000877020008AC
:10005000770200087702000877020008770200089C
:10006000770200087702000877020008770200088C
:10007000770200087702000877020008770200087C
:10008000770200087702000877020008770200086C
:10009000770200087702000877020008770200085C
:1000A000770200088525000877020008770200081B
:1000B000770200087702000877020008770200083C
:1000C000770200087702000877020008770200082C
:1000D00077020008252B000877020008312B000862
:1000E000770200087702000877020008770200080C
:1000F00077020008770200087702000877020008FC
:1001000077020008770200087702000877020008EB
:1001100077020008770200087702000877020008DB
:1001200077020008770200087702000877020008CB
:1001300077020008770200087702000877020008BB
:1001400077020008770200087702000877020008AB
:100150007702000877020008770200083D2B0008AC
:10016000770200087702000877020008770200088B
:1001700077020008770200087702000800000000FC
:100180007702000877020008DFF80CD000F048FB87
:100190000048004749350008504700202C4B19689B
:1001A0000868B0E8F04F80F30988BFF36F8F4FF015
:1001B000000080F3118870470000000008480068C4
:1001C000006880F308884FF0000080F3148862B65E
:1001D00061B6BFF34F8FBFF36F8F00DF00BF00BF6B
:1001E00008ED00E0DFF80C00016841F470010160E7
:1001F000704700BF88ED00E0EFF30980BFF36F8F19
:10020000134B1A681EF0100F08BF20ED108A20E96A
:10021000F04F106009B44FF0500080F31188BFF325
:100220004F8FBFF36F8F03F05FFF4FF0000080F33D
:10023000118809BC19680868B0E8F04F1EF0100F6B
:1002400008BFB0EC108A80F30988BFF36F8F704746
:100250009C000020EFF305807047000006488047AF
:1002600006480047FEE7FEE7FEE7FEE7FEE7FEE79B
:10027000FEE7FEE7FEE7FEE76925000889010008C2
:100280002DE9F05F0546002092469B4688460646CB
:10029000814640241BE0284641464746224600F05E
:1002A00010FA53465A46C01A914110D311461846C7
:1002B000224600F0F7F92D1A67EB01084F46224657
:1002C0000120002100F0EEF917EB00094E41201E3D
:1002D000A4F10104DFDC484631462A464346BDE826
:1002E000F09F40EA01039B0703D009E008C9121FF1
:1002F00008C0042AFAD203E011F8013B00F8013BE0
:10030000521EF9D27047D2B201E000F8012B491E0B
:10031000FBD270470022F6E710B513460A460446A2
:100320001946FFF7F0FF204610BD421C10F8011BD4
:100330000029FBD1801A7047034611F8012B00F801
:10034000012B002AF9D11846704730B50546002028
:10035000034600E05B1C934205D2EC5CC85C201AAB
:1003600001D1002CF6D130BD2DE9FE4F804681EA47
:100370000300C00F0C46009021F0004123F000451F
:10038000B8EB0200A94105D24046214690461C46E2
:100390000B46024623F00040104347D0270DC7F319
:1003A0000A00C3F30A510290401A019040286BDA08
:1003B000C3F3130040F4801B0098924620B1002341
:1003C000D2EB030A63EB0B0B01985946C0F14002D4
:1003D000504600F067F906460D4650465946019AC8
:1003E00000F07FF910EB08006141002487EA115208
:1003F00084EAE7731A4340D0009A62B3019A012A53
:100400004FEA075215DC001B61EB02014FF000427E
:1004100002EA0752CDE90042001C41F58011324644
:100420002B4600F07FF903B0BDE8F08F404621462F
:10043000F9E7001B61EB0201001C41F58013001875
:100440005B412018A2F5001747EB030140EAD57085
:10045000B6196D4111E06D084FEA360645EAC075E0
:100460004FEA0752001B61EB0201001C41F58011AD
:1004700049084FEA30000019514132462B4603B07B
:10048000BDE8F04F00F03FB9009801224000002382
:10049000D0EB020263EBE073009821464FEAE07470
:1004A000B8EB000061EB0401E9E783F000435BE790
:1004B00081F0004158E72DE9FE4F81EA030404F082
:1004C000004421F0004100944FF0000B23F0004362
:1004D00050EA01045ED052EA03045BD0C3F30A542D
:1004E000C1F30A552C44A4F2F3340194A0FB025446
:1004F000C1F3130141F48011C3F3130343F48013D8
:1005000001FB024400FB034E840A970A44EA81542B
:1005100047EA8357A4FB076802958D0A05FB078508
:100520004FEA932C04FB0C542705029D4FEA065812
:1005300047EA1637B5EB08056EEB070C870E920EEF
:1005400047EA811742EA8312A7FB0201B6EB0B01CF
:1005500064EB00042B0D43EA0C335E1844EB1C5093
:10056000DA465146E7FB0201C5F313044FEA0B33A9
:1005700043EA14534FEA0432019C43EA0603A4F110
:100580000C040294009CCDE900B400F0CBF803B059
:10059000BDE8F08F00200146F9E72DE9F04D81EA32
:1005A000030404F0004B21F0004514464FF0000A0C
:1005B00023F0004150EA050220D054EA01021DD088
:1005C000C5F30A570246C5F31303C1F31300C1F381
:1005D0000A5640F4801543F48013A7EB0608101B5D
:1005E000D64608F2FD3873EB050002D308F1010886
:1005F00001E092185B41B8F1000F03DA00200146D8
:10060000BDE8F08D00204FF48011064684460EE0D0
:10061000171B73EB050705D3121B63EB050306439A
:100620004CEA010C49084FEA300092185B4150EA4D
:100630000107EDD152EA030012D082EA040083EAF6
:100640000501084305D0101BAB4106D2012200234F
:1006500006E000224FF0004302E06FF00102531069
:100660001AEB06004CEB085110EB0A0041EB0B01B2
:10067000BDE8F04D00F047B830B50B46014600200C
:100680002022012409E021FA02F59D4205D303FA54
:1006900002F5491B04FA02F52844151EA2F10102D5
:1006A000F1DC30BD202A04DB203A00FA02F1002000
:1006B00070479140C2F1200320FA03F319439040A0
:1006C0007047202A04DB203A21FA02F0002170470B
:1006D00021FA02F3D040C2F12002914008431946AA
:1006E0007047202A06DBCB17203A41FA02F043EA92
:1006F000E07306E041FA02F3D040C2F120029140DB
:1007000008431946704710B5141E73F1000408DA47
:10071000401C41F1000192185B411A4301D120F0C5
:10072000010010BD2DE9F04D92469B4611B1B1FA82
:1007300081F202E0B0FA80F220329046FFF7B2FF79
:1007400004460F4640EA0A0041EA0B0153465A4666
:10075000084313D0114653EA010019D0C8F14002F2
:100760005046FFF7AEFF05460E46504659464246F4
:10077000FFF798FF084305D0012004E020463946E2
:10078000BDE8F08D0020054346EAE0762C43374370
:100790000A986305E40AA0EB08000022FD0A44EA77
:1007A00047540A3002D500200146E9E70105101937
:1007B0006941DDE9084500196941BDE8F04DA2E74E
:1007C000C1F30A52C1F3130140F2FF3341F4801127
:1007D0009A4202DA00200146704740F233439A42BF
:1007E000A2F2334202DC5242FFF76BBFFFF75ABF5F
:1007F00030B5041E71F1000404DB4FF000444042A8
:1008000064EB0101141E73F1000405DB1C464FF07C
:100810000043524263EB0403994208BF904230BD4B
:10082000064C074D06E0E06840F0010394E807003D
:1008300098471034AC42F6D3FFF7AAFC08450008ED
:1008400028450008464910B54A6822F440324A60FB
:100850004A6843681A434A6001684A6822F4807211
:100860004A6001684A68036942EA03224A600168F3
:100870004A6822F040724A6001684A6883681A43F5
:100880004A6001688A6822F400628A6001688A68A6
:10089000C3681A438A60816A6FF07062D14201684E
:1008A0008A6822F070628A6001688A680CD0836A64
:1008B0001A438A6001688A6822F040528A6001689F
:1008C0008A68C36A1A4301E022F040528A600168D4
:1008D0008A6822F002028A6001688A68037E42EA1E
:1008E00043028A6090F82010002901684A680FD0FE
:1008F00042F400624A6001684A6822F460424A6039
:1009000001684A68174C436A04EB43331A4301E019
:1009100022F400624A600168CA6A22F47002CA6264
:100920000168CA6A838B104C04EB03531A43CA62F2
:1009300001688A6822F400728A6001688A6890F807
:10094000303042EA43228A6001688A6822F4806279
:100950008A6001688A68406942EA8020886010BD28
:100960000023014000E0FFFF0000F0FFFEE7000071
:1009700010B500F013F801220221044800F049FAF2
:10098000BDE810404FF4FA7000F04EB9000002408C
:100990007047642002F07AFEFBE700000B4800B5C8
:1009A000016887B041F0010101600068694600F00C
:1009B0000100059002200090012001900320039087
:1009C000034800F043F907B000BD00003038024092
:1009D0000000024078B50024009490F83C20012AE1
:1009E00019D0012280F83C200A6807230568092AEB
:1009F00013D9EE680A3A02EB420293409E43EE603E
:100A00000B788A680A3B03EB43039A400368DD686E
:100A10002A43DA6010E0022078BD2E6902EB420220
:100A200093409E432E610B788A6803EB43039A4000
:100A300003681D692A431A614A681F23072A13D2D3
:100A400005686E6B521E02EB820293409E436E63FA
:100A50000B790A885B1E92B203EB83039A4003680A
:100A60005D6B2A435A6327E005680D2A12D22E6B6C
:100A7000D21F02EB820293409E432E630B790A88B9
:100A8000DB1F92B203EB83039A4003681D6B2A437A
:100A90001A6311E0EE6A0D3A02EB820293409E4324
:100AA000EE620B790A880D3B92B203EB83039A4006
:100AB0000368DD6A2A43DA62164B0568144A9D42D0
:100AC00006D10D68122D03D1556845F48005556097
:100AD00005689D4218D10B68102B01D0112B13D142
:100AE000536843F400035360096810290CD10A4984
:100AF0000A4A0968B1FBF2F101EB8101490000E00B
:100B0000491E00910029FBD180F83C40002078BDAF
:100B100000230140002001409800002040420F00C7
:100B200070B504004FF0000503D0206C002610B112
:100B300007E0012070BD204600F01CF8666484F8D0
:100B40003C60206CC00610D4206C20F4885040F02B
:100B5000020020642046FFF775FE6664206C20F0DA
:100B6000020040F00100206400E0012584F83C60B0
:100B7000284670BD70B586B0044614216846FFF75C
:100B8000C9FB1D491B4E256800231B4A1439032449
:100B90001A48B54211D1156845F480751560126880
:100BA00002F4807205920A6842F001020A60096844
:100BB00001F001010591082113E0114EB54216D153
:100BC000156845F400751560126802F4007205920C
:100BD0000A6842F001020A60096801F0010105910A
:100BE0002021CDE900140293694600F02FF806B0E9
:100BF00070BD000000200140443802400000024067
:100C00000021014090F83510022903D08021416570
:100C100001207047052180F835100068016821F037
:100C2000010101600020704770B5044600F0F6F83D
:100C30000546601C02D004480078044400F0EEF839
:100C4000401BA042FAD370BD8C0000202DE9F84F64
:100C500000224FF0010803254FF00F0E0B6808FA31
:100C600002F42340A3426ED14E68012E05D0022E1D
:100C700003D0112E01D0122E12D186684FEA420CF9
:100C800005FA0CF7BE43CF6807FA0CF737438760C5
:100C90004668A6430C79C4F300149440344344607E
:100CA000C668570005FA07FC8C6826EA0C06BC40AB
:100CB0003443C4604C68022C01D0122C13D1D408E8
:100CC00000EB8404A346D4F8209054074FEAD46A7A
:100CD0000EFA0AF629EA06090E6906FA0AF646EA43
:100CE0000906CBF8206006680C7926EA0C0604F0A9
:100CF0000304BC40344304604C68E40065D5364CC2
:100D0000266846F480462660246822F0030604F430
:100D100080440094314C3444A446D4F808489607E3
:100D2000370F0EFA07F6B4432D4EB04201D100261C
:100D300024E02C4EB04201D101261FE02A4EB042E1
:100D400002D102261AE040E0284EB04201D103262B
:100D500014E0274EB04201D104260FE0254EB042E8
:100D600001D105260AE0244EB04201D1062605E055
:100D7000224EB04201D1072600E00826BE4026439D
:100D8000CCF808681E4E34684F689C43FF0300D5BA
:100D90001C4334601A4C241D26684F689E43BF03D1
:100DA00000D51E432660164E083634684F689C43B3
:100DB000FF0200D51C433460114E0C3634684F6876
:100DC0009C43BF0200D51C433460521C102AFFF420
:100DD00045AFBDE8F88F00004438024000300140C4
:100DE000000002400004024000080240000C0240E3
:100DF000001002400014024000180240001C024093
:100E0000003C0140426931EA020200D109048161DB
:100E100070470AB1816170470904FBE701488068A7
:100E2000704700008C00002070B5040025D094F8B5
:100E30003D00002520B984F83C50204600F0B8F869
:100E4000242084F83D002068016821F00101016040
:100E50002068016841F4004101602068016821F4C4
:100E60000041016000F04CFA4D4A6168914201D89E
:100E70004C4900E04C49884201D2012070BD4B49E9
:100E80002368B0FBF1F15E6826F03F060E435E601A
:100E90006368934206D94FF4967359434FF47A73BB
:100EA000B1FBF3F12368491C1E6A26F03F0631436B
:100EB00019626168914210D84900401EB0FBF1F2FE
:100EC000521CC2F30B02042A01D2042022E0B0FB20
:100ED000F1F0401CC0F30B001CE0A268F2B301EB80
:100EE000C10303EB0116431EB3FBF6F35B1C43F493
:100EF00080431B0549D092B301EBC10202EB011103
:100F0000401EB0FBF1F0401CC0F30B0040F48040E9
:100F100040F400402168CA694CF6FF739A431043BD
:100F2000C861D4E9071001432068026822F0C002BA
:100F300011430160D4E9030101432068826848F24B
:100F4000FF339A4311438160D4E9050108432168C6
:100F5000CA6822F0FF021043C86001E00EE016E00C
:100F60002068016841F0010101602564202084F8B7
:100F70003D00256384F83E50002070BD01EB410622
:100F8000431EB3FBF6F35B1CB3E70120C2E701EBA2
:100F90004101401EB0FBF1F0401CC0F30B00B7E76D
:100FA000A086010080841E0000093D0040420F0021
:100FB00010B586B0044614216846FFF7ABF9144912
:100FC0002068884221D11348016841F00201016084
:100FD0000068694600F0020005904FF440700090F0
:100FE000122001900120029003200390042004901D
:100FF0000948FFF72BFE07481030016841F4001143
:101000000160006800F40010059006B010BD0000FB
:101010000054004030380240000402400248816819
:1010200002781144816070478C0000200B4810B595
:10103000016841F400710160016841F48061016060
:10104000016841F480710160032000F08DF80020F8
:1010500000F006F800F03EF8002010BD003C024011
:1010600010B5014688B00022192000F05DF8192063
:1010700000F04CF813480024016841F4003101608D
:10108000006805A900F400300690684600F018F9E1
:1010900000F046F90C494000B0FBF1F10C480B4A56
:1010A000491E026040F2E732C0E90324C0E901149E
:1010B00000F098FB10B1012008B010BD044800F00A
:1010C000E7FBF9E74438024040420F00004401408A
:1010D0001C0600200C4882B0016841F48041016088
:1010E000006800F4804000900748001F016841F04C
:1010F000805101600068002200F0805000900F21B4
:10110000901E02B000F010B844380240002809DBFD
:1011100000F01F02012191404009800000F1E02011
:10112000C0F8001170470000F0B40E4B1B680C466D
:10113000C3F30223C3F10705042D00D90425191DAB
:10114000072901D2002300E0DB1E012606FA05F183
:10115000491E214099409E40761E16403143F0BC06
:1011600001F024BD0CED00E0064900F0070208681C
:101170004FF6FF03184040EA0220034A104308607C
:10118000704700000CED00E00000FA052DE9F04783
:101190000E46050065D0DFF81481D8F80000F7B2DC
:1011A00000F00F00B04207D288F80070D8F80000B5
:1011B00000F00F00B04254D128683D4C810712D591
:1011C000400703D5206840F4E050206028780007ED
:1011D00003D5206840F4604020602068A96820F0B2
:1011E000F000084320602878C0072DD03049686897
:1011F0000839012812D0022813D0032811D0096819
:10120000890700292DDA216821F0030101432160BB
:10121000FFF704FE814641F2883A0EE0096889032F
:10122000EFE709688901ECE7FFF7F8FDA0EB09019A
:10123000514502D90320BDE8F0872068696800F0B5
:101240000C00B0EB810FEFD1D8F80010404601F050
:101250000F01B14207D90770006800F00F00B042DB
:1012600001D00120E7E72878400705D52068E96824
:1012700020F4E050084320602878000706D5206855
:10128000296920F4604040EAC100206000F058F86D
:101290002168084AC1F30311515CC840064908603F
:1012A00006480068FFF7DCFE0020C4E7003C02406F
:1012B00008380240C8440008980000209000002030
:1012C0000F2202600C4A136803F0030343601368A3
:1012D00003F0F0038360136803F4E053C360126803
:1012E0004FF4E05303EAD20202610448006800F0C0
:1012F0000F0008607047000008380240003C0240C0
:101300000448054900680968044AC1F38221515C18
:10131000C84070479800002008380240D8440008B0
:101320000448054900680968044AC1F34231515C28
:10133000C84070479800002008380240D844000890
:10134000154810B5006810F00C02144813D0411075
:10135000042A0FD0082A0ED10F4C241F22682368BC
:1013600002F03F025B0207D52068C0F38810A0FBA3
:10137000010106E0084610BD2168C1F38811A1FBF8
:1013800000010023FEF77CFF2168C1F30141491CE5
:101390004900B0FBF1F010BD083802400024F40011
:1013A0002DE9F84F040076D02078DFF838A3CE4D31
:1013B000C00749D0DAF800105046C1F38101012975
:1013C00008D00068C0F3810002280AD1281D0068F7
:1013D000400206D52868800336D560680028E2D030
:1013E00032E06068B0F5803F10D0B0F5A02F2868DB
:1013F00010D020F480302860286820F480202860F5
:101400006068A0B1FFF70AFD06460CE0286840F4CA
:101410008030F4E740F480202860F7E7FFF7FEFC17
:10142000801B642873D828688003F7D50CE0FFF789
:10143000F5FC064605E000BFFFF7F0FC801B6428C2
:10144000F0D828688003F7D42078DFF8A0828007DE
:101450004FF000093ED5DAF80010504611F00C0F9D
:1014600009D00068C0F3810002280BD19D48001FFD
:101470000068400206D42868800715D5E068012876
:1014800009D111E0E068B8B10120C8F80000FFF709
:10149000C5FC064605E020E1FFF7C0FC801B0228E2
:1014A000C0D828688007F7D52868216920F0F8009F
:1014B00040EAC10028600DE0C8F80090FFF7AEFCDC
:1014C000064604E0FFF7AAFC801B02281FD8286804
:1014D0008007F7D42078000722D5824E84486169BE
:1014E0006C3671B101210160FFF798FC074604E0FA
:1014F000FFF794FCC01B022809D830688007F7D595
:101500000EE0C0F80090FFF789FC074605E082E096
:10151000FFF784FCC01B02287DD830688007F7D411
:101520002078400768D5DFF8BCB100270BF1380BF5
:10153000DBF80000C0000BD4DBF8001041F0805154
:10154000CBF80010DBF80000012700F0805000907D
:10155000684E3068C00510D4306840F48070306048
:10156000FFF75CFC009005E0FFF758FC0099401A7B
:10157000022850D83068C005F6D55A4EA0686836A3
:1015800001280FD00528306810D020F0010030600D
:10159000306820F004003060A068B8B1FFF73EFC6E
:1015A00000900FE0306840F00100F4E740F00400E4
:1015B0003060F7E7FFF732FC0099411A41F28830BA
:1015C000814266D830688007F4D50EE0FFF726FC2C
:1015D000009007E0FFF722FC0099411A41F28830A1
:1015E000814256D830688007F4D42FB1DBF8001060
:1015F00021F08051CBF80010A069D0B3DAF80020B8
:101600005146C2F38102022A4AD00228484607D036
:10161000C8F8600000E03CE0FFF700FC04463BE057
:101620004746C8F86000FFF7F9FB064605E000BF33
:10163000FFF7F4FB801B02282BD828688001F7D421
:10164000D4E907010843A16A2B4A490802EB01418A
:10165000626A41EA8211084394F82C1040EA016161
:101660002048001F016001203866FFF7D7FB0446C1
:1016700005E034E0FFF7D2FB001B022809D82868F8
:101680008001F7D52BE000BFFFF7C8FB001B022845
:1016900002D90320BDE8F88F28688001F4D41EE049
:1016A0000128F7D00868E26900F48001914214D162
:1016B000226A00F03F0191420FD147F6C071626A81
:1016C0000140914209D1A26A00F44031914204D113
:1016D000E16A00F07060884201D00120DAE7002062
:1016E000D8E70000083802400038024000004742B6
:1016F000800E4742007000400000FFFF70477047B7
:1017000010B590F83C20012A22D0012280F83C201C
:10171000CA688C6822F4407222434C6822F48062CA
:1017200022430C6822F4006222430C6922F48052A6
:1017300022434C6922F400522243C969002322F457
:1017400080420A4301684A6480F83C30002010BDA2
:10175000022010BD70B590F83C20012A32D001243F
:1017600080F83C40022280F83D2003685A689D685A
:1017700022F070060A6832435A60134B02689A429C
:1017800014D0B2F1804F11D0104B9A420ED0104BB2
:101790009A420BD00F4B9A4208D00F4B9A4205D079
:1017A0000E4B9A4202D00E4B9A4204D1496825F062
:1017B00080031943916080F83D40002180F83C107F
:1017C000084670BD022070BD0000014000040040CA
:1017D00000080040000C00400004014000400140AF
:1017E0000018004010B5040003D094F83D0010B17B
:1017F00007E0012010BD002084F83C00204600F0E6
:101800000DF8022084F83D00211D206800F0C8FE7C
:10181000012084F83D00002010BD000008B5184AE2
:1018200001681848914211D1016841F0010101603D
:101830000068002200F00100009011461920FFF717
:1018400073FCBDE808401920FFF760BC0E4A9142C6
:1018500009D10C48001F016841F0020101600068D5
:1018600000F0020009E0094A914207D1016841F401
:1018700080310160006800F48030009008BD0000F5
:101880000000014044380240000400400040014094
:101890000168CA6842F00102CA600068816801F00C
:1018A0000701062903D0016841F001010160002011
:1018B000704770B5044690F83C00012817D0012508
:1018C00084F83C50022084F83D002068826822F0B1
:1018D000770222F47F4282600868502830D00DDC05
:1018E00020284DD005DC98B310283BD148E00220D9
:1018F00070BD302844D0402834D139E0602828D049
:10190000702806D0B0F5805F2CD0B0F5005F29D1EB
:101910000AE0CB68D1E90121206800F0B2FE20681E
:10192000816841F0770109E0CB68D1E901212068A5
:1019300000F0A7FE2068816841F48041816011E0D9
:10194000CA684968206800F071FF5021206807E0EC
:1019500016E0CA684968206800F079FF60212068B5
:1019600000F099FE84F83D50002084F83C0070BDE2
:10197000CA684968206800F059FF40212068EFE7F5
:10198000226801461046EBE7704770B504460068D0
:1019900001694FF00005C943890715D4C168C943DF
:1019A000890711D4E91E0161012020772068806930
:1019B0008007204602D0FFF7E7FF04E000F0ECF8D4
:1019C000204600F06EF9257720680169C943490770
:1019D00017D4C168C943490713D46FF004010161EA
:1019E000022020772068806910F4407F204602D0D2
:1019F000FFF7CAFF04E000F0CFF8204600F051F9ED
:101A0000257720680169C943090716D4C168C9430D
:101A1000090712D46FF008010161042020772068C3
:101A2000C0698007204602D0FFF7AEFF04E000F057
:101A3000B3F8204600F035F9257720680169C943DD
:101A4000C90617D4C168C943C90613D46FF0100181
:101A50000161082020772068C06910F4407F20468B
:101A600002D0FFF791FF04E000F096F8204600F066
:101A700018F9257720680169C943C90708D1C168E9
:101A8000C943C90704D1891E0161204600F02CF921
:101A900020680169C943090609D4C168C943090618
:101AA00005D46FF0800101612046FFF727FE206812
:101AB0000169C943490609D4C168C943490605D427
:101AC0006FF040010161204600F018F920680169BB
:101AD000C94389060BD4C168C943890607D46FF08E
:101AE000200101612046BDE87040FFF708BE70BDCF
:101AF00030B587B0044614216846FEF70BFC246815
:101B00001F4D00221F4902231F48AC420ED10C6812
:101B100044F010040C60096801F0100105914FF4C5
:101B200028510091CDE90132012125E0174DAC4249
:101B300012D1086840F00200086008680093CDE9FF
:101B4000013200F00200CDE90430694603921048EA
:101B5000FFF77CF807B030BD0E4DAC42FAD10C68EF
:101B600044F010040C60096801F010010591202177
:101B70000091CDE901320321CDE903216946E7E770
:101B800000000140303802400010024000040040D4
:101B90000004024000400140704770B5044690F8D0
:101BA0003C000D4601280DD0012684F83C6002203F
:101BB00084F83D0042B1042A18D0082A2AD00C2A01
:101BC0004DD139E0022070BD206800F06DFD206825
:101BD000816941F0080181612068816921F0040177
:101BE0008161206881692A69114311E0206800F051
:101BF0008BFD2068816941F4006181612068816901
:101C000021F480618161206881692A6941EA0221A9
:101C1000816124E0206800F0ADFD2068C16941F0D9
:101C20000801C1612068C16921F00401C161206817
:101C3000C1692A69114311E0206800F0CFFD2068D6
:101C4000C16941F40061C1612068C16921F480610A
:101C5000C1612068C1692A6941EA0221C16184F831
:101C60003D60002084F83C0070BD10B5040003D036
:101C700094F83D0010B107E0012010BD002084F869
:101C80003C00204600F00CF8022084F83D00211DA5
:101C9000206800F085FC012084F83D00002010BD84
:101CA0007047704710B504460068012200F0DCFC64
:101CB0000B492068884202D00A49884203D1416C0E
:101CC00041F4004141642068816801F00701062960
:101CD00003D0016841F001010160002010BD000047
:101CE000000001400004014000680349884201D11E
:101CF000FFF794B9704700000044014070477047F7
:101D000070B5026804461068D168536910F00F0F6F
:101D100052D003F0010501F490762E435FD0C20744
:101D200005D0CA0503D5E26B42F00102E263420727
:101D300005D5DA0703D0E26B42F00202E2638207C4
:101D400005D5DA0703D0E26B42F00402E263020732
:101D500007D501F020022A4303D0E26B42F00802CB
:101D6000E263E26B002A33D0800604D5880602D5F0
:101D7000204600F094FD20684069E16BC0F38010BC
:101D8000090700D428B3204600F07BFD2068416994
:101D900049061AD5416921F040014161606BA0B14B
:101DA0001B490165606BFEF72DFF002810D0606BAA
:101DB000016DBDE870400847830610D58B060ED52F
:101DC0002046BDE8704000F06ABD2046FFF797FF4F
:101DD00070BD2046FFF793FF0020E06370BD03064F
:101DE00006D50B0604D52046BDE8704000F036BE8F
:101DF0004006F3D54806F1D5D168204621F04001D0
:101E0000D160202184F8391000F08DF970BD0000F8
:101E10007328000870B5040004D094F83900002538
:101E200010B106E0012070BD84F83850204600F063
:101E300023F8242084F839002068C16821F4005177
:101E4000C160204600F076FD2068016921F49041D0
:101E500001612068416921F02A0141612068C1685F
:101E600041F40051C160E563202084F8390084F812
:101E70003A00002070BD0000F0B587B00446142180
:101E80006846FEF747FA3F49DFF8F4E0D4F800C0AF
:101E90003C4A1439C02602230124032507273A4867
:101EA000F44521D1D2F800C04CF0100CC2F800C0AB
:101EB000126802F0100205920A6842F002020A60FB
:101EC0000968009601F00201CDE904710DF1040CDE
:101ED00069468CE83800FEF7B9FE0022052125206E
:101EE000FFF722F9252022E0DFF8A0E0F44522D117
:101EF000244A121F166846F480261660126802F4FF
:101F0000802205920A6842F002020A60096801F024
:101F1000020105914FF440618DE8BA006946FEF771
:101F200095FE002205212720FFF7FEF82720FFF766
:101F3000EDF807B0F0BD16488445FAD1106840F0BE
:101F400020001060106800F020000590086840F044
:101F5000040008600868009600F00400059008205E
:101F6000CDE90350CDE9013469460A48FEF76EFE1B
:101F7000002205214720FFF7D7F84720D7E70000C8
:101F80000010014044380240000402400048004074
:101F9000001401400008024090F83A30202B22D172
:101FA000F9B1F2B190F83830012B1CD081628285F2
:101FB000C2850021C163222280F83A2080F83810BF
:101FC0000168CA6842F48072CA6001684A6942F0D6
:101FD00001024A610068C16841F02001C16000202F
:101FE00070470120704702207047000070B5054619
:101FF00000681A491A4C884219D1A088194B00224E
:1020000020B900215A54491C0A29FBDB1449891DB7
:1020100009780A2903D01954401CA08000E0A2804E
:102020000F4910480122891D7438FFF7B5FF0E498A
:102030002868884211D10B4A2078143261781154F3
:102040001E2801D2401C20700549BDE8704005489B
:102050000122491CB438FFF79FBF70BD0014014036
:102060000000002094030020004800402DE9F843C0
:10207000044690F839001F4616460D46202850D1D8
:10208000B5B1AEB194F8380001284AD0012084F8E7
:1020900038004FF00008C4F83C80212084F8390053
:1020A000FEF7BCFEA6848146E68484F8388026E0EC
:1020B0000120BDE8F883E08C401EE084A0684B4618
:1020C000B0F5805F4FF000024FF08001204600978E
:1020D00003D000F0F4FCE8B90DE000F0F0FCC8B962
:1020E00028882168C0F308004860206908B16D1C89
:1020F00005E0AD1C03E0216815F8010B4860E08C99
:102100000028D8D14B46002240212046009700F0FD
:10211000D6FC08B10320CCE7202084F83900002049
:10212000C7E70220C5E77047FEE700007FB500243F
:1021300012480094019402940F49039401604FF4F3
:102140008031C0E901140461047680F820400C4914
:10215000C0E90A140125C561C46080F830404561BA
:10216000FEF7DEFC0320CDE9000569460294034832
:10217000FEF730FC7FBD000000200140FC00002085
:102180000100000F7FB500241248009401940294CE
:102190000F49039401604FF48031C0E901140461D8
:1021A000047680F820400C49C0E90A140125C56175
:1021B000C46080F830404561FEF7B2FC0520CDE9EF
:1021C0000005694602940348FEF704FC7FBD000049
:1021D00000210140440100200100000F2DE9F04FD3
:1021E00087B014216846FEF795F83F48002401683F
:1021F00041F010010160016801F0100105910168D2
:1022000041F080010160016801F0800105910168E1
:1022100041F004010160016801F0040105910168C9
:1022200041F001010160016801F0010105910168BF
:1022300041F002010160016801F0020105910168AD
:1022400041F0080101600068DFF8A08000F008009C
:1022500040F605050590002229464046FEF7D9FDC7
:10226000DFF88C9048F2D707002239464846FEF73F
:10227000D0FDDFF880A0002255215046FEF7C9FDB1
:10228000DFF874B0002208215846FEF7C2FD009521
:102290000125CDE90154694640460394FEF7D6FC7A
:1022A0000826CDE90064694640460294FEF7CEFC5C
:1022B0000097CDE90154694648460394FEF7C6FCF1
:1022C00055200090CDE90154694650460394FEF72D
:1022D000BDFC0096CDE90154694658460394FEF7CB
:1022E000B5FC07B0BDE8F08F30380240000802406E
:1022F00000000240000C02400004024010B596B0FD
:1023000000240F9410941194129413941C21684685
:102310001494FDF7FFFF202107A8FDF7FBFF2548D8
:102320002349016040F28331C0E9011440F2E731F2
:10233000C0E9031444618461FFF754FA4FF48050FC
:102340000F900FA91B48FFF7B4FA1A48FFF78DFC4E
:10235000139413A917481494FFF7FCF96020CDE9F2
:1023600000040294039404940594002269461148E1
:102370000694FFF712FC042269460E48FFF70DFC95
:10238000082269460B48FFF708FC07940894099453
:102390004FF400500A94CDE90B4007A905480E946C
:1023A000FFF7AEF90348FFF7A3FB16B010BD00001E
:1023B00000000140E001002010B58EB00024079419
:1023C000089409940A940B941C2168460C94FDF718
:1023D000A1FF17481549016040F28331C0E901149B
:1023E00040F2E731C0E903148461FFF7FBF94FF4D1
:1023F0008050079007A90E48FFF75BFA0C48FFF7DB
:1024000034FC0B940BA90A480C94FFF7A3F9602045
:10241000CDE9000402940C22694605480494FFF7B4
:10242000BCFB0348FFF764FB0EB010BD0004004086
:102430002002002010B58CB0002407940894099461
:102440001C2168460A94FDF765FF14481249016093
:1024500040F28331C0E901146321C0E903148461AF
:10246000FFF7C0F94FF48050079007A90B48FFF71A
:1024700020FA0A48FFF7F9FB6020CDE90004029436
:102480000022694605480494FFF787FB0348FFF7DD
:102490002FFB0CB010BD0000004001406002002086
:1024A000FEE7704701F05AFC01F04AFB01F020F80A
:1024B000642001F0EBF8F5E710B5502080F31188A7
:1024C000BFF34F8FBFF36F8F01F00EFF18B10449B8
:1024D0004FF080500860002080F3118810BD00008C
:1024E00004ED00E030B593B030216846FDF712FFEF
:1024F00014210CA8FDF70EFF19480025016841F0D2
:1025000080510160006800F080501190154801680A
:1025100041F4804101600068022400F48040119081
:1025200001200090000401908001CDE9064008AA36
:1025300004205A2182E813000B906846FEF730FF12
:102540000CA90F2081E831004FF4A0500F90E00259
:10255000109002210CA8FEF719FE13B030BD000048
:1025600040380240007000400548016841F47001A5
:10257000016003494FF00060803908607047000037
:1025800088ED00E010B50448FFF7FFF9BDE8104002
:102590000248FFF7FAB90000E00100201C06002005
:1025A000F0B50268254C264D264E274F274B4FF09D
:1025B000804CA04209D0604507D0A84205D0B04267
:1025C00003D0B84201D0984204D122F0700E4A687C
:1025D00042EA0E02A0421BD0604519D0A84217D093
:1025E000B04215D0B84213D0984211D0184DA8422D
:1025F0000ED0184DA8420BD0174DA84208D0174D49
:10260000A84205D0164DA84202D0164DA84203D1CB
:1026100022F44075CA682A434D6922F080022A4399
:1026200002608A68C2620A688262A04201D098424F
:1026300001D10969016301214161F0BD0000014040
:102640000004004000080040000C0040000401406D
:102650000040014000440140004801400018004093
:10266000001C00400020004010B501F01F030121B4
:10267000046A99408C430462016A9A4011430162E2
:1026800010BD10B5846842EA032224F47F440A4353
:102690002243826010BD826822F070020A4342F039
:1026A0000701816070470000F0B5026A22F0010264
:1026B0000262036A42688469124E24F073050C6852
:1026C0002C4323F002058B682B430D4DA84201D00B
:1026D000B04205D123F00807CB683B4323F0040345
:1026E000A84201D0B04205D14D6922F44072154391
:1026F0008A692A4342608461496841630362F0BD8C
:102700000000014000040140F0B5026A22F010020E
:102710000262026A436884690D6824F4E64444EA6C
:1027200005248D6822F0200242EA05120F4D104E5A
:10273000A84201D0B04206D1CF6822F0800242EA1E
:10274000071222F04002A84201D0B04207D14D69E1
:1027500023F4406343EA85038D6943EA85034360BC
:102760008461496881630262F0BD0000000001409D
:1027700000040140F0B5026A22F480720262026A2B
:102780004368C46922F4007224F073050C68124E89
:102790002C438D6842EA05220E4DA84201D0B0427A
:1027A00006D1CF6822F4006242EA072222F4806256
:1027B000A84201D0B04207D14D6923F4405343EA07
:1027C00005138D6943EA05134360C4614968C16319
:1027D0000262F0BD000001400004014030B5026A11
:1027E00022F480520262046A4268C3690D6823F4CD
:1027F000E64343EA05238D6824F4005444EA053493
:10280000084DA84202D0084DA84204D14D6922F4D7
:10281000804242EA85124260C361496801640462F1
:1028200030BD0000000001400004014010B5036A03
:10283000046A24F001040462846924F0F00444EA88
:10284000021423F00A020A438461026210BD10B52B
:10285000036A23F0100303628369046A23F470435C
:1028600043EA023224F0A00343EA011182610162CB
:1028700010BD10B5806B0021C185C184FFF73FFA00
:1028800010BD0168CA6822F49072CA6001684A6982
:1028900022F001024A61202180F83A10704710B5F9
:1028A00090F83A10222901D0022010BD8168B1F5BC
:1028B000805F11D00169002901681FD0496801F0CB
:1028C0007F03816A4A1C82620B70C18D491E090414
:1028D000090CC18518D02BE00269816A002A0268C0
:1028E000526805D0D2B20A80816A491C8162ECE745
:1028F000C2F308020A80816A891CF7E74A68816A84
:102900004B1C83620A70E0E70168CA6822F020026B
:10291000CA600168CA6822F48072CA6001684A69A4
:1029200022F001024A61202180F83A10FFF75EFB95
:10293000002010BD2DE9F041044600680169E268FD
:1029400021F44051114301612169A068E269084303
:102950006169114308432168CA6849F20C639A43CC
:102960000243CA6020684169A26921F440711143A1
:102970004161E069192764253226B0F5004F354AD8
:10298000354920684FF0000806D0884201D09042B7
:1029900036D1FEF7C5FC35E0884201D0904202D125
:1029A000FEF7BEFC01E0FEF7ABFC61684A18A0FB35
:1029B000070148EB0803FDF763FC0146B0FBF5F0A7
:1029C0000201B1FBF5F06FF01803584301EB8000F2
:1029D00006EBC000B0FBF5F000F0F80002EB40029F
:1029E000B1FBF5F0584301EB800006EBC000B0FBF3
:1029F000F5F000F00700216810448860BDE8F08120
:102A0000FEF77EFC61688B0F8A00A0FB0701FDF7D3
:102A100037FC0146B0FBF5F06FF01802504301EBB4
:102A2000800006EB0010B0FBF5F000F0F002B1FB07
:102A3000F5F002EB0012B1FBF5F06FF0180358430C
:102A400001EB800006EB0010B0FBF5F000F00F008A
:102A5000D1E70000001401400010014090F8391047
:102A6000212901D0022070478168B1F5805F016A99
:102A70000BD04A1C0262026809785160C18C491E61
:102A80000904090CC1840ED017E009880268C1F35B
:102A90000801516001690029016A02D0491C0162E4
:102AA000ECE7891CFBE70168CA6822F08002CA6073
:102AB0000068C16841F04001C160002070472DE905
:102AC000F041984617460E460446069D1DE0681CD8
:102AD0001BD02DB1FEF7A2F9A0EB0800A84214D933
:102AE0002068C16821F4D071C1602068416921F07B
:102AF00001014161202084F8390084F83A00002067
:102B000084F838000320BDE8F0812068006836EAC8
:102B1000000004D00020B842D9D00020F3E7012003
:102B2000F9E700000148FFF7EBB80000A002002021
:102B30000148FFF7E5B80000E00200200148FFF778
:102B4000DFB800002003002000F0B4FC40B100F02A
:102B5000B1FC022806D000F0ADFC012808D00BE043
:102B6000002106E000F0A0FC6420FEF75DF803E021
:102B70000121012000F0CEFC642000F087FDE3E796
:102B8000FEE700000FB4084B10B504A902AA039891
:102B900000F0EEF8044602A9002000F080FC204678
:102BA00010BC5DF814FB00009F3400080907090EF3
:102BB000002804DB00F1E02080F80014704700F0EA
:102BC0000F0000F1E02080F8141D704702E008C8F3
:102BD000121F08C1002AFAD170477047002001E097
:102BE00001C1121F002AFBD1704700002DE9FF5FD1
:102BF00082B00021DDE90430020DDDF840B003436E
:102C000018D044F61050A2F2FF3242431514119826
:102C100001281FD0A5EB0B00401C5FEA000A4FF013
:102C200000064E4FDFF83891B046504615D5CAF130
:102C3000000413E0119801244AA3012801D16FEA8E
:102C40000B010298119AC0E90031C0E9024206B0B6
:102C5000BDE8F09FCBF10000DFE704460021404AC9
:102C6000491842EB0450CDE9001012E0E00707D00C
:102C700032463B4640464946FDF71DFC80468946A4
:102C800032463B4610461946FDF715FC06460F46F0
:102C90006410002CEAD1DDE90401DDE90023BAF17A
:102CA000000F06DAFDF707FC42464B46FDF703FC32
:102CB00005E0FDF772FC42464B46FDF76EFC04460C
:102CC0000E460022284BFDF793FD03D84FF0FF304E
:102CD000014607E00022254B20463146FDF744FB24
:102CE000FDF76EFD102409E0002C0ADB0A22002308
:102CF000FDF7C6FA039B30321A55641E50EA0102F2
:102D0000F2D1641C039AC4F111031444119A012AEC
:102D100003D0012208430DD10AE0084304D000206B
:102D20004FF0110B119072E7A3EB0B056D1E0DE038
:102D30005B4504DD4FF0000205F1010504E003DA14
:102D40004FF00002A5F10105002AECD0029811997C
:102D5000C0E90231C0E9004579E7000000001440F5
:102D60000000F03F300000000000F0430000E03FB2
:102D70002DE9FF4F95B09B468946064600250FE298
:102D8000252877D100242746F84A0121059400E040
:102D9000044316F8013F203B01FA03F01042F7D13B
:102DA00030782A2811D06FF02F033078A0F130024C
:102DB000092A16D8059A44F0020402EB820203EBBA
:102DC00042021044761C0590EFE759F8042B059257
:102DD000002A03DA504244F40054059044F00204FF
:102DE000761C30782E2816D116F8010F44F0040412
:102DF0002A280DD06FF02F023078A0F13003092B74
:102E000009D807EB870302EB4303C718761CF3E7E7
:102E100059F8047B761C30786C280FD006DC4C28DF
:102E200017D068280DD06A2814D104E0742810D077
:102E30007A280FD10DE044F400140AE044F4801421
:102E400001E044F440147278824202D104F5801407
:102E5000761C761C307866280BD013DC582877D087
:102E600009DC002875D04528F6D04628F4D047283C
:102E70001AD19DE118E0632835D0642879D06528FF
:102E800012D195E1702873D008DC6728F1D0692849
:102E90006FD06E280DD06F2806D1B5E073282CD0E6
:102EA000752875D0782874D05A46179990476D1CAC
:102EB00075E1C4F30250022809D003280DD0D9F8D7
:102EC000001004280DD00D6009F1040967E1D9F85C
:102ED0000010EA17C1E90052F6E7D9F800100D809A
:102EE000F2E70D70F0E719F8041B8DF800100020D0
:102EF0008DF80100EA46012003E059F804AB4FF0D9
:102F0000FF3061074FF0000102D40DE008F101012C
:102F10008846B9420FDA8045F8DB1AF80810002914
:102F2000F4D108E008F1010188468142FADB1AF881
:102F300008100029F6D105985B46A0EB080721464A
:102F40003846179A00F094FA284400EB080507E089
:102F50004DE029E10DE01AF8010B5A461799904708
:102F6000B8F10108F7D25B4621463846179A13E1BB
:102F700042E00A220092C4F302524FF0000A022AF1
:102F800008D059F804CB032A4FEAEC710AD00DE0BF
:102F900029E02AE009F1070121F00702F2E802C165
:102FA000914609E00FFA8CFC4FEAEC71042A03D138
:102FB0004FFA8CFC4FEAEC71002907DA0A4600212F
:102FC000DCF1000C61EB02012D2202E0220504D5A8
:102FD0002B228DF80420012203E0E20701D02022F9
:102FE000F7E7904659E00A2102E010220DE0102197
:102FF0004FF0000A00910BE010224FF0000A44F05D
:1030000004040827009203E008224FF0000A00920F
:10301000C4F30252022A05D059F804CB0021032A36
:1030200008D009E009F1070121F00702F2E802C126
:10303000914605E01FFA8CFC042A01D10CF0FF0C2C
:103040004FF00008220728D5702806D0009B83F097
:10305000100353EA0A0305D00EE040228DF8042045
:10306000012208E05CEA010206D030228DF804203B
:103070008DF8050002229046009B83F0080353EA76
:103080000A030AD15CEA010201D1620705D53022A8
:103090008DF804204FF001087F1E582804D034A07A
:1030A00003900EA802900DE036A0F9E75346604663
:1030B000009AFDF7E5F884460398825C0298401E6A
:1030C000029002705CEA0100F0D1029806A9081A89
:1030D00000F1200A600702D524F4803400E00127C3
:1030E000574502DDA7EB0A0000E0002000EB0A01D3
:1030F000009005984144401A0590E00306D45B46D1
:103100002146179A059800F0B3F90544002706E018
:1031100001A85A46C05D179990476D1C7F1C474512
:10312000F6DBE0030CD55B462146179A059800F0C4
:103130009FF9054404E030205A46179990476D1CCA
:103140000099481E00900029F5DC08E002980299D9
:103150005A460078491C0291179990476D1CBAF1A4
:103160000001AAF1010AF1DC65E100000928010073
:1031700030313233343536373839616263646566ED
:1031800000000000303132333435363738394142AF
:10319000434445460000000000F058F90544761C01
:1031A000307800287FF4ECAD19B02846BDE8F08FE8
:1031B000620700D4062709F1070222F0070CFCE899
:1031C0000223E14603F000485FEA080C02D00FF248
:1031D000702C0DE05FEA045C02D50FF2682C07E06A
:1031E0005FEAC47C02D00FF2602C01E0AFF2700CF9
:1031F0004FF0FF3823F00043CDF850C065280CD0C5
:1032000006DC452809D046281DD047283DD13DE0A1
:10321000662818D067287ED138E00021112F01DB05
:10322000112000E0781CCDE9000106A90EA8FFF7E7
:10323000DDFCDDE90F010E9A03910021009207F1F8
:10324000010A04914DE04FF000400097CDE90110D4
:1032500006A90EA8FFF7CAFCDDE90F0203920E9B38
:1032600011990022DDF80CA00093049211B9791C89
:1032700000EB010AB7EB0A0004D4C0F1FF3007F1FC
:10328000010A0490AAEB0700019044E0012F00DA44
:1032900001270021112F01DD112000E03846CDE982
:1032A000000106A90EA8FFF7A1FCDDE90F010E9AA7
:1032B0000391002104910092BA4621070CD403998E
:1032C000514500DA8A46BAF1010F05DD009AAAF1EC
:1032D0000101515C302908D0B84202DA10F1040F24
:1032E00006DA0121CDE9011015E0AAF10101E9E7B3
:1032F000002805DC049901440491AAEB000102E0D6
:10330000411C514500DD8A460499401A401C019039
:103310004FF000400290200704D40198504501DB93
:10332000CDF8048000208DF84F0002980DF14F0772
:10333000B0F1004F25D02B200E9002984FF00208DC
:1033400000280CDA404202902D200E9007E00A215E
:103350000298FDF791F93031029007F8011DB8F19C
:103360000001A8F10108F2DC02980028EFD1791ED3
:103370000E980870307800F0200040F0450007F803
:10338000020D12A8C01B00F107081498007800B1C4
:10339000012000EB0A01019801EBE071059841441E
:1033A000401A401E0590E00306D45B462146179A5A
:1033B000059800F05DF805441498007818B15A4655
:1033C000179990476D1CE00324D55B462146179A58
:1033D000059800F04DF805441CE00498002807DB30
:1033E000DDE90301884203DD0098405C179901E0A4
:1033F000179930205A469047049805F10105401C62
:1034000004900198401E019004D12E205A4617992D
:1034100090476D1CBAF10001AAF1010ADDDC05E05C
:1034200017F8010B5A46179990476D1CB8F1000127
:10343000A8F10108F4DC5B462146179A0598ABE633
:103440002D0000002B000000200000002DE9F041BD
:10345000044600251E461746880404D405E0394674
:103460002020B0476D1C641EF9D52846BDE8F081C8
:103470002DE9F041044600251E469046C80301D5BB
:10348000302700E02027880404D505E0414638466F
:10349000B0476D1C641EF9D52846BDE8F0810A6866
:1034A000531C0B601070704740210148FDF7AABC07
:1034B0000000024010B500F02BFC042209A1FCF72B
:1034C00044FF002808D109480079302805D0312868
:1034D00005D0322800D1022010BD002010BD0120EF
:1034E00010BD000077696669000000009E0300209F
:1034F00010B5074C0220A16B00F00CF80320E16B23
:1035000000F008F8216CBDE81040042000F002B87B
:10351000000000200B4B01280AD002280BD0032802
:103520000CD004280DD1CAB201211846FDF771BC98
:10353000CAB24021F9E7CAB21021F6E7CAB20421A3
:10354000F3E770470000024096B0FDF76FFDFEF70D
:10355000C9FFFEF743FEFEF7E9FDFEF713FE3D4807
:103560003B49002401603C49C0E901144FF480410B
:10357000C0E9034144618461C4610462FDF754FC05
:10358000FEF7BCFEFEF718FFFEF754FF3448334940
:103590004FF4E1360160C0E901640C25C460C0E964
:1035A00004458461C461FEF735FC2D482D49403047
:1035B00001607110C0E90114C460C0E90445846170
:1035C000C461FEF727FC2648274980300160C0E926
:1035D0000164C460C0E904458461C461FEF71AFC5B
:1035E00000F04EF800F0A8FBFDF7C2F91C480122DC
:1035F0001E498030FEF7D0FC1C4919480122491FA2
:103600004030FEF7C9FC1C2219496846FCF769FEE8
:103610000021684600F046F8144C1549A41F1C22EE
:10362000A0641C3107A8FCF75CFE002107A800F08D
:1036300039F80F49E0641C2238310EA8FCF751FE1E
:1036400000210EA800F02EF8206500F026F8FEE715
:10365000005400408C010020A086010000100140B1
:10366000A002002000480040001401400600002095
:103670007444000801460020842900D0C81C70470B
:1036800000210148FEF70EBB6002002010B500B912
:10369000012000F0C5FC002010BD10B500F0E6FCD4
:1036A000002010BD7FB50D4604464169B0F9080001
:1036B00081B1A16971B1FFF7DDFFD4E905128DE891
:1036C0000700D4E900102B46226900F0E2FD0390C8
:1036D00004B070BDFFF7CEFF03A9CDE90001208A39
:1036E0002B4682B2D4E9001000F0A6FD012801D0DB
:1036F0000020EDE70398EBE72DE9F041184C0F4669
:10370000054666692068001D00F0C6FB38B92068D0
:1037100090F82C1001208840A1698143A161681CA8
:1037200007D137B12168BDE8F0410E48091D00F00E
:10373000F7BB20683544B5424560216805D2A068D2
:10374000BDE8F041091D00F0D3BB6068091D00F021
:10375000CFFB206B854200D22563BDE8F0810000DD
:103760009C000020380700202DE9F041054600F0BC
:10377000E3FB2E4C2069401C206120682C4F10B1C7
:10378000E06940B32DE025602069012829D1002699
:1037900006EB860007EB800000F09CFB761C072EF2
:1037A000F6D323488C3000F095FB2148A03000F080
:1037B00091FB1F48B43000F08DFB1D48C83000F06D
:1037C00089FB1B48DC3000F085FB19488C306060B9
:1037D0001430A06005E02068E96AC06A884200D819
:1037E0002560E06A401CE062E96A0120A269884025
:1037F0001043A06101EB810007EB8000291D00F060
:103800008FFB00F0B9FBE06900280CD02068E96A62
:10381000C06A884207D207494FF080500860BFF362
:103820004F8FBFF36F8FBDE8F08100009C00002038
:103830005C06002004ED00E010B5044690F851004D
:1038400058B101280CD002280FD0502080F31188E5
:10385000BFF34F8FBFF36F8FFEE7206B00F0A0FB2D
:103860002046BDE8104000F09BBB10BD10484FF44F
:103870007051420706D0C01D0D4920F00700411AC3
:10388000C1F570510B4A00230144C2E90003083915
:10389000103A21F0070111604B600B600B1AC0E970
:1038A000001393604FF000405360D06070470000F9
:1038B0004C070020E8000020144E154CA6F1C80764
:1038C0004FF08058DFF84C9012E000BF00F034FB5E
:1038D000F068C568281D00F0DFFA2069401E2061ED
:1038E000E068401EE06000F047FB2846FFF7A4FFB9
:1038F000E0680028EAD138680128F9D9C9F80080C1
:10390000BFF34F8FBFF36F8FF2E700002407002053
:103910009C00002004ED00E02DE9F0479A46DDE927
:10392000098481466FF00303206B03EB820210448D
:10393000089D20F00706700707D0502080F31188FB
:10394000BFF34F8FBFF36F8FFEE723180A5C83F836
:1039500034200A5C12B1401C1028F6D3002784F8EA
:103960004370072D00D30625E562C4E91157201DD9
:1039700000F0BBFA04F1180000F0B7FA2461C5F1B9
:1039800007006462A061E76484F8507052464946BB
:10399000304600F0BFF82060B8F1000F01D0C8F841
:1039A0000040BDE8F087000030B5114900E0114645
:1039B0000A688242FBD34B685C18844203D140689A
:1039C00018444860084643681C18944209D1084CC2
:1039D000103C2468A24209D052681A4442600A6826
:1039E00012680260814200D0086030BD0460F9E7CF
:1039F000E800002006484168096829B14168C968A3
:103A0000C9684968016370474FF0FF31FAE7000069
:103A10009C00002008484068401C4FF0500080F394
:103A2000118804D0BFF34F8FBFF36F8FFEE7BFF352
:103A30004F8FBFF36F8FFEE7F00000202DE9F041BC
:103A40000546002700F048FB314E306808B9FFF703
:103A50000DFFF06805424BD1C5B3083568070ED09D
:103A600005F00700C0F108000544680707D05020A2
:103A700080F31188BFF34F8FBFF36F8FFEE72DB335
:103A80007068854234D82248103001460C6801E045
:103A900020460C466168A94202D221680029F7D16C
:103AA00031688C4224D0076821680160606808375B
:103AB000411B10290FD96019420708D0502080F30C
:103AC0001188BFF34F8FBFF36F8FFEE710E04160A7
:103AD0006560FFF769FF61687068401A7060B268DE
:103AE000904200D2B060F06801430020C4E90001B8
:103AF00000F05EFC780707D0502080F31188BFF3F8
:103B00004F8FBFF36F8FFEE73846BDE8F0810000AE
:103B1000D800002010B5031F4FF080741C601B1FDD
:103B200021F001011960191F044B0B6014390A6060
:103B3000091F6FF0020244380A6010BD153A0008F0
:103B400010B5584C6269606B824211D056A104F1E5
:103B50005C006263FFF716F804F15C00FCF7E5FB1C
:103B6000014604F15C0000F0DFF8C820FDF75CF8C6
:103B7000A269A06B824211D04A484EA16430A26370
:103B8000FFF700F847486430FCF7CFFB0146454893
:103B9000643000F0C9F8C820FDF746F8E269E06B30
:103BA000824211D03F4846A16C30E263FEF7EAFF43
:103BB0003C486C30FCF7B9FB01463A486C3000F0E9
:103BC000B3F8C820FDF730F8226A206C824211D089
:103BD00034483EA174302264FEF7D4FF314874307B
:103BE000FCF7A3FB01462F48743000F09DF8C82075
:103BF000FDF71AF82269206B82420ED036A13948AF
:103C00002263FEF7BFFF3748FCF78FFB01463548BC
:103C100000F08AF8C820FDF707F8A268A06A82427F
:103C200011D0204830A17C30A262FEF7ABFF1D48C6
:103C30007C30FCF77AFB01461A487C3000F074F8BF
:103C4000C820FCF7F1FFE268E06A824211D0154813
:103C500028A18430E262FEF795FF12488430FCF719
:103C600064FB01460F48843000F05EF8C820FCF782
:103C7000DBFF626A606C824213D01A4820A10C38C4
:103C80006264FEF77FFF17480C38FCF74EFB0146D5
:103C900014480C3800F048F8BDE81040C820FCF784
:103CA000C3BF10BD000000204C4544312025640DE9
:103CB0000A0000004C4544322025640D0A00000033
:103CC0004C4544332025640D0A0000004C45443423
:103CD0002025640D0A00000052454C4159202564FE
:103CE0000D0A00008B03002046414E312025640D53
:103CF0000A00000046414E322025640D0A000000F3
:103D000053454355524954592025640D0A0000007B
:103D1000044910B501F10A00FCF70EFB01480A3016
:103D200010BD0000940300208AB2014664230148BC
:103D3000FEF79CB9A002002010B500210648FDF74F
:103D4000B1FF04210448FDF7ADFFBDE81040082194
:103D50000148FDF7A7BF0000E00100202DE9F04178
:103D6000FFF7D6FF04223AA1FCF7EFFA3A4D0026FE
:103D70003A4C012730B92879302800D1A660312883
:103D800000D1A760FFF7C4FF042235A1FCF7DDFADC
:103D900030B92879302800D1E660312800D1E760B9
:103DA000FFF7B6FF042230A1FCF7CFFA30B928792B
:103DB000302800D12661312800D12761FFF7A8FF04
:103DC00004222BA1FCF7C1FA30B92879302800D1A0
:103DD0006661312800D16761FFF79AFF042226A1AE
:103DE000FCF7B3FA30B92879302800D1A661312820
:103DF00000D1A761FFF78CFF042221A1FCF7A5FAEF
:103E000030B92879302800D1E661312800D1E76146
:103E1000FFF77EFF04221CA1FCF797FA30B928793E
:103E2000302800D12662312800D12762FFF770FFC9
:103E3000042217A1FCF789FA002806D12879302836
:103E400000D16662312800D16762BDE8F0810000D0
:103E500046414E31000000009E030020000000207B
:103E600046414E320000000052454C4159000000CE
:103E70004C454431000000004C4544320000000035
:103E80004C454433000000004C4544340000000021
:103E9000444F4F5200000000D0E9013201699A609E
:103EA000D0E901235A604A68824201D182684A609F
:103EB000002202610868401E086008687047000020
:103EC000034B036003F154000860802010607047CA
:103ED000C803002000F108014FF0FF32C0E90112D1
:103EE000C1600161002101607047002101617047DC
:103EF00030B50B685A1C02D000F1080202E00269DA
:103F000004E02246546825689D42FAD953684B6004
:103F100099608A60516008610168491C016030BD88
:103F200042684A6093688B60936859609160086149
:103F30000168491C01607047502080F31188BFF36D
:103F40004F8FBFF36F8F0A494868401C48600128B3
:103F50000CD10848006810F0FF0F07D0502080F304
:103F60001188BFF34F8FBFF36F8FFEE770470000DC
:103F7000F000002004ED00E00849486828B1401E28
:103F8000486001D180F311887047502080F3118878
:103F9000BFF34F8FBFF36F8FFEE70000F0000020EC
:103FA00070B5002827D0144DA0F108046168E868B6
:103FB000014207D1502080F31188BFF34F8FBFF328
:103FC0006F8FFEE722683AB1502080F31188BFF36B
:103FD0004F8FBFF36F8FFEE78143616000F07CF885
:103FE00060686968084468602046FFF7DDFCBDE84A
:103FF000704000F0DDB970BDD80000204FF0E02027
:1040000000210161816105494FF47A720968B1FBB1
:10401000F2F1491E416107210161704798000020BB
:1040200010B5020014D00F48806B38B1502080F3D7
:104030001188BFF34F8FBFF36F8FFEE700F04CF88E
:1040400000211046FFF758FB00F0B2F9002807D115
:1040500005494FF080500860BFF34F8FBFF36F8F5B
:1040600010BD00009C00002004ED00E010B586B0FB
:104070000024039405AA04A903A80494FFF720FFD1
:10408000DDE903010094CDE9011000230EA11048E1
:10409000059A00F0FEF80F490028486311D050201F
:1040A00080F31188BFF34F8FBFF36F8F4FF0FF3056
:1040B00008630120C8614C6106B0BDE8104000F003
:1040C00041B806B010BD000049444C450000000056
:1040D000B93800089C0000200248816B491C8163AC
:1040E000704700009C0000201448816B11B1012131
:1040F00041627047002141628169B1FA81F1C1F1E9
:104100001F0101EB81020E4951F822306BB101EB26
:10411000820101F108034A6852684A609A4201D15B
:1041200052684A60D16801607047502080F311885E
:10413000BFF34F8FBFF36F8FFEE700009C0000209E
:104140005C0600201CB537480168374A914207D108
:10415000502080F31188BFF34F8FBFF36F8FFEE7BE
:1041600000683149491E884207D1502080F31188E8
:10417000BFF34F8FBFF36F8FFEE72C490878019094
:10418000FF20087008788DF800009DF800009DF869
:10419000002000F0F000904207D0502080F31188FA
:1041A000BFF34F8FBFF36F8FFEE79DF80000204BEA
:1041B00000F0500018700720986005E09DF800207E
:1041C00052008DF80020401E9DF800201206F5D404
:1041D0009860032807D0502080F31188BFF34F8FD9
:1041E000BFF36F8FFEE74FF440709860019808703E
:1041F0000C482030016841F470010160016841F011
:1042000070410160FFF7FAFE00205860FBF7EAFFFB
:104210000848016841F040410160FBF7CFFF0020F2
:104220001CBD000000ED00E071C20F4100E400E0A1
:10423000F000002034EF00E02DE9FF5F8346DDE968
:104240000E87994616468A469000FFF7F7FB050051
:104250001CD05420FFF7F2FB040014D0002025638B
:1042600084F85100CDE90240CDE900874B46324643
:1042700051465846FFF750FB2046FFF775FA0120DC
:1042800004B0BDE8F09F2846FFF78AFE4FF0FF30EC
:10429000F6E7F0B585B0DDE90B640A9DA6B1DCB1A7
:1042A000542700972663022684F85160002604AF45
:1042B000CDE90246CDE90057FFF72EFB2046FFF778
:1042C00053FA049805B0F0BD502080F31188BFF375
:1042D0004F8FBFF36F8FFEE7502080F31188BFF33D
:1042E0004F8FBFF36F8FFEE72DE9F0412E4C002773
:1042F000A06B40B1206A401C2062606A00B10127B7
:104300003846BDE8F0816669761C666113D1606845
:10431000006838B1502080F31188BFF34F8FBFF38E
:104320006F8FFEE76068A1686160A060A06A401CB2
:10433000A062FFF75FFB206BDFF87080864209D335
:104340006068006880B16068C068C5686868864257
:104350000DD220632068C06A00EB800158F821006C
:104360000128CAD90127C8E74FF0FF30F1E7281D1F
:10437000FFF792FDA86A18B105F11800FFF78CFD50
:10438000E86A0121A26981401143A16100EB80012B
:1043900008EB8100291DFFF7C3FDE86A2168C96A9F
:1043A0008842CDD30127CBE79C0000205C0600208B
:1043B0002DE9F0472C4D00242746A86B38B1FFF7B4
:1043C000BBFDA86B401EA863A86B40B146E050201F
:1043D00080F31188BFF34F8FBFF36F8FFEE729691A
:1043E000224E0120D1B3A6F1B40980463068E8B16D
:1043F000F068C46804F11800FFF74EFD201DFFF7B8
:104400004BFDE06AAA6908FA00F11143A96100EBCB
:10441000800109EB8100211DFFF782FDE06A296818
:10442000C96A8842E2D3C5F82480DFE70CB1FFF700
:10443000E1FA2C6A44B14646FFF756FF00B16E62BE
:10444000641EF9D100202862686A38B10849012742
:1044500038070860BFF34F8FBFF36F8FFFF78CFDF6
:104460003846BDE8F08700009C00002010070020BF
:1044700004ED00E0EC440008A5240008030000005F
:1044800000000000800000000000000000000000AC
:10449000F844000893090008000000000000000034
:1044A000800000000000000000000000E044000860
:1044B000492B0008020000000000000080000000FE
:1044C00000000000000000000000000000000000EC
:1044D00001020304060708090000000001020304AA
:1044E000556172745F7265616400000052656164B9
:1044F0005F73656E736F720046696E6765725F7099
:1045000072696E7400000000284500080000002059
:10451000FC000000CC2B000824460008FC00002012
:1045200054460000DC2B00080000000000000000E2
:10453000000000000000000000000000000000007B
:10454000000000000000000000000000000000006B
:10455000000000000000000000000000000000005B
:10456000000000000000000000000000000000004B
:10457000000000000000000000000000000000003B
:10458000000000000000000000000000000000002B
:10459000000000000000000000000000000000001B
:1045A000000000000000000000000000000000000B
:1045B00000000000010000001000000000000000EA
:1045C0000024F400000000000000000000000000D3
:1045D00000000000000000000000000000000000DB
:1045E00000000000000000000000000000000000CB
:1045F00000000000000000000000000000000000BB
:1046000000000000000000000000000000000000AA
:10461000000000000000000000000000AAAAAAAAF2
:044620000000000096
:040000050800018965
:00000001FF
