:020000040800F2
:10000000784900205D020008EB3C0008213500081B
:10001000E93C00083D0A00080D450008000000000A
:100020000000000000000000000000009D0100082A
:10003000910D000800000000F9010008113E0008C1
:1000400077020008770200087702000877020008AC
:10005000770200087702000877020008770200089C
:10006000770200087702000877020008770200088C
:10007000770200087702000877020008770200087C
:10008000770200087702000877020008770200086C
:10009000770200087702000877020008770200085C
:1000A00077020008DD3E00087702000877020008AA
:1000B000770200087702000877020008770200083C
:1000C000770200087702000877020008770200082C
:1000D000770200087D440008770200088944000880
:1000E000770200087702000877020008770200080C
:1000F00077020008770200087702000877020008FC
:1001000077020008770200087702000877020008EB
:1001100077020008770200087702000877020008DB
:1001200077020008770200087702000877020008CB
:1001300077020008770200087702000877020008BB
:1001400077020008770200087702000877020008AB
:10015000770200087702000877020008954400083B
:10016000770200087702000877020008770200088B
:1001700077020008770200087702000800000000FC
:100180007702000877020008DFF80CD000F05CFB73
:100190000048004711510008784900202C4B19688D
:1001A0000868B0E8F04F80F30988BFF36F8F4FF015
:1001B000000080F3118870470000000008480068C4
:1001C000006880F308884FF0000080F3148862B65E
:1001D00061B6BFF34F8FBFF36F8F00DF00BF00BF6B
:1001E00008ED00E0DFF80C00016841F470010160E7
:1001F000704700BF88ED00E0EFF30980BFF36F8F19
:10020000134B1A681EF0100F08BF20ED108A20E96A
:10021000F04F106009B44FF0500080F31188BFF325
:100220004F8FBFF36F8F05F06BFF4FF0000080F32F
:10023000118809BC19680868B0E8F04F1EF0100F6B
:1002400008BFB0EC108A80F30988BFF36F8F704746
:1002500094000020EFF305807047000006488047B7
:1002600006480047FEE7FEE7FEE7FEE7FEE7FEE79B
:10027000FEE7FEE7FEE7FEE7C13E00088901000851
:100280002DE9F05F0546002092469B4688460646CB
:10029000814640241BE0284641464746224600F05E
:1002A00023FA53465A46C01A914110D311461846B4
:1002B000224600F00AFA2D1A67EB01084F46224643
:1002C0000120002100F001FA17EB00094E41201E29
:1002D000A4F10104DFDC484631462A464346BDE826
:1002E000F09F40EA01039B0703D009E008C9121FF1
:1002F00008C0042AFAD203E011F8013B00F8013BE0
:10030000521EF9D27047D2B201E000F8012B491E0B
:10031000FBD270470022F6E710B513460A460446A2
:100320001946FFF7F0FF204610BD421C10F8011BD4
:100330000029FBD1801A7047034611F8012B00F801
:10034000012B002AF9D11846704730B50546002028
:10035000034600E05B1C934205D2EC5CC85C201AAB
:1003600001D1002CF6D130BD2DE9FE4F804681EA47
:100370000300C00F0C46009021F0004123F000451F
:10038000B8EB0200A94105D24046214690461C46E2
:100390000B46024623F00040104347D0270DC7F319
:1003A0000A00C3F30A510290401A019040286BDA08
:1003B000C3F3130040F4801B0098924620B1002341
:1003C000D2EB030A63EB0B0B01985946C0F14002D4
:1003D000504600F07AF906460D4650465946019AB5
:1003E00000F092F910EB08006141002487EA1152F5
:1003F00084EAE7731A4340D0009A62B3019A012A53
:100400004FEA075215DC001B61EB02014FF000427E
:1004100002EA0752CDE90042001C41F58011324644
:100420002B4600F092F903B0BDE8F08F404621461C
:10043000F9E7001B61EB0201001C41F58013001875
:100440005B412018A2F5001747EB030140EAD57085
:10045000B6196D4111E06D084FEA360645EAC075E0
:100460004FEA0752001B61EB0201001C41F58011AD
:1004700049084FEA30000019514132462B4603B07B
:10048000BDE8F04F00F052B900980122400000236F
:10049000D0EB020263EBE073009821464FEAE07470
:1004A000B8EB000061EB0401E9E783F000435BE790
:1004B00081F0004158E72DE9FE4F81EA030404F082
:1004C000004421F0004100944FF0000B23F0004362
:1004D00050EA01045ED052EA03045BD0C3F30A542D
:1004E000C1F30A552C44A4F2F3340194A0FB025446
:1004F000C1F3130141F48011C3F3130343F48013D8
:1005000001FB024400FB034E840A970A44EA81542B
:1005100047EA8357A4FB076802958D0A05FB078508
:100520004FEA932C04FB0C542705029D4FEA065812
:1005300047EA1637B5EB08056EEB070C870E920EEF
:1005400047EA811742EA8312A7FB0201B6EB0B01CF
:1005500064EB00042B0D43EA0C335E1844EB1C5093
:10056000DA465146E7FB0201C5F313044FEA0B33A9
:1005700043EA14534FEA0432019C43EA0603A4F110
:100580000C040294009CCDE900B400F0DEF803B046
:10059000BDE8F08F00200146F9E72DE9F04D81EA32
:1005A000030404F0004B21F0004514464FF0000A0C
:1005B00023F0004150EA050220D054EA01021DD088
:1005C000C5F30A570246C5F31303C1F31300C1F381
:1005D0000A5640F4801543F48013A7EB0608101B5D
:1005E000D64608F2FD3873EB050002D308F1010886
:1005F00001E092185B41B8F1000F03DA00200146D8
:10060000BDE8F08D00204FF48011064684460EE0D0
:10061000171B73EB050705D3121B63EB050306439A
:100620004CEA010C49084FEA300092185B4150EA4D
:100630000107EDD152EA030012D082EA040083EAF6
:100640000501084305D0101BAB4106D2012200234F
:1006500006E000224FF0004302E06FF00102531069
:100660001AEB06004CEB085110EB0A0041EB0B01B2
:10067000BDE8F04D00F05AB800F0004230F0004004
:100680000AD0C10D01F56071C0F3160042EA0151B4
:10069000C20840071143704700200146704730B53B
:1006A0000B46014600202022012409E021FA02F530
:1006B0009D4205D303FA02F5491B04FA02F52844CA
:1006C000151EA2F10102F1DC30BD202A04DB203A24
:1006D00000FA02F1002070479140C2F1200320FA95
:1006E00003F3194390407047202A04DB203A21FA93
:1006F00002F00021704721FA02F3D040C2F120023B
:100700009140084319467047202A06DBCB17203A50
:1007100041FA02F043EAE07306E041FA02F3D04006
:10072000C2F12002914008431946704710B5141ECB
:1007300073F1000408DA401C41F1000192185B419A
:100740001A4301D120F0010010BD2DE9F04D924671
:100750009B4611B1B1FA81F202E0B0FA80F2203288
:100760009046FFF7B2FF04460F4640EA0A0041EA0E
:100770000B0153465A46084313D0114653EA010071
:1007800019D0C8F140025046FFF7AEFF05460E46AD
:10079000504659464246FFF798FF084305D00120CE
:1007A00004E020463946BDE8F08D0020054346EAC6
:1007B000E0762C4337430A986305E40AA0EB08006F
:1007C0000022FD0A44EA47540A3002D500200146BF
:1007D000E9E7010510196941DDE90845001969419A
:1007E000BDE8F04DA2E7C1F30A52C1F3130140F294
:1007F000FF3341F480119A4202DA0020014670472B
:1008000040F233439A42A2F2334202DC5242FFF7F3
:100810006BBFFFF75ABF000030B5041E71F1000432
:1008200004DB4FF00044404264EB0101141E73F1FD
:10083000000405DB1C464FF00043524263EB040307
:10084000994208BF904230BD064C074D06E0E06873
:1008500040F0010394E8070098471034AC42F6D307
:10086000FFF796FC7065000890650008464910B5D2
:100870004A6822F440324A604A6843681A434A6030
:1008800001684A6822F480724A6001684A68036914
:1008900042EA03224A6001684A6822F040724A60D4
:1008A00001684A6883681A434A6001688A6822F4CA
:1008B00000628A6001688A68C3681A438A60816A34
:1008C0006FF07062D14201688A6822F070628A60BB
:1008D00001688A680CD0836A1A438A6001688A6852
:1008E00022F040528A6001688A68C36A1A4301E0B4
:1008F00022F040528A6001688A6822F002028A600F
:1009000001688A68037E42EA43028A6090F82010F8
:10091000002901684A680FD042F400624A60016809
:100920004A6822F460424A6001684A68174C436A88
:1009300004EB43331A4301E022F400624A60016889
:10094000CA6A22F47002CA620168CA6A838B104CB8
:1009500004EB03531A43CA6201688A6822F40072E6
:100960008A6001688A6890F8303042EA43228A60DF
:1009700001688A6822F480628A6001688A68406936
:1009800042EA8020886010BD0023014000E0FFFFA4
:100990000000F0FF70B502F0F5FE0121084602F0FC
:1009A0007FFF002116A002F013FF1A4D002404213E
:1009B000284601F08CFB322001F096FA641C642C6E
:1009C000F5DB15490020C87002F0DCFE0121084665
:1009D00002F066FF002111A002F0FAFE04210220BD
:1009E00002F05EFF002111A002F0F2FE01210420BE
:1009F00002F056FFBDE8704000210EA002F0E8BEF4
:100A0000426C6F636B65642031206D696E7574652F
:100A1000212000000000024078000020456E74652F
:100A2000722050617373776F726400002323232355
:100A300000000000443A204261636B00FEE70000C2
:100A40002DE9F84F02F09EFE0121084602F028FF32
:100A500000219EA002F0BCFE0421022002F020FF33
:100A60000021A0A002F0B4FEA0A00125D0E9014A17
:100A70000027DFF884824FF4FA7B4FF4FA690668A6
:100A800004F0FAFE88F8000044287DD0202857D0D2
:100A9000142001F029FA012D0ED0022D11D0032DC2
:100AA0001AD0042D1DD0052D4DD0062D5CD0072D5C
:100AB0006FD0082D7ED041E098F8000060F30F263B
:100AC00045E098F8000060F3174651E0022002F07C
:100AD000E7FE002189A02FE098F8000060F31F6670
:100AE0005BE098F80000009060F307040721022003
:100AF00002F0D6FE009802F013FF584601F0F4F918
:100B00000721022002F0CCFE00217CA002F060FE52
:100B10004FF47A7001F0E8F902F034FE0121084642
:100B200002F0BEFE002176A002F052FE0421022057
:100B300002F0B6FE00216BA002F04AFE6D1CEDB281
:100B4000012F51D091E098F8000060F30F2400903D
:100B50000421022002F0A4FE009802F0E1FE5846B3
:100B600001F0C2F90421B1E798F8000060F31744DE
:100B700000900521022002F093FE009802F0D0FEC2
:100B8000584601F0B1F902E072E002E012E00521FE
:100B90009CE798F8000060F31F6400900621022093
:100BA00002F07EFE009802F0BBFE584601F09CF970
:100BB00006218BE798F80050504665F307008246FF
:100BC0000721022002F06CFE284602F0A9FE5846DA
:100BD00001F08AF90721022002F062FE002147A0FD
:100BE00002F0F6FD01270925C6F30720C4F307210B
:100BF00088423FD1C6F30740C4F30741884239D148
:100C0000300E210E884235D12106B1EB0A6F31D169
:100C100002F0B8FD0121084602F042FE00213EA08C
:100C200002F0D6FD3E48310A0170310C4170310EA0
:100C30008170C470484601F057F90121084602F05E
:100C40002FFE002137A002F0C3FD0421022002F094
:100C500027FE002123A002F0BBFD0121042002F0A9
:100C60001FFE002133A002F0B3FD092D7FF408AF71
:100C7000BDE8F88F0125002702F084FD0121084618
:100C800002F00EFE002131A002F0A2FD484601F064
:100C90002BF90121084602F003FE00212FA002F0EB
:100CA00097FD484601F020F90121084602F0F8FDC1
:100CB000002106A002F08CFD0421022002F0F0FDCC
:100CC000002108A002F084FDDAE60000456E74659C
:100CD00072206E65772070617373776F72643A204B
:100CE00000000000232323230000000035202020E3
:100CF0002020202020000000540000202A000000B6
:100D0000436F6E6669726D206E65772070617373D4
:100D1000776F726400000000446F6E652120000050
:100D20007C000020456E7465722050617373776F8C
:100D3000726420002020202020202020202020203D
:100D400020443D436C6F7365000000004469646E8D
:100D50002774206D6174636821200000547279202B
:100D6000416761696E2120202020202000000000C2
:100D700010B500F089FE01220221044801F0AEF90D
:100D8000BDE810404FF4FA7001F0AEB80000024028
:100D9000704700002DE9F0414FF4FA77FA4D4FF417
:100DA00096787E0004F068FD2870442842D004F054
:100DB00021F90446384601F097F8F4B1012C67D0C8
:100DC000022C43D0032C7ED002F0DCFC0121032056
:100DD00002F066FD0021EDA002F0FAFC01210420E2
:100DE00002F05EFD0021EBA002F0F2FC01210846BA
:100DF00002F056FD0021ECA07DE002F0C3FC0121D1
:100E0000032002F04DFD0021E0A002F0E1FC0121F1
:100E1000042002F045FD0021DEA002F0D9FC0121F2
:100E2000084602F03DFD0021E3A002F0D1FC30466F
:100E300001F05AF8012004F039F90446384601F06F
:100E400053F8062C7EDA002C7CD157E002F09AFC95
:100E50000121032002F024FD0021CCA002F0B8FC07
:100E60000121042002F01CFD0021CAA002F0B0FC08
:100E70004446404601F038F80121084602F010FDD2
:100E80000021D1A002F0A4FC204601F02DF889E752
:100E900002F078FC0121032002F002FD0021BBA03A
:100EA00002F096FC0121042002F0FAFC0021B9A016
:100EB00002F08EFC0121084602F0F2FC002100E065
:100EC00001E0C2A017E002F05DFC0121032002F066
:100ED000E7FC0021ADA002F07BFC0121042002F020
:100EE000DFFC0021ABA002F073FC0121084602F0F8
:100EF000D7FC0021BAA002F06BFC53E702F042FCE1
:100F00000121084602F0CCFC0021B9A002F060FCEF
:100F1000304600F0E9FF02F035FC0121032002F029
:100F2000BFFC002199A002F053FC0121042002F033
:100F3000B7FC002197A002F04BFC0121084602F00B
:100F4000AFFC00E0DCE00021ACA002F041FC3C463C
:100F5000384600F0C9FF00BF04F08EFC287044281A
:100F600007D004F047F80746204600F0BDFF022FE7
:100F7000F2D1274604F080FC2870442842D004F0C7
:100F800039F80446384600F0AFFFF4B1012C67D0C1
:100F9000022C43D0032C7DD002F0F4FB012103206E
:100FA00002F07EFC002179A002F012FC0121042055
:100FB00002F076FC002177A002F00AFC012108462D
:100FC00002F06EFC002178A07CE002F0DBFB012146
:100FD000032002F065FC00216CA002F0F9FB012166
:100FE000042002F05DFC00216AA002F0F1FB012167
:100FF000084602F055FC002184A002F0E9FB3046CF
:1010000000F072FF022004F051F80446384600F068
:101010006BFF062C75DA002C73D156E002F0B2FBA0
:101020000121032002F03CFC002158A002F0D0FB7B
:101030000121042002F034FC002156A002F0C8FB7C
:101040004446404600F050FF0121084602F028FCCB
:10105000002172A002F0BCFB204600F045FF89E7AA
:1010600002F090FB0121032002F01AFC002147A0AE
:1010700002F0AEFB0121042002F012FC002145A089
:1010800002F0A6FB0121084602F00AFC00214FA055
:1010900018E0FFE702F076FB0121032002F000FCDC
:1010A00000213AA002F094FB0121042002F0F8FB99
:1010B000002138A002F08CFB0121084602F0F0FB71
:1010C000002147A002F084FB54E702F05BFB012102
:1010D000084602F0E5FB002151A002F079FBB04682
:1010E000304600F001FF03F001FF0446384600F0EF
:1010F000FBFE01252CB3012C06D00A2C0DD02FE0CD
:10110000FFE72046BDE8F08102F03CFB01210846E4
:1011100002F0C6FB002124A0CFE002F033FB012146
:10112000084602F0BDFB002140A002F051FB012166
:10113000042002F0B5FB00213FA002F049FB0A2089
:10114000E0E7434E307804F019FE0446384600F0DC
:10115000CBFEC4B1012C7DD00B2C7CD0182C7BD0C5
:1011600002F010FB0121084602F09AFB00210EA0BC
:1011700002F02EFB0121042002F092FB00212EA0A0
:1011800002F026FBBDE768E054000020486F6C6465
:1011900020443A0043616E63656C20616E64206395
:1011A0006C6F736521000000556E6B6E6F776E205B
:1011B0006572726F72000000496D6167652074612D
:1011C0006B656E31000000002E310000436F6D6DC5
:1011D000756E69636174696F6E206572726F7200FB
:1011E000496D6167696E67206572726F72000000F9
:1011F00043686172616374657231000052656D6F9E
:1012000076652066696E676572000000496D6167EA
:10121000652074616B656E32000000002E320000A4
:101220004368617261637465723200004E6F7420AE
:101230006D617463680000002020202020202020A1
:101240002020202020443D436C6F73650000000087
:101250005200002028E03DE052E002F093FA012124
:10126000084602F01DFB002130A002F0B1FA09216E
:10127000012002F015FB307800EE100A2DA0B8EE28
:10128000400A02F08FFA0121042002F009FB00213C
:10129000AFF25C0002F09CFA404600F025FE6420AC
:1012A00000F022FE01202DE702F06CFA0121084631
:1012B00002F0F6FA0021AFF2EC0002F089FA012107
:1012C000042002F0EDFA0021AFF2940002F080FA5F
:1012D000284617E702F056FA0121084602F0E0FA24
:1012E0000021AFF23C1002F073FA0121042002F059
:1012F000D7FA0021AFF2C00002F06AFA0B2001E732
:1013000002F040FA0121084602F0CAFA0021AFF2C9
:10131000681002F05DFA0121042002F0C1FA0021F8
:10132000AFF2EC0002F054FA1820EBE653746F723F
:101330006564200049443A252E3066002DE9F047C7
:1013400004F09AFA5F4C412820702FD102F01AFA6B
:101350000121042002F0A4FA00215BA002F038FA77
:101360004FF4FA7A504600F0BFFD5B4D00F03CFBB5
:10137000287004F081FA2070297801291AD04428B5
:10138000F4D102F0FFF90121084602F089FA0021A8
:1013900052A002F01DFA0121022002F081FA002180
:1013A00052A002F015FA504600F09EFD2078422827
:1013B0004ED082E0DFF8489100221021484600F02C
:1013C0008DFE0121042002F06BFA00214DA002F0F5
:1013D000FFF900F089FE002580462E4600F084FECD
:1013E000074604F049FA2070442809D0B7EB0801F9
:1013F00065EB060041F28832891A70F10000EDD3E6
:1014000002F0C0F90121084602F04AFA002143A087
:1014100002F0DEF901221021484600F05FFE4FF491
:101420007A7000F061FD02F0ADF90121084602F08A
:1014300037FA002129A002F0CBF90121022002F0A5
:101440002FFA002129A002F0C3F944202070AAE756
:1014500002F098F90121084602F022FA002133A097
:1014600002F0B6F90421022002F01AFA002133A09A
:1014700002F0AEF90121042002F012FA002131A09D
:1014800002F0A6F9642000F02FFD00BF00F060F824
:1014900020784428FAD102F075F90121084602F0BB
:1014A000FFF900210DA002F093F90121022002F0C2
:1014B000F7F900210DA002F08BF9BDE8F047642098
:1014C00000F012BD54000020486F6C6420443A20A4
:1014D0004261636B2E20000053000020413A2051EE
:1014E0007565742076616E2074617900423A204EF1
:1014F000686170206D6174206B6861750000000088
:101500000000024020202020202020202020202019
:1015100020443D436C6F73650000000020202020B4
:10152000202020436C6F73656421000020456E7499
:1015300065722050617373776F72640023232323D5
:1015400000000000443A204261636B2E200000003E
:101550002DE9F05F04F090F9DE4EDF4F4FF0010807
:101560003070A7F10804202860D021784FF4FA7574
:1015700091B938700421022002F092F9387802F013
:10158000CFF9284600F0B0FC0421022002F088F9CF
:101590000021D2A002F01CF92078012813D1307864
:1015A00078700521022002F07BF9787802F0B8F912
:1015B000284600F099FC0521022002F071F9002173
:1015C000C6A002F005F92078022813D13078B8704F
:1015D0000621022002F064F9B87802F0A1F9284649
:1015E00000F082FC0621022002F05AF90021BBA083
:1015F00002F0EEF82078032815D13078F870072132
:10160000022002F04DF9F87802F08AF9284600F03D
:101610006BFC0721022002F043F90021AFA002F089
:10162000D7F884F801802078401C2070607800256D
:1016300001286BD1A8483A78001F01788A427BD1F3
:10164000797842789142FAD1B97882789142F6D18C
:10165000F978C0788142F2D1E57002F093F8012167
:10166000084602F01DF900219DA002F0B1F84FF4E8
:101670007A7000F039FC002210219D4800F02EFD08
:1016800002F080F80121084602F00AF9002199A031
:1016900002F09EF80121022002F002F9002198A038
:1016A00002F096F80121032002F0FAF8002197A039
:1016B00002F08EF80121042002F0F2F8002198A037
:1016C00002F086F8142000F00FFC2570657084F895
:1016D000028000F009FD8146DFF85CB252E000BFF5
:1016E00000F002FDAA46A846074604F0C5F830708F
:1016F000442809D0B7EB090168EB050841F28832AC
:10170000891A78F100012ED344203070B8E000BF70
:101710004FF4967000F0E8FB02F034F8012108461F
:1017200002F0BEF8002185A002F052F8012102204B
:1017300002F0B6F8002100E065E083A002F048F86E
:10174000642000F0D1FB5F468BF800A004F0F8F9AC
:10175000387000287ED000BFFFF71CFB0028FBD0AC
:1017600084F802A001E04128D2D03078422806D186
:10177000642000F0B9FBFFF763F984F802A0307829
:10178000432803D0A0780028AAD179E04FF49670BE
:1017900000F0AAFB01F0F6FF0121084602F080F8F4
:1017A00000216DA002F014F80121022002F078F867
:1017B000002165A002F00CF80121042002F070F86D
:1017C000002168A002F004F8642000F08DFBA84618
:1017D0005F468BF8005004F0B3F93870002877D0DA
:1017E000387803F0D7FB0028FAD10121084602F02F
:1017F00057F8002161A001F0EBFF642000F074FBBA
:1018000084F802803CE0E078401CE07001F0BAFF10
:101810000121084602F044F800215CA001F0D8FF45
:101820004FF47A77384600F05FFB01F0ABFF0121FF
:10183000084602F035F8002158A001F0C9FF3846EB
:1018400000F052FB01F09EFF0121084602F028F84B
:10185000002100E03CE055A001F0BAFF0421022085
:1018600002F01EF8002155A001F0B2FF0121042072
:1018700002F016F8002153A001F0AAFF2570657050
:10188000E078042801D1FFF785F8307844281FD18B
:1018900001F078FF0121084602F002F800214BA078
:1018A00001F096FF01221021114800F017FC4FF4BF
:1018B0007A7000F019FB01F065FF0121042001F0AE
:1018C000EFFF002145A001F083FF25706570A57032
:1018D000BDE8F09F54000020800000202A00000096
:1018E00020202020436F7272656374210000000085
:1018F00000000240202020204F70656E65642100AA
:10190000413D456E726F6C6C00000000423D4368C3
:10191000616E67652050617373776F7264000000B9
:10192000433D44656C6574652020202020443D4380
:101930006C6F73650000000052000020456E726FEE
:101940006C6C2049443A2000232323202020283196
:101950002D3233342900000044656C6574652049DC
:10196000443A200020202020202020202020202059
:1019700020443D436C6F73650000000044656C6556
:101980007465642049443A20000000002020202093
:10199000496E636F727265637421000020202020FD
:1019A00054727920416761696E210000456E74654B
:1019B000722050617373776F7264000023232323B6
:1019C00000000000443A204261636B002020202088
:1019D000202020436C6F736564210000443A20424C
:1019E00061636B200000000070B503F003FB044648
:1019F000642000F079FA54B9642000F075FA0120EF
:101A000003F054FB0446642000F06EFA0CB1002091
:101A100070BD4FF49675284600F066FA04F052F94E
:101A200004464FF47A7000F05FFA1CB1284600F0CB
:101A30005BFAECE701F0A6FE0121084601F030FF59
:101A400000210AA001F0C4FE0A21012001F028FFB4
:101A500004F032F900EE100A06A0B8EE400A01F0D8
:101A6000A1FE642000F040FA012070BD4F70656E49
:101A70006564210049443A252E306600FFF75EFC7C
:101A8000642003F0E7FBF9E70B4800B5016887B075
:101A900041F0010101600068694600F00100059015
:101AA000022000900120019003200390034800F0E1
:101AB0002DFA07B000BD000030380240000002409F
:101AC00078B50024009490F83C20012A19D0012216
:101AD00080F83C200A6807230568092A13D9EE68B4
:101AE0000A3A02EB420293409E43EE600B788A680A
:101AF0000A3B03EB43039A400368DD682A43DA603C
:101B000010E0022078BD2E6902EB420293409E4312
:101B10002E610B788A6803EB43039A4003681D69C2
:101B20002A431A614A681F23072A13D205686E6B7D
:101B3000521E02EB820293409E436E630B790A8829
:101B40005B1E92B203EB83039A4003685D6B2A43EA
:101B50005A6327E005680D2A12D22E6BD21F02EBC2
:101B6000820293409E432E630B790A88DB1F92B258
:101B700003EB83039A4003681D6B2A431A6311E049
:101B8000EE6A0D3A02EB820293409E43EE620B79BD
:101B90000A880D3B92B203EB83039A400368DD6A27
:101BA0002A43DA62164B0568144A9D4206D10D6835
:101BB000122D03D1556845F48005556005689D4296
:101BC00018D10B68102B01D0112B13D1536843F49B
:101BD00000035360096810290CD10A490A4A0968B0
:101BE000B1FBF2F101EB8101490000E0491E0091D7
:101BF0000029FBD180F83C40002078BD0023014043
:101C0000002001409000002040420F000068C06C9E
:101C1000704770B504004FF0000503D0206C00261B
:101C200010B107E0012070BD204600F01DF8666489
:101C300084F83C60206CC00610D4206C20F48850DE
:101C400040F0020020642046FEF710FE6664206C1F
:101C500020F0020040F00100206400E0012584F83B
:101C60003C60284670BD000070B586B00446142163
:101C70006846FEF74FFB1D491B4E256800231B4A93
:101C8000143903241A48B54211D1156845F48075FA
:101C90001560126802F4807205920A6842F001022F
:101CA0000A60096801F001010591082113E0114E55
:101CB000B54216D1156845F400751560126802F436
:101CC000007205920A6842F001020A60096801F098
:101CD000010105912021CDE900140293694600F02D
:101CE00015F906B070BD00000020014044380240E4
:101CF00000000240002101402DE9F0410446006847
:101D00000D4681684FF0000749050BD58068C00576
:101D100008D5206C40F02000206484F83C7001203D
:101D2000BDE8F08100F0E0F906460FE0681C0DD038
:101D300025B100F0D9F9801BA84207D9206C40F0EA
:101D40000400206484F83C700320E9E72068006800
:101D50008007EBD521686FF012000860206C40F41A
:101D6000007020642068816811F0405F13D1217EEB
:101D700089B9C16A11F4700F02D0806840050AD495
:101D8000206C20F480702064206CC00403D4206C8C
:101D900040F0010020640020C2E7000018B50021D7
:101DA000009190F83C20012A07D0012280F83C20C5
:101DB00002689368DB0702D011E0022018BD936827
:101DC00043F0010393602A4A2A4B1268B2FBF3F2F4
:101DD00002EB420200E0521E0092002AFBD1026890
:101DE0009368DB0741D0036C40F20164A34343F4E2
:101DF0008073036453685B0505D5036C23F40053BB
:101E000043F480530364036CDB0404D5436C23F078
:101E10000603436400E0416480F83C1016496FF00B
:101E20002203136049680068CA06144906D0884234
:101E30001BD1816811F0405F13D016E08842F8D0C2
:101E40000F4A904203D1D1F80423D206F1D00D4AB3
:101E500090420AD1D1F8041301F01F011029E8D3F0
:101E600003E0816841F080418160002018BD0000DE
:101E70009000002040420F0000230140002001405C
:101E8000002101400022014090F83C1001290CD0B3
:101E9000012180F83C1001688A6822F001028A6002
:101EA00001688968C90702D007E002207047016C09
:101EB00021F4885141F001010164002180F83C10B7
:101EC0000846704790F83510022903D080214165FB
:101ED00001207047052180F835100068016821F065
:101EE000010101600020704770B5044600F0FCF865
:101EF0000546601C02D004480078044400F0F4F861
:101F0000401BA042FAD370BD840000202DE9F84F99
:101F100000224FF0010803254FF00F0E0B6808FA5E
:101F200002F42340A3426ED14E68012E05D0022E4A
:101F300003D0112E01D0122E12D186684FEA420C26
:101F400005FA0CF7BE43CF6807FA0CF737438760F2
:101F50004668A6430C79C4F30014944034434460AB
:101F6000C668570005FA07FC8C6826EA0C06BC40D8
:101F70003443C4604C68022C01D0122C13D1D40815
:101F800000EB8404A346D4F8209054074FEAD46AA7
:101F90000EFA0AF629EA06090E6906FA0AF646EA70
:101FA0000906CBF8206006680C7926EA0C0604F0D6
:101FB0000304BC40344304604C68E40065D5364CEF
:101FC000266846F480462660246822F0030604F45E
:101FD00080440094314C3444A446D4F80848960711
:101FE000370F0EFA07F6B4432D4EB04201D100264A
:101FF00024E02C4EB04201D101261FE02A4EB0420F
:1020000002D102261AE040E0284EB04201D1032658
:1020100014E0274EB04201D104260FE0254EB04215
:1020200001D105260AE0244EB04201D1062605E082
:10203000224EB04201D1072600E00826BE402643CA
:10204000CCF808681E4E34684F689C43FF0300D5E7
:102050001C4334601A4C241D26684F689E43BF03FE
:1020600000D51E432660164E083634684F689C43E0
:10207000FF0200D51C433460114E0C3634684F68A3
:102080009C43BF0200D51C433460521C102AFFF44D
:1020900045AFBDE8F88F00004438024000300140F1
:1020A000000002400004024000080240000C024010
:1020B000001002400014024000180240001C0240C0
:1020C000003C01400069084000D00120704742698F
:1020D00031EA020200D10904816170470AB18161CD
:1020E00070470904FBE70000014880687047000062
:1020F0008400002070B5040025D094F83D00002530
:1021000020B984F83C50204600F04EF9242084F891
:102110003D002068016821F001010160206801682C
:1021200041F4004101602068016821F40041016030
:1021300000F0E2FA4D4A6168914201D84C4900E052
:102140004C49884201D2012070BD4B492368B0FB45
:10215000F1F15E6826F03F060E435E6063689342CD
:1021600006D94FF4967359434FF47A73B1FBF3F1E8
:102170002368491C1E6A26F03F06314319626168D4
:10218000914210D84900401EB0FBF1F2521CC2F33C
:102190000B02042A01D2042022E0B0FBF1F0401C23
:1021A000C0F30B001CE0A268F2B301EBC10303EB28
:1021B0000116431EB3FBF6F35B1C43F480431B057F
:1021C00049D092B301EBC10202EB0111401EB0FBFA
:1021D000F1F0401CC0F30B0040F4804040F400409C
:1021E0002168CA694CF6FF739A431043C861D4E969
:1021F000071001432068026822F0C0021143016009
:10220000D4E9030101432068826848F2FF339A430E
:1022100011438160D4E9050108432168CA6822F0AE
:10222000FF021043C86001E00EE016E0206801687C
:1022300041F0010101602564202084F83D00256300
:1022400084F83E50002070BD01EB4106431EB3FBF5
:10225000F6F35B1CB3E70120C2E701EB4101401E2E
:10226000B0FBF1F0401CC0F30B00B7E7A086010003
:1022700080841E0000093D0040420F002DE9F84F08
:102280001F4690468A460446DDF82890FFF72CFF4B
:10229000054694F83D0020287FD1192301224049AA
:1022A0002046009501F0C8F9002876D194F83C004A
:1022B000012872D0012084F83C0020680168C90719
:1022C00003D1016841F0010101602068016821F437
:1022D00000610160212084F83D00102084F83E0058
:1022E00000262664C4F824806785608D20852D48EB
:1022F000E0622B464A465146204601F029F990B942
:10230000206841698069009036E02A4649462046A7
:1023100001F011FA50B1206C042804D12068016842
:1023200041F4007101600120BDE8F88F606A216806
:1023300000780861606A401C6062618D491E618599
:10234000218D491E89B2218522685369DB435B07D1
:102350000BD451B100781061606A401C6062608DDE
:10236000401E6085208D401E20852A464946204615
:1023700001F03CF90028CED1208D0028C5D154F8B9
:102380003D0B016841F400710160202004F81E0932
:10239000E67766770020C7E7FFE70220C4E7000082
:1023A000020010000000FFFF10B586B004461421A3
:1023B0006846FDF7AFFF14492068884221D11348D1
:1023C000016841F0020101600068694600F0020006
:1023D00005904FF44070009012200190012002906F
:1023E00003200390042004900948FFF78FFD07485D
:1023F0001030016841F400110160006800F4001021
:10240000059006B010BD0000005400403038024076
:1024100000040240024881680278114481607047DC
:10242000840000200B4810B5016841F40071016080
:10243000016841F480610160016841F480710160CC
:10244000032000F08DF8002000F006F800F03EF8C0
:10245000002010BD003C024010B5014688B00022AB
:10246000192000F05DF8192000F04CF81348002402
:10247000016841F400310160006805A900F40030F2
:102480000690684600F018F900F046F90C49400043
:10249000B0FBF1F10C480B4A491E026040F2E732F2
:1024A000C0E90324C0E9011400F098FB10B1012039
:1024B00008B010BD044800F0E7FBF9E744380240DB
:1024C00040420F0000440140200600200C4882B02A
:1024D000016841F480410160006800F48040009090
:1024E0000748001F016841F0805101600068002228
:1024F00000F0805000900F21901E02B000F010B844
:1025000044380240002809DB00F01F0201219140FD
:102510004009800000F1E020C0F800117047000081
:10252000F0B40E4B1B680C46C3F30223C3F107053E
:10253000042D00D90425191D072901D2002300E02C
:10254000DB1E012606FA05F1491E214099409E40F6
:10255000761E16403143F0BC01F0EEBF0CED00E0FA
:10256000064900F0070208684FF6FF03184040EAEA
:102570000220034A10430860704700000CED00E0A1
:102580000000FA052DE9F0470E46050065D0DFF89A
:102590001481D8F80000F7B200F00F00B04207D263
:1025A00088F80070D8F8000000F00F00B04254D155
:1025B00028683D4C810712D5400703D5206840F4B8
:1025C000E05020602878000703D5206840F4604080
:1025D00020602068A96820F0F00008432060287877
:1025E000C0072DD0304968680839012812D0022868
:1025F00013D0032811D00968890700292DDA216832
:1026000021F0030101432160FFF76EFD814641F295
:10261000883A0EE009688903EFE709688901ECE769
:10262000FFF762FDA0EB0901514502D90320BDE887
:10263000F0872068696800F00C00B0EB810FEFD1E3
:10264000D8F80010404601F00F01B14207D90770D9
:10265000006800F00F00B04201D00120E7E72878C1
:10266000400705D52068E96820F4E0500843206061
:102670002878000706D52068296920F4604040EAE0
:10268000C100206000F058F82168084AC1F3031126
:10269000515CC8400649086006480068FFF7DCFE48
:1026A0000020C4E7003C02400838024030650008C2
:1026B00090000020880000200F2202600C4A13685E
:1026C00003F003034360136803F0F00383601368AF
:1026D00003F4E053C36012684FF4E05303EAD202FC
:1026E00002610448006800F00F00086070470000B5
:1026F00008380240003C0240044805490068096867
:10270000044AC1F38221515CC84070479000002008
:102710000838024040650008044805490068096817
:10272000044AC1F34231515CC84070479000002018
:102730000838024040650008154810B5006810F0E0
:102740000C02144813D04110042A0FD0082A0ED1CD
:102750000F4C241F2268236802F03F025B0207D55A
:102760002068C0F38810A0FB010106E0084610BDF8
:102770002168C1F38811A1FB00010023FDF780FD52
:102780002168C1F30141491C4900B0FBF1F010BDC3
:10279000083802400024F4002DE9F84F040076D0F8
:1027A0002078DFF838A3CE4DC00749D0DAF8001002
:1027B0005046C1F38101012908D00068C0F38100AF
:1027C00002280AD1281D0068400206D52868800327
:1027D00036D560680028E2D032E06068B0F5803F0E
:1027E00010D0B0F5A02F286810D020F480302860D9
:1027F000286820F4802028606068A0B1FFF774FC8E
:1028000006460CE0286840F48030F4E740F480206D
:102810002860F7E7FFF768FC801B642873D82868F6
:102820008003F7D50CE0FFF75FFC064605E000BF2C
:10283000FFF75AFC801B6428F0D828688003F7D47F
:102840002078DFF8A08280074FF000093ED5DAF843
:102850000010504611F00C0F09D00068C0F3810041
:1028600002280BD19D48001F0068400206D428684A
:10287000800715D5E068012809D111E0E068B8B1FA
:102880000120C8F80000FFF72FFC064605E020E114
:10289000FFF72AFC801B0228C0D828688007F7D5DC
:1028A0002868216920F0F80040EAC10028600DE0A6
:1028B000C8F80090FFF718FC064604E0FFF714FC88
:1028C000801B02281FD828688007F7D420780007CB
:1028D00022D5824E844861696C3671B10121016054
:1028E000FFF702FC074604E0FFF7FEFBC01B0228CF
:1028F00009D830688007F7D50EE0C0F80090FFF7E0
:10290000F3FB074605E082E0FFF7EEFBC01B022861
:102910007DD830688007F7D42078400768D5DFF885
:10292000BCB100270BF1380BDBF80000C0000BD462
:10293000DBF8001041F08051CBF80010DBF800000C
:10294000012700F080500090684E3068C00510D418
:10295000306840F480703060FFF7C6FB009005E0FF
:10296000FFF7C2FB0099401A022850D83068C00512
:10297000F6D55A4EA068683601280FD00528306871
:1029800010D020F001003060306820F0040030608A
:10299000A068B8B1FFF7A8FB00900FE0306840F0E6
:1029A0000100F4E740F004003060F7E7FFF79CFB1C
:1029B0000099411A41F28830814266D83068800718
:1029C000F4D50EE0FFF790FB009007E0FFF78CFBDB
:1029D0000099411A41F28830814256D83068800708
:1029E000F4D42FB1DBF8001021F08051CBF80010A7
:1029F000A069D0B3DAF800205146C2F38102022A5E
:102A00004AD00228484607D0C8F8600000E03CE001
:102A1000FFF76AFB04463BE04746C8F86000FFF753
:102A200063FB064605E000BFFFF75EFB801B022844
:102A30002BD828688001F7D4D4E907010843A16A9C
:102A40002B4A490802EB0141626A41EA82110843BC
:102A500094F82C1040EA01612048001F0160012019
:102A60003866FFF741FB044605E034E0FFF73CFB26
:102A7000001B022809D828688001F7D52BE000BF89
:102A8000FFF732FB001B022802D90320BDE8F88FB4
:102A900028688001F4D41EE00128F7D00868E269B4
:102AA00000F48001914214D1226A00F03F0191426A
:102AB0000FD147F6C071626A0140914209D1A26A02
:102AC00000F44031914204D1E16A00F07060884224
:102AD00001D00120DAE70020D8E7000008380240E2
:102AE0000038024000004742800E4742007000401C
:102AF0000000FFFF7047704710B590F83C20012A96
:102B000022D0012280F83C20CA688C6822F44072EE
:102B100022434C6822F4806222430C6822F4006253
:102B200022430C6922F4805222434C6922F4005261
:102B30002243C969002322F480420A4301684A649F
:102B400080F83C30002010BD022010BD70B590F818
:102B50003C20012A32D0012480F83C40022280F837
:102B60003D2003685A689D6822F070060A68324367
:102B70005A60134B02689A4214D0B2F1804F11D0C0
:102B8000104B9A420ED0104B9A420BD00F4B9A42E8
:102B900008D00F4B9A4205D00E4B9A4202D00E4BF2
:102BA0009A4204D1496825F080031943916080F866
:102BB0003D40002180F83C10084670BD022070BDE9
:102BC000000001400004004000080040000C0040EC
:102BD00000040140004001400018004010B504000E
:102BE00003D094F83D0010B107E0012010BD002093
:102BF00084F83C00204600F00DF8022084F83D00E7
:102C0000211D206801F078F9012084F83D000020A2
:102C100010BD000008B5184A01681848914211D14A
:102C2000016841F0010101600068002200F001002C
:102C3000009011461920FFF773FCBDE808401920E9
:102C4000FFF760BC0E4A914209D10C48001F016891
:102C500041F002010160006800F0020009E0094A49
:102C6000914207D1016841F480310160006800F4AD
:102C70008030009008BD0000000001404438024050
:102C800000040040004001400168CA6842F00102AF
:102C9000CA600068816801F00701062903D0016855
:102CA00041F0010101600020704770B5044690F8C2
:102CB0003C00012817D0012584F83C50022084F8FC
:102CC0003D002068826822F0770222F47F42826011
:102CD0000868502830D00DDC20284DD005DC98B392
:102CE00010283BD148E0022070BD302844D0402855
:102CF00034D139E0602828D0702806D0B0F5805F44
:102D00002CD0B0F5005F29D10AE0CB68D1E90121D0
:102D1000206801F062F92068816841F0770109E0DC
:102D2000CB68D1E90121206801F057F9206881685A
:102D300041F48041816011E0CA684968206801F06F
:102D400021FA5021206807E016E0CA684968206827
:102D500001F029FA6021206801F049F984F83D501A
:102D6000002084F83C0070BDCA684968206801F002
:102D700009FA40212068EFE7226801461046EBE798
:102D8000704770B50446006801694FF00005C943FB
:102D9000890715D4C168C943890711D4E91E0161A7
:102DA00001202077206880698007204602D0FFF745
:102DB000E7FF04E000F0ECF8204600F06EF925771C
:102DC00020680169C943490717D4C168C943490745
:102DD00013D46FF00401016102202077206880691C
:102DE00010F4407F204602D0FFF7CAFF04E000F055
:102DF000CFF8204600F051F9257720680169C943D2
:102E0000090716D4C168C943090712D46FF0080135
:102E10000161042020772068C0698007204602D025
:102E2000FFF7AEFF04E000F0B3F8204600F035F9FC
:102E3000257720680169C943C90617D4C168C94309
:102E4000C90613D46FF010010161082020772068B3
:102E5000C06910F4407F204602D0FFF791FF04E0E4
:102E600000F096F8204600F018F9257720680169EF
:102E7000C943C90708D1C168C943C90704D1891E1C
:102E80000161204600F02CF920680169C943090658
:102E900009D4C168C943090605D46FF080010161F6
:102EA0002046FFF727FE20680169C943490609D477
:102EB000C168C943490605D46FF04001016120464D
:102EC00000F018F920680169C94389060BD4C1686C
:102ED000C943890607D46FF0200101612046BDE88F
:102EE0007040FFF708BE70BD30B587B004461421AE
:102EF0006846FDF70FFA24681F4D00221F49022380
:102F00001F48AC420ED10C6844F010040C600968F4
:102F100001F0100105914FF428510091CDE90132E3
:102F2000012125E0174DAC4212D1086840F00200A3
:102F3000086008680093CDE9013200F00200CDE995
:102F40000430694603921048FEF7E0FF07B030BD39
:102F50000E4DAC42FAD10C6844F010040C600968C4
:102F600001F01001059120210091CDE901320321EA
:102F7000CDE903216946E7E700000140303802400F
:102F800000100240000400400004024000400140E4
:102F9000704770B5044690F83C000D4601280DD0EE
:102FA000012684F83C60022084F83D0042B1042AE6
:102FB00018D0082A2AD00C2A4DD139E0022070BD41
:102FC000206801F01DF82068816941F008018161E5
:102FD0002068816921F004018161206881692A6982
:102FE000114311E0206801F03BF82068816941F449
:102FF000006181612068816921F4806181612068BC
:1030000081692A6941EA0221816124E0206801F096
:103010005DF82068C16941F00801C1612068C1699B
:1030200021F00401C1612068C1692A69114311E0DE
:10303000206801F07FF82068C16941F40061C16136
:103040002068C16921F48061C1612068C1692A6971
:1030500041EA0221C16184F83D60002084F83C000F
:1030600070BD10B5040003D094F83D0010B107E026
:10307000012010BD002084F83C00204600F00CF830
:10308000022084F83D00211D206800F035FF01205A
:1030900084F83D00002010BD7047704710B504460D
:1030A0000068012200F08CFF0B492068884202D0A2
:1030B0000A49884203D1416C41F4004141642068CF
:1030C000816801F00701062903D0016841F0010180
:1030D0000160002010BD000000000140000401401C
:1030E00000680349884201D1FFF794B97047000096
:1030F000004401407047704770B50268044610688C
:10310000D168536910F00F0F52D003F0010501F49C
:1031100090762E435FD0C20705D0CA0503D5E26B77
:1031200042F00102E263420705D5DA0703D0E26B01
:1031300042F00202E263820705D5DA0703D0E26BB0
:1031400042F00402E263020707D501F020022A439D
:1031500003D0E26B42F00802E263E26B002A33D054
:10316000800604D5880602D5204601F044F8206880
:103170004069E16BC0F38010090700D428B32046F2
:1031800001F02BF82068416949061AD5416921F000
:1031900040014161606BA0B11B490165606BFEF7A6
:1031A00091FE002810D0606B016DBDE870400847AB
:1031B000830610D58B060ED52046BDE8704001F081
:1031C0001AB82046FFF797FF70BD2046FFF793FF20
:1031D0000020E06370BD030606D50B0604D520462B
:1031E000BDE8704001F0E6B84006F3D54806F1D5D9
:1031F000D168204621F04001D160202184F83910A7
:1032000000F08DF970BD0000CB41000870B50400DE
:1032100004D094F83900002510B106E0012070BDFB
:1032200084F83850204600F023F8242084F8390030
:103230002068C16821F40051C160204601F026F8E1
:103240002068016921F4904101612068416921F001
:103250002A0141612068C16841F40051C160E56301
:10326000202084F8390084F83A00002070BD000066
:10327000F0B587B0044614216846FDF74BF83F4986
:10328000DFF8F4E0D4F800C03C4A1439C026022329
:103290000124032507273A48F44521D1D2F800C07C
:1032A0004CF0100CC2F800C0126802F01002059237
:1032B0000A6842F002020A600968009601F0020101
:1032C000CDE904710DF1040C69468CE83800FEF775
:1032D0001DFE002205212520FFF722F9252022E0EE
:1032E000DFF8A0E0F44522D1244A121F166846F404
:1032F00080261660126802F4802205920A6842F065
:1033000002020A60096801F0020105914FF4406170
:103310008DE8BA006946FEF7F9FD00220521272055
:10332000FFF7FEF82720FFF7EDF807B0F0BD1648CD
:103330008445FAD1106840F020001060106800F059
:1033400020000590086840F00400086008680096B6
:1033500000F0040005900820CDE90350CDE90134C8
:1033600069460A48FEF7D2FD002205214720FFF7F3
:10337000D7F84720D7E7000000100140443802404A
:1033800000040240004800400014014000080240D0
:1033900090F83A30202B22D1F9B1F2B190F83830C0
:1033A000012B1CD081628285C2850021C16322224B
:1033B00080F83A2080F838100168CA6842F48072B8
:1033C000CA6001684A6942F001024A610068C16846
:1033D00041F02001C16000207047012070470220A9
:1033E0007047000070B5054600681A491A4C8842BB
:1033F00019D16088194B002220B900215A54491C68
:103400000A29FBDB1449091D09780A2903D019543C
:10341000401C608000E062800F4910480122091DB5
:103420007D38FFF7B5FF0E492868884211D10B4A55
:1034300020781432617811541E2801D2401C20706B
:103440000549BDE8704005480122491CBD38FFF719
:103450009FBF70BD001401400000002095030020B4
:10346000004800402DE9F843044690F839001F4613
:1034700016460D46202850D1B5B1AEB194F83800AB
:1034800001284AD0012084F838004FF00008C4F821
:103490003C80212084F83900FEF726FEA684814670
:1034A000E68484F8388026E00120BDE8F883E08CCB
:1034B000401EE084A0684B46B0F5805F4FF00002EC
:1034C0004FF080012046009703D000F0A4FFE8B938
:1034D0000DE000F0A0FFC8B928882168C0F30800FB
:1034E0004860206908B16D1C05E0AD1C03E021684F
:1034F00015F8010B4860E08C0028D8D14B4600221B
:1035000040212046009700F086FF08B10320CCE759
:10351000202084F839000020C7E70220C5E7704763
:10352000FEE701684A69D24352050FD46FF4806206
:103530004A61002140F8301F2022427381730269E2
:1035400042F00402026101730120704700207047BD
:10355000F8B50446C06A1E460D461746082807D02F
:10356000012805D010F5803F02D0206B122804D12D
:103570002068016841F480710160134600224FF019
:1035800001112046009600F057F840B1206800680D
:10359000C00502D54FF4007020640320F8BD2069F7
:1035A000B0F5804F0ED00620216800EAD51040F01B
:1035B000F000086133463A460B49204600F070F8A7
:1035C00078B902E005F0FE0000E0E8B22168086189
:1035D000054933463A46891F204600F061F8002825
:1035E000DCD00120F8BD00000800010070B51646CF
:1035F0000D4604460DE02046FFF793FF08B1012079
:1036000070BD681C05D0FEF76FFD801BA84207D86F
:1036100035B120684069C0434007ECD4002070BD3C
:10362000002044F8300F20216173A073216941F01C
:10363000200121612073E2E72DE9F0471E46904604
:103640000D460446C1F30747DDF8209008E0701CE2
:1036500006D0FEF749FDA0EB0900B0420FD876B1C5
:103660002068012F18D0806925EA00000004000CB2
:1036700014D000214145EAD00020BDE8F0870020A9
:1036800044F8300F20216173A073216941F02001BB
:10369000216120730120F0E74069E5E70121E9E7B6
:1036A0002DE9F0479A4691460E46044600254FF014
:1036B0002008C1F3074725E020684069C043400562
:1036C00014D42068016841F40071016021686FF42E
:1036D00080604861256384F83D8084F83E50206C0A
:1036E00040F00400206484F83C501FE0B9F1FF3F33
:1036F00008D0FEF7F9FCA0EB0A0149450CD8B9F156
:10370000000F09D02068012F13D0806926EA00003D
:103710000004000C0BD0CFE744F8305F84F80D8034
:10372000A573206940F02000206125730120BDE8C9
:10373000F0874069EAE770B516460D4604460DE08D
:103740002046FFF7EEFE08B1012070BD681C05D0D1
:10375000FEF7CAFC801BA84207D835B12068406933
:10376000C0430006ECD4002070BD002044F8300FA8
:1037700020216173A073216941F020012161207330
:10378000E2E7000010B5012000F0A4F80A20FEF7DF
:10379000ABFB03480021C1700121817010BD000006
:1037A0005C00002010B504469AB010EE100AFCF739
:1037B00063FF41EC100B214653EC102B684600F0E0
:1037C000A7FE0021684600F003F81AB010BD000003
:1037D0002DE9F047304D00260446EE7071B3012903
:1037E0002FD12E49002000BF41F82040401C641C0E
:1037F0006428F9DB89460868FCF797FD2871264F95
:10380000A8780837391811F8011C00F049F8A97890
:1038100007F1040808EB010010F8014C1AE0641CE1
:1038200000F07EF8E878401CC0B2E870142805D19A
:10383000A8780121401C00F033F8EE7020780028B1
:10384000EDD1BDE8F08700BF59F82400007800F002
:1038500067F8641C28798442F6DBA978781810F898
:10386000012C521E12F0FF0200F8012CE9D10122B6
:10387000414400F8012C11F8012C521CD2B201F87D
:10388000012C2B799A42DCD1142200F8012C01F88A
:10389000016C2E71D5E700005C000020600600205E
:1038A0000A4A9070421E032A0ED84A1E132A0BD8C9
:1038B000074A00EB800002EB8000084410F8150C6A
:1038C00040F0800000F006B8704700005C00002067
:1038D000E064000838B5104C627800EA020102EAA0
:1038E0000010E27911431043617104F11002A071DC
:1038F00041F004031370517040F004019170D070D6
:1039000001F0A8FBC8200090042304F110022178E4
:103910000248FEF7B3FC38BD5C000020F007002031
:1039200038B5124C627800EA020102EA0010E2792E
:1039300011436171104341F0050304F11002A071BD
:10394000137041F00101517040F00501917040F099
:103950000100D07001F07EFBC8200090042304F128
:10396000100221780248FEF789FC38BD5C00002077
:10397000F00700207FB500241248009401940294BF
:103980000F49039401604FF48031C0E901140461D0
:10399000047680F820400C49C0E90A140125C5616D
:1039A000C46080F830404561FEF733F90320CDE96B
:1039B0000005694602940348FEF782F87FBD0000C7
:1039C00000200140F40000200100000F7FB500241A
:1039D00012480094019402940F49039401604FF43B
:1039E0008031C0E901140461047680F820400C495C
:1039F000C0E90A140125C561C46080F83040456102
:103A0000FEF707F90520CDE9000569460294034851
:103A1000FEF756F87FBD0000002101403C01002068
:103A20000100000F2DE9F04F87B014216846FCF724
:103A300071FC3F480024016841F0100101600168F9
:103A400001F010010591016841F0800101600168F9
:103A500001F080010591016841F0040101600168F5
:103A600001F004010591016841F001010160016864
:103A700001F001010591016841F002010160016856
:103A800001F002010591016841F008010160006840
:103A9000DFF8A08000F0080040F605050590002240
:103AA00029464046FEF71AFBDFF88C9048F2D7070C
:103AB000002239464846FEF711FBDFF880A00022BD
:103AC00055215046FEF70AFBDFF874B000220821AA
:103AD0005846FEF703FB00950125CDE901546946E0
:103AE00040460394FEF712FA0826CDE900646946C1
:103AF00040460294FEF70AFA0097CDE90154694660
:103B000048460394FEF702FA55200090CDE901548F
:103B1000694650460394FEF7F9F90096CDE9015441
:103B2000694658460394FEF7F1F907B0BDE8F08FF7
:103B3000303802400008024000000240000C024001
:103B40000004024010B596B000240F941094119414
:103B5000129413941C2168461494FCF7DBFB20217B
:103B600007A8FCF7D7FB25482349016040F28331C1
:103B7000C0E9011440F2E731C0E9031444618461F3
:103B8000FFF72CF84FF480500F900FA91B48FFF758
:103B90008CF81A48FFF765FA139413A91748149480
:103BA000FEF7D4FF6020CDE900040294039404944E
:103BB00005940022694611480694FFF7EAF90422A9
:103BC00069460E48FFF7E5F9082269460B48FFF7FA
:103BD000E0F90794089409944FF400500A94CDE951
:103BE0000B4007A905480E94FEF786FF0348FFF730
:103BF0007BF916B010BD000000000140D801002084
:103C000010B58EB000240794089409940A940B947C
:103C10001C2168460C94FCF77DFB17481549016090
:103C200040F28331C0E9011440F2E731C0E90314E6
:103C30008461FEF7D3FF4FF48050079007A90E4828
:103C4000FFF733F80C48FFF70CFA0B940BA90A485E
:103C50000C94FEF77BFF6020CDE9000402940C2257
:103C6000694605480494FFF794F90348FFF73CF9C7
:103C70000EB010BD000400401802002010B58CB03A
:103C800000240794089409941C2168460A94FCF7C0
:103C900041FB14481249016040F28331C0E901142C
:103CA0006321C0E903148461FEF798FF4FF480504C
:103CB000079007A90B48FEF7F8FF0A48FFF7D1F96C
:103CC0006020CDE90004029400226946054804946E
:103CD000FFF75FF90348FFF707F90CB010BD0000CC
:103CE0000040014058020020FEE770472DE9F041F6
:103CF0000025154E2C46012702213046FEF7E2F939
:103D00000028F9D0512001F021F902213046FEF7B8
:103D1000D9F901280BD0C4F1070007FA00F0854358
:103D2000641CE4B2082CE7D32846BDE8F0810221E8
:103D30003046FEF7C7F90128F9D0C4F1070007FAA9
:103D400000F0C0B20543EBE70000024030B585B09B
:103D50000446FDF799FE284D002202212846FEF771
:103D6000BDF91920FEF7C0F8012202212846FEF70E
:103D7000B5F95A2001F0EAF80220009000200190E5
:103D80000320039069462846FEF7C0F80221284622
:103D9000FEF798F970BB02212846FEF793F9002838
:103DA000F9D002212846FEF78DF90128F9D0FFF756
:103DB0009DFFA070FFF79AFFE070FFF797FF20705C
:103DC000FFF794FF6070FFF791FF2071FDF75CFE35
:103DD000012202212846FEF781F9A078E178627875
:103DE00008442178114408442179884202D10020F6
:103DF00005B030BD0120FBE70000024001F084FC6B
:103E000001F0F0FF01F04AF8642001F023FAF5E731
:103E100010B5502080F31188BFF34F8FBFF36F8F21
:103E200002F06EFA18B104494FF08050086000208B
:103E300080F3118810BD000004ED00E030B593B0B0
:103E400030216846FCF766FA14210CA8FCF762FAE8
:103E500019480025016841F080510160006800F0B8
:103E6000805011901548016841F48041016000685C
:103E7000022400F480401190012000900004019081
:103E80008001CDE9064008AA04205A2182E81300E7
:103E90000B906846FEF780FC0CA90F2081E83100EA
:103EA0004FF4A0500F90E002109002210CA8FEF7F2
:103EB00069FB13B030BD0000403802400070004084
:103EC0000548016841F47001016003494FF000604A
:103ED000803908607047000088ED00E010B50448A4
:103EE000FEF74FFFBDE810400248FEF74ABF000052
:103EF000D801002020060020F0B50268254C264D90
:103F0000264E274F274B4FF0804CA04209D06045EA
:103F100007D0A84205D0B04203D0B84201D09842A1
:103F200004D122F0700E4A6842EA0E02A0421BD071
:103F3000604519D0A84217D0B04215D0B84213D06E
:103F4000984211D0184DA8420ED0184DA8420BD05F
:103F5000174DA84208D0174DA84205D0164DA842CB
:103F600002D0164DA84203D122F44075CA682A43F4
:103F70004D6922F080022A4302608A68C2620A68A0
:103F80008262A04201D0984201D1096901630121F6
:103F90004161F0BD00000140000400400008004005
:103FA000000C00400004014000400140004401407A
:103FB0000048014000180040001C00400020004064
:103FC00010B501F01F030121046A99408C4304627B
:103FD000016A9A401143016210BD10B5846842EA3B
:103FE000032224F47F440A432243826010BD826886
:103FF00022F070020A4342F007018160704700001E
:10400000F0B5026A22F001020262036A4268846922
:10401000124E24F073050C682C4323F002058B68C4
:104020002B430D4DA84201D0B04205D123F0080723
:10403000CB683B4323F00403A84201D0B04205D132
:104040004D6922F4407215438A692A4342608461B3
:10405000496841630362F0BD000001400004014073
:10406000F0B5026A22F010020262026A43688469B3
:104070000D6824F4E64444EA05248D6822F0200209
:1040800042EA05120F4D104EA84201D0B04206D1AF
:10409000CF6822F0800242EA071222F04002A842D2
:1040A00001D0B04207D14D6923F4406343EA850350
:1040B0008D6943EA850343608461496881630262D4
:1040C000F0BD00000000014000040140F0B5026AAC
:1040D00022F480720262026A4368C46922F40072A8
:1040E00024F073050C68124E2C438D6842EA0522B9
:1040F0000E4DA84201D0B04206D1CF6822F4006232
:1041000042EA072222F48062A84201D0B04207D1DD
:104110004D6923F4405343EA05138D6943EA0513BF
:104120004360C4614968C1630262F0BD00000140A0
:104130000004014030B5026A22F480520262046A2F
:104140004268C3690D6823F4E64343EA05238D689A
:1041500024F4005444EA0534084DA84202D0084D26
:10416000A84204D14D6922F4804242EA851242609D
:10417000C36149680164046230BD00000000014071
:104180000004014010B5036A046A24F001040462CB
:10419000846924F0F00444EA021423F00A020A437A
:1041A0008461026210BD10B5036A23F0100303623C
:1041B0008369046A23F4704343EA023224F0A003C3
:1041C00043EA01118261016210BD10B5806B0021CC
:1041D000C185C184FEF78FFF10BD0168CA6822F453
:1041E0009072CA6001684A6922F001024A61202186
:1041F00080F83A10704710B590F83A10222901D093
:10420000022010BD8168B1F5805F11D001690029DD
:1042100001681FD0496801F07F03816A4A1C8262ED
:104220000B70C18D491E0904090CC18518D02BE003
:104230000269816A002A0268526805D0D2B20A80F7
:10424000816A491C8162ECE7C2F308020A80816A34
:10425000891CF7E74A68816A4B1C83620A70E0E7B1
:104260000168CA6822F02002CA600168CA6822F4A4
:104270008072CA6001684A6922F001024A61202105
:1042800080F83A10FFF7AEF8002010BD2DE9F0419C
:10429000044600680169E26821F44051114301615C
:1042A0002169A068E26908436169114308432168F4
:1042B000CA6849F20C639A430243CA6020684169A4
:1042C000A26921F4407111434161E0691927642515
:1042D0003226B0F5004F354A354920684FF00008C6
:1042E00006D0884201D0904236D1FEF715FA35E06B
:1042F000884201D0904202D1FEF70EFA01E0FEF7AB
:10430000FBF961684A18A0FB070148EB0803FBF7BB
:10431000B7FF0146B0FBF5F00201B1FBF5F06FF01D
:104320001803584301EB800006EBC000B0FBF5F02A
:1043300000F0F80002EB4002B1FBF5F0584301EB4E
:10434000800006EBC000B0FBF5F000F0070021682C
:1043500010448860BDE8F081FEF7CEF961688B0FEC
:104360008A00A0FB0701FBF78BFF0146B0FBF5F0CD
:104370006FF01802504301EB800006EB0010B0FB19
:10438000F5F000F0F002B1FBF5F002EB0012B1FB2A
:10439000F5F06FF01803584301EB800006EB0010B6
:1043A000B0FBF5F000F00F00D1E700000014014071
:1043B0000010014090F83910212901D002207047E7
:1043C0008168B1F5805F016A0BD04A1C0262026805
:1043D00009785160C18C491E0904090CC1840ED0B2
:1043E00017E009880268C1F30801516001690029DA
:1043F000016A02D0491C0162ECE7891CFBE70168F5
:10440000CA6822F08002CA600068C16841F04001B9
:10441000C160002070472DE9F041984617460E46CE
:104420000446069D1DE0681C1BD02DB1FDF75CFE07
:10443000A0EB0800A84214D92068C16821F4D0710B
:10444000C1602068416921F001014161202084F8A8
:10445000390084F83A00002084F838000320BDE8D1
:10446000F0812068006836EA000004D00020B842DD
:10447000D9D00020F3E70120F9E700000148FEF75A
:104480003BBE0000980200200148FEF735BE000048
:10449000D80200200148FEF72FBE000018030020BC
:1044A00000F0CEFC40B100F0CBFC022809D000F0B7
:1044B000C7FC012809D022E00021012000F0FCFC0B
:1044C0001DE000F0B7FC642017E00121084600F071
:1044D000F3FC0D48FBF729FF01460B4801F034FCC3
:1044E000C820FDF701FD08481138FBF71EFF014603
:1044F0000548113801F028FCC820FDF7F5FC6420C0
:1045000000F0A8FECCE7000069030020FEE70000F1
:104510000FB4084B10B504A902AA039800F0EEF8F6
:10452000044602A9002000F080FC204610BC5DF883
:1045300014FB00002B4E00080907090E002804DBBD
:1045400000F1E02080F80014704700F00F0000F147
:10455000E02080F8141D704702E008C8121F08C14F
:10456000002AFAD170477047002001E001C1121FF4
:10457000002AFBD1704700002DE9FF5F82B00021C7
:10458000DDE90430020DDDF840B0034318D044F6F5
:104590001050A2F2FF3242431514119801281FD087
:1045A000A5EB0B00401C5FEA000A4FF000064E4FDF
:1045B000DFF83891B046504615D5CAF1000413E033
:1045C000119801244AA3012801D16FEA0B01029836
:1045D000119AC0E90031C0E9024206B0BDE8F09F7F
:1045E000CBF10000DFE704460021404A491842EBC6
:1045F0000450CDE9001012E0E00707D032463B46F8
:1046000040464946FBF757FF8046894632463B46BF
:1046100010461946FBF74FFF06460F466410002C64
:10462000EAD1DDE90401DDE90023BAF1000F06DA81
:10463000FBF741FF42464B46FBF73DFF05E0FBF72A
:10464000ACFF42464B46FBF7A8FF04460E4600224D
:10465000284BFCF7E1F803D84FF0FF30014607E0A4
:104660000022254B20463146FBF77EFEFCF7BBF8C7
:10467000102409E0002C0ADB0A220023FBF700FECD
:10468000039B30321A55641E50EA0102F2D1641CB9
:10469000039AC4F111031444119A012A03D0012290
:1046A00008430DD10AE0084304D000204FF0110B5D
:1046B000119072E7A3EB0B056D1E0DE05B4504DD69
:1046C0004FF0000205F1010504E003DA4FF00002AB
:1046D000A5F10105002AECD002981199C0E9023138
:1046E000C0E9004579E70000000014400000F03FF9
:1046F000300000000000F0430000E03F2DE9FF4FD4
:1047000095B09B468946064600250FE2252877D1BD
:1047100000242746F84A0121059400E0044316F8D6
:10472000013F203B01FA03F01042F7D130782A28EC
:1047300011D06FF02F033078A0F13002092A16D87B
:10474000059A44F0020402EB820203EB4202104499
:10475000761C0590EFE759F8042B0592002A03DA3E
:10476000504244F40054059044F00204761C307822
:104770002E2816D116F8010F44F004042A280DD073
:104780006FF02F023078A0F13003092B09D807EB26
:10479000870302EB4303C718761CF3E759F8047B41
:1047A000761C30786C280FD006DC4C2817D068288F
:1047B0000DD06A2814D104E0742810D07A280FD1C3
:1047C0000DE044F400140AE044F4801401E044F4E1
:1047D00040147278824202D104F58014761C761C53
:1047E000307866280BD013DC582877D009DC0028F5
:1047F00075D04528F6D04628F4D047281AD19DE137
:1048000018E0632835D0642879D0652812D195E165
:10481000702873D008DC6728F1D069286FD06E2823
:104820000DD06F2806D1B5E073282CD0752875D02F
:10483000782874D05A46179990476D1C75E1C4F3D7
:104840000250022809D003280DD0D9F800100428FE
:104850000DD00D6009F1040967E1D9F80010EA17DD
:10486000C1E90052F6E7D9F800100D80F2E70D70AB
:10487000F0E719F8041B8DF8001000208DF80100F6
:10488000EA46012003E059F804AB4FF0FF3061071E
:104890004FF0000102D40DE008F101018846B94251
:1048A0000FDA8045F8DB1AF808100029F4D108E087
:1048B00008F1010188468142FADB1AF80810002944
:1048C000F6D105985B46A0EB080721463846179AB3
:1048D00000F094FA284400EB080507E04DE029E1D8
:1048E0000DE01AF8010B5A4617999047B8F10108E4
:1048F000F7D25B4621463846179A13E142E00A2276
:104900000092C4F302524FF0000A022A08D059F86C
:1049100004CB032A4FEAEC710AD00DE029E02AE02B
:1049200009F1070121F00702F2E802C1914609E00E
:104930000FFA8CFC4FEAEC71042A03D14FFA8CFC7D
:104940004FEAEC71002907DA0A460021DCF1000C7D
:1049500061EB02012D2202E0220504D52B228DF805
:104960000420012203E0E20701D02022F7E790466D
:1049700059E00A2102E010220DE010214FF0000A58
:1049800000910BE010224FF0000A44F004040827C5
:10499000009203E008224FF0000A0092C4F3025292
:1049A000022A05D059F804CB0021032A08D009E0D7
:1049B00009F1070121F00702F2E802C1914605E082
:1049C0001FFA8CFC042A01D10CF0FF0C4FF00008F8
:1049D000220728D5702806D0009B83F0100353EAE5
:1049E0000A0305D00EE040228DF80420012208E0E1
:1049F0005CEA010206D030228DF804208DF8050013
:104A000002229046009B83F0080353EA0A030AD16E
:104A10005CEA010201D1620705D530228DF804203D
:104A20004FF001087F1E582804D034A003900EA830
:104A300002900DE036A0F9E753466046009AFBF776
:104A40001FFC84460398825C0298401E029002700C
:104A50005CEA0100F0D1029806A9081A00F1200AC8
:104A6000600702D524F4803400E00127574502DDB9
:104A7000A7EB0A0000E0002000EB0A010090059877
:104A80004144401A0590E00306D45B462146179A3C
:104A9000059800F0B3F90544002706E001A85A463E
:104AA000C05D179990476D1C7F1C4745F6DBE003FE
:104AB0000CD55B462146179A059800F09FF90544EE
:104AC00004E030205A46179990476D1C0099481E03
:104AD00000900029F5DC08E0029802995A46007817
:104AE000491C0291179990476D1CBAF10001AAF177
:104AF000010AF1DC65E100000928010030313233A0
:104B00003435363738396162636465660000000009
:104B100030313233343536373839414243444546F3
:104B20000000000000F058F90544761C3078002899
:104B30007FF4ECAD19B02846BDE8F08F620700D4D1
:104B4000062709F1070222F0070CFCE80223E146E0
:104B500003F000485FEA080C02D00FF2702C0DE061
:104B60005FEA045C02D50FF2682C07E05FEAC47CC0
:104B700002D00FF2602C01E0AFF2700C4FF0FF3862
:104B800023F00043CDF850C065280CD006DC452842
:104B900009D046281DD047283DD13DE0662818D0D1
:104BA00067287ED138E00021112F01DB112000E0C1
:104BB000781CCDE9000106A90EA8FFF7DDFCDDE9B0
:104BC0000F010E9A03910021009207F1010A04914E
:104BD0004DE04FF000400097CDE9011006A90EA866
:104BE000FFF7CAFCDDE90F0203920E9B1199002228
:104BF000DDF80CA00093049211B9791C00EB010AB6
:104C0000B7EB0A0004D4C0F1FF3007F1010A0490A9
:104C1000AAEB0700019044E0012F00DA01270021F0
:104C2000112F01DD112000E03846CDE9000106A971
:104C30000EA8FFF7A1FCDDE90F010E9A03910021F8
:104C400004910092BA4621070CD40399514500DA29
:104C50008A46BAF1010F05DD009AAAF10101515C03
:104C6000302908D0B84202DA10F1040F06DA012127
:104C7000CDE9011015E0AAF10101E9E7002805DC02
:104C8000049901440491AAEB000102E0411C514542
:104C900000DD8A460499401A401C01904FF0004004
:104CA0000290200704D40198504501DBCDF8048020
:104CB00000208DF84F0002980DF14F07B0F1004F22
:104CC00025D02B200E9002984FF0020800280CDA15
:104CD000404202902D200E9007E00A210298FBF737
:104CE000DEFC3031029007F8011DB8F10001A8F197
:104CF0000108F2DC02980028EFD1791E0E980870A6
:104D0000307800F0200040F0450007F8020D12A8AE
:104D1000C01B00F107081498007800B1012000EBD7
:104D20000A01019801EBE07105984144401A401EC8
:104D30000590E00306D45B462146179A059800F0DB
:104D40005DF805441498007818B15A4617999047B1
:104D50006D1CE00324D55B462146179A059800F0A8
:104D60004DF805441CE00498002807DBDDE9030149
:104D7000884203DD0098405C179901E017993020C4
:104D80005A469047049805F10105401C049001988B
:104D9000401E019004D12E205A46179990476D1C51
:104DA000BAF10001AAF1010ADDDC05E017F8010BF8
:104DB0005A46179990476D1CB8F10001A8F10108F7
:104DC000F4DC5B462146179A0598ABE62D000000FF
:104DD0002B000000200000002DE9F04104460025D2
:104DE0001E461746880404D405E039462020B04703
:104DF0006D1C641EF9D52846BDE8F0812DE9F0410F
:104E0000044600251E469046C80301D5302700E021
:104E10002027880404D505E041463846B0476D1C7C
:104E2000641EF9D52846BDE8F0810A68531C0B6062
:104E30001070704740210148FDF749B90000024059
:104E400010B500F075FF042209A1FBF77EFA0028D7
:104E500008D109480079302805D0312805D03228FA
:104E600000D1022010BD002010BD012010BD0000A7
:104E700077696669000000009F030020064B012847
:104E800006D0022807D1CAB201211846FDF726B97B
:104E9000CAB20421F9E770470008024010B5054C7A
:104EA0000120A168FFF7EAFF6169BDE81040022018
:104EB00000F002B8000000200B4B01280AD00228A5
:104EC0000BD003280CD004280DD1CAB201211846FA
:104ED000FDF704B9CAB24021F9E7CAB21021F6E7DA
:104EE000CAB20421F3E770470000024010B5202148
:104EF0001348FBF70FFA1248EF21012201704270AC
:104F0000FF218170C1700171417182710024C471EF
:104F1000032101720521417284720921C172014687
:104F2000C8230C220748FEF79DFA074804704FF487
:104F3000FA70FCF7D9FFBDE810400C2000F07CBEF1
:104F400044080020D8020020000000201DE000BF1F
:104F500000BF00BF00BF00BF00BF00BF00BF00BF59
:104F600000BF00BF00BF00BF00BF00BF00BF00BF49
:104F700000BF00BF00BF00BF00BF00BF00BF00BF39
:104F800000BF00BF00BF00BF00BF401EC0B2DED2E6
:104F90007047000070B51449EF2201230A704B706E
:104FA000FF228A70CA700A714A718B710024CC7119
:104FB00007220A720C224A728C72C8720C734B73ED
:104FC00000F115058C73CD73C82310220748FEF736
:104FD00049FA074804704FF4FA70FCF785FFBDE802
:104FE00070400C2000F028BE44080020D8020020A9
:104FF0000000002010B520211348FBF78BF9124860
:10500000EF21012201704270FF218170C170017196
:10501000417182710024C471032101724272847251
:105020000521C1720146C8230C220848FEF71AFA6E
:10503000074804704FF4FA70FCF756FFBDE81040C3
:105040000C2000F0F9BD000044080020D802002028
:105050000000002070B52A2212491348FBF741F9DD
:10506000104C608D104D6885E06AE862206B286303
:10507000092204F1340105F13400FBF732F994F808
:105080003D0085F83D0094F83E0085F83E00206C18
:105090002864606C6864A06CA864E06CE864206DAF
:1050A000286570BD84010020F007002070B505461A
:1050B00020211448FBF72EF91249EF200122087035
:1050C0004A70FF208870C870087148718A71002684
:1050D000CE7104200872022048728D72EC1DCE72CF
:1050E0000C73C8230D220848FEF7BCF90748067068
:1050F0004FF4FA70FCF7F8FEBDE870400C2000F0A9
:105100009BBD000044080020D802002000000020C1
:1051100096B0FDF787F9FEF791FEFEF783FCFEF7E8
:1051200029FCFEF753FC3D483B49002401603C4903
:10513000C0E901144FF48041C0E903414461846136
:10514000C4610462FCF7D6FFFEF7FCFCFEF758FDD5
:10515000FEF794FD344833494FF4E1360160C0E96D
:1051600001640C25C460C0E904458461C461FEF794
:105170004DF82D482D49403001607110C0E90114EF
:10518000C460C0E904458461C461FEF73FF8264865
:10519000274980300160C0E90164C460C0E904456A
:1051A0008461C461FEF732F800F04EF800F0D4FDDF
:1051B000FBF7DEFD1C4801221E498030FEF7E8F8AF
:1051C0001C4919480122C91E4030FEF7E1F81C2293
:1051D00019496846FBF785F80021684600F046F853
:1051E000144C1549241F1C22E0611C3107A8FBF751
:1051F00078F8002107A800F039F80F4920621C2236
:1052000038310EA8FBF76DF800210EA800F02EF83B
:10521000606200F026F8FEE70054004084010020A0
:10522000A0860100001001409802002000480040C4
:1052300000140140040000208C6400080146002096
:10524000842900D0C81C704700210148FDF726BF03
:105250005802002010B500B9012000F0EDFE00203A
:1052600010BD10B500F00EFF002010BD7FB50D463B
:1052700004464169B0F9080081B1A16971B1FFF735
:10528000DDFFD4E905128DE80700D4E900102B46B4
:10529000226901F00AF8039004B070BDFFF7CEFF59
:1052A00003A9CDE90001208A2B4682B2D4E900107F
:1052B00000F0CEFF012801D00020EDE70398EBE7D6
:1052C0002DE9F041184C0F46054666692068001D1F
:1052D00000F0EEFD38B9206890F82C1001208840CD
:1052E000A1698143A161681C07D137B12168BDE87C
:1052F000F0410E48091D00F01FBE20683544B5423C
:105300004560216805D2A068BDE8F041091D00F0A4
:10531000FBBD6068091D00F0F7FD206B854200D2DF
:105320002563BDE8F08100009400002060090020A2
:105330002DE9F041054600F00BFE2E4C2069401C83
:10534000206120682C4F10B1E06940B32DE025604A
:105350002069012829D1002606EB860007EB800092
:1053600000F0C4FD761C072EF6D323488C3000F0E5
:10537000BDFD2148A03000F0B9FD1F48B43000F059
:10538000B5FD1D48C83000F0B1FD1B48DC3000F011
:10539000ADFD19488C3060601430A06005E02068D5
:1053A000E96AC06A884200D82560E06A401CE06271
:1053B000E96A0120A26988401043A06101EB8100E5
:1053C00007EB8000291D00F0B7FD00F0E1FDE0696A
:1053D00000280CD02068E96AC06A884207D20749D1
:1053E0004FF080500860BFF34F8FBFF36F8FBDE861
:1053F000F0810000940000208408002004ED00E00B
:1054000010B5044690F8510058B101280CD002287C
:105410000FD0502080F31188BFF34F8FBFF36F8FF1
:10542000FEE7206B00F0C8FD2046BDE8104000F00C
:10543000C3BD10BD10484FF47051420706D0C01DC7
:105440000D4920F00700411AC1F570510B4A0023A5
:105450000144C2E900030839103A21F00701116044
:105460004B600B600B1AC0E9001393604FF00040D3
:105470005360D0607047000074090020E0000020F5
:10548000144E154CA6F1C8074FF08058DFF84C9029
:1054900012E000BF00F05CFDF068C568281D00F058
:1054A00007FD2069401E2061E068401EE06000F0BA
:1054B0006FFD2846FFF7A4FFE0680028EAD13868AE
:1054C0000128F9D9C9F80080BFF34F8FBFF36F8F60
:1054D000F2E700004C0900209400002004ED00E0F9
:1054E0002DE9F0479A46DDE9098481466FF0030310
:1054F000206B03EB82021044089D20F00706700722
:1055000007D0502080F31188BFF34F8FBFF36F8F08
:10551000FEE723180A5C83F834200A5C12B1401CB1
:105520001028F6D3002784F84370072D00D30625F2
:10553000E562C4E91157201D00F0E3FC04F11800F6
:1055400000F0DFFC2461C5F107006462A061E7643C
:1055500084F8507052464946304600F0BFF820604B
:10556000B8F1000F01D0C8F80040BDE8F087000096
:1055700030B5114900E011460A688242FBD34B68FE
:105580005C18844203D14068184448600846436868
:105590001C18944209D1084C103C2468A24209D03E
:1055A00052681A4442600A6812680260814200D060
:1055B000086030BD0460F9E7E0000020064841685B
:1055C000096829B14168C968C968496801637047B9
:1055D0004FF0FF31FAE700009400002008484068CF
:1055E000401C4FF0500080F3118804D0BFF34F8F60
:1055F000BFF36F8FFEE7BFF34F8FBFF36F8FFEE7F1
:10560000E80000202DE9F0410546002700F070FD7C
:10561000314E306808B9FFF70DFFF06805424BD1F5
:10562000C5B3083568070ED005F00700C0F10800C3
:105630000544680707D0502080F31188BFF34F8FCF
:10564000BFF36F8FFEE72DB37068854234D82248D0
:10565000103001460C6801E020460C466168A94202
:1056600002D221680029F7D131688C4224D0076822
:105670002168016060680837411B10290FD9601943
:10568000420708D0502080F31188BFF34F8FBFF33B
:105690006F8FFEE710E041606560FFF769FF6168AA
:1056A0007068401A7060B268904200D2B060F068D2
:1056B00001430020C4E9000100F086FE780707D00E
:1056C000502080F31188BFF34F8FBFF36F8FFEE739
:1056D0003846BDE8F0810000D000002010B5031F5F
:1056E0004FF080741C601B1F21F001011960191F0D
:1056F000044B0B6014390A60091F6FF00202443832
:105700000A6010BDDD5500081CB51C4800F05CF8AF
:105710001A4842780178CDE90012C378827818A13E
:105720001C48FEF7F5FE6420FCF7DEFB00F082F873
:105730000246124818A1001DFEF7EAFE00F058F8D4
:105740000246144817A11130FEF7E2FE00F066F899
:105750000246104816A11F30FEF7DAFE4FF47A70A9
:1057600000F074F80246054814A11230FEF7D0FE8E
:10577000BDE81C406420FCF7B7BB000028000020F7
:1057800044485431312025642E25642025642E257B
:10579000640D0A00580300205049522025640D0A68
:1057A000000000004741532025640D0A000000005E
:1057B0004C494748542025640D0A00005241494E87
:1057C0002025640D0A00000010B504460748FEF7C6
:1057D000BDFA002808D1054881782170C178617030
:1057E0000178A1704078E07010BD000055000020E5
:1057F00010B50848FCF7D2FA64210648FCF77CFA99
:105800000448FCF703FA044C20800248FCF73CFBF8
:10581000208810BDF40000205A00002010B520217F
:105820000348FCF74FFC08B1002010BD012010BD5B
:105830000010024010B520210348FCF743FC08B1DA
:10584000002010BD012010BD0010024010B504461C
:105850000748FCF7A3FA4FF47A710548FCF74CFAB5
:105860000348FCF7D3F981B202480180C8B210BDE9
:10587000F4000020700000202DE9F047AC4C00221D
:1058800001212046FCF72AFC0122AA4ED702394604
:105890003046FCF723FC4FF40049012249463046CC
:1058A000FCF71CFCDFF89082012280214046FCF7C7
:1058B00015FCA24D08212846FCF704FC00287DD0E9
:1058C00040212046FCF7FEFB002878D0102120461E
:1058D000FCF7F8FB002873D004212046FCF7F2FB0C
:1058E00000286ED00A20FCF7FFFA0122114620465C
:1058F000FCF7F4FB002239463046FCF7EFFB0122AF
:1059000049463046FCF7EAFB012280214046FCF77D
:10591000E5FB08212846FCF7D5FB00287CD0402178
:105920002046FCF7CFFB002877D010212046FCF75B
:10593000C9FB002872D004212046FCF7C3FB0028D5
:105940006DD00A20FCF7D0FA012211462046FCF760
:10595000C5FB0122BA4639463046FCF7BFFB0022A0
:1059600049463046FCF7BAFB0122802147464046B3
:10597000FCF7B4FB08212846FCF7A4FB00286FD0F5
:1059800040212046FCF79EFB00286AD010212046CB
:10599000FCF798FB002875D004212046FCF792FB09
:1059A000002870D00A20FCF79FFA012211462046F9
:1059B000FCF794FB01225146304603E030E037E02B
:1059C0003EE045E0FCF78AFB012249463046FCF701
:1059D00085FB002280213846FCF780FB0821284601
:1059E000FCF770FB00286FD040212046FCF76AFBD3
:1059F00000286AD010212046FCF764FB002875D0EF
:105A000004212046FCF75EFB002870D00A20FCF73A
:105A10006BFA2020BDE8F08724E02BE034E03BE087
:105A200008212846FCF74EFB0028F9D03120F1E789
:105A300040212046FCF746FB0028F9D03220E9E758
:105A400010212046FCF73EFB0028F9D03320E1E787
:105A500004212046FCF736FB0028F9D04120D9E785
:105A600022E029E008212846FCF72CFB0028F9D089
:105A70003420CFE740212046FCF724FB0028F9D052
:105A80003520C7E722E029E010212046FCF71AFB69
:105A90000028F9D03620BDE704212046FCF712FB90
:105AA0000028F9D04220B5E708212846FCF70AFB78
:105AB0000028F9D03720ADE740212046FCF702FB53
:105AC0000028F9D03820A5E712E019E0102120467F
:105AD000FCF7F8FA0028F9D039209BE7042120468A
