:020000040800F2
:1000000070040020A10100088B110008190E0008DF
:1000100089110008AD0200086D1200080000000000
:10002000000000000000000000000000C5110008F2
:10003000AF020008000000008D110008C711000881
:10004000BB010008BB010008BB010008BB010008A0
:10005000BB010008BB010008BB010008BB01000890
:10006000BB010008BB010008BB010008BB01000880
:10007000BB010008BB010008BB010008BB01000870
:10008000BB010008BB010008BB010008BB01000860
:10009000BB010008BB010008BB010008BB01000850
:1000A000BB010008BB010008BB010008BB01000840
:1000B000BB010008BB010008BB010008BB01000830
:1000C000BB010008BB010008BB010008BB01000820
:1000D000BB010008BB010008BB010008BB01000810
:1000E000BB010008BB010008BB010008BB01000800
:1000F000BB010008BB010008BB010008BB010008F0
:10010000BB010008BB010008BB010008BB010008DF
:10011000BB010008BB010008BB010008BB010008CF
:10012000BB010008BB010008BB010008BB010008BF
:10013000BB010008BB010008BB010008BB010008AF
:10014000BB010008BB010008BB010008BB0100089F
:10015000BB010008BB010008BB010008BB0100088F
:10016000BB010008BB010008BB010008BB0100087F
:10017000BB010008BB010008BB0100080000000033
:10018000BB010008BB010008DFF810D000F07CF8CC
:100190000048004721190008AFF3008070040020D8
:1001A0000648804706480047FEE7FEE7FEE7FEE711
:1001B000FEE7FEE7FEE7FEE7FEE7FEE75112000876
:1001C000890100082DE9F05F0546002092469B4614
:1001D00088460646814640241BE02846414647465D
:1001E000224600F041F853465A46C01A914110D3B6
:1001F00011461846224600F028F82D1A67EB010830
:100200004F4622460120002100F01FF817EB00099D
:100210004E41201EA4F10104DFDC484631462A4647
:100220004346BDE8F09FD2B201E000F8012B491E21
:10023000FBD270470022F6E710B513460A46044683
:100240001946FFF7F0FF204610BD202A04DB203AB4
:1002500000FA02F1002070479140C2F1200320FA19
:1002600003F3194390407047202A04DB203A21FA17
:1002700002F00021704721FA02F3D040C2F12002BF
:100280009140084319467047064C074D06E0E06868
:1002900040F0010394E8070098471034AC42F6D3CD
:1002A000FFF776FFA01C0008C01C0008FEE770479F
:1002B00070B5044600F0F4F80546601C02D004480E
:1002C0000078044400F0ECF8401BA042FAD370BD63
:1002D000000000202DE9F84F00224FF0010803250F
:1002E0004FF00F0E0B6808FA02F42340A3426ED1C0
:1002F0004E68012E05D0022E03D0112E01D0122EF1
:1003000012D186684FEA420C05FA0CF7BE43CF685B
:1003100007FA0CF7374387604668A6430C79C4F3A5
:100320000014944034434460C668570005FA07FC43
:100330008C6826EA0C06BC403443C4604C68022C2E
:1003400001D0122C13D1D40800EB8404A346D4F8B6
:10035000209054074FEAD46A0EFA0AF629EA0609F1
:100360000E6906FA0AF646EA0906CBF82060066826
:100370000C7926EA0C0604F00304BC403443046004
:100380004C68E40065D5364C266846F48046266005
:10039000246822F0030604F480440094314C344471
:1003A000A446D4F808489607370F0EFA07F6B44368
:1003B0002D4EB04201D1002624E02C4EB04201D196
:1003C00001261FE02A4EB04202D102261AE040E088
:1003D000284EB04201D1032614E0274EB04201D18D
:1003E00004260FE0254EB04201D105260AE0244E36
:1003F000B04201D1062605E0224EB04201D10726C7
:1004000000E00826BE402643CCF808681E4E34683B
:100410004F689C43FF0300D51C4334601A4C241DD5
:1004200026684F689E43BF0300D51E432660164EC4
:10043000083634684F689C43FF0200D51C43346083
:10044000114E0C3634684F689C43BF0200D51C43E4
:100450003460521C102AFFF445AFBDE8F88F00004D
:1004600044380240003001400000024000040240D5
:1004700000080240000C024000100240001402403C
:1004800000180240001C0240003C01400069084086
:1004900000D0012070470AB1816170470904FBE771
:1004A00001488068704700000000002070B504001B
:1004B00025D094F83D00002520B984F83C50204612
:1004C00000F04EF9242084F83D002068016821F0F6
:1004D000010101602068016841F400410160206869
:1004E000016821F40041016000F094FA4D4A61680E
:1004F000914201D84C4900E04C49884201D2012088
:1005000070BD4B492368B0FBF1F15E6826F03F06F1
:100510000E435E606368934206D94FF49673594365
:100520004FF47A73B1FBF3F12368491C1E6A26F07D
:100530003F06314319626168914210D84900401E5C
:10054000B0FBF1F2521CC2F30B02042A01D20420C8
:1005500022E0B0FBF1F0401CC0F30B001CE0A268ED
:10056000F2B301EBC10303EB0116431EB3FBF6F339
:100570005B1C43F480431B0549D092B301EBC102DD
:1005800002EB0111401EB0FBF1F0401CC0F30B0068
:1005900040F4804040F400402168CA694CF6FF7383
:1005A0009A431043C861D4E90710014320680268E8
:1005B00022F0C00211430160D4E903010143206825
:1005C000826848F2FF339A4311438160D4E9050100
:1005D00008432168CA6822F0FF021043C86001E0A6
:1005E0000EE016E02068016841F001010160256419
:1005F000202084F83D00256384F83E50002070BD23
:1006000001EB4106431EB3FBF6F35B1CB3E701208D
:10061000C2E701EB4101401EB0FBF1F0401CC0F30A
:100620000B00B7E7A086010080841E0000093D0092
:1006300040420F002DE9F84F1F4690468A46044677
:10064000DDF82890FFF72CFF054694F83D002028A0
:100650007FD11923012240492046009500F068FC13
:10066000002876D194F83C00012872D0012084F84B
:100670003C0020680168C90703D1016841F001010D
:1006800001602068016821F400610160212084F884
:100690003D00102084F83E0000262664C4F8248023
:1006A0006785608D20852D48E0622B464A4651467D
:1006B000204600F0C9FB90B920684169806900902C
:1006C00036E02A464946204600F0B1FC50B1206C85
:1006D000042804D12068016841F400710160012000
:1006E000BDE8F88F606A216800780861606A401C84
:1006F0006062618D491E6185218D491E89B2218507
:1007000022685369DB435B070BD451B10078106159
:10071000606A401C6062608D401E6085208D401EB6
:1007200020852A464946204600F0DCFB0028CED131
:10073000208D0028C5D154F83D0B016841F40071AB
:100740000160202004F81E09E67766770020C7E7DD
:10075000FFE70220C4E70000020010000000FFFFD6
:1007600010B586B0044614216846FFF763FD1349AF
:100770002068884220D11248016841F002010160DE
:100780000068694600F002000590C0200090122029
:100790000190012002900320039004200490094856
:1007A000FFF798FD06481030016841F40011016020
:1007B000006800F40010059006B010BD0054004021
:1007C0003038024000040240024881680278114437
:1007D00081607047000000200B4810B5016841F4AB
:1007E00000710160016841F480610160016841F4B9
:1007F00080710160032000F061F8002000F006F82D
:1008000000F024F8002010BD003C024070B50D4DF2
:1008100004464FF47A712878B1FBF0F00A49096870
:10082000B1FBF0F000F0E4FA48B9102C07D2002236
:100830002146501E00F022F800206C6070BD01209F
:1008400070BD0000000000200C0000200A4808B520
:10085000016841F480410160006800F4804000902C
:100860000548001F016841F080510160006800F0F8
:100870008050009008BD000044380240F0B40E4B98
:100880001B680C46C3F30223C3F10705042D00D9EE
:100890000425191D072901D2002300E0DB1E0126D3
:1008A00006FA05F1491E214099409E40761E1640E9
:1008B0003143F0BC00F0DBBC0CED00E0064900F079
:1008C000070208684FF6FF03184040EA0220034A77
:1008D00010430860704700000CED00E00000FA05CE
:1008E0002DE9F0470E46050065D0DFF81481D8F8F1
:1008F0000000F7B200F00F00B04207D288F8007095
:10090000D8F8000000F00F00B04254D128683D4CE8
:10091000810712D5400703D5206840F4E0502060DD
:100920002878000703D5206840F4604020602068E4
:10093000A96820F0F000084320602878C0072DD077
:10094000304968680839012812D0022813D00328DA
:1009500011D00968890700292DDA216821F00301E7
:1009600001432160FFF79CFD814641F2883A0EE089
:1009700009688903EFE709688901ECE7FFF790FD53
:10098000A0EB0901514502D90320BDE8F08720689A
:10099000696800F00C00B0EB810FEFD1D8F80010BF
:1009A000404601F00F01B14207D90770006800F01E
:1009B0000F00B04201D00120E7E72878400705D5B5
:1009C0002068E96820F4E050084320602878000798
:1009D00006D52068296920F4604040EAC100206003
:1009E00000F028F82168084AC1F30311515CC8409F
:1009F0000649086006480068FFF708FF0020C4E7C2
:100A0000003C024008380240881C00080C0000200E
:100A1000040000200448054900680968044AC1F33D
:100A20008221515CC84070470C0000200838024009
:100A3000981C0008154810B5006810F00C02144806
:100A400013D04110042A0FD0082A0ED10F4C241FB6
:100A50002268236802F03F025B0207D52068C0F3DA
:100A60008810A0FB010106E0084610BD2168C1F313
:100A70008811A1FB00010023FFF7A4FB2168C1F34B
:100A80000141491C4900B0FBF1F010BD083802409B
:100A90000024F4002DE9F84F04006ED02078DFF830
:100AA0003C93C007A9F104054AD009F1040001688C
:100AB000C1F38101012908D00068C0F38100022838
:100AC0000AD1D9F80000400206D52868800337D53E
:100AD00060680028E1D033E06068B0F5803F10D056
:100AE000B0F5A02F286810D020F480302860286846
:100AF00020F4802028606068A8B1FFF7D1FC06468A
:100B00000DE0286840F48030F4E740F4802028604D
:100B1000F7E700BFFFF7C4FC801B642873D8286880
:100B20008003F7D50CE0FFF7BBFC064605E000BFED
:100B3000FFF7B6FC801B6428F0D828688003F7D440
:100B40002078DFF89C8280074FF0000A3ED5A3484A
:100B5000001D016811F00C0F08D00068C0F381007F
:100B600002280BD1D9F80000400207D4286880077A
:100B700016D5E068012800D112E02BE1E068B8B199
:100B80000120C8F80000FFF78BFC064605E000BF17
:100B9000FFF786FC801B0228C0D828688007F7D59D
:100BA0002868216920F0F80040EAC10028600DE0C3
:100BB000C8F800A0FFF774FC064604E0FFF770FCDD
:100BC000801B02281FD828688007F7D420780007E8
:100BD00022D5824E83486169703671B1012101606E
:100BE000FFF75EFC074604E0FFF75AFCC01B022833
:100BF00009D830688007F7D50EE0C0F800A0FFF7ED
:100C00004FFC074605E082E0FFF74AFCC01B0228C4
:100C10007DD830688007F7D42078400768D5DFF8A2
:100C2000BCB100270BF13C0BDBF80000C0000BD47B
:100C3000DBF8001041F08051CBF80010DBF8000029
:100C4000012700F080500090674E3068C00510D436
:100C5000306840F480703060FFF722FC009005E0BF
:100C6000FFF71EFC0099401A022850D83068C005D2
:100C7000F6D55A4EA0686C3601280FD0052830688A
:100C800010D020F001003060306820F004003060A7
:100C9000A068B8B1FFF704FC00900FE0306840F0A6
:100CA0000100F4E740F004003060F7E7FFF7F8FBDD
:100CB0000099411A41F28830814266D83068800735
:100CC000F4D50EE0FFF7ECFB009007E0FFF7E8FB40
:100CD0000099411A41F28830814256D83068800725
:100CE000F4D42FB1DBF8001021F08051CBF80010C4
:100CF000A069C8B33949091D0968C1F381010229F6
:100D00004AD00228504607D0C8F8600000E03CE016
:100D1000FFF7C6FB04463BE04746C8F86000FFF714
:100D2000BFFB064605E000BFFFF7BAFB801B0228A9
:100D30002BD828688001F7D4D4E907010843A16AB9
:100D40002A4A490802EB0141626A41EA82110843DA
:100D500094F82C1040EA0161C9F8001001203866AF
:100D6000FFF79EFB044606E036E000BFFFF798FB66
:100D7000001B022809D828688001F7D52CE000BFA5
:100D8000FFF78EFB001B022802D90320BDE8F88F75
:100D900028688001F4D41FE00128F7D0D9F80000BA
:100DA000E26900F48001914214D1226A00F03F010F
:100DB00091420FD147F6C071626A0140914209D158
:100DC000A26A00F44031914204D1E16A00F07060FF
:100DD000884201D00120D9E70020D7E7043802403B
:100DE00000004742800E4742007000400000FFFFB5
:100DF00010B5401EB0F1807F01D3012010BD4FF02F
:100E0000E02460610F21601700F031FA0020A0613A
:100E100007202061002010BDFEE701684A69D24327
:100E200052050FD46FF480624A61002140F8301FF0
:100E3000202242738173026942F00402026101734D
:100E40000120704700207047F8B50446C06A1E466E
:100E50000D461746082807D0012805D010F5803F19
:100E600002D0206B122804D12068016841F48071FF
:100E70000160134600224FF001112046009600F059
:100E800057F840B120680068C00502D54FF40070E3
:100E900020640320F8BD2069B0F5804F0ED00620F5
:100EA000216800EAD51040F0F000086133463A4668
:100EB0000B49204600F070F878B902E005F0FE001A
:100EC00000E0E8B221680861054933463A46891FC7
:100ED000204600F061F80028DCD00120F8BD0000B9
:100EE0000800010070B516460D4604460DE0204688
:100EF000FFF793FF08B1012070BD681C05D0FFF714
:100F0000CFFA801BA84207D835B120684069C0439A
:100F10004007ECD4002070BD002044F8300F2021A1
:100F20006173A073216941F0200121612073E2E720
:100F30002DE9F0471E4690460D460446C1F307478B
:100F4000DDF8209008E0701C06D0FFF7A9FAA0EBAE
:100F50000900B0420FD876B12068012F18D08069FF
:100F600025EA00000004000C14D000214145EAD01D
:100F70000020BDE8F087002044F8300F2021617385
:100F8000A073216941F02001216120730120F0E765
:100F90004069E5E70121E9E72DE9F0479A469146E6
:100FA0000E46044600254FF02008C1F3074725E010
:100FB00020684069C043400514D42068016841F4AA
:100FC0000071016021686FF480604861256384F8D6
:100FD0003D8084F83E50206C40F00400206484F88A
:100FE0003C501FE0B9F1FF3F08D0FFF759FAA0EBE2
:100FF0000A0149450CD8B9F1000F09D02068012F2A
:1010000013D0806926EA00000004000C0BD0CFE763
:1010100044F8305F84F80D80A573206940F020000B
:10102000206125730120BDE8F0874069EAE770B5CB
:1010300016460D4604460DE02046FFF7EEFE08B1C9
:10104000012070BD681C05D0FFF72AFA801BA8425A
:1010500007D835B120684069C0430006ECD40020B1
:1010600070BD002044F8300F20216173A073216906
:1010700041F0200121612073E2E700002DE9F047F3
:1010800086B014216846FFF7D5F83A480024016875
:1010900041F080010160016801F080010591016863
:1010A00041F004010160016801F00401059101684B
:1010B00041F001010160016801F001010591016841
:1010C00041F002010160016801F00201059101682F
:1010D00041F0080101600068DFF89C8000F0080022
:1010E0000590002240214046FFF7D5F901228021DA
:1010F0004046FFF7D0F9DFF884904FF40046002215
:1011000031464846FFF7C7F9DFF874A04FF4E067AF
:10111000002239465046FFF7BEF90125CDE90054BB
:10112000694618480294FFF7D5F8C020CDE90005BC
:101130000320CDE9024069464046FFF7CBF8009610
:10114000CDE90154694648460394FFF7C3F8009778
:10115000CDE90154694650460394FFF7BBF84FF4BC
:10116000F0408DE8310069465046FFF7B3F806B00D
:10117000BDE8F08730380240000002400004024021
:10118000000C024000080240FEE770477047000074
:1011900010B501210948FFF779F9014608480129EE
:1011A00005D000228021FFF776F9002010BD012232
:1011B0008021FFF770F9012010BD000000080240F7
:1011C000000002407047FFF7FFBA000030B593B04F
:1011D00030216846FFF72EF814210CA8FFF72AF8F3
:1011E00019480025016841F080510160006800F055
:1011F000805011901548016841F4804101600068F9
:10120000022400F48040119001200090000401901D
:101210008001CDE9064008AA0420A82182E8130035
:101220000B906846FFF736FC0CA90F2081E83100CF
:101230004FF4A0500F90E002109005210CA8FFF78A
:101240004FFB13B030BD000040380240007000403A
:101250000548016841F47001016003494FF00060E6
:10126000803908607047000088ED00E0FEE709075C
:10127000090E002804DB00F1E02080F8001470471C
:1012800000F00F0000F1E02080F8141D704702E02C
:1012900008C8121F08C1002AFAD170477047002001
:1012A00001E001C1121F002AFBD170472DE9F04176
:1012B00000F07CFB794C012604F10805E0704FF446
:1012C0007A78202851D0217879B92870C72000F089
:1012D000DDFA287800F0FAFA4046FEF7E9FFC72069
:1012E00000F0D4FA6EA000F011FB2078012810D194
:1012F000E0786870C82000F0C9FA687800F0E6FA73
:101300004046FEF7D5FFC82000F0C0FA64A000F008
:10131000FDFA2078022810D1E078A870C92000F0EA
:10132000B5FAA87800F0D2FA4046FEF7C1FFC9200E
:1013300000F0ACFA5AA000F0E9FA2078032811D1A5
:10134000E078E870CA2000F0A1FAE87800F0BEFA70
:101350004046FEF7ADFFCA2000F098FA50A000F01A
:10136000D5FA66702078401C20706078002701282C
:1013700072D14A482978001D0278914245D1697896
:101380004278914241D1A978827891423DD1E97861
:10139000C078814239D100F031FA802000F076FA2D
:1013A00040A000F0B3FA4046FEF782FF00F026FAB4
:1013B000802000F06BFA3FA000F0A8FAC02000F0F7
:1013C00065FA3FA000F0A2FA942000F05FFA3FA077
:1013D00000F09CFAD42000F059FA41A000F096FAEF
:1013E0001420FEF765FF27706770A67000F0DEFA24
:1013F000E070442833D0422803D0A0780028F5D1EB
:101400002AE000F09DF8A77026E000F0F7F98020B0
:1014100000F03CFA38A000F079FA45464046FEF765
:1014200047FF00F0EBF9802000F030FA36A000F022
:101430006DFA2846FEF73CFF00F0E0F9802000F04E
:1014400025FA35A000F062FAC72000F01FFA36A096
:1014500000F05CFA27706770E07844281BD100F038
:10146000CDF9802000F012FA31A000F04FFA40468A
:10147000FEF71EFF00F0C2F9802000F007FA26A058
:1014800000F044FAC72000F001FA27A000F03EFA6D
:1014900027706770A770BDE8F08100001000002081
:1014A0002A00000020202020436F7272656374219F
:1014B00000000000202020204F70656E6564210030
:1014C000413D456E726F6C6C00000000423D436808
:1014D000616E67652050617373776F7264000000FE
:1014E000433D44656C6574652020202020443D43C5
:1014F0006C6F73650000000020202020496E636F30
:1015000072726563742100002020202054727920BB
:10151000416761696E21000020456E74657220503C
:10152000617373776F72640023232323000000002C
:1015300020202020202020436C6F73656421000050
:101540002DE9F84F00F05AF9802000F09FF989A0AA
:1015500000F0DCF9C72000F099F98CA000F0D6F972
:101560008CA00125D0E9014A0027DFF834824FF42E
:101570007A7B4FF4FA69066800F018FA88F80300DD
:10158000442872D020284DD01420FEF791FE012D62
:101590000ED0022D11D0032D18D0042D1BD0052DF7
:1015A00043D0062D51D0072D60D0082D6ED037E0E6
:1015B00098F8030060F30F263BE098F8030060F30F
:1015C000174646E000F062F976A027E098F803009D
:1015D00060F31F664EE098F80300009060F3070484
:1015E000CA2000F053F9009800F070F95846FEF751
:1015F0005FFECA2000F04AF96AA000F087F9584659
:10160000FEF756FE00F0FAF8802000F03FF966A0E1
:1016100000F07CF9C72000F039F95CA000F076F901
:101620006D1CEDB2012F48D07BE098F8030060F309
:101630000F240090C72000F029F9009800F046F927
:101640005846FEF735FEC720BCE798F8030060F364
:1016500017440090C82000F019F9009800F036F9FE
:101660005846FEF725FEC820ACE75DE098F8030079
:1016700060F31F640090C92000F008F9009800F0A2
:1016800025F95846FEF714FEC9209BE798F8035049
:10169000504665F307008246CA2000F0F7F8284656
:1016A00000F014F95846FEF703FECA2000F0EEF8E9
:1016B0003CA000F02BF901270925C6F30720C4F34D
:1016C0000721884232D1C6F30740C4F3074188425C
:1016D0002CD1300E210E884228D12106B1EB0A6FA1
:1016E00024D100F08BF8802000F0D0F834A000F076
:1016F0000DF92B48310A001D0170310C4170310E7B
:101700008170C4704846FEF7D3FD802000F0BEF81B
:101710002DA000F0FBF8C72000F0B8F81BA000F0E7
:10172000F5F8092D7FF428AFBDE8F88F01250027D3
:1017300000F064F8802000F0A9F827A000F0E6F897
:101740004846FEF7B5FD802000F0A0F826A000F086
:10175000DDF84846FEF7ACFD802000F097F805A0C4
:1017600000F0D4F8C72000F091F808A000F0CEF8FF
:1017700002E70000456E746572206E657720706127
:101780007373776F72643A200000000023232323D1
:101790000000000035202020202020202000000014
:1017A000100000202A000000436F6E6669726D20F1
:1017B0006E65772070617373776F7264000000004C
:1017C000446F6E6521200000456E74657220506183
:1017D0007373776F726420004469646E2774206DA0
:1017E0006174636821200000547279204167616947
:1017F0006E212020202020200000000010B50020B5
:1018000000F044F80024202000F060F8641C642CF0
:10181000F9DB10BD10B53220FEF74AFD302000F094
:1018200035F80520FEF744FD302000F02FF80120A8
:10183000FEF73EFD302000F029F80A20FEF738FDC3
:10184000202000F023F80A20FEF732FD282000F0C7
:101850001DF80120FEF72CFD082000F017F80120EC
:10186000FEF726FD012000F011F80120FEF720FD13
:101870000120FEF71DFD062000F008F80120FEF70C
:1018800017FDBDE810400C20AFF300801CB500F040
:10189000F00141F00C028DF8042041F00801000134
:1018A0008DF8051040F00C018DF8061040F008008E
:1018B0008DF8070064200090042301AA4E210248FD
:1018C000FEF7B8FE1CBD00001C0000201CB500F097
:1018D000F00141F00D028DF8042041F009010001F2
:1018E0008DF8051040F00D018DF8061040F009004C
:1018F0008DF8070064200090042301AA4E210248BD
:10190000FEF798FE1CBD00001C00002010B5044628
:1019100002E0641CFFF7DAFF20780028F9D110BD3F
:10192000FEF75AFFFFF752FCFFF7A8FB16481549D0
:101930004FF4804201601549416000218160C0E997
:10194000031241618161C1610162FEF7AFFDC820F0
:10195000FEF7AEFCFFF75EFF8020FFF797FF0CA0BD
:10196000FFF7D4FFC720FFF791FF0EA0FFF7CEFFD0
:101970004FF47A70FEF79CFCFFF70AFCFFF796FC29
:10198000FAE70000005400401C000020A08601007F
:10199000456E7465722070617373776F72643A304C
:1019A0002D00000023232323000000002DE9F05F19
:1019B000B34C4FF48068002241462046FEF76BFD91
:1019C0004FF4007A012251462046FEF764FD4FF4A1
:1019D000807B012259462046FEF75DFD0122D1039E
:1019E000A848FEF758FD4FF4804529462046FEF7EB
:1019F0004DFD00287ED06F1039462046FEF746FD8B
:101A0000002878D0A61431462046FEF73FFD002876
:101A100072D04FF4006949462046FEF737FD002892
:101A20006BD00A20FEF744FC012241462046FEF717
:101A300032FD002251462046FEF72DFD0122594677
:101A40002046FEF728FD0122D1038E48FEF723FD34
:101A500029462046FEF71AFD00287DD0394620464B
:101A6000FEF714FD002878D031462046FEF70EFD23
:101A7000002873D049462046FEF708FD00286ED0A6
:101A80000A20FEF715FC012291022046FEF703FD15
:101A9000012251022046FEF7FEFC0022A11520463D
:101AA000FEF7F9FCDFF8DCA14FF4004B01225946A8
:101AB0005046FEF7F0FC29462046FEF7E7FC0028DA
:101AC00074D0B84639462046FEF7E0FC00286ED0B8
:101AD00031462046FEF7DAFC002869D04F464946D9
:101AE0002046FEF7D3FC002873D00A20FEF7E0FB67
:101AF000012203E039E040E047E04EE09102204659
:101B0000FEF7C9FC012251022046FEF7C4FC012267
:101B100011022046FEF7BFFC002259465046FEF750
:101B2000BAFC29462046FEF7B1FC002874D0454691
:101B300041462046FEF7AAFC00286ED031462046DA
:101B4000FEF7A4FC002869D039462046FEF79EFC2B
:101B5000002874D00A2003E02BE032E03AE041E0B4
:101B6000FEF7A6FB2020BDE8F09F29462046FEF7A1
:101B70008DFC0028F9D03120F5E739462046FEF7E4
:101B800085FC0028F9D03220EDE731462046FEF7EB
:101B90007DFC0028F9D03320E5E74D462946204654
:101BA000FEF774FC0028F9D04120DCE723E02AE0AE
:101BB00035E029462046FEF769FC0028F9D034209C
:101BC000D1E739462046FEF761FC0028F9D03520E0
:101BD000C9E72CE031462046FEF758FC0028F9D032
:101BE0003620C0E74D4629462046FEF74FFC002828
:101BF000F9D04220B7E729462046FEF747FC0028E7
:101C0000F9D03720AFE7454629462046FEF73EFC8F
:101C10000028F9D03820A6E712E019E020E031468C
:101C20002046FEF733FC0028F9D039209BE73946DF
:101C30002046FEF72BFC0028F9D0432093E717E05D
:101C400029462046FEF722FC0028F9D02A208AE700
:101C500029462046FEF71AFC0028F9D0302082E7FA
:101C600031462046FEF712FC0028F9D023207AE7FF
:101C700039462046FEF70AFC0028F9D0442072E7D6
:101C8000000C0240000402400000000000000000C0
:101C90000102030406070809000000000102030412
:101CA000C01C0008000000201C0000008E1200086C
:101CB000DC1C00081C000020540400009E120008D8
:101CC0000100000010000000000000000024F400EB
:0C1CD000000000003132333420202020BE
:040000050800018965
:00000001FF
